Archive member included to satisfy reference by file (symbol)

c:/mounriver/mounriver_studio/toolchain/risc-v embedded gcc/bin/../lib/gcc/riscv-none-embed/8.2.0/../../../../riscv-none-embed/lib/rv32imac/ilp32\libprintfloat.a(printfloat.o)
                              ./User/main.o (printf)
c:/mounriver/mounriver_studio/toolchain/risc-v embedded gcc/bin/../lib/gcc/riscv-none-embed/8.2.0/../../../../riscv-none-embed/lib/rv32imac/ilp32\libprintf.a(wchprintf.o)
                              ./User/main.o (puts)
c:/mounriver/mounriver_studio/toolchain/risc-v embedded gcc/bin/../lib/gcc/riscv-none-embed/8.2.0/rv32imac/ilp32\libgcc.a(_udivdi3.o)
                              c:/mounriver/mounriver_studio/toolchain/risc-v embedded gcc/bin/../lib/gcc/riscv-none-embed/8.2.0/../../../../riscv-none-embed/lib/rv32imac/ilp32\libprintfloat.a(printfloat.o) (__udivdi3)
c:/mounriver/mounriver_studio/toolchain/risc-v embedded gcc/bin/../lib/gcc/riscv-none-embed/8.2.0/rv32imac/ilp32\libgcc.a(_umoddi3.o)
                              c:/mounriver/mounriver_studio/toolchain/risc-v embedded gcc/bin/../lib/gcc/riscv-none-embed/8.2.0/../../../../riscv-none-embed/lib/rv32imac/ilp32\libprintfloat.a(printfloat.o) (__umoddi3)
c:/mounriver/mounriver_studio/toolchain/risc-v embedded gcc/bin/../lib/gcc/riscv-none-embed/8.2.0/rv32imac/ilp32\libgcc.a(muldf3.o)
                              ./PikaScript/pikascript-lib/PikaStdLib/PikaStdLib_MemChecker.o (__muldf3)
c:/mounriver/mounriver_studio/toolchain/risc-v embedded gcc/bin/../lib/gcc/riscv-none-embed/8.2.0/rv32imac/ilp32\libgcc.a(subdf3.o)
                              c:/mounriver/mounriver_studio/toolchain/risc-v embedded gcc/bin/../lib/gcc/riscv-none-embed/8.2.0/../../../../riscv-none-embed/lib/rv32imac/ilp32\libprintfloat.a(printfloat.o) (__subdf3)
c:/mounriver/mounriver_studio/toolchain/risc-v embedded gcc/bin/../lib/gcc/riscv-none-embed/8.2.0/rv32imac/ilp32\libgcc.a(floatsidf.o)
                              ./PikaScript/pikascript-lib/PikaStdLib/PikaStdLib_MemChecker.o (__floatsidf)
c:/mounriver/mounriver_studio/toolchain/risc-v embedded gcc/bin/../lib/gcc/riscv-none-embed/8.2.0/rv32imac/ilp32\libgcc.a(fixdfdi.o)
                              c:/mounriver/mounriver_studio/toolchain/risc-v embedded gcc/bin/../lib/gcc/riscv-none-embed/8.2.0/../../../../riscv-none-embed/lib/rv32imac/ilp32\libprintfloat.a(printfloat.o) (__fixdfdi)
c:/mounriver/mounriver_studio/toolchain/risc-v embedded gcc/bin/../lib/gcc/riscv-none-embed/8.2.0/rv32imac/ilp32\libgcc.a(floatdidf.o)
                              c:/mounriver/mounriver_studio/toolchain/risc-v embedded gcc/bin/../lib/gcc/riscv-none-embed/8.2.0/../../../../riscv-none-embed/lib/rv32imac/ilp32\libprintfloat.a(printfloat.o) (__floatdidf)
c:/mounriver/mounriver_studio/toolchain/risc-v embedded gcc/bin/../lib/gcc/riscv-none-embed/8.2.0/rv32imac/ilp32\libgcc.a(addsf3.o)
                              ./PikaScript/pikascript-core/PikaVM.o (__addsf3)
c:/mounriver/mounriver_studio/toolchain/risc-v embedded gcc/bin/../lib/gcc/riscv-none-embed/8.2.0/rv32imac/ilp32\libgcc.a(divsf3.o)
                              ./PikaScript/pikascript-core/PikaVM.o (__divsf3)
c:/mounriver/mounriver_studio/toolchain/risc-v embedded gcc/bin/../lib/gcc/riscv-none-embed/8.2.0/rv32imac/ilp32\libgcc.a(eqsf2.o)
                              ./PikaScript/pikascript-core/PikaVM.o (__eqsf2)
c:/mounriver/mounriver_studio/toolchain/risc-v embedded gcc/bin/../lib/gcc/riscv-none-embed/8.2.0/rv32imac/ilp32\libgcc.a(gesf2.o)
                              ./PikaScript/pikascript-core/PikaVM.o (__gtsf2)
c:/mounriver/mounriver_studio/toolchain/risc-v embedded gcc/bin/../lib/gcc/riscv-none-embed/8.2.0/rv32imac/ilp32\libgcc.a(lesf2.o)
                              ./PikaScript/pikascript-core/PikaVM.o (__ltsf2)
c:/mounriver/mounriver_studio/toolchain/risc-v embedded gcc/bin/../lib/gcc/riscv-none-embed/8.2.0/rv32imac/ilp32\libgcc.a(mulsf3.o)
                              ./PikaScript/pikascript-core/PikaVM.o (__mulsf3)
c:/mounriver/mounriver_studio/toolchain/risc-v embedded gcc/bin/../lib/gcc/riscv-none-embed/8.2.0/rv32imac/ilp32\libgcc.a(subsf3.o)
                              ./PikaScript/pikascript-core/PikaVM.o (__subsf3)
c:/mounriver/mounriver_studio/toolchain/risc-v embedded gcc/bin/../lib/gcc/riscv-none-embed/8.2.0/rv32imac/ilp32\libgcc.a(floatsisf.o)
                              ./PikaScript/pikascript-core/PikaVM.o (__floatsisf)
c:/mounriver/mounriver_studio/toolchain/risc-v embedded gcc/bin/../lib/gcc/riscv-none-embed/8.2.0/rv32imac/ilp32\libgcc.a(extendsfdf2.o)
                              ./PikaScript/pikascript-core/dataArgs.o (__extendsfdf2)
c:/mounriver/mounriver_studio/toolchain/risc-v embedded gcc/bin/../lib/gcc/riscv-none-embed/8.2.0/rv32imac/ilp32\libgcc.a(truncdfsf2.o)
                              ./PikaScript/pikascript-core/PikaVM.o (__truncdfsf2)
c:/mounriver/mounriver_studio/toolchain/risc-v embedded gcc/bin/../lib/gcc/riscv-none-embed/8.2.0/rv32imac/ilp32\libgcc.a(_clz.o)
                              c:/mounriver/mounriver_studio/toolchain/risc-v embedded gcc/bin/../lib/gcc/riscv-none-embed/8.2.0/rv32imac/ilp32\libgcc.a(_udivdi3.o) (__clz_tab)
c:/mounriver/mounriver_studio/toolchain/risc-v embedded gcc/bin/../lib/gcc/riscv-none-embed/8.2.0/rv32imac/ilp32\libgcc.a(_clzsi2.o)
                              c:/mounriver/mounriver_studio/toolchain/risc-v embedded gcc/bin/../lib/gcc/riscv-none-embed/8.2.0/rv32imac/ilp32\libgcc.a(muldf3.o) (__clzsi2)
c:/mounriver/mounriver_studio/toolchain/risc-v embedded gcc/bin/../lib/gcc/riscv-none-embed/8.2.0/../../../../riscv-none-embed/lib/rv32imac/ilp32\libg_nano.a(lib_a-atof.o)
                              ./PikaScript/pikascript-core/PikaVM.o (atof)
c:/mounriver/mounriver_studio/toolchain/risc-v embedded gcc/bin/../lib/gcc/riscv-none-embed/8.2.0/../../../../riscv-none-embed/lib/rv32imac/ilp32\libg_nano.a(lib_a-malloc.o)
                              ./PikaScript/pikascript-core/PikaPlatform.o (malloc)
c:/mounriver/mounriver_studio/toolchain/risc-v embedded gcc/bin/../lib/gcc/riscv-none-embed/8.2.0/../../../../riscv-none-embed/lib/rv32imac/ilp32\libg_nano.a(lib_a-memcpy.o)
                              ./PikaScript/pikascript-core/PikaObj.o (memcpy)
c:/mounriver/mounriver_studio/toolchain/risc-v embedded gcc/bin/../lib/gcc/riscv-none-embed/8.2.0/../../../../riscv-none-embed/lib/rv32imac/ilp32\libg_nano.a(lib_a-memmove.o)
                              ./PikaScript/pikascript-core/PikaParser.o (memmove)
c:/mounriver/mounriver_studio/toolchain/risc-v embedded gcc/bin/../lib/gcc/riscv-none-embed/8.2.0/../../../../riscv-none-embed/lib/rv32imac/ilp32\libg_nano.a(lib_a-memset.o)
                              ./User/main.o (memset)
c:/mounriver/mounriver_studio/toolchain/risc-v embedded gcc/bin/../lib/gcc/riscv-none-embed/8.2.0/../../../../riscv-none-embed/lib/rv32imac/ilp32\libg_nano.a(lib_a-nano-freer.o)
                              c:/mounriver/mounriver_studio/toolchain/risc-v embedded gcc/bin/../lib/gcc/riscv-none-embed/8.2.0/../../../../riscv-none-embed/lib/rv32imac/ilp32\libg_nano.a(lib_a-malloc.o) (_free_r)
c:/mounriver/mounriver_studio/toolchain/risc-v embedded gcc/bin/../lib/gcc/riscv-none-embed/8.2.0/../../../../riscv-none-embed/lib/rv32imac/ilp32\libg_nano.a(lib_a-nano-mallocr.o)
                              c:/mounriver/mounriver_studio/toolchain/risc-v embedded gcc/bin/../lib/gcc/riscv-none-embed/8.2.0/../../../../riscv-none-embed/lib/rv32imac/ilp32\libg_nano.a(lib_a-malloc.o) (_malloc_r)
c:/mounriver/mounriver_studio/toolchain/risc-v embedded gcc/bin/../lib/gcc/riscv-none-embed/8.2.0/../../../../riscv-none-embed/lib/rv32imac/ilp32\libg_nano.a(lib_a-sbrkr.o)
                              c:/mounriver/mounriver_studio/toolchain/risc-v embedded gcc/bin/../lib/gcc/riscv-none-embed/8.2.0/../../../../riscv-none-embed/lib/rv32imac/ilp32\libg_nano.a(lib_a-nano-mallocr.o) (_sbrk_r)
c:/mounriver/mounriver_studio/toolchain/risc-v embedded gcc/bin/../lib/gcc/riscv-none-embed/8.2.0/../../../../riscv-none-embed/lib/rv32imac/ilp32\libg_nano.a(lib_a-sprintf.o)
                              ./PikaScript/pikascript-core/PikaParser.o (sprintf)
c:/mounriver/mounriver_studio/toolchain/risc-v embedded gcc/bin/../lib/gcc/riscv-none-embed/8.2.0/../../../../riscv-none-embed/lib/rv32imac/ilp32\libg_nano.a(lib_a-strcmp.o)
                              ./PikaScript/pikascript-core/dataString.o (strcmp)
c:/mounriver/mounriver_studio/toolchain/risc-v embedded gcc/bin/../lib/gcc/riscv-none-embed/8.2.0/../../../../riscv-none-embed/lib/rv32imac/ilp32\libg_nano.a(lib_a-strcpy.o)
                              ./PikaScript/pikascript-core/dataStack.o (strcpy)
c:/mounriver/mounriver_studio/toolchain/risc-v embedded gcc/bin/../lib/gcc/riscv-none-embed/8.2.0/../../../../riscv-none-embed/lib/rv32imac/ilp32\libg_nano.a(lib_a-strlen.o)
                              ./PikaScript/pikascript-core/dataString.o (strlen)
c:/mounriver/mounriver_studio/toolchain/risc-v embedded gcc/bin/../lib/gcc/riscv-none-embed/8.2.0/../../../../riscv-none-embed/lib/rv32imac/ilp32\libg_nano.a(lib_a-strncmp.o)
                              ./PikaScript/pikascript-core/PikaParser.o (strncmp)
c:/mounriver/mounriver_studio/toolchain/risc-v embedded gcc/bin/../lib/gcc/riscv-none-embed/8.2.0/../../../../riscv-none-embed/lib/rv32imac/ilp32\libg_nano.a(lib_a-strtod.o)
                              c:/mounriver/mounriver_studio/toolchain/risc-v embedded gcc/bin/../lib/gcc/riscv-none-embed/8.2.0/../../../../riscv-none-embed/lib/rv32imac/ilp32\libg_nano.a(lib_a-atof.o) (strtod)
c:/mounriver/mounriver_studio/toolchain/risc-v embedded gcc/bin/../lib/gcc/riscv-none-embed/8.2.0/../../../../riscv-none-embed/lib/rv32imac/ilp32\libg_nano.a(lib_a-vprintf.o)
                              ./PikaScript/pikascript-core/PikaPlatform.o (vprintf)
c:/mounriver/mounriver_studio/toolchain/risc-v embedded gcc/bin/../lib/gcc/riscv-none-embed/8.2.0/../../../../riscv-none-embed/lib/rv32imac/ilp32\libg_nano.a(lib_a-vsnprintf.o)
                              ./PikaScript/pikascript-core/dataStrs.o (vsnprintf)
c:/mounriver/mounriver_studio/toolchain/risc-v embedded gcc/bin/../lib/gcc/riscv-none-embed/8.2.0/../../../../riscv-none-embed/lib/rv32imac/ilp32\libg_nano.a(lib_a-vsprintf.o)
                              ./PikaScript/pikascript-core/PikaObj.o (vsprintf)
c:/mounriver/mounriver_studio/toolchain/risc-v embedded gcc/bin/../lib/gcc/riscv-none-embed/8.2.0/../../../../riscv-none-embed/lib/rv32imac/ilp32\libg_nano.a(lib_a-findfp.o)
                              c:/mounriver/mounriver_studio/toolchain/risc-v embedded gcc/bin/../lib/gcc/riscv-none-embed/8.2.0/../../../../riscv-none-embed/lib/rv32imac/ilp32\libg_nano.a(lib_a-vprintf.o) (__sinit)
c:/mounriver/mounriver_studio/toolchain/risc-v embedded gcc/bin/../lib/gcc/riscv-none-embed/8.2.0/../../../../riscv-none-embed/lib/rv32imac/ilp32\libg_nano.a(lib_a-fwalk.o)
                              c:/mounriver/mounriver_studio/toolchain/risc-v embedded gcc/bin/../lib/gcc/riscv-none-embed/8.2.0/../../../../riscv-none-embed/lib/rv32imac/ilp32\libg_nano.a(lib_a-findfp.o) (_fwalk)
c:/mounriver/mounriver_studio/toolchain/risc-v embedded gcc/bin/../lib/gcc/riscv-none-embed/8.2.0/../../../../riscv-none-embed/lib/rv32imac/ilp32\libg_nano.a(lib_a-gdtoa-gethex.o)
                              c:/mounriver/mounriver_studio/toolchain/risc-v embedded gcc/bin/../lib/gcc/riscv-none-embed/8.2.0/../../../../riscv-none-embed/lib/rv32imac/ilp32\libg_nano.a(lib_a-strtod.o) (__gethex)
c:/mounriver/mounriver_studio/toolchain/risc-v embedded gcc/bin/../lib/gcc/riscv-none-embed/8.2.0/../../../../riscv-none-embed/lib/rv32imac/ilp32\libg_nano.a(lib_a-gdtoa-hexnan.o)
                              c:/mounriver/mounriver_studio/toolchain/risc-v embedded gcc/bin/../lib/gcc/riscv-none-embed/8.2.0/../../../../riscv-none-embed/lib/rv32imac/ilp32\libg_nano.a(lib_a-strtod.o) (__match)
c:/mounriver/mounriver_studio/toolchain/risc-v embedded gcc/bin/../lib/gcc/riscv-none-embed/8.2.0/../../../../riscv-none-embed/lib/rv32imac/ilp32\libg_nano.a(lib_a-impure.o)
                              c:/mounriver/mounriver_studio/toolchain/risc-v embedded gcc/bin/../lib/gcc/riscv-none-embed/8.2.0/../../../../riscv-none-embed/lib/rv32imac/ilp32\libg_nano.a(lib_a-findfp.o) (_global_impure_ptr)
c:/mounriver/mounriver_studio/toolchain/risc-v embedded gcc/bin/../lib/gcc/riscv-none-embed/8.2.0/../../../../riscv-none-embed/lib/rv32imac/ilp32\libg_nano.a(lib_a-locale.o)
                              c:/mounriver/mounriver_studio/toolchain/risc-v embedded gcc/bin/../lib/gcc/riscv-none-embed/8.2.0/../../../../riscv-none-embed/lib/rv32imac/ilp32\libg_nano.a(lib_a-strtod.o) (__global_locale)
c:/mounriver/mounriver_studio/toolchain/risc-v embedded gcc/bin/../lib/gcc/riscv-none-embed/8.2.0/../../../../riscv-none-embed/lib/rv32imac/ilp32\libg_nano.a(lib_a-localeconv.o)
                              c:/mounriver/mounriver_studio/toolchain/risc-v embedded gcc/bin/../lib/gcc/riscv-none-embed/8.2.0/../../../../riscv-none-embed/lib/rv32imac/ilp32\libg_nano.a(lib_a-strtod.o) (__localeconv_l)
c:/mounriver/mounriver_studio/toolchain/risc-v embedded gcc/bin/../lib/gcc/riscv-none-embed/8.2.0/../../../../riscv-none-embed/lib/rv32imac/ilp32\libg_nano.a(lib_a-mbtowc_r.o)
                              c:/mounriver/mounriver_studio/toolchain/risc-v embedded gcc/bin/../lib/gcc/riscv-none-embed/8.2.0/../../../../riscv-none-embed/lib/rv32imac/ilp32\libg_nano.a(lib_a-locale.o) (__ascii_mbtowc)
c:/mounriver/mounriver_studio/toolchain/risc-v embedded gcc/bin/../lib/gcc/riscv-none-embed/8.2.0/../../../../riscv-none-embed/lib/rv32imac/ilp32\libg_nano.a(lib_a-mlock.o)
                              c:/mounriver/mounriver_studio/toolchain/risc-v embedded gcc/bin/../lib/gcc/riscv-none-embed/8.2.0/../../../../riscv-none-embed/lib/rv32imac/ilp32\libg_nano.a(lib_a-nano-freer.o) (__malloc_lock)
c:/mounriver/mounriver_studio/toolchain/risc-v embedded gcc/bin/../lib/gcc/riscv-none-embed/8.2.0/../../../../riscv-none-embed/lib/rv32imac/ilp32\libg_nano.a(lib_a-mprec.o)
                              c:/mounriver/mounriver_studio/toolchain/risc-v embedded gcc/bin/../lib/gcc/riscv-none-embed/8.2.0/../../../../riscv-none-embed/lib/rv32imac/ilp32\libg_nano.a(lib_a-strtod.o) (_Balloc)
c:/mounriver/mounriver_studio/toolchain/risc-v embedded gcc/bin/../lib/gcc/riscv-none-embed/8.2.0/../../../../riscv-none-embed/lib/rv32imac/ilp32\libg_nano.a(lib_a-nano-callocr.o)
                              c:/mounriver/mounriver_studio/toolchain/risc-v embedded gcc/bin/../lib/gcc/riscv-none-embed/8.2.0/../../../../riscv-none-embed/lib/rv32imac/ilp32\libg_nano.a(lib_a-mprec.o) (_calloc_r)
c:/mounriver/mounriver_studio/toolchain/risc-v embedded gcc/bin/../lib/gcc/riscv-none-embed/8.2.0/../../../../riscv-none-embed/lib/rv32imac/ilp32\libg_nano.a(lib_a-nano-svfprintf.o)
                              c:/mounriver/mounriver_studio/toolchain/risc-v embedded gcc/bin/../lib/gcc/riscv-none-embed/8.2.0/../../../../riscv-none-embed/lib/rv32imac/ilp32\libg_nano.a(lib_a-sprintf.o) (_svfprintf_r)
c:/mounriver/mounriver_studio/toolchain/risc-v embedded gcc/bin/../lib/gcc/riscv-none-embed/8.2.0/../../../../riscv-none-embed/lib/rv32imac/ilp32\libg_nano.a(lib_a-nano-vfprintf.o)
                              c:/mounriver/mounriver_studio/toolchain/risc-v embedded gcc/bin/../lib/gcc/riscv-none-embed/8.2.0/../../../../riscv-none-embed/lib/rv32imac/ilp32\libg_nano.a(lib_a-vprintf.o) (_vfprintf_r)
c:/mounriver/mounriver_studio/toolchain/risc-v embedded gcc/bin/../lib/gcc/riscv-none-embed/8.2.0/../../../../riscv-none-embed/lib/rv32imac/ilp32\libg_nano.a(lib_a-nano-vfprintf_i.o)
                              c:/mounriver/mounriver_studio/toolchain/risc-v embedded gcc/bin/../lib/gcc/riscv-none-embed/8.2.0/../../../../riscv-none-embed/lib/rv32imac/ilp32\libg_nano.a(lib_a-nano-svfprintf.o) (_printf_i)
c:/mounriver/mounriver_studio/toolchain/risc-v embedded gcc/bin/../lib/gcc/riscv-none-embed/8.2.0/../../../../riscv-none-embed/lib/rv32imac/ilp32\libg_nano.a(lib_a-reent.o)
                              c:/mounriver/mounriver_studio/toolchain/risc-v embedded gcc/bin/../lib/gcc/riscv-none-embed/8.2.0/../../../../riscv-none-embed/lib/rv32imac/ilp32\libg_nano.a(lib_a-sbrkr.o) (errno)
c:/mounriver/mounriver_studio/toolchain/risc-v embedded gcc/bin/../lib/gcc/riscv-none-embed/8.2.0/../../../../riscv-none-embed/lib/rv32imac/ilp32\libg_nano.a(lib_a-sf_nan.o)
                              c:/mounriver/mounriver_studio/toolchain/risc-v embedded gcc/bin/../lib/gcc/riscv-none-embed/8.2.0/../../../../riscv-none-embed/lib/rv32imac/ilp32\libg_nano.a(lib_a-strtod.o) (nanf)
c:/mounriver/mounriver_studio/toolchain/risc-v embedded gcc/bin/../lib/gcc/riscv-none-embed/8.2.0/../../../../riscv-none-embed/lib/rv32imac/ilp32\libg_nano.a(lib_a-stdio.o)
                              c:/mounriver/mounriver_studio/toolchain/risc-v embedded gcc/bin/../lib/gcc/riscv-none-embed/8.2.0/../../../../riscv-none-embed/lib/rv32imac/ilp32\libg_nano.a(lib_a-findfp.o) (__sread)
c:/mounriver/mounriver_studio/toolchain/risc-v embedded gcc/bin/../lib/gcc/riscv-none-embed/8.2.0/../../../../riscv-none-embed/lib/rv32imac/ilp32\libg_nano.a(lib_a-wbuf.o)
                              c:/mounriver/mounriver_studio/toolchain/risc-v embedded gcc/bin/../lib/gcc/riscv-none-embed/8.2.0/../../../../riscv-none-embed/lib/rv32imac/ilp32\libg_nano.a(lib_a-nano-vfprintf.o) (__swbuf_r)
c:/mounriver/mounriver_studio/toolchain/risc-v embedded gcc/bin/../lib/gcc/riscv-none-embed/8.2.0/../../../../riscv-none-embed/lib/rv32imac/ilp32\libg_nano.a(lib_a-wctomb_r.o)
                              c:/mounriver/mounriver_studio/toolchain/risc-v embedded gcc/bin/../lib/gcc/riscv-none-embed/8.2.0/../../../../riscv-none-embed/lib/rv32imac/ilp32\libg_nano.a(lib_a-locale.o) (__ascii_wctomb)
c:/mounriver/mounriver_studio/toolchain/risc-v embedded gcc/bin/../lib/gcc/riscv-none-embed/8.2.0/../../../../riscv-none-embed/lib/rv32imac/ilp32\libg_nano.a(lib_a-writer.o)
                              c:/mounriver/mounriver_studio/toolchain/risc-v embedded gcc/bin/../lib/gcc/riscv-none-embed/8.2.0/../../../../riscv-none-embed/lib/rv32imac/ilp32\libg_nano.a(lib_a-stdio.o) (_write_r)
c:/mounriver/mounriver_studio/toolchain/risc-v embedded gcc/bin/../lib/gcc/riscv-none-embed/8.2.0/../../../../riscv-none-embed/lib/rv32imac/ilp32\libg_nano.a(lib_a-wsetup.o)
                              c:/mounriver/mounriver_studio/toolchain/risc-v embedded gcc/bin/../lib/gcc/riscv-none-embed/8.2.0/../../../../riscv-none-embed/lib/rv32imac/ilp32\libg_nano.a(lib_a-nano-vfprintf.o) (__swsetup_r)
c:/mounriver/mounriver_studio/toolchain/risc-v embedded gcc/bin/../lib/gcc/riscv-none-embed/8.2.0/../../../../riscv-none-embed/lib/rv32imac/ilp32\libg_nano.a(lib_a-closer.o)
                              c:/mounriver/mounriver_studio/toolchain/risc-v embedded gcc/bin/../lib/gcc/riscv-none-embed/8.2.0/../../../../riscv-none-embed/lib/rv32imac/ilp32\libg_nano.a(lib_a-stdio.o) (_close_r)
c:/mounriver/mounriver_studio/toolchain/risc-v embedded gcc/bin/../lib/gcc/riscv-none-embed/8.2.0/../../../../riscv-none-embed/lib/rv32imac/ilp32\libg_nano.a(lib_a-ctype_.o)
                              c:/mounriver/mounriver_studio/toolchain/risc-v embedded gcc/bin/../lib/gcc/riscv-none-embed/8.2.0/../../../../riscv-none-embed/lib/rv32imac/ilp32\libg_nano.a(lib_a-locale.o) (_ctype_)
c:/mounriver/mounriver_studio/toolchain/risc-v embedded gcc/bin/../lib/gcc/riscv-none-embed/8.2.0/../../../../riscv-none-embed/lib/rv32imac/ilp32\libg_nano.a(lib_a-fflush.o)
                              c:/mounriver/mounriver_studio/toolchain/risc-v embedded gcc/bin/../lib/gcc/riscv-none-embed/8.2.0/../../../../riscv-none-embed/lib/rv32imac/ilp32\libg_nano.a(lib_a-findfp.o) (_fflush_r)
c:/mounriver/mounriver_studio/toolchain/risc-v embedded gcc/bin/../lib/gcc/riscv-none-embed/8.2.0/../../../../riscv-none-embed/lib/rv32imac/ilp32\libg_nano.a(lib_a-fvwrite.o)
                              c:/mounriver/mounriver_studio/toolchain/risc-v embedded gcc/bin/../lib/gcc/riscv-none-embed/8.2.0/../../../../riscv-none-embed/lib/rv32imac/ilp32\libg_nano.a(lib_a-nano-vfprintf.o) (__sfvwrite_r)
c:/mounriver/mounriver_studio/toolchain/risc-v embedded gcc/bin/../lib/gcc/riscv-none-embed/8.2.0/../../../../riscv-none-embed/lib/rv32imac/ilp32\libg_nano.a(lib_a-lseekr.o)
                              c:/mounriver/mounriver_studio/toolchain/risc-v embedded gcc/bin/../lib/gcc/riscv-none-embed/8.2.0/../../../../riscv-none-embed/lib/rv32imac/ilp32\libg_nano.a(lib_a-stdio.o) (_lseek_r)
c:/mounriver/mounriver_studio/toolchain/risc-v embedded gcc/bin/../lib/gcc/riscv-none-embed/8.2.0/../../../../riscv-none-embed/lib/rv32imac/ilp32\libg_nano.a(lib_a-makebuf.o)
                              c:/mounriver/mounriver_studio/toolchain/risc-v embedded gcc/bin/../lib/gcc/riscv-none-embed/8.2.0/../../../../riscv-none-embed/lib/rv32imac/ilp32\libg_nano.a(lib_a-wsetup.o) (__smakebuf_r)
c:/mounriver/mounriver_studio/toolchain/risc-v embedded gcc/bin/../lib/gcc/riscv-none-embed/8.2.0/../../../../riscv-none-embed/lib/rv32imac/ilp32\libg_nano.a(lib_a-memchr.o)
                              c:/mounriver/mounriver_studio/toolchain/risc-v embedded gcc/bin/../lib/gcc/riscv-none-embed/8.2.0/../../../../riscv-none-embed/lib/rv32imac/ilp32\libg_nano.a(lib_a-nano-svfprintf.o) (memchr)
c:/mounriver/mounriver_studio/toolchain/risc-v embedded gcc/bin/../lib/gcc/riscv-none-embed/8.2.0/../../../../riscv-none-embed/lib/rv32imac/ilp32\libg_nano.a(lib_a-nano-reallocr.o)
                              c:/mounriver/mounriver_studio/toolchain/risc-v embedded gcc/bin/../lib/gcc/riscv-none-embed/8.2.0/../../../../riscv-none-embed/lib/rv32imac/ilp32\libg_nano.a(lib_a-nano-svfprintf.o) (_realloc_r)
c:/mounriver/mounriver_studio/toolchain/risc-v embedded gcc/bin/../lib/gcc/riscv-none-embed/8.2.0/../../../../riscv-none-embed/lib/rv32imac/ilp32\libg_nano.a(lib_a-readr.o)
                              c:/mounriver/mounriver_studio/toolchain/risc-v embedded gcc/bin/../lib/gcc/riscv-none-embed/8.2.0/../../../../riscv-none-embed/lib/rv32imac/ilp32\libg_nano.a(lib_a-stdio.o) (_read_r)
c:/mounriver/mounriver_studio/toolchain/risc-v embedded gcc/bin/../lib/gcc/riscv-none-embed/8.2.0/../../../../riscv-none-embed/lib/rv32imac/ilp32\libg_nano.a(lib_a-fstatr.o)
                              c:/mounriver/mounriver_studio/toolchain/risc-v embedded gcc/bin/../lib/gcc/riscv-none-embed/8.2.0/../../../../riscv-none-embed/lib/rv32imac/ilp32\libg_nano.a(lib_a-makebuf.o) (_fstat_r)
c:/mounriver/mounriver_studio/toolchain/risc-v embedded gcc/bin/../lib/gcc/riscv-none-embed/8.2.0/../../../../riscv-none-embed/lib/rv32imac/ilp32\libg_nano.a(lib_a-isattyr.o)
                              c:/mounriver/mounriver_studio/toolchain/risc-v embedded gcc/bin/../lib/gcc/riscv-none-embed/8.2.0/../../../../riscv-none-embed/lib/rv32imac/ilp32\libg_nano.a(lib_a-makebuf.o) (_isatty_r)
c:/mounriver/mounriver_studio/toolchain/risc-v embedded gcc/bin/../lib/gcc/riscv-none-embed/8.2.0/../../../../riscv-none-embed/lib/rv32imac/ilp32\libg_nano.a(lib_a-nano-msizer.o)
                              c:/mounriver/mounriver_studio/toolchain/risc-v embedded gcc/bin/../lib/gcc/riscv-none-embed/8.2.0/../../../../riscv-none-embed/lib/rv32imac/ilp32\libg_nano.a(lib_a-nano-reallocr.o) (_malloc_usable_size_r)
c:/mounriver/mounriver_studio/toolchain/risc-v embedded gcc/bin/../lib/gcc/riscv-none-embed/8.2.0/rv32imac/ilp32\libgcc.a(adddf3.o)
                              c:/mounriver/mounriver_studio/toolchain/risc-v embedded gcc/bin/../lib/gcc/riscv-none-embed/8.2.0/../../../../riscv-none-embed/lib/rv32imac/ilp32\libg_nano.a(lib_a-strtod.o) (__adddf3)
c:/mounriver/mounriver_studio/toolchain/risc-v embedded gcc/bin/../lib/gcc/riscv-none-embed/8.2.0/rv32imac/ilp32\libgcc.a(divdf3.o)
                              c:/mounriver/mounriver_studio/toolchain/risc-v embedded gcc/bin/../lib/gcc/riscv-none-embed/8.2.0/../../../../riscv-none-embed/lib/rv32imac/ilp32\libg_nano.a(lib_a-strtod.o) (__divdf3)
c:/mounriver/mounriver_studio/toolchain/risc-v embedded gcc/bin/../lib/gcc/riscv-none-embed/8.2.0/rv32imac/ilp32\libgcc.a(eqdf2.o)
                              c:/mounriver/mounriver_studio/toolchain/risc-v embedded gcc/bin/../lib/gcc/riscv-none-embed/8.2.0/../../../../riscv-none-embed/lib/rv32imac/ilp32\libg_nano.a(lib_a-strtod.o) (__eqdf2)
c:/mounriver/mounriver_studio/toolchain/risc-v embedded gcc/bin/../lib/gcc/riscv-none-embed/8.2.0/rv32imac/ilp32\libgcc.a(gedf2.o)
                              c:/mounriver/mounriver_studio/toolchain/risc-v embedded gcc/bin/../lib/gcc/riscv-none-embed/8.2.0/../../../../riscv-none-embed/lib/rv32imac/ilp32\libg_nano.a(lib_a-strtod.o) (__gtdf2)
c:/mounriver/mounriver_studio/toolchain/risc-v embedded gcc/bin/../lib/gcc/riscv-none-embed/8.2.0/rv32imac/ilp32\libgcc.a(ledf2.o)
                              c:/mounriver/mounriver_studio/toolchain/risc-v embedded gcc/bin/../lib/gcc/riscv-none-embed/8.2.0/../../../../riscv-none-embed/lib/rv32imac/ilp32\libg_nano.a(lib_a-strtod.o) (__ledf2)
c:/mounriver/mounriver_studio/toolchain/risc-v embedded gcc/bin/../lib/gcc/riscv-none-embed/8.2.0/rv32imac/ilp32\libgcc.a(unorddf2.o)
                              c:/mounriver/mounriver_studio/toolchain/risc-v embedded gcc/bin/../lib/gcc/riscv-none-embed/8.2.0/../../../../riscv-none-embed/lib/rv32imac/ilp32\libg_nano.a(lib_a-strtod.o) (__unorddf2)
c:/mounriver/mounriver_studio/toolchain/risc-v embedded gcc/bin/../lib/gcc/riscv-none-embed/8.2.0/rv32imac/ilp32\libgcc.a(fixdfsi.o)
                              c:/mounriver/mounriver_studio/toolchain/risc-v embedded gcc/bin/../lib/gcc/riscv-none-embed/8.2.0/../../../../riscv-none-embed/lib/rv32imac/ilp32\libg_nano.a(lib_a-strtod.o) (__fixdfsi)
c:/mounriver/mounriver_studio/toolchain/risc-v embedded gcc/bin/../lib/gcc/riscv-none-embed/8.2.0/rv32imac/ilp32\libgcc.a(fixunsdfsi.o)
                              c:/mounriver/mounriver_studio/toolchain/risc-v embedded gcc/bin/../lib/gcc/riscv-none-embed/8.2.0/../../../../riscv-none-embed/lib/rv32imac/ilp32\libg_nano.a(lib_a-strtod.o) (__fixunsdfsi)
c:/mounriver/mounriver_studio/toolchain/risc-v embedded gcc/bin/../lib/gcc/riscv-none-embed/8.2.0/rv32imac/ilp32\libgcc.a(floatunsidf.o)
                              c:/mounriver/mounriver_studio/toolchain/risc-v embedded gcc/bin/../lib/gcc/riscv-none-embed/8.2.0/../../../../riscv-none-embed/lib/rv32imac/ilp32\libg_nano.a(lib_a-strtod.o) (__floatunsidf)
c:/mounriver/mounriver_studio/toolchain/risc-v embedded gcc/bin/../lib/gcc/riscv-none-embed/8.2.0/rv32imac/ilp32\libgcc.a(unordsf2.o)
                              c:/mounriver/mounriver_studio/toolchain/risc-v embedded gcc/bin/../lib/gcc/riscv-none-embed/8.2.0/../../../../riscv-none-embed/lib/rv32imac/ilp32\libg_nano.a(lib_a-strtod.o) (__unordsf2)
c:/mounriver/mounriver_studio/toolchain/risc-v embedded gcc/bin/../lib/gcc/riscv-none-embed/8.2.0/../../../../riscv-none-embed/lib/rv32imac/ilp32\libnosys.a(close.o)
                              c:/mounriver/mounriver_studio/toolchain/risc-v embedded gcc/bin/../lib/gcc/riscv-none-embed/8.2.0/../../../../riscv-none-embed/lib/rv32imac/ilp32\libg_nano.a(lib_a-closer.o) (_close)
c:/mounriver/mounriver_studio/toolchain/risc-v embedded gcc/bin/../lib/gcc/riscv-none-embed/8.2.0/../../../../riscv-none-embed/lib/rv32imac/ilp32\libnosys.a(fstat.o)
                              c:/mounriver/mounriver_studio/toolchain/risc-v embedded gcc/bin/../lib/gcc/riscv-none-embed/8.2.0/../../../../riscv-none-embed/lib/rv32imac/ilp32\libg_nano.a(lib_a-fstatr.o) (_fstat)
c:/mounriver/mounriver_studio/toolchain/risc-v embedded gcc/bin/../lib/gcc/riscv-none-embed/8.2.0/../../../../riscv-none-embed/lib/rv32imac/ilp32\libnosys.a(isatty.o)
                              c:/mounriver/mounriver_studio/toolchain/risc-v embedded gcc/bin/../lib/gcc/riscv-none-embed/8.2.0/../../../../riscv-none-embed/lib/rv32imac/ilp32\libg_nano.a(lib_a-isattyr.o) (_isatty)
c:/mounriver/mounriver_studio/toolchain/risc-v embedded gcc/bin/../lib/gcc/riscv-none-embed/8.2.0/../../../../riscv-none-embed/lib/rv32imac/ilp32\libnosys.a(lseek.o)
                              c:/mounriver/mounriver_studio/toolchain/risc-v embedded gcc/bin/../lib/gcc/riscv-none-embed/8.2.0/../../../../riscv-none-embed/lib/rv32imac/ilp32\libg_nano.a(lib_a-lseekr.o) (_lseek)
c:/mounriver/mounriver_studio/toolchain/risc-v embedded gcc/bin/../lib/gcc/riscv-none-embed/8.2.0/../../../../riscv-none-embed/lib/rv32imac/ilp32\libnosys.a(read.o)
                              c:/mounriver/mounriver_studio/toolchain/risc-v embedded gcc/bin/../lib/gcc/riscv-none-embed/8.2.0/../../../../riscv-none-embed/lib/rv32imac/ilp32\libg_nano.a(lib_a-readr.o) (_read)
c:/mounriver/mounriver_studio/toolchain/risc-v embedded gcc/bin/../lib/gcc/riscv-none-embed/8.2.0/../../../../riscv-none-embed/lib/rv32imac/ilp32\libnosys.a(sbrk.o)
                              c:/mounriver/mounriver_studio/toolchain/risc-v embedded gcc/bin/../lib/gcc/riscv-none-embed/8.2.0/../../../../riscv-none-embed/lib/rv32imac/ilp32\libg_nano.a(lib_a-sbrkr.o) (_sbrk)

Allocating common symbols
Common symbol       size              file

pEP7_RAM_Addr       0x4               ./Peripheral/src/ch32v10x_usb.o
pHOST_RX_RAM_Addr   0x4               ./Peripheral/src/ch32v10x_usb_host.o
pHOST_TX_RAM_Addr   0x4               ./Peripheral/src/ch32v10x_usb_host.o
errno               0x4               c:/mounriver/mounriver_studio/toolchain/risc-v embedded gcc/bin/../lib/gcc/riscv-none-embed/8.2.0/../../../../riscv-none-embed/lib/rv32imac/ilp32\libg_nano.a(lib_a-reent.o)
pEP6_RAM_Addr       0x4               ./Peripheral/src/ch32v10x_usb.o
rt_thread_priority_table
                    0x80              ./rtthread/src/scheduler.o
rt_current_priority
                    0x1               ./rtthread/src/scheduler.o
pEP4_RAM_Addr       0x4               ./Peripheral/src/ch32v10x_usb.o
pEP2_RAM_Addr       0x4               ./Peripheral/src/ch32v10x_usb.o
pEP3_RAM_Addr       0x4               ./Peripheral/src/ch32v10x_usb.o
pEP0_RAM_Addr       0x4               ./Peripheral/src/ch32v10x_usb.o
rt_interrupt_nest   0x1               ./rtthread/src/irq.o
FoundNewDev         0x1               ./Peripheral/src/ch32v10x_usb_host.o
rt_current_thread   0x4               ./rtthread/src/scheduler.o
rt_thread_ready_priority_group
                    0x4               ./rtthread/src/scheduler.o
main_thread         0x78              ./rtthread/src/components.o
rt_thread_defunct   0x8               ./rtthread/src/scheduler.o
pEP5_RAM_Addr       0x4               ./Peripheral/src/ch32v10x_usb.o
UsbDevEndp0Size     0x1               ./Peripheral/src/ch32v10x_usb_host.o
ThisUsbDev          0xe               ./Peripheral/src/ch32v10x_usb_host.o
pEP1_RAM_Addr       0x4               ./Peripheral/src/ch32v10x_usb.o

Discarded input sections

 .text          0x0000000000000000        0x0 ./rtthread/src/clock.o
 .data          0x0000000000000000        0x0 ./rtthread/src/clock.o
 .bss           0x0000000000000000        0x0 ./rtthread/src/clock.o
 .text.rt_system_tick_init
                0x0000000000000000        0x2 ./rtthread/src/clock.o
 .text.rt_tick_set
                0x0000000000000000       0x26 ./rtthread/src/clock.o
 .text.rt_tick_from_millisecond
                0x0000000000000000       0x28 ./rtthread/src/clock.o
 .text          0x0000000000000000        0x0 ./rtthread/src/components.o
 .data          0x0000000000000000        0x0 ./rtthread/src/components.o
 .bss           0x0000000000000000        0x0 ./rtthread/src/components.o
 .text          0x0000000000000000        0x0 ./rtthread/src/cpu.o
 .data          0x0000000000000000        0x0 ./rtthread/src/cpu.o
 .bss           0x0000000000000000        0x0 ./rtthread/src/cpu.o
 .debug_info    0x0000000000000000       0x6b ./rtthread/src/cpu.o
 .debug_abbrev  0x0000000000000000       0x26 ./rtthread/src/cpu.o
 .debug_aranges
Memory Configuration

Name             Origin             Length             Attributes
FLASH            0x0000000000000000 0x0000000000010000 xr
RAM              0x0000000020000000 0x0000000000005000 xrw
*default*        0x0000000000000000 0xffffffffffffffff

Linker script and memory map

LOAD ./rtthread/src/clock.o
LOAD ./rtthread/src/components.o
LOAD ./rtthread/src/cpu.o
LOAD ./rtthread/src/device.o
LOAD ./rtthread/src/idle.o
LOAD ./rtthread/src/ipc.o
LOAD ./rtthread/src/irq.o
LOAD ./rtthread/src/kservice.o
LOAD ./rtthread/src/mem.o
LOAD ./rtthread/src/memheap.o
LOAD ./rtthread/src/mempool.o
LOAD ./rtthread/src/object.o
LOAD ./rtthread/src/scheduler.o
LOAD ./rtthread/src/slab.o
LOAD ./rtthread/src/thread.o
LOAD ./rtthread/src/timer.o
LOAD ./rtthread/libcpu/risc-v/common/context_gcc.o
LOAD ./rtthread/libcpu/risc-v/common/cpuport.o
LOAD ./rtthread/libcpu/risc-v/SW_Handler/interrupt_gcc.o
LOAD ./rtthread/board.o
LOAD ./User/ch32v10x_it.o
LOAD ./User/main.o
LOAD ./User/system_ch32v10x.o
LOAD ./Startup/startup_ch32v10x.o
LOAD ./PikaScript/pikascript-lib/PikaStdLib/PikaStdLib_MemChecker.o
LOAD ./PikaScript/pikascript-lib/PikaStdLib/PikaStdLib_SysObj.o
LOAD ./PikaScript/pikascript-lib/PikaStdDevice/PikaStdDeivce_GPIO.o
LOAD ./PikaScript/pikascript-lib/PikaStdDevice/PikaStdDevice_ADC.o
LOAD ./PikaScript/pikascript-lib/PikaStdDevice/PikaStdDevice_IIC.o
LOAD ./PikaScript/pikascript-lib/PikaStdDevice/PikaStdDevice_PWM.o
LOAD ./PikaScript/pikascript-lib/PikaStdDevice/PikaStdDevice_Time.o
LOAD ./PikaScript/pikascript-lib/PikaStdDevice/PikaStdDevice_UART.o
LOAD ./PikaScript/pikascript-lib/CH32V103/CH32V103_GPIO.o
LOAD ./PikaScript/pikascript-lib/CH32V103/CH32V103_Sys.o
LOAD ./PikaScript/pikascript-core/BaseObj.o
LOAD ./PikaScript/pikascript-core/PikaObj.o
LOAD ./PikaScript/pikascript-core/PikaParser.o
LOAD ./PikaScript/pikascript-core/PikaPlatform.o
LOAD ./PikaScript/pikascript-core/PikaVM.o
LOAD ./PikaScript/pikascript-core/TinyObj.o
LOAD ./PikaScript/pikascript-core/dataArg.o
LOAD ./PikaScript/pikascript-core/dataArgs.o
LOAD ./PikaScript/pikascript-core/dataLink.o
LOAD ./PikaScript/pikascript-core/dataLinkNode.o
LOAD ./PikaScript/pikascript-core/dataMemory.o
LOAD ./PikaScript/pikascript-core/dataQueue.o
LOAD ./PikaScript/pikascript-core/dataQueueObj.o
LOAD ./PikaScript/pikascript-core/dataStack.o
LOAD ./PikaScript/pikascript-core/dataString.o
LOAD ./PikaScript/pikascript-core/dataStrs.o
LOAD ./PikaScript/pikascript-api/CH32V103-api.o
LOAD ./PikaScript/pikascript-api/CH32V103_GPIO-api.o
LOAD ./PikaScript/pikascript-api/CH32V103_Sys-api.o
LOAD ./PikaScript/pikascript-api/PikaMain-api.o
LOAD ./PikaScript/pikascript-api/PikaStdDevice_ADC-api.o
LOAD ./PikaScript/pikascript-api/PikaStdDevice_GPIO-api.o
LOAD ./PikaScript/pikascript-api/PikaStdDevice_IIC-api.o
LOAD ./PikaScript/pikascript-api/PikaStdDevice_PWM-api.o
LOAD ./PikaScript/pikascript-api/PikaStdDevice_Time-api.o
LOAD ./PikaScript/pikascript-api/PikaStdDevice_UART-api.o
LOAD ./PikaScript/pikascript-api/PikaStdLib-api.o
LOAD ./PikaScript/pikascript-api/PikaStdLib_MemChecker-api.o
LOAD ./PikaScript/pikascript-api/PikaStdLib_SysObj-api.o
LOAD ./PikaScript/pikascript-api/pikaScript.o
LOAD ./Peripheral/src/ch32v10x_adc.o
LOAD ./Peripheral/src/ch32v10x_bkp.o
LOAD ./Peripheral/src/ch32v10x_crc.o
LOAD ./Peripheral/src/ch32v10x_dbgmcu.o
LOAD ./Peripheral/src/ch32v10x_dma.o
LOAD ./Peripheral/src/ch32v10x_exti.o
LOAD ./Peripheral/src/ch32v10x_flash.o
LOAD ./Peripheral/src/ch32v10x_gpio.o
LOAD ./Peripheral/src/ch32v10x_i2c.o
LOAD ./Peripheral/src/ch32v10x_iwdg.o
LOAD ./Peripheral/src/ch32v10x_misc.o
LOAD ./Peripheral/src/ch32v10x_pwr.o
LOAD ./Peripheral/src/ch32v10x_rcc.o
LOAD ./Peripheral/src/ch32v10x_rtc.o
LOAD ./Peripheral/src/ch32v10x_spi.o
LOAD ./Peripheral/src/ch32v10x_tim.o
LOAD ./Peripheral/src/ch32v10x_usart.o
LOAD ./Peripheral/src/ch32v10x_usb.o
LOAD ./Peripheral/src/ch32v10x_usb_host.o
LOAD ./Peripheral/src/ch32v10x_wwdg.o
LOAD ./Debug/debug.o
LOAD ./Core/core_riscv.o
LOAD c:/mounriver/mounriver_studio/toolchain/risc-v embedded gcc/bin/../lib/gcc/riscv-none-embed/8.2.0/../../../../riscv-none-embed/lib/rv32imac/ilp32\libm.a
LOAD c:/mounriver/mounriver_studio/toolchain/risc-v embedded gcc/bin/../lib/gcc/riscv-none-embed/8.2.0/../../../../riscv-none-embed/lib/rv32imac/ilp32\libprintfloat.a
LOAD c:/mounriver/mounriver_studio/toolchain/risc-v embedded gcc/bin/../lib/gcc/riscv-none-embed/8.2.0/../../../../riscv-none-embed/lib/rv32imac/ilp32\libprintf.a
LOAD c:/mounriver/mounriver_studio/toolchain/risc-v embedded gcc/bin/../lib/gcc/riscv-none-embed/8.2.0/rv32imac/ilp32\libgcc.a
LOAD c:/mounriver/mounriver_studio/toolchain/risc-v embedded gcc/bin/../lib/gcc/riscv-none-embed/8.2.0/../../../../riscv-none-embed/lib/rv32imac/ilp32\libg_nano.a
LOAD c:/mounriver/mounriver_studio/toolchain/risc-v embedded gcc/bin/../lib/gcc/riscv-none-embed/8.2.0/../../../../riscv-none-embed/lib/rv32imac/ilp32\libc_nano.a
LOAD c:/mounriver/mounriver_studio/toolchain/risc-v embedded gcc/bin/../lib/gcc/riscv-none-embed/8.2.0/rv32imac/ilp32\libgcc.a
START GROUP
LOAD c:/mounriver/mounriver_studio/toolchain/risc-v embedded gcc/bin/../lib/gcc/riscv-none-embed/8.2.0/rv32imac/ilp32\libgcc.a
LOAD c:/mounriver/mounriver_studio/toolchain/risc-v embedded gcc/bin/../lib/gcc/riscv-none-embed/8.2.0/../../../../riscv-none-embed/lib/rv32imac/ilp32\libc_nano.a
LOAD c:/mounriver/mounriver_studio/toolchain/risc-v embedded gcc/bin/../lib/gcc/riscv-none-embed/8.2.0/../../../../riscv-none-embed/lib/rv32imac/ilp32\libnosys.a
END GROUP
START GROUP
LOAD c:/mounriver/mounriver_studio/toolchain/risc-v embedded gcc/bin/../lib/gcc/riscv-none-embed/8.2.0/rv32imac/ilp32\libgcc.a
LOAD c:/mounriver/mounriver_studio/toolchain/risc-v embedded gcc/bin/../lib/gcc/riscv-none-embed/8.2.0/../../../../riscv-none-embed/lib/rv32imac/ilp32\libc_nano.a
LOAD c:/mounriver/mounriver_studio/toolchain/risc-v embedded gcc/bin/../lib/gcc/riscv-none-embed/8.2.0/../../../../riscv-none-embed/lib/rv32imac/ilp32\libnosys.a
END GROUP
                0x0000000000000800                __stack_size = 0x800
                [!provide]                        PROVIDE (_stack_size = __stack_size)

.init           0x0000000000000000       0x38
                0x0000000000000000                _sinit = .
                0x0000000000000000                . = ALIGN (0x4)
 *(SORT_NONE(.init))
 .init          0x0000000000000000       0x38 ./Startup/startup_ch32v10x.o
                0x0000000000000000                _start
                0x0000000000000038                . = ALIGN (0x4)
                0x0000000000000038                _einit = .

.vector         0x0000000000000038      0x108
 *(.vector)
 .vector        0x0000000000000038       0xf0 ./Startup/startup_ch32v10x.o
                0x0000000000000140                . = ALIGN (0x40)
 *fill*         0x0000000000000128       0x18 

.text           0x0000000000000140     0xe51c
                0x0000000000000140                . = ALIGN (0x4)
 *(.text)
 .text          0x0000000000000140       0xd2 ./rtthread/libcpu/risc-v/common/context_gcc.o
                0x0000000000000140                rt_hw_interrupt_disable
                0x0000000000000146                rt_hw_interrupt_enable
                0x000000000000014c                rt_hw_context_switch_to
                0x0000000000000164                rt_hw_context_switch
                0x00000000000001ba                rt_hw_context_switch_exit
 *fill*         0x0000000000000212       0x2e 
 .text          0x0000000000000240       0xf6 ./rtthread/libcpu/risc-v/SW_Handler/interrupt_gcc.o
                0x0000000000000240                SW_handler
 .text          0x0000000000000336       0xa8 c:/mounriver/mounriver_studio/toolchain/risc-v embedded gcc/bin/../lib/gcc/riscv-none-embed/8.2.0/../../../../riscv-none-embed/lib/rv32imac/ilp32\libg_nano.a(lib_a-memset.o)
                0x0000000000000336                memset
 .text          0x00000000000003de      0x11e c:/mounriver/mounriver_studio/toolchain/risc-v embedded gcc/bin/../lib/gcc/riscv-none-embed/8.2.0/../../../../riscv-none-embed/lib/rv32imac/ilp32\libg_nano.a(lib_a-strcmp.o)
                0x00000000000003de                strcmp
 *(.text.*)
 .text.rt_tick_get
                0x00000000000004fc        0xa ./rtthread/src/clock.o
                0x00000000000004fc                rt_tick_get
 .text.rt_tick_increase
                0x0000000000000506       0x2e ./rtthread/src/clock.o
                0x0000000000000506                rt_tick_increase
 .text.rti_start
                0x0000000000000534        0x4 ./rtthread/src/components.o
 .text.rti_end  0x0000000000000538        0x4 ./rtthread/src/components.o
 .text.rti_board_start
                0x000000000000053c        0x4 ./rtthread/src/components.o
 .text.rti_board_end
                0x0000000000000540        0x4 ./rtthread/src/components.o
 .text.rt_components_board_init
                0x0000000000000544       0x2a ./rtthread/src/components.o
                0x0000000000000544                rt_components_board_init
 .text.rt_components_init
                0x000000000000056e       0x2a ./rtthread/src/components.o
                0x000000000000056e                rt_components_init
 .text.main_thread_entry
                0x0000000000000598        0xe ./rtthread/src/components.o
                0x0000000000000598                main_thread_entry
 .text.rt_application_init
                0x00000000000005a6       0x3e ./rtthread/src/components.o
                0x00000000000005a6                rt_application_init
 .text.rtthread_startup
                0x00000000000005e4       0x24 ./rtthread/src/components.o
                0x00000000000005e4                rtthread_startup
 .text.entry    0x0000000000000608        0xe ./rtthread/src/components.o
                0x0000000000000608                entry
 .text.rt_thread_idle_excute
                0x0000000000000616       0x84 ./rtthread/src/idle.o
                0x0000000000000616                rt_thread_idle_excute
 .text.rt_thread_idle_entry
                0x000000000000069a        0x8 ./rtthread/src/idle.o
 .text.rt_thread_idle_init
                0x00000000000006a2       0x38 ./rtthread/src/idle.o
                0x00000000000006a2                rt_thread_idle_init
 .text.rt_interrupt_enter
                0x00000000000006da       0x1a ./rtthread/src/irq.o
                0x00000000000006da                rt_interrupt_enter
 .text.rt_interrupt_leave
                0x00000000000006f4       0x1a ./rtthread/src/irq.o
                0x00000000000006f4                rt_interrupt_leave
 .text.rt_memset
                0x000000000000070e       0x88 ./rtthread/src/kservice.o
                0x000000000000070e                rt_memset
 .text.rt_strncpy
                0x0000000000000796       0x2c ./rtthread/src/kservice.o
                0x0000000000000796                rt_strncpy
 .text.rt_show_version
                0x00000000000007c2        0x2 ./rtthread/src/kservice.o
                0x00000000000007c2                rt_show_version
 .text.__rt_ffs
                0x00000000000007c4       0x56 ./rtthread/src/kservice.o
                0x00000000000007c4                __rt_ffs
 .text.rt_object_init
                0x000000000000081a       0x90 ./rtthread/src/object.o
                0x000000000000081a                rt_object_init
 .text.rt_object_detach
                0x00000000000008aa       0x2a ./rtthread/src/object.o
                0x00000000000008aa                rt_object_detach
 .text.rt_object_is_systemobject
                0x00000000000008d4        0x8 ./rtthread/src/object.o
                0x00000000000008d4                rt_object_is_systemobject
 .text.rt_system_scheduler_init
                0x00000000000008dc       0x34 ./rtthread/src/scheduler.o
                0x00000000000008dc                rt_system_scheduler_init
 .text.rt_system_scheduler_start
                0x0000000000000910       0x28 ./rtthread/src/scheduler.o
                0x0000000000000910                rt_system_scheduler_start
 .text.rt_schedule
                0x0000000000000938       0x6c ./rtthread/src/scheduler.o
                0x0000000000000938                rt_schedule
 .text.rt_schedule_insert_thread
                0x00000000000009a4       0x4a ./rtthread/src/scheduler.o
                0x00000000000009a4                rt_schedule_insert_thread
 .text.rt_schedule_remove_thread
                0x00000000000009ee       0x48 ./rtthread/src/scheduler.o
                0x00000000000009ee                rt_schedule_remove_thread
 .text.rt_enter_critical
                0x0000000000000a36       0x22 ./rtthread/src/scheduler.o
                0x0000000000000a36                rt_enter_critical
 .text.rt_exit_critical
                0x0000000000000a58       0x44 ./rtthread/src/scheduler.o
                0x0000000000000a58                rt_exit_critical
 .text.rt_thread_exit
                0x0000000000000a9c       0x5c ./rtthread/src/thread.o
                0x0000000000000a9c                rt_thread_exit
 .text.rt_thread_timeout
                0x0000000000000af8       0x20 ./rtthread/src/thread.o
                0x0000000000000af8                rt_thread_timeout
 .text.rt_thread_init
                0x0000000000000b18       0x9e ./rtthread/src/thread.o
                0x0000000000000b18                rt_thread_init
 .text.rt_thread_self
                0x0000000000000bb6        0x6 ./rtthread/src/thread.o
                0x0000000000000bb6                rt_thread_self
 .text.rt_thread_yield
                0x0000000000000bbc       0x58 ./rtthread/src/thread.o
                0x0000000000000bbc                rt_thread_yield
 .text.rt_thread_suspend
                0x0000000000000c14       0x4a ./rtthread/src/thread.o
                0x0000000000000c14                rt_thread_suspend
 .text.rt_thread_sleep
                0x0000000000000c5e       0x4c ./rtthread/src/thread.o
                0x0000000000000c5e                rt_thread_sleep
 .text.rt_thread_delay
                0x0000000000000caa        0x2 ./rtthread/src/thread.o
                0x0000000000000caa                rt_thread_delay
 .text.rt_thread_resume
                0x0000000000000cac       0x4c ./rtthread/src/thread.o
                0x0000000000000cac                rt_thread_resume
 .text.rt_thread_startup
                0x0000000000000cf8       0x2c ./rtthread/src/thread.o
                0x0000000000000cf8                rt_thread_startup
 .text._rt_timer_remove.part.0
                0x0000000000000d24       0x12 ./rtthread/src/timer.o
 .text.rt_timer_init
                0x0000000000000d36       0x40 ./rtthread/src/timer.o
                0x0000000000000d36                rt_timer_init
 .text.rt_timer_detach
                0x0000000000000d76       0x2a ./rtthread/src/timer.o
                0x0000000000000d76                rt_timer_detach
 .text.rt_timer_start
                0x0000000000000da0       0x98 ./rtthread/src/timer.o
                0x0000000000000da0                rt_timer_start
 .text.rt_timer_stop
                0x0000000000000e38       0x3c ./rtthread/src/timer.o
                0x0000000000000e38                rt_timer_stop
 .text.rt_timer_control
                0x0000000000000e74       0x3e ./rtthread/src/timer.o
                0x0000000000000e74                rt_timer_control
 .text.rt_timer_check
                0x0000000000000eb2       0x84 ./rtthread/src/timer.o
                0x0000000000000eb2                rt_timer_check
 .text.rt_system_timer_init
                0x0000000000000f36        0xe ./rtthread/src/timer.o
                0x0000000000000f36                rt_system_timer_init
 .text.rt_system_timer_thread_init
                0x0000000000000f44        0x2 ./rtthread/src/timer.o
                0x0000000000000f44                rt_system_timer_thread_init
 .text.rt_hw_stack_init
                0x0000000000000f46       0x36 ./rtthread/libcpu/risc-v/common/cpuport.o
                0x0000000000000f46                rt_hw_stack_init
 .text.rt_hw_context_switch_interrupt
                0x0000000000000f7c       0x26 ./rtthread/libcpu/risc-v/common/cpuport.o
                0x0000000000000f7c                rt_hw_context_switch_interrupt
 .text.rt_hw_board_init
                0x0000000000000fa2       0xc6 ./rtthread/board.o
                0x0000000000000fa2                rt_hw_board_init
 .text.SysTick_Handler
                0x0000000000001068       0xd2 ./rtthread/board.o
                0x0000000000001068                SysTick_Handler
 .text.NMI_Handler
                0x000000000000113a       0x58 ./User/ch32v10x_it.o
                0x000000000000113a                NMI_Handler
 .text.HardFault_Handler
                0x0000000000001192       0x4a ./User/ch32v10x_it.o
                0x0000000000001192                HardFault_Handler
 .text.startup.main
                0x00000000000011dc      0x112 ./User/main.o
                0x00000000000011dc                main
 .text.SystemInit
                0x00000000000012ee      0x106 ./User/system_ch32v10x.o
                0x00000000000012ee                SystemInit
 .text.SystemCoreClockUpdate
                0x00000000000013f4       0x7e ./User/system_ch32v10x.o
                0x00000000000013f4                SystemCoreClockUpdate
 .text.handle_reset
                0x0000000000001472       0x82 ./Startup/startup_ch32v10x.o
                0x0000000000001472                handle_reset
 .text.PikaStdLib_MemChecker_max
                0x00000000000014f4       0x38 ./PikaScript/pikascript-lib/PikaStdLib/PikaStdLib_MemChecker.o
                0x00000000000014f4                PikaStdLib_MemChecker_max
 .text.PikaStdLib_MemChecker_now
                0x000000000000152c       0x38 ./PikaScript/pikascript-lib/PikaStdLib/PikaStdLib_MemChecker.o
                0x000000000000152c                PikaStdLib_MemChecker_now
 .text.PikaStdLib_MemChecker_resetMax
                0x0000000000001564        0x4 ./PikaScript/pikascript-lib/PikaStdLib/PikaStdLib_MemChecker.o
                0x0000000000001564                PikaStdLib_MemChecker_resetMax
 .text.PikaStdLib_SysObj_remove
                0x0000000000001568       0x60 ./PikaScript/pikascript-lib/PikaStdLib/PikaStdLib_SysObj.o
                0x0000000000001568                PikaStdLib_SysObj_remove
 .text.PikaStdLib_SysObj_type
                0x00000000000015c8       0xa0 ./PikaScript/pikascript-lib/PikaStdLib/PikaStdLib_SysObj.o
                0x00000000000015c8                PikaStdLib_SysObj_type
 .text.PikaStdDevice_GPIO_init
                0x0000000000001668       0x72 ./PikaScript/pikascript-lib/PikaStdDevice/PikaStdDeivce_GPIO.o
                0x0000000000001668                PikaStdDevice_GPIO_init
 .text.PikaStdDevice_GPIO_disable
                0x00000000000016da       0x2c ./PikaScript/pikascript-lib/PikaStdDevice/PikaStdDeivce_GPIO.o
                0x00000000000016da                PikaStdDevice_GPIO_disable
 .text.PikaStdDevice_GPIO_enable
                0x0000000000001706       0x2c ./PikaScript/pikascript-lib/PikaStdDevice/PikaStdDeivce_GPIO.o
                0x0000000000001706                PikaStdDevice_GPIO_enable
 .text.PikaStdDevice_GPIO_getMode
                0x0000000000001732        0xc ./PikaScript/pikascript-lib/PikaStdDevice/PikaStdDeivce_GPIO.o
                0x0000000000001732                PikaStdDevice_GPIO_getMode
 .text.PikaStdDevice_GPIO_getPin
                0x000000000000173e        0xc ./PikaScript/pikascript-lib/PikaStdDevice/PikaStdDeivce_GPIO.o
                0x000000000000173e                PikaStdDevice_GPIO_getPin
 .text.PikaStdDevice_GPIO_low
                0x000000000000174a       0x2c ./PikaScript/pikascript-lib/PikaStdDevice/PikaStdDeivce_GPIO.o
                0x000000000000174a                PikaStdDevice_GPIO_low
 .text.PikaStdDevice_GPIO_high
                0x0000000000001776       0x2c ./PikaScript/pikascript-lib/PikaStdDevice/PikaStdDeivce_GPIO.o
                0x0000000000001776                PikaStdDevice_GPIO_high
 .text.PikaStdDevice_GPIO_read
                0x00000000000017a2       0x2a ./PikaScript/pikascript-lib/PikaStdDevice/PikaStdDeivce_GPIO.o
                0x00000000000017a2                PikaStdDevice_GPIO_read
 .text.PikaStdDevice_GPIO_setMode
                0x00000000000017cc       0x70 ./PikaScript/pikascript-lib/PikaStdDevice/PikaStdDeivce_GPIO.o
                0x00000000000017cc                PikaStdDevice_GPIO_setMode
 .text.PikaStdDevice_GPIO_setPull
                0x000000000000183c       0x72 ./PikaScript/pikascript-lib/PikaStdDevice/PikaStdDeivce_GPIO.o
                0x000000000000183c                PikaStdDevice_GPIO_setPull
 .text.PikaStdDevice_GPIO_setPin
                0x00000000000018ae        0xe ./PikaScript/pikascript-lib/PikaStdDevice/PikaStdDeivce_GPIO.o
                0x00000000000018ae                PikaStdDevice_GPIO_setPin
 .text.PikaStdDevice_GPIO_platformDisable
                0x00000000000018bc       0x22 ./PikaScript/pikascript-lib/PikaStdDevice/PikaStdDeivce_GPIO.o
                0x00000000000018bc                PikaStdDevice_GPIO_platformDisable
 .text.PikaStdDevice_GPIO_platformEnable
                0x00000000000018de        0x2 ./PikaScript/pikascript-lib/PikaStdDevice/PikaStdDeivce_GPIO.o
                0x00000000000018de                PikaStdDevice_GPIO_platformEnable
 .text.PikaStdDevice_GPIO_platformLow
                0x00000000000018e0        0x2 ./PikaScript/pikascript-lib/PikaStdDevice/PikaStdDeivce_GPIO.o
                0x00000000000018e0                PikaStdDevice_GPIO_platformLow
 .text.PikaStdDevice_GPIO_platformHigh
                0x00000000000018e2        0x2 ./PikaScript/pikascript-lib/PikaStdDevice/PikaStdDeivce_GPIO.o
                0x00000000000018e2                PikaStdDevice_GPIO_platformHigh
 .text.PikaStdDevice_GPIO_platformSetMode
                0x00000000000018e4        0x2 ./PikaScript/pikascript-lib/PikaStdDevice/PikaStdDeivce_GPIO.o
                0x00000000000018e4                PikaStdDevice_GPIO_platformSetMode
 .text.PikaStdDevice_GPIO_platformRead
                0x00000000000018e6        0x2 ./PikaScript/pikascript-lib/PikaStdDevice/PikaStdDeivce_GPIO.o
                0x00000000000018e6                PikaStdDevice_GPIO_platformRead
 .text.get_GPIO_group
                0x00000000000018e8       0x72 ./PikaScript/pikascript-lib/CH32V103/CH32V103_GPIO.o
                0x00000000000018e8                get_GPIO_group
 .text.get_GPIO_pin
                0x000000000000195a      0x152 ./PikaScript/pikascript-lib/CH32V103/CH32V103_GPIO.o
                0x000000000000195a                get_GPIO_pin
 .text.get_GPIO_mode
                0x0000000000001aac       0x34 ./PikaScript/pikascript-lib/CH32V103/CH32V103_GPIO.o
                0x0000000000001aac                get_GPIO_mode
 .text.get_GPIO_Clock_group
                0x0000000000001ae0       0x5a ./PikaScript/pikascript-lib/CH32V103/CH32V103_GPIO.o
                0x0000000000001ae0                get_GPIO_Clock_group
 .text.CH32V103_GPIO_platformDisable
                0x0000000000001b3a        0x2 ./PikaScript/pikascript-lib/CH32V103/CH32V103_GPIO.o
                0x0000000000001b3a                CH32V103_GPIO_platformDisable
 .text.CH32V103_GPIO_platformEnable
                0x0000000000001b3c       0x68 ./PikaScript/pikascript-lib/CH32V103/CH32V103_GPIO.o
                0x0000000000001b3c                CH32V103_GPIO_platformEnable
 .text.CH32V103_GPIO_platformHigh
                0x0000000000001ba4       0x30 ./PikaScript/pikascript-lib/CH32V103/CH32V103_GPIO.o
                0x0000000000001ba4                CH32V103_GPIO_platformHigh
 .text.CH32V103_GPIO_platformLow
                0x0000000000001bd4       0x30 ./PikaScript/pikascript-lib/CH32V103/CH32V103_GPIO.o
                0x0000000000001bd4                CH32V103_GPIO_platformLow
 .text.CH32V103_GPIO_platformSetMode
                0x0000000000001c04       0x58 ./PikaScript/pikascript-lib/CH32V103/CH32V103_GPIO.o
                0x0000000000001c04                CH32V103_GPIO_platformSetMode
 .text.CH32V103_Sys_delay
                0x0000000000001c5c        0x6 ./PikaScript/pikascript-lib/CH32V103/CH32V103_Sys.o
                0x0000000000001c5c                CH32V103_Sys_delay
 .text.print    0x0000000000001c62       0x50 ./PikaScript/pikascript-core/BaseObj.o
 .text.arg_setMetaObj
                0x0000000000001cb2       0x36 ./PikaScript/pikascript-core/BaseObj.o
                0x0000000000001cb2                arg_setMetaObj
 .text.obj_newObj
                0x0000000000001ce8       0x22 ./PikaScript/pikascript-core/BaseObj.o
                0x0000000000001ce8                obj_newObj
 .text.New_BaseObj
                0x0000000000001d0a       0x2a ./PikaScript/pikascript-core/BaseObj.o
                0x0000000000001d0a                New_BaseObj
 .text.__foreach_removeMethodInfo
                0x0000000000001d34       0x2a ./PikaScript/pikascript-core/PikaObj.o
                0x0000000000001d34                __foreach_removeMethodInfo
 .text.fast_atoi
                0x0000000000001d5e       0x7c ./PikaScript/pikascript-core/PikaObj.o
                0x0000000000001d5e                fast_atoi
 .text.fast_itoa
                0x0000000000001dda       0x5a ./PikaScript/pikascript-core/PikaObj.o
                0x0000000000001dda                fast_itoa
 .text.deinitAllSubObj
                0x0000000000001e34       0x10 ./PikaScript/pikascript-core/PikaObj.o
                0x0000000000001e34                deinitAllSubObj
 .text.obj_deinit
                0x0000000000001e44       0x22 ./PikaScript/pikascript-core/PikaObj.o
                0x0000000000001e44                obj_deinit
 .text.deinitEachSubObj
                0x0000000000001e66       0x2e ./PikaScript/pikascript-core/PikaObj.o
                0x0000000000001e66                deinitEachSubObj
 .text.getNewClassObjFunByName
                0x0000000000001e94        0x6 ./PikaScript/pikascript-core/PikaObj.o
                0x0000000000001e94                getNewClassObjFunByName
 .text.removeMethodInfo
                0x0000000000001e9a       0x22 ./PikaScript/pikascript-core/PikaObj.o
                0x0000000000001e9a                removeMethodInfo
 .text.obj_getObj
                0x0000000000001ebc       0x68 ./PikaScript/pikascript-core/PikaObj.o
                0x0000000000001ebc                obj_getObj
 .text.obj_setInt
                0x0000000000001f24       0x54 ./PikaScript/pikascript-core/PikaObj.o
                0x0000000000001f24                obj_setInt
 .text.obj_setPtr
                0x0000000000001f78       0x4c ./PikaScript/pikascript-core/PikaObj.o
                0x0000000000001f78                obj_setPtr
 .text.obj_getClassObjByNewFun
                0x0000000000001fc4       0x36 ./PikaScript/pikascript-core/PikaObj.o
                0x0000000000001fc4                obj_getClassObjByNewFun
 .text.newRootObj
                0x0000000000001ffa       0x12 ./PikaScript/pikascript-core/PikaObj.o
                0x0000000000001ffa                newRootObj
 .text.obj_setStr
                0x000000000000200c       0x4c ./PikaScript/pikascript-core/PikaObj.o
                0x000000000000200c                obj_setStr
 .text.obj_getInt
                0x0000000000002058       0x52 ./PikaScript/pikascript-core/PikaObj.o
                0x0000000000002058                obj_getInt
 .text.obj_getArg
                0x00000000000020aa       0x44 ./PikaScript/pikascript-core/PikaObj.o
                0x00000000000020aa                obj_getArg
 .text.obj_setArg
                0x00000000000020ee       0x5c ./PikaScript/pikascript-core/PikaObj.o
                0x00000000000020ee                obj_setArg
 .text.obj_getPtr
                0x000000000000214a       0x46 ./PikaScript/pikascript-core/PikaObj.o
                0x000000000000214a                obj_getPtr
 .text.obj_getClassObj
                0x0000000000002190       0x28 ./PikaScript/pikascript-core/PikaObj.o
                0x0000000000002190                obj_getClassObj
 .text.obj_getMethod
                0x00000000000021b8       0x5a ./PikaScript/pikascript-core/PikaObj.o
                0x00000000000021b8                obj_getMethod
 .text.initObj  0x0000000000002212       0x58 ./PikaScript/pikascript-core/PikaObj.o
                0x0000000000002212                initObj
 .text.obj_getObjDirect
                0x000000000000226a       0x4c ./PikaScript/pikascript-core/PikaObj.o
                0x000000000000226a                obj_getObjDirect
 .text.obj_getStr
                0x00000000000022b6       0x46 ./PikaScript/pikascript-core/PikaObj.o
                0x00000000000022b6                obj_getStr
 .text.methodArg_getPtr
                0x00000000000022fc       0x1a ./PikaScript/pikascript-core/PikaObj.o
                0x00000000000022fc                methodArg_getPtr
 .text.methodArg_getDec
                0x0000000000002316       0x10 ./PikaScript/pikascript-core/PikaObj.o
                0x0000000000002316                methodArg_getDec
 .text.obj_saveMethodInfo
                0x0000000000002326       0x9c ./PikaScript/pikascript-core/PikaObj.o
                0x0000000000002326                obj_saveMethodInfo
 .text.class_defineMethod
                0x00000000000023c2       0x8c ./PikaScript/pikascript-core/PikaObj.o
                0x00000000000023c2                class_defineMethod
 .text.obj_runDirect
                0x000000000000244e        0x4 ./PikaScript/pikascript-core/PikaObj.o
                0x000000000000244e                obj_runDirect
 .text.obj_removeArg
                0x0000000000002452       0x78 ./PikaScript/pikascript-core/PikaObj.o
                0x0000000000002452                obj_removeArg
 .text.obj_isArgExist
                0x00000000000024ca       0x4a ./PikaScript/pikascript-core/PikaObj.o
                0x00000000000024ca                obj_isArgExist
 .text.obj_run  0x0000000000002514        0x4 ./PikaScript/pikascript-core/PikaObj.o
                0x0000000000002514                obj_run
 .text.obj_setErrorCode
                0x0000000000002518       0x12 ./PikaScript/pikascript-core/PikaObj.o
                0x0000000000002518                obj_setErrorCode
 .text.obj_getErrorCode
                0x000000000000252a       0x2a ./PikaScript/pikascript-core/PikaObj.o
                0x000000000000252a                obj_getErrorCode
 .text.args_setErrorCode
                0x0000000000002554       0x12 ./PikaScript/pikascript-core/PikaObj.o
                0x0000000000002554                args_setErrorCode
 .text.args_getErrorCode
                0x0000000000002566       0x2c ./PikaScript/pikascript-core/PikaObj.o
                0x0000000000002566                args_getErrorCode
 .text.obj_setSysOut
                0x0000000000002592        0xe ./PikaScript/pikascript-core/PikaObj.o
                0x0000000000002592                obj_setSysOut
 .text.obj_getSysOut
                0x00000000000025a0        0xc ./PikaScript/pikascript-core/PikaObj.o
                0x00000000000025a0                obj_getSysOut
 .text.args_getSysOut
                0x00000000000025ac        0xc ./PikaScript/pikascript-core/PikaObj.o
                0x00000000000025ac                args_getSysOut
 .text.args_setSysOut
                0x00000000000025b8        0xe ./PikaScript/pikascript-core/PikaObj.o
                0x00000000000025b8                args_setSysOut
 .text.obj_sysPrintf
                0x00000000000025c6       0x46 ./PikaScript/pikascript-core/PikaObj.o
                0x00000000000025c6                obj_sysPrintf
 .text.method_returnStr
                0x000000000000260c        0xe ./PikaScript/pikascript-core/PikaObj.o
                0x000000000000260c                method_returnStr
 .text.method_returnInt
                0x000000000000261a       0x12 ./PikaScript/pikascript-core/PikaObj.o
                0x000000000000261a                method_returnInt
 .text.method_returnArg
                0x000000000000262c       0x24 ./PikaScript/pikascript-core/PikaObj.o
                0x000000000000262c                method_returnArg
 .text.New_PikaObj
                0x0000000000002650       0x20 ./PikaScript/pikascript-core/PikaObj.o
                0x0000000000002650                New_PikaObj
 .text.addBlockDeepth
                0x0000000000002670       0x62 ./PikaScript/pikascript-core/PikaParser.o
 .text.strsPopTokenWithSkip
                0x00000000000026d2       0x9e ./PikaScript/pikascript-core/PikaParser.o
                0x00000000000026d2                strsPopTokenWithSkip
 .text.strs_deleteBetween
                0x0000000000002770       0x72 ./PikaScript/pikascript-core/PikaParser.o
                0x0000000000002770                strs_deleteBetween
 .text.checkIsEqu
                0x00000000000027e2       0x3c ./PikaScript/pikascript-core/PikaParser.o
                0x00000000000027e2                checkIsEqu
 .text.checkIsDirect
                0x000000000000281e       0x4a ./PikaScript/pikascript-core/PikaParser.o
                0x000000000000281e                checkIsDirect
 .text.AST_parseStmt
                0x0000000000002868      0x31c ./PikaScript/pikascript-core/PikaParser.o
                0x0000000000002868                AST_parseStmt
 .text.pikaParseLine
                0x0000000000002b84      0x290 ./PikaScript/pikascript-core/PikaParser.o
                0x0000000000002b84                pikaParseLine
 .text.AST_appandPikaAsm
                0x0000000000002e14      0x1fc ./PikaScript/pikascript-core/PikaParser.o
                0x0000000000002e14                AST_appandPikaAsm
 .text.AST_toPikaAsm
                0x0000000000003010      0x200 ./PikaScript/pikascript-core/PikaParser.o
                0x0000000000003010                AST_toPikaAsm
 .text.AST_deinit
                0x0000000000003210        0x4 ./PikaScript/pikascript-core/PikaParser.o
                0x0000000000003210                AST_deinit
 .text.pikaParseLineToAsm
                0x0000000000003214       0x2e ./PikaScript/pikascript-core/PikaParser.o
                0x0000000000003214                pikaParseLineToAsm
 .text.pikaParseMultiLineToAsm
                0x0000000000003242       0xf8 ./PikaScript/pikascript-core/PikaParser.o
                0x0000000000003242                pikaParseMultiLineToAsm
 .text.__platformDisableIrqHandle
                0x000000000000333a        0x2 ./PikaScript/pikascript-core/PikaPlatform.o
                0x000000000000333a                __platformDisableIrqHandle
 .text.__platformEnableIrqHandle
                0x000000000000333c        0x2 ./PikaScript/pikascript-core/PikaPlatform.o
                0x000000000000333c                __platformEnableIrqHandle
 .text.__platformMalloc
                0x000000000000333e        0x4 ./PikaScript/pikascript-core/PikaPlatform.o
                0x000000000000333e                __platformMalloc
 .text.__platformFree
                0x0000000000003342        0x4 ./PikaScript/pikascript-core/PikaPlatform.o
                0x0000000000003342                __platformFree
 .text.__impl_pikaMalloc
                0x0000000000003346        0x4 ./PikaScript/pikascript-core/PikaPlatform.o
                0x0000000000003346                __impl_pikaMalloc
 .text.__impl_pikaFree
                0x000000000000334a        0x4 ./PikaScript/pikascript-core/PikaPlatform.o
                0x000000000000334a                __impl_pikaFree
 .text.__isLocked_pikaMemory
                0x000000000000334e        0x4 ./PikaScript/pikascript-core/PikaPlatform.o
                0x000000000000334e                __isLocked_pikaMemory
 .text.__platformPrintf
                0x0000000000003352       0x20 ./PikaScript/pikascript-core/PikaPlatform.o
                0x0000000000003352                __platformPrintf
 .text.__platformLoadPikaAsm
                0x0000000000003372        0x4 ./PikaScript/pikascript-core/PikaPlatform.o
                0x0000000000003372                __platformLoadPikaAsm
 .text.__platformSavePikaAsm
                0x0000000000003376        0x4 ./PikaScript/pikascript-core/PikaPlatform.o
                0x0000000000003376                __platformSavePikaAsm
 .text.__platformAsmIsToFlash
                0x000000000000337a        0x4 ./PikaScript/pikascript-core/PikaPlatform.o
                0x000000000000337a                __platformAsmIsToFlash
 .text.__platformSavePikaAsmEOF
                0x000000000000337e        0x4 ./PikaScript/pikascript-core/PikaPlatform.o
                0x000000000000337e                __platformSavePikaAsmEOF
 .text.__clearInvokeQueues
                0x0000000000003382       0x60 ./PikaScript/pikascript-core/PikaVM.o
                0x0000000000003382                __clearInvokeQueues
 .text.gotoNextLine
                0x00000000000033e2       0x16 ./PikaScript/pikascript-core/PikaVM.o
                0x00000000000033e2                gotoNextLine
 .text.gotoLastLine
                0x00000000000033f8       0x22 ./PikaScript/pikascript-core/PikaVM.o
                0x00000000000033f8                gotoLastLine
 .text.getThisBlockDeepth
                0x000000000000341a       0x44 ./PikaScript/pikascript-core/PikaVM.o
                0x000000000000341a                getThisBlockDeepth
 .text.getAddrOffsetFromJmp
                0x000000000000345e       0xae ./PikaScript/pikascript-core/PikaVM.o
                0x000000000000345e                getAddrOffsetFromJmp
 .text.pikaVM_runAsmWithPars
                0x000000000000350c       0xe2 ./PikaScript/pikascript-core/PikaVM.o
                0x000000000000350c                pikaVM_runAsmWithPars
 .text.pikaVM_runInstruct
                0x00000000000035ee      0x6aa ./PikaScript/pikascript-core/PikaVM.o
                0x00000000000035ee                pikaVM_runInstruct
 .text.pikaVM_runAsmLine
                0x0000000000003c98      0x224 ./PikaScript/pikascript-core/PikaVM.o
                0x0000000000003c98                pikaVM_runAsmLine
 .text.pikaVM_runAsm
                0x0000000000003ebc        0xa ./PikaScript/pikascript-core/PikaVM.o
                0x0000000000003ebc                pikaVM_runAsm
 .text.pikaVM_run
                0x0000000000003ec6       0x34 ./PikaScript/pikascript-core/PikaVM.o
                0x0000000000003ec6                pikaVM_run
 .text.New_TinyObj
                0x0000000000003efa        0x4 ./PikaScript/pikascript-core/TinyObj.o
                0x0000000000003efa                New_TinyObj
 .text.content_setNext
                0x0000000000003efe       0x22 ./PikaScript/pikascript-core/dataArg.o
                0x0000000000003efe                content_setNext
 .text.hash_time33
                0x0000000000003f20       0x20 ./PikaScript/pikascript-core/dataArg.o
                0x0000000000003f20                hash_time33
 .text.content_init_hash
                0x0000000000003f40       0x94 ./PikaScript/pikascript-core/dataArg.o
                0x0000000000003f40                content_init_hash
 .text.content_init
                0x0000000000003fd4       0x20 ./PikaScript/pikascript-core/dataArg.o
                0x0000000000003fd4                content_init
 .text.content_totleSize
                0x0000000000003ff4       0x14 ./PikaScript/pikascript-core/dataArg.o
                0x0000000000003ff4                content_totleSize
 .text.content_getNameHash
                0x0000000000004008       0x18 ./PikaScript/pikascript-core/dataArg.o
                0x0000000000004008                content_getNameHash
 .text.content_deinit
                0x0000000000004020       0x1e ./PikaScript/pikascript-core/dataArg.o
                0x0000000000004020                content_deinit
 .text.arg_freeContent
                0x000000000000403e        0x8 ./PikaScript/pikascript-core/dataArg.o
                0x000000000000403e                arg_freeContent
 .text.arg_deinit
                0x0000000000004046        0x4 ./PikaScript/pikascript-core/dataArg.o
                0x0000000000004046                arg_deinit
 .text.arg_newContent
                0x000000000000404a       0x36 ./PikaScript/pikascript-core/dataArg.o
                0x000000000000404a                arg_newContent
 .text.content_getNext
                0x0000000000004080       0x1c ./PikaScript/pikascript-core/dataArg.o
                0x0000000000004080                content_getNext
 .text.content_setType
                0x000000000000409c       0x62 ./PikaScript/pikascript-core/dataArg.o
                0x000000000000409c                content_setType
 .text.arg_setType
                0x00000000000040fe        0x4 ./PikaScript/pikascript-core/dataArg.o
                0x00000000000040fe                arg_setType
 .text.arg_getContent
                0x0000000000004102        0x4 ./PikaScript/pikascript-core/dataArg.o
                0x0000000000004102                arg_getContent
 .text.arg_setInt
                0x0000000000004106       0x1a ./PikaScript/pikascript-core/dataArg.o
                0x0000000000004106                arg_setInt
 .text.arg_setFloat
                0x0000000000004120       0x32 ./PikaScript/pikascript-core/dataArg.o
                0x0000000000004120                arg_setFloat
 .text.arg_getFloat
                0x0000000000004152       0x38 ./PikaScript/pikascript-core/dataArg.o
                0x0000000000004152                arg_getFloat
 .text.arg_setPtr
                0x000000000000418a       0x1a ./PikaScript/pikascript-core/dataArg.o
                0x000000000000418a                arg_setPtr
 .text.arg_setStr
                0x00000000000041a4       0x2a ./PikaScript/pikascript-core/dataArg.o
                0x00000000000041a4                arg_setStr
 .text.arg_getInt
                0x00000000000041ce       0x3c ./PikaScript/pikascript-core/dataArg.o
                0x00000000000041ce                arg_getInt
 .text.arg_getPtr
                0x000000000000420a       0x24 ./PikaScript/pikascript-core/dataArg.o
                0x000000000000420a                arg_getPtr
 .text.arg_getStr
                0x000000000000422e        0x4 ./PikaScript/pikascript-core/dataArg.o
                0x000000000000422e                arg_getStr
 .text.content_typeOffset
                0x0000000000004232       0x14 ./PikaScript/pikascript-core/dataArg.o
                0x0000000000004232                content_typeOffset
 .text.content_getType
                0x0000000000004246       0x22 ./PikaScript/pikascript-core/dataArg.o
                0x0000000000004246                content_getType
 .text.content_setContent
                0x0000000000004268       0x5a ./PikaScript/pikascript-core/dataArg.o
                0x0000000000004268                content_setContent
 .text.arg_setContent
                0x00000000000042c2        0x8 ./PikaScript/pikascript-core/dataArg.o
                0x00000000000042c2                arg_setContent
 .text.content_setNameHash
                0x00000000000042ca       0x66 ./PikaScript/pikascript-core/dataArg.o
                0x00000000000042ca                content_setNameHash
 .text.content_setName
                0x0000000000004330       0x66 ./PikaScript/pikascript-core/dataArg.o
                0x0000000000004330                content_setName
 .text.arg_setName
                0x0000000000004396        0x4 ./PikaScript/pikascript-core/dataArg.o
                0x0000000000004396                arg_setName
 .text.arg_getNameHash
                0x000000000000439a       0x10 ./PikaScript/pikascript-core/dataArg.o
                0x000000000000439a                arg_getNameHash
 .text.arg_getType
                0x00000000000043aa        0x8 ./PikaScript/pikascript-core/dataArg.o
                0x00000000000043aa                arg_getType
 .text.arg_getContentSize
                0x00000000000043b2       0x12 ./PikaScript/pikascript-core/dataArg.o
                0x00000000000043b2                arg_getContentSize
 .text.New_arg  0x00000000000043c4        0x4 ./PikaScript/pikascript-core/dataArg.o
                0x00000000000043c4                New_arg
 .text.arg_copy
                0x00000000000043c8       0x5a ./PikaScript/pikascript-core/dataArg.o
                0x00000000000043c8                arg_copy
 .text.args_deinit
                0x0000000000004422        0x2 ./PikaScript/pikascript-core/dataArgs.o
                0x0000000000004422                args_deinit
 .text.args_getBuff
                0x0000000000004424       0x30 ./PikaScript/pikascript-core/dataArgs.o
                0x0000000000004424                args_getBuff
 .text.updateArg
                0x0000000000004454       0x8e ./PikaScript/pikascript-core/dataArgs.o
                0x0000000000004454                updateArg
 .text.args_getNode_hash
                0x00000000000044e2       0x38 ./PikaScript/pikascript-core/dataArgs.o
                0x00000000000044e2                args_getNode_hash
 .text.args_getNode
                0x000000000000451a       0x1c ./PikaScript/pikascript-core/dataArgs.o
                0x000000000000451a                args_getNode
 .text.args_getArg_hash
                0x0000000000004536        0x4 ./PikaScript/pikascript-core/dataArgs.o
                0x0000000000004536                args_getArg_hash
 .text.args_isArgExist_hash
                0x000000000000453a       0x12 ./PikaScript/pikascript-core/dataArgs.o
                0x000000000000453a                args_isArgExist_hash
 .text.args_setArg
                0x000000000000454c       0x36 ./PikaScript/pikascript-core/dataArgs.o
                0x000000000000454c                args_setArg
 .text.args_setPtr
                0x0000000000004582       0x2e ./PikaScript/pikascript-core/dataArgs.o
                0x0000000000004582                args_setPtr
 .text.args_setStr
                0x00000000000045b0       0x2c ./PikaScript/pikascript-core/dataArgs.o
                0x00000000000045b0                args_setStr
 .text.args_setInt
                0x00000000000045dc       0x30 ./PikaScript/pikascript-core/dataArgs.o
                0x00000000000045dc                args_setInt
 .text.args_getArg
                0x000000000000460c        0x4 ./PikaScript/pikascript-core/dataArgs.o
                0x000000000000460c                args_getArg
 .text.args_getPtr
                0x0000000000004610       0x18 ./PikaScript/pikascript-core/dataArgs.o
                0x0000000000004610                args_getPtr
 .text.args_getStr
                0x0000000000004628       0x30 ./PikaScript/pikascript-core/dataArgs.o
                0x0000000000004628                args_getStr
 .text.args_getInt
                0x0000000000004658       0x22 ./PikaScript/pikascript-core/dataArgs.o
                0x0000000000004658                args_getInt
 .text.args_getType
                0x000000000000467a       0x18 ./PikaScript/pikascript-core/dataArgs.o
                0x000000000000467a                args_getType
 .text.args_getFloat
                0x0000000000004692       0x20 ./PikaScript/pikascript-core/dataArgs.o
                0x0000000000004692                args_getFloat
 .text.args_isArgExist
                0x00000000000046b2       0x12 ./PikaScript/pikascript-core/dataArgs.o
                0x00000000000046b2                args_isArgExist
 .text.getPrintSring
                0x00000000000046c4       0x5c ./PikaScript/pikascript-core/dataArgs.o
                0x00000000000046c4                getPrintSring
 .text.getPrintStringFromInt
                0x0000000000004720       0x46 ./PikaScript/pikascript-core/dataArgs.o
                0x0000000000004720                getPrintStringFromInt
 .text.getPrintStringFromFloat
                0x0000000000004766       0x52 ./PikaScript/pikascript-core/dataArgs.o
                0x0000000000004766                getPrintStringFromFloat
 .text.getPrintStringFromPtr
                0x00000000000047b8       0x4a ./PikaScript/pikascript-core/dataArgs.o
                0x00000000000047b8                getPrintStringFromPtr
 .text.args_print
                0x0000000000004802       0x9a ./PikaScript/pikascript-core/dataArgs.o
                0x0000000000004802                args_print
 .text.args_setPtrWithType
                0x000000000000489c       0x30 ./PikaScript/pikascript-core/dataArgs.o
                0x000000000000489c                args_setPtrWithType
 .text.args_foreach
                0x00000000000048cc       0x36 ./PikaScript/pikascript-core/dataArgs.o
                0x00000000000048cc                args_foreach
 .text.args_removeArg
                0x0000000000004902       0x14 ./PikaScript/pikascript-core/dataArgs.o
                0x0000000000004902                args_removeArg
 .text.New_args
                0x0000000000004916        0x4 ./PikaScript/pikascript-core/dataArgs.o
                0x0000000000004916                New_args
 .text.link_deinit
                0x000000000000491a       0x30 ./PikaScript/pikascript-core/dataLink.o
                0x000000000000491a                link_deinit
 .text.link_addNode
                0x000000000000494a        0xc ./PikaScript/pikascript-core/dataLink.o
                0x000000000000494a                link_addNode
 .text.link_removeNode
                0x0000000000004956       0x66 ./PikaScript/pikascript-core/dataLink.o
                0x0000000000004956                link_removeNode
 .text.New_link
                0x00000000000049bc       0x12 ./PikaScript/pikascript-core/dataLink.o
                0x00000000000049bc                New_link
 .text.linkNode_deinit
                0x00000000000049ce        0x4 ./PikaScript/pikascript-core/dataLinkNode.o
                0x00000000000049ce                linkNode_deinit
 .text.pikaMalloc
                0x00000000000049d2       0x4e ./PikaScript/pikascript-core/dataMemory.o
                0x00000000000049d2                pikaMalloc
 .text.pikaFree
                0x0000000000004a20       0x3a ./PikaScript/pikascript-core/dataMemory.o
                0x0000000000004a20                pikaFree
 .text.pikaMemNow
                0x0000000000004a5a        0xa ./PikaScript/pikascript-core/dataMemory.o
                0x0000000000004a5a                pikaMemNow
 .text.pikaMemMax
                0x0000000000004a64        0x6 ./PikaScript/pikascript-core/dataMemory.o
                0x0000000000004a64                pikaMemMax
 .text.pikaMemMaxReset
                0x0000000000004a6a        0x6 ./PikaScript/pikascript-core/dataMemory.o
                0x0000000000004a6a                pikaMemMaxReset
 .text.New_queue
                0x0000000000004a70       0x3a ./PikaScript/pikascript-core/dataQueue.o
                0x0000000000004a70                New_queue
 .text.queue_pushArg
                0x0000000000004aaa       0x58 ./PikaScript/pikascript-core/dataQueue.o
                0x0000000000004aaa                queue_pushArg
 .text.queue_popArg
                0x0000000000004b02       0x4a ./PikaScript/pikascript-core/dataQueue.o
                0x0000000000004b02                queue_popArg
 .text.queueObj_init
                0x0000000000004b4c       0x34 ./PikaScript/pikascript-core/dataQueueObj.o
                0x0000000000004b4c                queueObj_init
 .text.New_queueObj
                0x0000000000004b80       0x1a ./PikaScript/pikascript-core/dataQueueObj.o
                0x0000000000004b80                New_queueObj
 .text.queueObj_pushObj
                0x0000000000004b9a       0x68 ./PikaScript/pikascript-core/dataQueueObj.o
                0x0000000000004b9a                queueObj_pushObj
 .text.queueObj_getCurrentObj
                0x0000000000004c02       0x30 ./PikaScript/pikascript-core/dataQueueObj.o
                0x0000000000004c02                queueObj_getCurrentObj
 .text.queueObj_popObj
                0x0000000000004c32       0x5a ./PikaScript/pikascript-core/dataQueueObj.o
                0x0000000000004c32                queueObj_popObj
 .text.queueObj_pushStr
                0x0000000000004c8c       0x60 ./PikaScript/pikascript-core/dataQueueObj.o
                0x0000000000004c8c                queueObj_pushStr
 .text.queueObj_popStr
                0x0000000000004cec       0x58 ./PikaScript/pikascript-core/dataQueueObj.o
                0x0000000000004cec                queueObj_popStr
 .text.New_Stack
                0x0000000000004d44       0x28 ./PikaScript/pikascript-core/dataStack.o
                0x0000000000004d44                New_Stack
 .text.stack_deinit
                0x0000000000004d6c       0x10 ./PikaScript/pikascript-core/dataStack.o
                0x0000000000004d6c                stack_deinit
 .text.stack_pushStr
                0x0000000000004d7c       0x60 ./PikaScript/pikascript-core/dataStack.o
                0x0000000000004d7c                stack_pushStr
 .text.stack_popStr
                0x0000000000004ddc       0x6e ./PikaScript/pikascript-core/dataStack.o
                0x0000000000004ddc                stack_popStr
 .text.strCut   0x0000000000004e4a       0x8e ./PikaScript/pikascript-core/dataString.o
                0x0000000000004e4a                strCut
 .text.strDeleteChar
                0x0000000000004ed8       0x4e ./PikaScript/pikascript-core/dataString.o
                0x0000000000004ed8                strDeleteChar
 .text.strAppendWithSize
                0x0000000000004f26       0x42 ./PikaScript/pikascript-core/dataString.o
                0x0000000000004f26                strAppendWithSize
 .text.strCountSign
                0x0000000000004f68       0x34 ./PikaScript/pikascript-core/dataString.o
                0x0000000000004f68                strCountSign
 .text.strGetTokenNum
                0x0000000000004f9c       0x10 ./PikaScript/pikascript-core/dataString.o
                0x0000000000004f9c                strGetTokenNum
 .text.strGetSize
                0x0000000000004fac        0x4 ./PikaScript/pikascript-core/dataString.o
                0x0000000000004fac                strGetSize
 .text.strGetLastToken
                0x0000000000004fb0       0x6e ./PikaScript/pikascript-core/dataString.o
                0x0000000000004fb0                strGetLastToken
 .text.strPopToken
                0x000000000000501e       0x62 ./PikaScript/pikascript-core/dataString.o
                0x000000000000501e                strPopToken
 .text.strGetFirstToken
                0x0000000000005080       0x46 ./PikaScript/pikascript-core/dataString.o
                0x0000000000005080                strGetFirstToken
 .text.strAppend
                0x00000000000050c6       0x20 ./PikaScript/pikascript-core/dataString.o
                0x00000000000050c6                strAppend
 .text.strIsStartWith
                0x00000000000050e6       0x4a ./PikaScript/pikascript-core/dataString.o
                0x00000000000050e6                strIsStartWith
 .text.strEqu   0x0000000000005130       0x20 ./PikaScript/pikascript-core/dataString.o
                0x0000000000005130                strEqu
 .text.strRemovePrefix
                0x0000000000005150       0x5a ./PikaScript/pikascript-core/dataString.o
                0x0000000000005150                strRemovePrefix
 .text.strIsContain
                0x00000000000051aa       0x34 ./PikaScript/pikascript-core/dataString.o
                0x00000000000051aa                strIsContain
 .text.strCopy  0x00000000000051de       0x24 ./PikaScript/pikascript-core/dataString.o
                0x00000000000051de                strCopy
 .text.New_strBuff
                0x0000000000005202        0x6 ./PikaScript/pikascript-core/dataStrs.o
                0x0000000000005202                New_strBuff
 .text.strsRemovePrefix
                0x0000000000005208       0x32 ./PikaScript/pikascript-core/dataStrs.o
                0x0000000000005208                strsRemovePrefix
 .text.strsAppend
                0x000000000000523a       0x48 ./PikaScript/pikascript-core/dataStrs.o
                0x000000000000523a                strsAppend
 .text.strsGetLastToken
                0x0000000000005282       0x2c ./PikaScript/pikascript-core/dataStrs.o
                0x0000000000005282                strsGetLastToken
 .text.strsCut  0x00000000000052ae       0x30 ./PikaScript/pikascript-core/dataStrs.o
                0x00000000000052ae                strsCut
 .text.strsDeleteChar
                0x00000000000052de       0x2c ./PikaScript/pikascript-core/dataStrs.o
                0x00000000000052de                strsDeleteChar
 .text.strsGetFirstToken
                0x000000000000530a       0x44 ./PikaScript/pikascript-core/dataStrs.o
                0x000000000000530a                strsGetFirstToken
 .text.strsPopToken
                0x000000000000534e       0x2c ./PikaScript/pikascript-core/dataStrs.o
                0x000000000000534e                strsPopToken
 .text.strsCopy
                0x000000000000537a       0x28 ./PikaScript/pikascript-core/dataStrs.o
                0x000000000000537a                strsCopy
 .text.strsFormat
                0x00000000000053a2       0x36 ./PikaScript/pikascript-core/dataStrs.o
                0x00000000000053a2                strsFormat
 .text.strsGetCleanCmd
                0x00000000000053d8       0x8c ./PikaScript/pikascript-core/dataStrs.o
                0x00000000000053d8                strsGetCleanCmd
 .text.CH32V103_GPIOMethod
                0x0000000000005464       0x18 ./PikaScript/pikascript-api/CH32V103-api.o
                0x0000000000005464                CH32V103_GPIOMethod
 .text.CH32V103_SysMethod
                0x000000000000547c       0x18 ./PikaScript/pikascript-api/CH32V103-api.o
                0x000000000000547c                CH32V103_SysMethod
 .text.New_CH32V103
                0x0000000000005494       0x40 ./PikaScript/pikascript-api/CH32V103-api.o
                0x0000000000005494                New_CH32V103
 .text.CH32V103_GPIO_platformDisableMethod
                0x00000000000054d4        0x4 ./PikaScript/pikascript-api/CH32V103_GPIO-api.o
                0x00000000000054d4                CH32V103_GPIO_platformDisableMethod
 .text.CH32V103_GPIO_platformEnableMethod
                0x00000000000054d8        0x4 ./PikaScript/pikascript-api/CH32V103_GPIO-api.o
                0x00000000000054d8                CH32V103_GPIO_platformEnableMethod
 .text.CH32V103_GPIO_platformHighMethod
                0x00000000000054dc        0x4 ./PikaScript/pikascript-api/CH32V103_GPIO-api.o
                0x00000000000054dc                CH32V103_GPIO_platformHighMethod
 .text.CH32V103_GPIO_platformLowMethod
                0x00000000000054e0        0x4 ./PikaScript/pikascript-api/CH32V103_GPIO-api.o
                0x00000000000054e0                CH32V103_GPIO_platformLowMethod
 .text.CH32V103_GPIO_platformSetModeMethod
                0x00000000000054e4        0x4 ./PikaScript/pikascript-api/CH32V103_GPIO-api.o
                0x00000000000054e4                CH32V103_GPIO_platformSetModeMethod
 .text.New_CH32V103_GPIO
                0x00000000000054e8       0x80 ./PikaScript/pikascript-api/CH32V103_GPIO-api.o
                0x00000000000054e8                New_CH32V103_GPIO
 .text.CH32V103_GPIO
                0x0000000000005568       0x1c ./PikaScript/pikascript-api/CH32V103_GPIO-api.o
                0x0000000000005568                CH32V103_GPIO
 .text.CH32V103_Sys_delayMethod
                0x0000000000005584       0x24 ./PikaScript/pikascript-api/CH32V103_Sys-api.o
                0x0000000000005584                CH32V103_Sys_delayMethod
 .text.New_CH32V103_Sys
                0x00000000000055a8       0x2a ./PikaScript/pikascript-api/CH32V103_Sys-api.o
                0x00000000000055a8                New_CH32V103_Sys
 .text.CH32V103_Sys
                0x00000000000055d2       0x1c ./PikaScript/pikascript-api/CH32V103_Sys-api.o
                0x00000000000055d2                CH32V103_Sys
 .text.New_PikaMain
                0x00000000000055ee       0x46 ./PikaScript/pikascript-api/PikaMain-api.o
                0x00000000000055ee                New_PikaMain
 .text.PikaStdDevice_GPIO_disableMethod
                0x0000000000005634        0x4 ./PikaScript/pikascript-api/PikaStdDevice_GPIO-api.o
                0x0000000000005634                PikaStdDevice_GPIO_disableMethod
 .text.PikaStdDevice_GPIO_enableMethod
                0x0000000000005638        0x4 ./PikaScript/pikascript-api/PikaStdDevice_GPIO-api.o
                0x0000000000005638                PikaStdDevice_GPIO_enableMethod
 .text.PikaStdDevice_GPIO_getModeMethod
                0x000000000000563c       0x1a ./PikaScript/pikascript-api/PikaStdDevice_GPIO-api.o
                0x000000000000563c                PikaStdDevice_GPIO_getModeMethod
 .text.PikaStdDevice_GPIO_getPinMethod
                0x0000000000005656       0x1a ./PikaScript/pikascript-api/PikaStdDevice_GPIO-api.o
                0x0000000000005656                PikaStdDevice_GPIO_getPinMethod
 .text.PikaStdDevice_GPIO_highMethod
                0x0000000000005670        0x4 ./PikaScript/pikascript-api/PikaStdDevice_GPIO-api.o
                0x0000000000005670                PikaStdDevice_GPIO_highMethod
 .text.PikaStdDevice_GPIO_initMethod
                0x0000000000005674        0x4 ./PikaScript/pikascript-api/PikaStdDevice_GPIO-api.o
                0x0000000000005674                PikaStdDevice_GPIO_initMethod
 .text.PikaStdDevice_GPIO_lowMethod
                0x0000000000005678        0x4 ./PikaScript/pikascript-api/PikaStdDevice_GPIO-api.o
                0x0000000000005678                PikaStdDevice_GPIO_lowMethod
 .text.PikaStdDevice_GPIO_platformDisableMethod
                0x000000000000567c        0x4 ./PikaScript/pikascript-api/PikaStdDevice_GPIO-api.o
                0x000000000000567c                PikaStdDevice_GPIO_platformDisableMethod
 .text.PikaStdDevice_GPIO_platformEnableMethod
                0x0000000000005680        0x4 ./PikaScript/pikascript-api/PikaStdDevice_GPIO-api.o
                0x0000000000005680                PikaStdDevice_GPIO_platformEnableMethod
 .text.PikaStdDevice_GPIO_platformHighMethod
                0x0000000000005684        0x4 ./PikaScript/pikascript-api/PikaStdDevice_GPIO-api.o
                0x0000000000005684                PikaStdDevice_GPIO_platformHighMethod
 .text.PikaStdDevice_GPIO_platformLowMethod
                0x0000000000005688        0x4 ./PikaScript/pikascript-api/PikaStdDevice_GPIO-api.o
                0x0000000000005688                PikaStdDevice_GPIO_platformLowMethod
 .text.PikaStdDevice_GPIO_platformReadMethod
                0x000000000000568c        0x4 ./PikaScript/pikascript-api/PikaStdDevice_GPIO-api.o
                0x000000000000568c                PikaStdDevice_GPIO_platformReadMethod
 .text.PikaStdDevice_GPIO_platformSetModeMethod
                0x0000000000005690        0x4 ./PikaScript/pikascript-api/PikaStdDevice_GPIO-api.o
                0x0000000000005690                PikaStdDevice_GPIO_platformSetModeMethod
 .text.PikaStdDevice_GPIO_readMethod
                0x0000000000005694       0x1a ./PikaScript/pikascript-api/PikaStdDevice_GPIO-api.o
                0x0000000000005694                PikaStdDevice_GPIO_readMethod
 .text.PikaStdDevice_GPIO_setModeMethod
                0x00000000000056ae       0x24 ./PikaScript/pikascript-api/PikaStdDevice_GPIO-api.o
                0x00000000000056ae                PikaStdDevice_GPIO_setModeMethod
 .text.PikaStdDevice_GPIO_setPinMethod
                0x00000000000056d2       0x24 ./PikaScript/pikascript-api/PikaStdDevice_GPIO-api.o
                0x00000000000056d2                PikaStdDevice_GPIO_setPinMethod
 .text.PikaStdDevice_GPIO_setPullMethod
                0x00000000000056f6       0x24 ./PikaScript/pikascript-api/PikaStdDevice_GPIO-api.o
                0x00000000000056f6                PikaStdDevice_GPIO_setPullMethod
 .text.New_PikaStdDevice_GPIO
                0x000000000000571a      0x18a ./PikaScript/pikascript-api/PikaStdDevice_GPIO-api.o
                0x000000000000571a                New_PikaStdDevice_GPIO
 .text.PikaStdLib_MemCheckerMethod
                0x00000000000058a4       0x18 ./PikaScript/pikascript-api/PikaStdLib-api.o
                0x00000000000058a4                PikaStdLib_MemCheckerMethod
 .text.PikaStdLib_SysObjMethod
                0x00000000000058bc       0x18 ./PikaScript/pikascript-api/PikaStdLib-api.o
                0x00000000000058bc                PikaStdLib_SysObjMethod
 .text.New_PikaStdLib
                0x00000000000058d4       0x40 ./PikaScript/pikascript-api/PikaStdLib-api.o
                0x00000000000058d4                New_PikaStdLib
 .text.PikaStdLib_MemChecker_maxMethod
                0x0000000000005914        0x4 ./PikaScript/pikascript-api/PikaStdLib_MemChecker-api.o
                0x0000000000005914                PikaStdLib_MemChecker_maxMethod
 .text.PikaStdLib_MemChecker_nowMethod
                0x0000000000005918        0x4 ./PikaScript/pikascript-api/PikaStdLib_MemChecker-api.o
                0x0000000000005918                PikaStdLib_MemChecker_nowMethod
 .text.PikaStdLib_MemChecker_resetMaxMethod
                0x000000000000591c        0x4 ./PikaScript/pikascript-api/PikaStdLib_MemChecker-api.o
                0x000000000000591c                PikaStdLib_MemChecker_resetMaxMethod
 .text.New_PikaStdLib_MemChecker
                0x0000000000005920       0x56 ./PikaScript/pikascript-api/PikaStdLib_MemChecker-api.o
                0x0000000000005920                New_PikaStdLib_MemChecker
 .text.PikaStdLib_MemChecker
                0x0000000000005976       0x1c ./PikaScript/pikascript-api/PikaStdLib_MemChecker-api.o
                0x0000000000005976                PikaStdLib_MemChecker
 .text.PikaStdLib_SysObj_removeMethod
                0x0000000000005992       0x24 ./PikaScript/pikascript-api/PikaStdLib_SysObj-api.o
                0x0000000000005992                PikaStdLib_SysObj_removeMethod
 .text.PikaStdLib_SysObj_typeMethod
                0x00000000000059b6       0x24 ./PikaScript/pikascript-api/PikaStdLib_SysObj-api.o
                0x00000000000059b6                PikaStdLib_SysObj_typeMethod
 .text.New_PikaStdLib_SysObj
                0x00000000000059da       0x40 ./PikaScript/pikascript-api/PikaStdLib_SysObj-api.o
                0x00000000000059da                New_PikaStdLib_SysObj
 .text.PikaStdLib_SysObj
                0x0000000000005a1a       0x1c ./PikaScript/pikascript-api/PikaStdLib_SysObj-api.o
                0x0000000000005a1a                PikaStdLib_SysObj
 .text.pikaScriptInit
                0x0000000000005a36       0x32 ./PikaScript/pikascript-api/pikaScript.o
                0x0000000000005a36                pikaScriptInit
 .text.GPIO_Init
                0x0000000000005a68       0xc2 ./Peripheral/src/ch32v10x_gpio.o
                0x0000000000005a68                GPIO_Init
 .text.GPIO_WriteBit
                0x0000000000005b2a        0xa ./Peripheral/src/ch32v10x_gpio.o
                0x0000000000005b2a                GPIO_WriteBit
 .text.RCC_GetClocksFreq
                0x0000000000005b34       0xb0 ./Peripheral/src/ch32v10x_rcc.o
                0x0000000000005b34                RCC_GetClocksFreq
 .text.RCC_APB2PeriphClockCmd
                0x0000000000005be4       0x1e ./Peripheral/src/ch32v10x_rcc.o
                0x0000000000005be4                RCC_APB2PeriphClockCmd
 .text.USART_Init
                0x0000000000005c02       0xda ./Peripheral/src/ch32v10x_usart.o
                0x0000000000005c02                USART_Init
 .text.USART_Cmd
                0x0000000000005cdc       0x1c ./Peripheral/src/ch32v10x_usart.o
                0x0000000000005cdc                USART_Cmd
 .text.USART_SendData
                0x0000000000005cf8        0xa ./Peripheral/src/ch32v10x_usart.o
                0x0000000000005cf8                USART_SendData
 .text.USART_ReceiveData
                0x0000000000005d02        0xa ./Peripheral/src/ch32v10x_usart.o
                0x0000000000005d02                USART_ReceiveData
 .text.USART_GetFlagStatus
                0x0000000000005d0c        0xc ./Peripheral/src/ch32v10x_usart.o
                0x0000000000005d0c                USART_GetFlagStatus
 .text.USART_Printf_Init
                0x0000000000005d18       0x7e ./Debug/debug.o
                0x0000000000005d18                USART_Printf_Init
 .text._write   0x0000000000005d96       0x50 ./Debug/debug.o
                0x0000000000005d96                _write
 .text.printchar
                0x0000000000005de6       0x4c c:/mounriver/mounriver_studio/toolchain/risc-v embedded gcc/bin/../lib/gcc/riscv-none-embed/8.2.0/../../../../riscv-none-embed/lib/rv32imac/ilp32\libprintfloat.a(printfloat.o)
                0x0000000000005de6                printchar
 .text.prints   0x0000000000005e32       0xe0 c:/mounriver/mounriver_studio/toolchain/risc-v embedded gcc/bin/../lib/gcc/riscv-none-embed/8.2.0/../../../../riscv-none-embed/lib/rv32imac/ilp32\libprintfloat.a(printfloat.o)
                0x0000000000005e32                prints
 .text.printInt
                0x0000000000005f12       0xf4 c:/mounriver/mounriver_studio/toolchain/risc-v embedded gcc/bin/../lib/gcc/riscv-none-embed/8.2.0/../../../../riscv-none-embed/lib/rv32imac/ilp32\libprintfloat.a(printfloat.o)
                0x0000000000005f12                printInt
 .text.printLongLongInt
                0x0000000000006006      0x10a c:/mounriver/mounriver_studio/toolchain/risc-v embedded gcc/bin/../lib/gcc/riscv-none-embed/8.2.0/../../../../riscv-none-embed/lib/rv32imac/ilp32\libprintfloat.a(printfloat.o)
                0x0000000000006006                printLongLongInt
 .text.printDouble
                0x0000000000006110       0xee c:/mounriver/mounriver_studio/toolchain/risc-v embedded gcc/bin/../lib/gcc/riscv-none-embed/8.2.0/../../../../riscv-none-embed/lib/rv32imac/ilp32\libprintfloat.a(printfloat.o)
                0x0000000000006110                printDouble
 .text.print    0x00000000000061fe      0x340 c:/mounriver/mounriver_studio/toolchain/risc-v embedded gcc/bin/../lib/gcc/riscv-none-embed/8.2.0/../../../../riscv-none-embed/lib/rv32imac/ilp32\libprintfloat.a(printfloat.o)
                0x00000000000061fe                print
 .text.printf   0x000000000000653e       0x24 c:/mounriver/mounriver_studio/toolchain/risc-v embedded gcc/bin/../lib/gcc/riscv-none-embed/8.2.0/../../../../riscv-none-embed/lib/rv32imac/ilp32\libprintfloat.a(printfloat.o)
                0x000000000000653e                printf
 .text.puts     0x0000000000006562       0x54 c:/mounriver/mounriver_studio/toolchain/risc-v embedded gcc/bin/../lib/gcc/riscv-none-embed/8.2.0/../../../../riscv-none-embed/lib/rv32imac/ilp32\libprintf.a(wchprintf.o)
                0x0000000000006562                puts
 .text.__udivdi3
                0x00000000000065b6      0x398 c:/mounriver/mounriver_studio/toolchain/risc-v embedded gcc/bin/../lib/gcc/riscv-none-embed/8.2.0/rv32imac/ilp32\libgcc.a(_udivdi3.o)
                0x00000000000065b6                __udivdi3
 .text.__umoddi3
                0x000000000000694e      0x38e c:/mounriver/mounriver_studio/toolchain/risc-v embedded gcc/bin/../lib/gcc/riscv-none-embed/8.2.0/rv32imac/ilp32\libgcc.a(_umoddi3.o)
                0x000000000000694e                __umoddi3
 .text.__muldf3
                0x0000000000006cdc      0x4b8 c:/mounriver/mounriver_studio/toolchain/risc-v embedded gcc/bin/../lib/gcc/riscv-none-embed/8.2.0/rv32imac/ilp32\libgcc.a(muldf3.o)
                0x0000000000006cdc                __muldf3
 .text.__subdf3
                0x0000000000007194      0x73e c:/mounriver/mounriver_studio/toolchain/risc-v embedded gcc/bin/../lib/gcc/riscv-none-embed/8.2.0/rv32imac/ilp32\libgcc.a(subdf3.o)
                0x0000000000007194                __subdf3
 .text.__floatsidf
                0x00000000000078d2       0x72 c:/mounriver/mounriver_studio/toolchain/risc-v embedded gcc/bin/../lib/gcc/riscv-none-embed/8.2.0/rv32imac/ilp32\libgcc.a(floatsidf.o)
                0x00000000000078d2                __floatsidf
 .text.__fixdfdi
                0x0000000000007944       0xbc c:/mounriver/mounriver_studio/toolchain/risc-v embedded gcc/bin/../lib/gcc/riscv-none-embed/8.2.0/rv32imac/ilp32\libgcc.a(fixdfdi.o)
                0x0000000000007944                __fixdfdi
 .text.__floatdidf
                0x0000000000007a00      0x1b6 c:/mounriver/mounriver_studio/toolchain/risc-v embedded gcc/bin/../lib/gcc/riscv-none-embed/8.2.0/rv32imac/ilp32\libgcc.a(floatdidf.o)
                0x0000000000007a00                __floatdidf
 .text.__addsf3
                0x0000000000007bb6      0x36a c:/mounriver/mounriver_studio/toolchain/risc-v embedded gcc/bin/../lib/gcc/riscv-none-embed/8.2.0/rv32imac/ilp32\libgcc.a(addsf3.o)
                0x0000000000007bb6                __addsf3
 .text.__divsf3
                0x0000000000007f20      0x2b2 c:/mounriver/mounriver_studio/toolchain/risc-v embedded gcc/bin/../lib/gcc/riscv-none-embed/8.2.0/rv32imac/ilp32\libgcc.a(divsf3.o)
                0x0000000000007f20                __divsf3
 .text.__eqsf2  0x00000000000081d2       0x5c c:/mounriver/mounriver_studio/toolchain/risc-v embedded gcc/bin/../lib/gcc/riscv-none-embed/8.2.0/rv32imac/ilp32\libgcc.a(eqsf2.o)
                0x00000000000081d2                __eqsf2
                0x00000000000081d2                __nesf2
 .text.__gesf2  0x000000000000822e       0x86 c:/mounriver/mounriver_studio/toolchain/risc-v embedded gcc/bin/../lib/gcc/riscv-none-embed/8.2.0/rv32imac/ilp32\libgcc.a(gesf2.o)
                0x000000000000822e                __gesf2
                0x000000000000822e                __gtsf2
 .text.__lesf2  0x00000000000082b4       0x8c c:/mounriver/mounriver_studio/toolchain/risc-v embedded gcc/bin/../lib/gcc/riscv-none-embed/8.2.0/rv32imac/ilp32\libgcc.a(lesf2.o)
                0x00000000000082b4                __ltsf2
                0x00000000000082b4                __lesf2
 .text.__mulsf3
                0x0000000000008340      0x290 c:/mounriver/mounriver_studio/toolchain/risc-v embedded gcc/bin/../lib/gcc/riscv-none-embed/8.2.0/rv32imac/ilp32\libgcc.a(mulsf3.o)
                0x0000000000008340                __mulsf3
 .text.__subsf3
                0x00000000000085d0      0x388 c:/mounriver/mounriver_studio/toolchain/risc-v embedded gcc/bin/../lib/gcc/riscv-none-embed/8.2.0/rv32imac/ilp32\libgcc.a(subsf3.o)
                0x00000000000085d0                __subsf3
 .text.__floatsisf
                0x0000000000008958       0xc6 c:/mounriver/mounriver_studio/toolchain/risc-v embedded gcc/bin/../lib/gcc/riscv-none-embed/8.2.0/rv32imac/ilp32\libgcc.a(floatsisf.o)
                0x0000000000008958                __floatsisf
 .text.__extendsfdf2
                0x0000000000008a1e       0xac c:/mounriver/mounriver_studio/toolchain/risc-v embedded gcc/bin/../lib/gcc/riscv-none-embed/8.2.0/rv32imac/ilp32\libgcc.a(extendsfdf2.o)
                0x0000000000008a1e                __extendsfdf2
 .text.__truncdfsf2
                0x0000000000008aca      0x16a c:/mounriver/mounriver_studio/toolchain/risc-v embedded gcc/bin/../lib/gcc/riscv-none-embed/8.2.0/rv32imac/ilp32\libgcc.a(truncdfsf2.o)
                0x0000000000008aca                __truncdfsf2
 .text.__clzsi2
                0x0000000000008c34       0x76 c:/mounriver/mounriver_studio/toolchain/risc-v embedded gcc/bin/../lib/gcc/riscv-none-embed/8.2.0/rv32imac/ilp32\libgcc.a(_clzsi2.o)
                0x0000000000008c34                __clzsi2
 .text.atof     0x0000000000008caa        0x6 c:/mounriver/mounriver_studio/toolchain/risc-v embedded gcc/bin/../lib/gcc/riscv-none-embed/8.2.0/../../../../riscv-none-embed/lib/rv32imac/ilp32\libg_nano.a(lib_a-atof.o)
                0x0000000000008caa                atof
 .text.malloc   0x0000000000008cb0        0xa c:/mounriver/mounriver_studio/toolchain/risc-v embedded gcc/bin/../lib/gcc/riscv-none-embed/8.2.0/../../../../riscv-none-embed/lib/rv32imac/ilp32\libg_nano.a(lib_a-malloc.o)
                0x0000000000008cb0                malloc
 .text.free     0x0000000000008cba        0xa c:/mounriver/mounriver_studio/toolchain/risc-v embedded gcc/bin/../lib/gcc/riscv-none-embed/8.2.0/../../../../riscv-none-embed/lib/rv32imac/ilp32\libg_nano.a(lib_a-malloc.o)
                0x0000000000008cba                free
 .text.memcpy   0x0000000000008cc4       0xb6 c:/mounriver/mounriver_studio/toolchain/risc-v embedded gcc/bin/../lib/gcc/riscv-none-embed/8.2.0/../../../../riscv-none-embed/lib/rv32imac/ilp32\libg_nano.a(lib_a-memcpy.o)
                0x0000000000008cc4                memcpy
 .text.memmove  0x0000000000008d7a       0x4a c:/mounriver/mounriver_studio/toolchain/risc-v embedded gcc/bin/../lib/gcc/riscv-none-embed/8.2.0/../../../../riscv-none-embed/lib/rv32imac/ilp32\libg_nano.a(lib_a-memmove.o)
                0x0000000000008d7a                memmove
 .text._free_r  0x0000000000008dc4       0xa8 c:/mounriver/mounriver_studio/toolchain/risc-v embedded gcc/bin/../lib/gcc/riscv-none-embed/8.2.0/../../../../riscv-none-embed/lib/rv32imac/ilp32\libg_nano.a(lib_a-nano-freer.o)
                0x0000000000008dc4                _free_r
 .text._malloc_r
                0x0000000000008e6c       0xd4 c:/mounriver/mounriver_studio/toolchain/risc-v embedded gcc/bin/../lib/gcc/riscv-none-embed/8.2.0/../../../../riscv-none-embed/lib/rv32imac/ilp32\libg_nano.a(lib_a-nano-mallocr.o)
                0x0000000000008e6c                _malloc_r
 .text._sbrk_r  0x0000000000008f40       0x2a c:/mounriver/mounriver_studio/toolchain/risc-v embedded gcc/bin/../lib/gcc/riscv-none-embed/8.2.0/../../../../riscv-none-embed/lib/rv32imac/ilp32\libg_nano.a(lib_a-sbrkr.o)
                0x0000000000008f40                _sbrk_r
 .text.sprintf  0x0000000000008f6a       0x46 c:/mounriver/mounriver_studio/toolchain/risc-v embedded gcc/bin/../lib/gcc/riscv-none-embed/8.2.0/../../../../riscv-none-embed/lib/rv32imac/ilp32\libg_nano.a(lib_a-sprintf.o)
                0x0000000000008f6a                siprintf
                0x0000000000008f6a                sprintf
 .text.strcpy   0x0000000000008fb0       0x12 c:/mounriver/mounriver_studio/toolchain/risc-v embedded gcc/bin/../lib/gcc/riscv-none-embed/8.2.0/../../../../riscv-none-embed/lib/rv32imac/ilp32\libg_nano.a(lib_a-strcpy.o)
                0x0000000000008fb0                strcpy
 .text.strlen   0x0000000000008fc2       0x12 c:/mounriver/mounriver_studio/toolchain/risc-v embedded gcc/bin/../lib/gcc/riscv-none-embed/8.2.0/../../../../riscv-none-embed/lib/rv32imac/ilp32\libg_nano.a(lib_a-strlen.o)
                0x0000000000008fc2                strlen
 .text.strncmp  0x0000000000008fd4       0x2c c:/mounriver/mounriver_studio/toolchain/risc-v embedded gcc/bin/../lib/gcc/riscv-none-embed/8.2.0/../../../../riscv-none-embed/lib/rv32imac/ilp32\libg_nano.a(lib_a-strncmp.o)
                0x0000000000008fd4                strncmp
 .text.sulp     0x0000000000009000       0x4e c:/mounriver/mounriver_studio/toolchain/risc-v embedded gcc/bin/../lib/gcc/riscv-none-embed/8.2.0/../../../../riscv-none-embed/lib/rv32imac/ilp32\libg_nano.a(lib_a-strtod.o)
 .text._strtod_l
                0x000000000000904e      0xc7e c:/mounriver/mounriver_studio/toolchain/risc-v embedded gcc/bin/../lib/gcc/riscv-none-embed/8.2.0/../../../../riscv-none-embed/lib/rv32imac/ilp32\libg_nano.a(lib_a-strtod.o)
                0x000000000000904e                _strtod_l
 .text.strtod   0x0000000000009ccc       0x1c c:/mounriver/mounriver_studio/toolchain/risc-v embedded gcc/bin/../lib/gcc/riscv-none-embed/8.2.0/../../../../riscv-none-embed/lib/rv32imac/ilp32\libg_nano.a(lib_a-strtod.o)
                0x0000000000009ccc                strtod
 .text.vprintf  0x0000000000009ce8       0x30 c:/mounriver/mounriver_studio/toolchain/risc-v embedded gcc/bin/../lib/gcc/riscv-none-embed/8.2.0/../../../../riscv-none-embed/lib/rv32imac/ilp32\libg_nano.a(lib_a-vprintf.o)
                0x0000000000009ce8                viprintf
                0x0000000000009ce8                vprintf
 .text._vsnprintf_r
                0x0000000000009d18       0x60 c:/mounriver/mounriver_studio/toolchain/risc-v embedded gcc/bin/../lib/gcc/riscv-none-embed/8.2.0/../../../../riscv-none-embed/lib/rv32imac/ilp32\libg_nano.a(lib_a-vsnprintf.o)
                0x0000000000009d18                _vsniprintf_r
                0x0000000000009d18                _vsnprintf_r
 .text.vsnprintf
                0x0000000000009d78       0x12 c:/mounriver/mounriver_studio/toolchain/risc-v embedded gcc/bin/../lib/gcc/riscv-none-embed/8.2.0/../../../../riscv-none-embed/lib/rv32imac/ilp32\libg_nano.a(lib_a-vsnprintf.o)
                0x0000000000009d78                vsniprintf
                0x0000000000009d78                vsnprintf
 .text._vsprintf_r
                0x0000000000009d8a       0x2e c:/mounriver/mounriver_studio/toolchain/risc-v embedded gcc/bin/../lib/gcc/riscv-none-embed/8.2.0/../../../../riscv-none-embed/lib/rv32imac/ilp32\libg_nano.a(lib_a-vsprintf.o)
                0x0000000000009d8a                _vsprintf_r
                0x0000000000009d8a                _vsiprintf_r
 .text.vsprintf
                0x0000000000009db8       0x10 c:/mounriver/mounriver_studio/toolchain/risc-v embedded gcc/bin/../lib/gcc/riscv-none-embed/8.2.0/../../../../riscv-none-embed/lib/rv32imac/ilp32\libg_nano.a(lib_a-vsprintf.o)
                0x0000000000009db8                vsiprintf
                0x0000000000009db8                vsprintf
 .text.std      0x0000000000009dc8       0x6a c:/mounriver/mounriver_studio/toolchain/risc-v embedded gcc/bin/../lib/gcc/riscv-none-embed/8.2.0/../../../../riscv-none-embed/lib/rv32imac/ilp32\libg_nano.a(lib_a-findfp.o)
 .text._cleanup_r
                0x0000000000009e32        0xa c:/mounriver/mounriver_studio/toolchain/risc-v embedded gcc/bin/../lib/gcc/riscv-none-embed/8.2.0/../../../../riscv-none-embed/lib/rv32imac/ilp32\libg_nano.a(lib_a-findfp.o)
                0x0000000000009e32                _cleanup_r
 .text.__sfmoreglue
                0x0000000000009e3c       0x48 c:/mounriver/mounriver_studio/toolchain/risc-v embedded gcc/bin/../lib/gcc/riscv-none-embed/8.2.0/../../../../riscv-none-embed/lib/rv32imac/ilp32\libg_nano.a(lib_a-findfp.o)
                0x0000000000009e3c                __sfmoreglue
 .text.__sinit  0x0000000000009e84       0x6c c:/mounriver/mounriver_studio/toolchain/risc-v embedded gcc/bin/../lib/gcc/riscv-none-embed/8.2.0/../../../../riscv-none-embed/lib/rv32imac/ilp32\libg_nano.a(lib_a-findfp.o)
                0x0000000000009e84                __sinit
 .text.__sfp    0x0000000000009ef0       0xa0 c:/mounriver/mounriver_studio/toolchain/risc-v embedded gcc/bin/../lib/gcc/riscv-none-embed/8.2.0/../../../../riscv-none-embed/lib/rv32imac/ilp32\libg_nano.a(lib_a-findfp.o)
                0x0000000000009ef0                __sfp
 .text._fwalk_reent
                0x0000000000009f90       0x6c c:/mounriver/mounriver_studio/toolchain/risc-v embedded gcc/bin/../lib/gcc/riscv-none-embed/8.2.0/../../../../riscv-none-embed/lib/rv32imac/ilp32\libg_nano.a(lib_a-fwalk.o)
                0x0000000000009f90                _fwalk_reent
 .text.rshift   0x0000000000009ffc       0x76 c:/mounriver/mounriver_studio/toolchain/risc-v embedded gcc/bin/../lib/gcc/riscv-none-embed/8.2.0/../../../../riscv-none-embed/lib/rv32imac/ilp32\libg_nano.a(lib_a-gdtoa-gethex.o)
 .text.__hexdig_fun
                0x000000000000a072       0x40 c:/mounriver/mounriver_studio/toolchain/risc-v embedded gcc/bin/../lib/gcc/riscv-none-embed/8.2.0/../../../../riscv-none-embed/lib/rv32imac/ilp32\libg_nano.a(lib_a-gdtoa-gethex.o)
                0x000000000000a072                __hexdig_fun
 .text.__gethex
                0x000000000000a0b2      0x4cc c:/mounriver/mounriver_studio/toolchain/risc-v embedded gcc/bin/../lib/gcc/riscv-none-embed/8.2.0/../../../../riscv-none-embed/lib/rv32imac/ilp32\libg_nano.a(lib_a-gdtoa-gethex.o)
                0x000000000000a0b2                __gethex
 .text.L_shift  0x000000000000a57e       0x2c c:/mounriver/mounriver_studio/toolchain/risc-v embedded gcc/bin/../lib/gcc/riscv-none-embed/8.2.0/../../../../riscv-none-embed/lib/rv32imac/ilp32\libg_nano.a(lib_a-gdtoa-hexnan.o)
 .text.__match  0x000000000000a5aa       0x30 c:/mounriver/mounriver_studio/toolchain/risc-v embedded gcc/bin/../lib/gcc/riscv-none-embed/8.2.0/../../../../riscv-none-embed/lib/rv32imac/ilp32\libg_nano.a(lib_a-gdtoa-hexnan.o)
                0x000000000000a5aa                __match
 .text.__hexnan
                0x000000000000a5da      0x160 c:/mounriver/mounriver_studio/toolchain/risc-v embedded gcc/bin/../lib/gcc/riscv-none-embed/8.2.0/../../../../riscv-none-embed/lib/rv32imac/ilp32\libg_nano.a(lib_a-gdtoa-hexnan.o)
                0x000000000000a5da                __hexnan
 .text.__localeconv_l
                0x000000000000a73a        0x6 c:/mounriver/mounriver_studio/toolchain/risc-v embedded gcc/bin/../lib/gcc/riscv-none-embed/8.2.0/../../../../riscv-none-embed/lib/rv32imac/ilp32\libg_nano.a(lib_a-localeconv.o)
                0x000000000000a73a                __localeconv_l
 .text.__ascii_mbtowc
                0x000000000000a740       0x3a c:/mounriver/mounriver_studio/toolchain/risc-v embedded gcc/bin/../lib/gcc/riscv-none-embed/8.2.0/../../../../riscv-none-embed/lib/rv32imac/ilp32\libg_nano.a(lib_a-mbtowc_r.o)
                0x000000000000a740                __ascii_mbtowc
 .text.__malloc_lock
                0x000000000000a77a        0x2 c:/mounriver/mounriver_studio/toolchain/risc-v embedded gcc/bin/../lib/gcc/riscv-none-embed/8.2.0/../../../../riscv-none-embed/lib/rv32imac/ilp32\libg_nano.a(lib_a-mlock.o)
                0x000000000000a77a                __malloc_lock
 .text.__malloc_unlock
                0x000000000000a77c        0x2 c:/mounriver/mounriver_studio/toolchain/risc-v embedded gcc/bin/../lib/gcc/riscv-none-embed/8.2.0/../../../../riscv-none-embed/lib/rv32imac/ilp32\libg_nano.a(lib_a-mlock.o)
                0x000000000000a77c                __malloc_unlock
 .text._Balloc  0x000000000000a77e       0x8c c:/mounriver/mounriver_studio/toolchain/risc-v embedded gcc/bin/../lib/gcc/riscv-none-embed/8.2.0/../../../../riscv-none-embed/lib/rv32imac/ilp32\libg_nano.a(lib_a-mprec.o)
                0x000000000000a77e                _Balloc
 .text._Bfree   0x000000000000a80a       0x44 c:/mounriver/mounriver_studio/toolchain/risc-v embedded gcc/bin/../lib/gcc/riscv-none-embed/8.2.0/../../../../riscv-none-embed/lib/rv32imac/ilp32\libg_nano.a(lib_a-mprec.o)
                0x000000000000a80a                _Bfree
 .text.__multadd
                0x000000000000a84e       0x98 c:/mounriver/mounriver_studio/toolchain/risc-v embedded gcc/bin/../lib/gcc/riscv-none-embed/8.2.0/../../../../riscv-none-embed/lib/rv32imac/ilp32\libg_nano.a(lib_a-mprec.o)
                0x000000000000a84e                __multadd
 .text.__s2b    0x000000000000a8e6       0xa6 c:/mounriver/mounriver_studio/toolchain/risc-v embedded gcc/bin/../lib/gcc/riscv-none-embed/8.2.0/../../../../riscv-none-embed/lib/rv32imac/ilp32\libg_nano.a(lib_a-mprec.o)
                0x000000000000a8e6                __s2b
 .text.__hi0bits
                0x000000000000a98c       0x46 c:/mounriver/mounriver_studio/toolchain/risc-v embedded gcc/bin/../lib/gcc/riscv-none-embed/8.2.0/../../../../riscv-none-embed/lib/rv32imac/ilp32\libg_nano.a(lib_a-mprec.o)
                0x000000000000a98c                __hi0bits
 .text.__lo0bits
                0x000000000000a9d2       0x6a c:/mounriver/mounriver_studio/toolchain/risc-v embedded gcc/bin/../lib/gcc/riscv-none-embed/8.2.0/../../../../riscv-none-embed/lib/rv32imac/ilp32\libg_nano.a(lib_a-mprec.o)
                0x000000000000a9d2                __lo0bits
 .text.__i2b    0x000000000000aa3c       0x1c c:/mounriver/mounriver_studio/toolchain/risc-v embedded gcc/bin/../lib/gcc/riscv-none-embed/8.2.0/../../../../riscv-none-embed/lib/rv32imac/ilp32\libg_nano.a(lib_a-mprec.o)
                0x000000000000aa3c                __i2b
 .text.__multiply
                0x000000000000aa58      0x144 c:/mounriver/mounriver_studio/toolchain/risc-v embedded gcc/bin/../lib/gcc/riscv-none-embed/8.2.0/../../../../riscv-none-embed/lib/rv32imac/ilp32\libg_nano.a(lib_a-mprec.o)
                0x000000000000aa58                __multiply
 .text.__pow5mult
                0x000000000000ab9c       0xbe c:/mounriver/mounriver_studio/toolchain/risc-v embedded gcc/bin/../lib/gcc/riscv-none-embed/8.2.0/../../../../riscv-none-embed/lib/rv32imac/ilp32\libg_nano.a(lib_a-mprec.o)
                0x000000000000ab9c                __pow5mult
 .text.__lshift
                0x000000000000ac5a       0xce c:/mounriver/mounriver_studio/toolchain/risc-v embedded gcc/bin/../lib/gcc/riscv-none-embed/8.2.0/../../../../riscv-none-embed/lib/rv32imac/ilp32\libg_nano.a(lib_a-mprec.o)
                0x000000000000ac5a                __lshift
 .text.__mcmp   0x000000000000ad28       0x32 c:/mounriver/mounriver_studio/toolchain/risc-v embedded gcc/bin/../lib/gcc/riscv-none-embed/8.2.0/../../../../riscv-none-embed/lib/rv32imac/ilp32\libg_nano.a(lib_a-mprec.o)
                0x000000000000ad28                __mcmp
 .text.__mdiff  0x000000000000ad5a       0xf2 c:/mounriver/mounriver_studio/toolchain/risc-v embedded gcc/bin/../lib/gcc/riscv-none-embed/8.2.0/../../../../riscv-none-embed/lib/rv32imac/ilp32\libg_nano.a(lib_a-mprec.o)
                0x000000000000ad5a                __mdiff
 .text.__ulp    0x000000000000ae4c       0x46 c:/mounriver/mounriver_studio/toolchain/risc-v embedded gcc/bin/../lib/gcc/riscv-none-embed/8.2.0/../../../../riscv-none-embed/lib/rv32imac/ilp32\libg_nano.a(lib_a-mprec.o)
                0x000000000000ae4c                __ulp
 .text.__b2d    0x000000000000ae92       0xb4 c:/mounriver/mounriver_studio/toolchain/risc-v embedded gcc/bin/../lib/gcc/riscv-none-embed/8.2.0/../../../../riscv-none-embed/lib/rv32imac/ilp32\libg_nano.a(lib_a-mprec.o)
                0x000000000000ae92                __b2d
 .text.__d2b    0x000000000000af46       0xd4 c:/mounriver/mounriver_studio/toolchain/risc-v embedded gcc/bin/../lib/gcc/riscv-none-embed/8.2.0/../../../../riscv-none-embed/lib/rv32imac/ilp32\libg_nano.a(lib_a-mprec.o)
                0x000000000000af46                __d2b
 .text.__ratio  0x000000000000b01a       0x74 c:/mounriver/mounriver_studio/toolchain/risc-v embedded gcc/bin/../lib/gcc/riscv-none-embed/8.2.0/../../../../riscv-none-embed/lib/rv32imac/ilp32\libg_nano.a(lib_a-mprec.o)
                0x000000000000b01a                __ratio
 .text.__copybits
                0x000000000000b08e       0x36 c:/mounriver/mounriver_studio/toolchain/risc-v embedded gcc/bin/../lib/gcc/riscv-none-embed/8.2.0/../../../../riscv-none-embed/lib/rv32imac/ilp32\libg_nano.a(lib_a-mprec.o)
                0x000000000000b08e                __copybits
 .text.__any_on
                0x000000000000b0c4       0x46 c:/mounriver/mounriver_studio/toolchain/risc-v embedded gcc/bin/../lib/gcc/riscv-none-embed/8.2.0/../../../../riscv-none-embed/lib/rv32imac/ilp32\libg_nano.a(lib_a-mprec.o)
                0x000000000000b0c4                __any_on
 .text._calloc_r
                0x000000000000b10a       0x28 c:/mounriver/mounriver_studio/toolchain/risc-v embedded gcc/bin/../lib/gcc/riscv-none-embed/8.2.0/../../../../riscv-none-embed/lib/rv32imac/ilp32\libg_nano.a(lib_a-nano-callocr.o)
                0x000000000000b10a                _calloc_r
 .text.__ssputs_r
                0x000000000000b132       0xee c:/mounriver/mounriver_studio/toolchain/risc-v embedded gcc/bin/../lib/gcc/riscv-none-embed/8.2.0/../../../../riscv-none-embed/lib/rv32imac/ilp32\libg_nano.a(lib_a-nano-svfprintf.o)
                0x000000000000b132                __ssputs_r
 .text._svfprintf_r
                0x000000000000b220      0x280 c:/mounriver/mounriver_studio/toolchain/risc-v embedded gcc/bin/../lib/gcc/riscv-none-embed/8.2.0/../../../../riscv-none-embed/lib/rv32imac/ilp32\libg_nano.a(lib_a-nano-svfprintf.o)
                0x000000000000b220                _svfiprintf_r
                0x000000000000b220                _svfprintf_r
 .text.__sfputc_r
                0x000000000000b4a0       0x28 c:/mounriver/mounriver_studio/toolchain/risc-v embedded gcc/bin/../lib/gcc/riscv-none-embed/8.2.0/../../../../riscv-none-embed/lib/rv32imac/ilp32\libg_nano.a(lib_a-nano-vfprintf.o)
 .text.__sfputs_r
                0x000000000000b4c8       0x44 c:/mounriver/mounriver_studio/toolchain/risc-v embedded gcc/bin/../lib/gcc/riscv-none-embed/8.2.0/../../../../riscv-none-embed/lib/rv32imac/ilp32\libg_nano.a(lib_a-nano-vfprintf.o)
                0x000000000000b4c8                __sfputs_r
 .text._vfprintf_r
                0x000000000000b50c      0x2a0 c:/mounriver/mounriver_studio/toolchain/risc-v embedded gcc/bin/../lib/gcc/riscv-none-embed/8.2.0/../../../../riscv-none-embed/lib/rv32imac/ilp32\libg_nano.a(lib_a-nano-vfprintf.o)
                0x000000000000b50c                _vfprintf_r
                0x000000000000b50c                _vfiprintf_r
 .text._printf_common
                0x000000000000b7ac      0x10c c:/mounriver/mounriver_studio/toolchain/risc-v embedded gcc/bin/../lib/gcc/riscv-none-embed/8.2.0/../../../../riscv-none-embed/lib/rv32imac/ilp32\libg_nano.a(lib_a-nano-vfprintf_i.o)
                0x000000000000b7ac                _printf_common
 .text._printf_i
                0x000000000000b8b8      0x2a4 c:/mounriver/mounriver_studio/toolchain/risc-v embedded gcc/bin/../lib/gcc/riscv-none-embed/8.2.0/../../../../riscv-none-embed/lib/rv32imac/ilp32\libg_nano.a(lib_a-nano-vfprintf_i.o)
                0x000000000000b8b8                _printf_i
 .text.__sread  0x000000000000bb5c       0x30 c:/mounriver/mounriver_studio/toolchain/risc-v embedded gcc/bin/../lib/gcc/riscv-none-embed/8.2.0/../../../../riscv-none-embed/lib/rv32imac/ilp32\libg_nano.a(lib_a-stdio.o)
                0x000000000000bb5c                __sread
 .text.__swrite
                0x000000000000bb8c       0x4e c:/mounriver/mounriver_studio/toolchain/risc-v embedded gcc/bin/../lib/gcc/riscv-none-embed/8.2.0/../../../../riscv-none-embed/lib/rv32imac/ilp32\libg_nano.a(lib_a-stdio.o)
                0x000000000000bb8c                __swrite
 .text.__sseek  0x000000000000bbda       0x36 c:/mounriver/mounriver_studio/toolchain/risc-v embedded gcc/bin/../lib/gcc/riscv-none-embed/8.2.0/../../../../riscv-none-embed/lib/rv32imac/ilp32\libg_nano.a(lib_a-stdio.o)
                0x000000000000bbda                __sseek
 .text.__sclose
                0x000000000000bc10        0x6 c:/mounriver/mounriver_studio/toolchain/risc-v embedded gcc/bin/../lib/gcc/riscv-none-embed/8.2.0/../../../../riscv-none-embed/lib/rv32imac/ilp32\libg_nano.a(lib_a-stdio.o)
                0x000000000000bc10                __sclose
 .text.__swbuf_r
                0x000000000000bc16       0xc2 c:/mounriver/mounriver_studio/toolchain/risc-v embedded gcc/bin/../lib/gcc/riscv-none-embed/8.2.0/../../../../riscv-none-embed/lib/rv32imac/ilp32\libg_nano.a(lib_a-wbuf.o)
                0x000000000000bc16                __swbuf_r
 .text.__ascii_wctomb
                0x000000000000bcd8       0x20 c:/mounriver/mounriver_studio/toolchain/risc-v embedded gcc/bin/../lib/gcc/riscv-none-embed/8.2.0/../../../../riscv-none-embed/lib/rv32imac/ilp32\libg_nano.a(lib_a-wctomb_r.o)
                0x000000000000bcd8                __ascii_wctomb
 .text._write_r
                0x000000000000bcf8       0x2e c:/mounriver/mounriver_studio/toolchain/risc-v embedded gcc/bin/../lib/gcc/riscv-none-embed/8.2.0/../../../../riscv-none-embed/lib/rv32imac/ilp32\libg_nano.a(lib_a-writer.o)
                0x000000000000bcf8                _write_r
 .text.__swsetup_r
                0x000000000000bd26      0x110 c:/mounriver/mounriver_studio/toolchain/risc-v embedded gcc/bin/../lib/gcc/riscv-none-embed/8.2.0/../../../../riscv-none-embed/lib/rv32imac/ilp32\libg_nano.a(lib_a-wsetup.o)
                0x000000000000bd26                __swsetup_r
 .text._close_r
                0x000000000000be36       0x2a c:/mounriver/mounriver_studio/toolchain/risc-v embedded gcc/bin/../lib/gcc/riscv-none-embed/8.2.0/../../../../riscv-none-embed/lib/rv32imac/ilp32\libg_nano.a(lib_a-closer.o)
                0x000000000000be36                _close_r
 .text.__sflush_r
                0x000000000000be60      0x13e c:/mounriver/mounriver_studio/toolchain/risc-v embedded gcc/bin/../lib/gcc/riscv-none-embed/8.2.0/../../../../riscv-none-embed/lib/rv32imac/ilp32\libg_nano.a(lib_a-fflush.o)
                0x000000000000be60                __sflush_r
 .text._fflush_r
                0x000000000000bf9e       0x68 c:/mounriver/mounriver_studio/toolchain/risc-v embedded gcc/bin/../lib/gcc/riscv-none-embed/8.2.0/../../../../riscv-none-embed/lib/rv32imac/ilp32\libg_nano.a(lib_a-fflush.o)
                0x000000000000bf9e                _fflush_r
 .text._lseek_r
                0x000000000000c006       0x2e c:/mounriver/mounriver_studio/toolchain/risc-v embedded gcc/bin/../lib/gcc/riscv-none-embed/8.2.0/../../../../riscv-none-embed/lib/rv32imac/ilp32\libg_nano.a(lib_a-lseekr.o)
                0x000000000000c006                _lseek_r
 .text.__swhatbuf_r
                0x000000000000c034       0x58 c:/mounriver/mounriver_studio/toolchain/risc-v embedded gcc/bin/../lib/gcc/riscv-none-embed/8.2.0/../../../../riscv-none-embed/lib/rv32imac/ilp32\libg_nano.a(lib_a-makebuf.o)
                0x000000000000c034                __swhatbuf_r
 .text.__smakebuf_r
                0x000000000000c08c       0xa0 c:/mounriver/mounriver_studio/toolchain/risc-v embedded gcc/bin/../lib/gcc/riscv-none-embed/8.2.0/../../../../riscv-none-embed/lib/rv32imac/ilp32\libg_nano.a(lib_a-makebuf.o)
                0x000000000000c08c                __smakebuf_r
 .text.memchr   0x000000000000c12c       0x1a c:/mounriver/mounriver_studio/toolchain/risc-v embedded gcc/bin/../lib/gcc/riscv-none-embed/8.2.0/../../../../riscv-none-embed/lib/rv32imac/ilp32\libg_nano.a(lib_a-memchr.o)
                0x000000000000c12c                memchr
 .text._realloc_r
                0x000000000000c146       0x58 c:/mounriver/mounriver_studio/toolchain/risc-v embedded gcc/bin/../lib/gcc/riscv-none-embed/8.2.0/../../../../riscv-none-embed/lib/rv32imac/ilp32\libg_nano.a(lib_a-nano-reallocr.o)
                0x000000000000c146                _realloc_r
 .text._read_r  0x000000000000c19e       0x2e c:/mounriver/mounriver_studio/toolchain/risc-v embedded gcc/bin/../lib/gcc/riscv-none-embed/8.2.0/../../../../riscv-none-embed/lib/rv32imac/ilp32\libg_nano.a(lib_a-readr.o)
                0x000000000000c19e                _read_r
 .text._fstat_r
                0x000000000000c1cc       0x2c c:/mounriver/mounriver_studio/toolchain/risc-v embedded gcc/bin/../lib/gcc/riscv-none-embed/8.2.0/../../../../riscv-none-embed/lib/rv32imac/ilp32\libg_nano.a(lib_a-fstatr.o)
                0x000000000000c1cc                _fstat_r
 .text._isatty_r
                0x000000000000c1f8       0x2a c:/mounriver/mounriver_studio/toolchain/risc-v embedded gcc/bin/../lib/gcc/riscv-none-embed/8.2.0/../../../../riscv-none-embed/lib/rv32imac/ilp32\libg_nano.a(lib_a-isattyr.o)
                0x000000000000c1f8                _isatty_r
 .text._malloc_usable_size_r
                0x000000000000c222       0x14 c:/mounriver/mounriver_studio/toolchain/risc-v embedded gcc/bin/../lib/gcc/riscv-none-embed/8.2.0/../../../../riscv-none-embed/lib/rv32imac/ilp32\libg_nano.a(lib_a-nano-msizer.o)
                0x000000000000c222                _malloc_usable_size_r
 .text.__adddf3
                0x000000000000c236      0x730 c:/mounriver/mounriver_studio/toolchain/risc-v embedded gcc/bin/../lib/gcc/riscv-none-embed/8.2.0/rv32imac/ilp32\libgcc.a(adddf3.o)
                0x000000000000c236                __adddf3
 .text.__divdf3
                0x000000000000c966      0x5b4 c:/mounriver/mounriver_studio/toolchain/risc-v embedded gcc/bin/../lib/gcc/riscv-none-embed/8.2.0/rv32imac/ilp32\libgcc.a(divdf3.o)
                0x000000000000c966                __divdf3
 .text.__eqdf2  0x000000000000cf1a       0x6a c:/mounriver/mounriver_studio/toolchain/risc-v embedded gcc/bin/../lib/gcc/riscv-none-embed/8.2.0/rv32imac/ilp32\libgcc.a(eqdf2.o)
                0x000000000000cf1a                __nedf2
                0x000000000000cf1a                __eqdf2
 .text.__gedf2  0x000000000000cf84       0xae c:/mounriver/mounriver_studio/toolchain/risc-v embedded gcc/bin/../lib/gcc/riscv-none-embed/8.2.0/rv32imac/ilp32\libgcc.a(gedf2.o)
                0x000000000000cf84                __gedf2
                0x000000000000cf84                __gtdf2
 .text.__ledf2  0x000000000000d032       0xb6 c:/mounriver/mounriver_studio/toolchain/risc-v embedded gcc/bin/../lib/gcc/riscv-none-embed/8.2.0/rv32imac/ilp32\libgcc.a(ledf2.o)
                0x000000000000d032                __ledf2
                0x000000000000d032                __ltdf2
 .text.__fixdfsi
                0x000000000000d0e8       0x68 c:/mounriver/mounriver_studio/toolchain/risc-v embedded gcc/bin/../lib/gcc/riscv-none-embed/8.2.0/rv32imac/ilp32\libgcc.a(fixdfsi.o)
                0x000000000000d0e8                __fixdfsi
 .text.__fixunsdfsi
                0x000000000000d150       0x5c c:/mounriver/mounriver_studio/toolchain/risc-v embedded gcc/bin/../lib/gcc/riscv-none-embed/8.2.0/rv32imac/ilp32\libgcc.a(fixunsdfsi.o)
                0x000000000000d150                __fixunsdfsi
 .text.__floatunsidf
                0x000000000000d1ac       0x68 c:/mounriver/mounriver_studio/toolchain/risc-v embedded gcc/bin/../lib/gcc/riscv-none-embed/8.2.0/rv32imac/ilp32\libgcc.a(floatunsidf.o)
                0x000000000000d1ac                __floatunsidf
 .text._close   0x000000000000d214        0xc c:/mounriver/mounriver_studio/toolchain/risc-v embedded gcc/bin/../lib/gcc/riscv-none-embed/8.2.0/../../../../riscv-none-embed/lib/rv32imac/ilp32\libnosys.a(close.o)
                0x000000000000d214                _close
 .text._fstat   0x000000000000d220        0xc c:/mounriver/mounriver_studio/toolchain/risc-v embedded gcc/bin/../lib/gcc/riscv-none-embed/8.2.0/../../../../riscv-none-embed/lib/rv32imac/ilp32\libnosys.a(fstat.o)
                0x000000000000d220                _fstat
 .text._isatty  0x000000000000d22c        0xc c:/mounriver/mounriver_studio/toolchain/risc-v embedded gcc/bin/../lib/gcc/riscv-none-embed/8.2.0/../../../../riscv-none-embed/lib/rv32imac/ilp32\libnosys.a(isatty.o)
                0x000000000000d22c                _isatty
 .text._lseek   0x000000000000d238        0xc c:/mounriver/mounriver_studio/toolchain/risc-v embedded gcc/bin/../lib/gcc/riscv-none-embed/8.2.0/../../../../riscv-none-embed/lib/rv32imac/ilp32\libnosys.a(lseek.o)
                0x000000000000d238                _lseek
 .text._read    0x000000000000d244        0xc c:/mounriver/mounriver_studio/toolchain/risc-v embedded gcc/bin/../lib/gcc/riscv-none-embed/8.2.0/../../../../riscv-none-embed/lib/rv32imac/ilp32\libnosys.a(read.o)
                0x000000000000d244                _read
 .text._sbrk    0x000000000000d250       0x20 c:/mounriver/mounriver_studio/toolchain/risc-v embedded gcc/bin/../lib/gcc/riscv-none-embed/8.2.0/../../../../riscv-none-embed/lib/rv32imac/ilp32\libnosys.a(sbrk.o)
                0x000000000000d250                _sbrk
 *(.rodata)
 *(.rodata*)
 *fill*         0x000000000000d270        0x0 
 .rodata.rt_application_init.str1.4
                0x000000000000d270        0x5 ./rtthread/src/components.o
 *fill*         0x000000000000d275        0x3 
 .rodata.rt_thread_idle_init.str1.4
                0x000000000000d278        0x6 ./rtthread/src/idle.o
 *fill*         0x000000000000d27e        0x2 
 .rodata.__lowest_bit_bitmap
                0x000000000000d280      0x100 ./rtthread/src/kservice.o
                0x000000000000d280                __lowest_bit_bitmap
 .rodata.main.str1.4
                0x000000000000d380      0x1cc ./User/main.o
 *fill*         0x000000000000d54c        0x4 
 .rodata.PikaStdLib_MemChecker_max.cst8
                0x000000000000d550        0x8 ./PikaScript/pikascript-lib/PikaStdLib/PikaStdLib_MemChecker.o
 .rodata.PikaStdLib_MemChecker_max.str1.4
                0x000000000000d558        0x9 ./PikaScript/pikascript-lib/PikaStdLib/PikaStdLib_MemChecker.o
 *fill*         0x000000000000d561        0x3 
 .rodata.PikaStdLib_SysObj_remove.str1.4
                0x000000000000d564       0x3c ./PikaScript/pikascript-lib/PikaStdLib/PikaStdLib_SysObj.o
 .rodata.PikaStdLib_SysObj_type.str1.4
                0x000000000000d5a0       0x47 ./PikaScript/pikascript-lib/PikaStdLib/PikaStdLib_SysObj.o
                                         0x4b (size before relaxing)
 *fill*         0x000000000000d5e7        0x1 
 .rodata.PikaStdDevice_GPIO_disable.str1.4
                0x000000000000d5e8       0x12 ./PikaScript/pikascript-lib/PikaStdDevice/PikaStdDeivce_GPIO.o
 *fill*         0x000000000000d5fa        0x2 
 .rodata.PikaStdDevice_GPIO_enable.str1.4
                0x000000000000d5fc       0x11 ./PikaScript/pikascript-lib/PikaStdDevice/PikaStdDeivce_GPIO.o
 *fill*         0x000000000000d60d        0x3 
 .rodata.PikaStdDevice_GPIO_high.str1.4
                0x000000000000d610        0xf ./PikaScript/pikascript-lib/PikaStdDevice/PikaStdDeivce_GPIO.o
 *fill*         0x000000000000d61f        0x1 
 .rodata.PikaStdDevice_GPIO_init.str1.4
                0x000000000000d620       0x35 ./PikaScript/pikascript-lib/PikaStdDevice/PikaStdDeivce_GPIO.o
 *fill*         0x000000000000d655        0x3 
 .rodata.PikaStdDevice_GPIO_low.str1.4
                0x000000000000d658        0xe ./PikaScript/pikascript-lib/PikaStdDevice/PikaStdDeivce_GPIO.o
 *fill*         0x000000000000d666        0x2 
 .rodata.PikaStdDevice_GPIO_platformDisable.str1.4
                0x000000000000d668       0x2d ./PikaScript/pikascript-lib/PikaStdDevice/PikaStdDeivce_GPIO.o
 *fill*         0x000000000000d695        0x3 
 .rodata.PikaStdDevice_GPIO_read.str1.4
                0x000000000000d698       0x19 ./PikaScript/pikascript-lib/PikaStdDevice/PikaStdDeivce_GPIO.o
 *fill*         0x000000000000d6b1        0x3 
 .rodata.PikaStdDevice_GPIO_setMode.str1.4
                0x000000000000d6b4       0x43 ./PikaScript/pikascript-lib/PikaStdDevice/PikaStdDeivce_GPIO.o
 *fill*         0x000000000000d6f7        0x1 
 .rodata.PikaStdDevice_GPIO_setPull.str1.4
                0x000000000000d6f8       0x40 ./PikaScript/pikascript-lib/PikaStdDevice/PikaStdDeivce_GPIO.o
 .rodata.CH32V103_GPIO_platformEnable.str1.4
                0x000000000000d738        0x9 ./PikaScript/pikascript-lib/CH32V103/CH32V103_GPIO.o
 .rodata.get_GPIO_group.str1.4
                0x000000000000d738        0xf ./PikaScript/pikascript-lib/CH32V103/CH32V103_GPIO.o
 .rodata.get_GPIO_mode.str1.4
                0x000000000000d747        0x7 ./PikaScript/pikascript-lib/CH32V103/CH32V103_GPIO.o
 *fill*         0x000000000000d747        0x1 
 .rodata.get_GPIO_pin.str1.4
                0x000000000000d748       0x3f ./PikaScript/pikascript-lib/CH32V103/CH32V103_GPIO.o
 *fill*         0x000000000000d787        0x1 
 .rodata.New_BaseObj.str1.4
                0x000000000000d788        0xf ./PikaScript/pikascript-core/BaseObj.o
 *fill*         0x000000000000d797        0x1 
 .rodata.print.str1.4
                0x000000000000d798       0x25 ./PikaScript/pikascript-core/BaseObj.o
 *fill*         0x000000000000d7bd        0x3 
 .rodata.a.3933
                0x000000000000d7c0      0x320 ./PikaScript/pikascript-core/PikaObj.o
 .rodata.method_returnStr.str1.4
                0x000000000000dae0        0x7 ./PikaScript/pikascript-core/PikaObj.o
 .rodata.obj_getClassObj.str1.4
                0x000000000000dae7        0x7 ./PikaScript/pikascript-core/PikaObj.o
                                          0x1 (size before relaxing)
 *fill*         0x000000000000dae7        0x1 
 .rodata.obj_getClassObjByNewFun.str1.4
                0x000000000000dae8        0x8 ./PikaScript/pikascript-core/PikaObj.o
 .rodata.obj_setErrorCode.str1.4
                0x000000000000daf0        0xa ./PikaScript/pikascript-core/PikaObj.o
 *fill*         0x000000000000dafa        0x2 
 .rodata.obj_setSysOut.str1.4
                0x000000000000dafc        0x9 ./PikaScript/pikascript-core/PikaObj.o
 *fill*         0x000000000000db05        0x3 
 .rodata.str100p
                0x000000000000db08       0xc8 ./PikaScript/pikascript-core/PikaObj.o
 .rodata.AST_appandPikaAsm.str1.4
                0x000000000000dbd0       0x4f ./PikaScript/pikascript-core/PikaParser.o
 *fill*         0x000000000000dc1f        0x1 
 .rodata.AST_parseStmt.str1.4
                0x000000000000dc20       0x24 ./PikaScript/pikascript-core/PikaParser.o
                                         0x34 (size before relaxing)
 .rodata.AST_toPikaAsm.str1.4
                0x000000000000dc44       0x45 ./PikaScript/pikascript-core/PikaParser.o
 *fill*         0x000000000000dc89        0x3 
 .rodata.addBlockDeepth.str1.4
                0x000000000000dc8c       0x10 ./PikaScript/pikascript-core/PikaParser.o
                                         0x12 (size before relaxing)
 .rodata.pikaParseLine.str1.4
                0x000000000000dc9c       0x4c ./PikaScript/pikascript-core/PikaParser.o
                                         0x54 (size before relaxing)
 .rodata.pikaVM_runAsmLine.str1.4
                0x000000000000dce8       0x28 ./PikaScript/pikascript-core/PikaVM.o
 .rodata.pikaVM_runAsmWithPars.str1.4
                0x000000000000dd10       0x23 ./PikaScript/pikascript-core/PikaVM.o
                                         0x27 (size before relaxing)
 *fill*         0x000000000000dd33        0x1 
 .rodata.pikaVM_runInstruct.str1.4
                0x000000000000dd34       0x98 ./PikaScript/pikascript-core/PikaVM.o
                                         0x9f (size before relaxing)
 .rodata.arg_getFloat.cst4
                0x000000000000ddcc        0x4 ./PikaScript/pikascript-core/dataArg.o
 .rodata.arg_newContent.str1.4
                0x000000000000ddd0        0x1 ./PikaScript/pikascript-core/dataArg.o
 .rodata.args_getFloat.cst4
                0x000000000000ddd0        0x4 ./PikaScript/pikascript-core/dataArgs.o
 .rodata.getPrintSring.str1.4
                0x000000000000ddd4        0xe ./PikaScript/pikascript-core/dataArgs.o
 *fill*         0x000000000000dde2        0x2 
 .rodata.getPrintStringFromFloat.str1.4
                0x000000000000dde4        0x3 ./PikaScript/pikascript-core/dataArgs.o
 *fill*         0x000000000000dde7        0x1 
 .rodata.getPrintStringFromInt.str1.4
                0x000000000000dde8        0x3 ./PikaScript/pikascript-core/dataArgs.o
 *fill*         0x000000000000ddeb        0x1 
 .rodata.getPrintStringFromPtr.str1.4
                0x000000000000ddec        0x7 ./PikaScript/pikascript-core/dataArgs.o
 *fill*         0x000000000000ddf3        0x1 
 .rodata.pikaMalloc.str1.4
                0x000000000000ddf4       0x33 ./PikaScript/pikascript-core/dataMemory.o
 .rodata.New_queue.str1.4
                0x000000000000de27        0xb ./PikaScript/pikascript-core/dataQueue.o
 .rodata.queueObj_init.str1.4
                0x000000000000de27        0xb ./PikaScript/pikascript-core/dataQueueObj.o
 .rodata.New_Stack.str1.4
                0x000000000000de27        0x4 ./PikaScript/pikascript-core/dataStack.o
 *fill*         0x000000000000de27        0x1 
 .rodata.New_CH32V103.str1.4
                0x000000000000de28       0x17 ./PikaScript/pikascript-api/CH32V103-api.o
 *fill*         0x000000000000de3f        0x1 
 .rodata.CH32V103_GPIO.str1.4
                0x000000000000de40        0xe ./PikaScript/pikascript-api/CH32V103_GPIO-api.o
                                         0x11 (size before relaxing)
 .rodata.New_CH32V103_GPIO.str1.4
                0x000000000000de4e       0x5a ./PikaScript/pikascript-api/CH32V103_GPIO-api.o
 *fill*         0x000000000000de4e        0x2 
 .rodata.CH32V103_Sys.str1.4
                0x000000000000de50        0xd ./PikaScript/pikascript-api/CH32V103_Sys-api.o
                                         0x11 (size before relaxing)
 *fill*         0x000000000000de5d        0x3 
 .rodata.CH32V103_Sys_delayMethod.str1.4
                0x000000000000de60        0x3 ./PikaScript/pikascript-api/CH32V103_Sys-api.o
 *fill*         0x000000000000de63        0x1 
 .rodata.New_CH32V103_Sys.str1.4
                0x000000000000de64        0xe ./PikaScript/pikascript-api/CH32V103_Sys-api.o
 *fill*         0x000000000000de72        0x2 
 .rodata.New_PikaMain.str1.4
                0x000000000000de74       0x17 ./PikaScript/pikascript-api/PikaMain-api.o
 *fill*         0x000000000000de8b        0x1 
 .rodata.New_PikaStdDevice_GPIO.str1.4
                0x000000000000de8c       0x96 ./PikaScript/pikascript-api/PikaStdDevice_GPIO-api.o
                                        0x102 (size before relaxing)
 .rodata.PikaStdDevice_GPIO_setModeMethod.str1.4
                0x000000000000df22        0x5 ./PikaScript/pikascript-api/PikaStdDevice_GPIO-api.o
 *fill*         0x000000000000df22        0x2 
 .rodata.PikaStdDevice_GPIO_setPinMethod.str1.4
                0x000000000000df24        0x8 ./PikaScript/pikascript-api/PikaStdDevice_GPIO-api.o
 .rodata.PikaStdDevice_GPIO_setPullMethod.str1.4
                0x000000000000df2c        0x5 ./PikaScript/pikascript-api/PikaStdDevice_GPIO-api.o
 .rodata.New_PikaStdLib.str1.4
                0x000000000000df2c       0x22 ./PikaScript/pikascript-api/PikaStdLib-api.o
 *fill*         0x000000000000df4e        0x2 
 .rodata.New_PikaStdLib_MemChecker.str1.4
                0x000000000000df50       0x1b ./PikaScript/pikascript-api/PikaStdLib_MemChecker-api.o
 *fill*         0x000000000000df6b        0x1 
 .rodata.PikaStdLib_MemChecker.str1.4
                0x000000000000df6c       0x16 ./PikaScript/pikascript-api/PikaStdLib_MemChecker-api.o
                                         0x19 (size before relaxing)
 *fill*         0x000000000000df82        0x2 
 .rodata.New_PikaStdLib_SysObj.str1.4
                0x000000000000df84       0x26 ./PikaScript/pikascript-api/PikaStdLib_SysObj-api.o
 *fill*         0x000000000000dfaa        0x2 
 .rodata.PikaStdLib_SysObj.str1.4
                0x000000000000dfac       0x12 ./PikaScript/pikascript-api/PikaStdLib_SysObj-api.o
                                         0x15 (size before relaxing)
 *fill*         0x000000000000dfbe        0x2 
 .rodata.PikaStdLib_SysObj_removeMethod.str1.4
                0x000000000000dfc0        0x8 ./PikaScript/pikascript-api/PikaStdLib_SysObj-api.o
 .rodata.pikaScriptInit.str1.4
                0x000000000000dfc8       0xe0 ./PikaScript/pikascript-api/pikaScript.o
 .rodata.print.str1.4
                0x000000000000e0a8        0x7 c:/mounriver/mounriver_studio/toolchain/risc-v embedded gcc/bin/../lib/gcc/riscv-none-embed/8.2.0/../../../../riscv-none-embed/lib/rv32imac/ilp32\libprintfloat.a(printfloat.o)
 *fill*         0x000000000000e0af        0x1 
 .rodata.__muldf3
                0x000000000000e0b0       0x40 c:/mounriver/mounriver_studio/toolchain/risc-v embedded gcc/bin/../lib/gcc/riscv-none-embed/8.2.0/rv32imac/ilp32\libgcc.a(muldf3.o)
 .rodata.__divsf3
                0x000000000000e0f0       0x80 c:/mounriver/mounriver_studio/toolchain/risc-v embedded gcc/bin/../lib/gcc/riscv-none-embed/8.2.0/rv32imac/ilp32\libgcc.a(divsf3.o)
 .rodata.__mulsf3
                0x000000000000e170       0x40 c:/mounriver/mounriver_studio/toolchain/risc-v embedded gcc/bin/../lib/gcc/riscv-none-embed/8.2.0/rv32imac/ilp32\libgcc.a(mulsf3.o)
 .rodata.__clz_tab
                0x000000000000e1b0      0x100 c:/mounriver/mounriver_studio/toolchain/risc-v embedded gcc/bin/../lib/gcc/riscv-none-embed/8.2.0/rv32imac/ilp32\libgcc.a(_clz.o)
                0x000000000000e1b0                __clz_tab
 .rodata._strtod_l
                0x000000000000e2b0       0x14 c:/mounriver/mounriver_studio/toolchain/risc-v embedded gcc/bin/../lib/gcc/riscv-none-embed/8.2.0/../../../../riscv-none-embed/lib/rv32imac/ilp32\libg_nano.a(lib_a-strtod.o)
 *fill*         0x000000000000e2c4        0x4 
 .rodata._strtod_l.cst8
                0x000000000000e2c8       0x38 c:/mounriver/mounriver_studio/toolchain/risc-v embedded gcc/bin/../lib/gcc/riscv-none-embed/8.2.0/../../../../riscv-none-embed/lib/rv32imac/ilp32\libg_nano.a(lib_a-strtod.o)
 .rodata._strtod_l.str1.4
                0x000000000000e300        0xf c:/mounriver/mounriver_studio/toolchain/risc-v embedded gcc/bin/../lib/gcc/riscv-none-embed/8.2.0/../../../../riscv-none-embed/lib/rv32imac/ilp32\libg_nano.a(lib_a-strtod.o)
 *fill*         0x000000000000e30f        0x1 
 .rodata.fpi.3395
                0x000000000000e310       0x14 c:/mounriver/mounriver_studio/toolchain/risc-v embedded gcc/bin/../lib/gcc/riscv-none-embed/8.2.0/../../../../riscv-none-embed/lib/rv32imac/ilp32\libg_nano.a(lib_a-strtod.o)
 .rodata.fpinan.3431
                0x000000000000e324       0x14 c:/mounriver/mounriver_studio/toolchain/risc-v embedded gcc/bin/../lib/gcc/riscv-none-embed/8.2.0/../../../../riscv-none-embed/lib/rv32imac/ilp32\libg_nano.a(lib_a-strtod.o)
 .rodata.tinytens
                0x000000000000e338       0x28 c:/mounriver/mounriver_studio/toolchain/risc-v embedded gcc/bin/../lib/gcc/riscv-none-embed/8.2.0/../../../../riscv-none-embed/lib/rv32imac/ilp32\libg_nano.a(lib_a-strtod.o)
 .rodata.__sf_fake_stderr
                0x000000000000e360       0x20 c:/mounriver/mounriver_studio/toolchain/risc-v embedded gcc/bin/../lib/gcc/riscv-none-embed/8.2.0/../../../../riscv-none-embed/lib/rv32imac/ilp32\libg_nano.a(lib_a-findfp.o)
                0x000000000000e360                __sf_fake_stderr
 .rodata.__sf_fake_stdin
                0x000000000000e380       0x20 c:/mounriver/mounriver_studio/toolchain/risc-v embedded gcc/bin/../lib/gcc/riscv-none-embed/8.2.0/../../../../riscv-none-embed/lib/rv32imac/ilp32\libg_nano.a(lib_a-findfp.o)
                0x000000000000e380                __sf_fake_stdin
 .rodata.__sf_fake_stdout
                0x000000000000e3a0       0x20 c:/mounriver/mounriver_studio/toolchain/risc-v embedded gcc/bin/../lib/gcc/riscv-none-embed/8.2.0/../../../../riscv-none-embed/lib/rv32imac/ilp32\libg_nano.a(lib_a-findfp.o)
                0x000000000000e3a0                __sf_fake_stdout
 .rodata._setlocale_r.str1.4
                0x000000000000e3c0        0xa c:/mounriver/mounriver_studio/toolchain/risc-v embedded gcc/bin/../lib/gcc/riscv-none-embed/8.2.0/../../../../riscv-none-embed/lib/rv32imac/ilp32\libg_nano.a(lib_a-locale.o)
                                          0xd (size before relaxing)
 .rodata.str1.4
                0x000000000000e3ca        0xa c:/mounriver/mounriver_studio/toolchain/risc-v embedded gcc/bin/../lib/gcc/riscv-none-embed/8.2.0/../../../../riscv-none-embed/lib/rv32imac/ilp32\libg_nano.a(lib_a-locale.o)
                                          0x2 (size before relaxing)
 *fill*         0x000000000000e3ca        0x6 
 .rodata.__mprec_bigtens
                0x000000000000e3d0       0x28 c:/mounriver/mounriver_studio/toolchain/risc-v embedded gcc/bin/../lib/gcc/riscv-none-embed/8.2.0/../../../../riscv-none-embed/lib/rv32imac/ilp32\libg_nano.a(lib_a-mprec.o)
                0x000000000000e3d0                __mprec_bigtens
 .rodata.__mprec_tens
                0x000000000000e3f8       0xc8 c:/mounriver/mounriver_studio/toolchain/risc-v embedded gcc/bin/../lib/gcc/riscv-none-embed/8.2.0/../../../../riscv-none-embed/lib/rv32imac/ilp32\libg_nano.a(lib_a-mprec.o)
                0x000000000000e3f8                __mprec_tens
 .rodata.p05.3319
                0x000000000000e4c0        0xc c:/mounriver/mounriver_studio/toolchain/risc-v embedded gcc/bin/../lib/gcc/riscv-none-embed/8.2.0/../../../../riscv-none-embed/lib/rv32imac/ilp32\libg_nano.a(lib_a-mprec.o)
 .rodata._svfprintf_r.str1.4
                0x000000000000e4cc       0x13 c:/mounriver/mounriver_studio/toolchain/risc-v embedded gcc/bin/../lib/gcc/riscv-none-embed/8.2.0/../../../../riscv-none-embed/lib/rv32imac/ilp32\libg_nano.a(lib_a-nano-svfprintf.o)
 .rodata._vfprintf_r.str1.4
                0x000000000000e4df       0x13 c:/mounriver/mounriver_studio/toolchain/risc-v embedded gcc/bin/../lib/gcc/riscv-none-embed/8.2.0/../../../../riscv-none-embed/lib/rv32imac/ilp32\libg_nano.a(lib_a-nano-vfprintf.o)
 *fill*         0x000000000000e4df        0x1 
 .rodata._printf_i.str1.4
                0x000000000000e4e0       0x28 c:/mounriver/mounriver_studio/toolchain/risc-v embedded gcc/bin/../lib/gcc/riscv-none-embed/8.2.0/../../../../riscv-none-embed/lib/rv32imac/ilp32\libg_nano.a(lib_a-nano-vfprintf_i.o)
                                         0x25 (size before relaxing)
 .rodata._ctype_
                0x000000000000e508      0x101 c:/mounriver/mounriver_studio/toolchain/risc-v embedded gcc/bin/../lib/gcc/riscv-none-embed/8.2.0/../../../../riscv-none-embed/lib/rv32imac/ilp32\libg_nano.a(lib_a-ctype_.o)
                0x000000000000e508                _ctype_
 *fill*         0x000000000000e609        0x3 
 .rodata.__divdf3
                0x000000000000e60c       0x40 c:/mounriver/mounriver_studio/toolchain/risc-v embedded gcc/bin/../lib/gcc/riscv-none-embed/8.2.0/rv32imac/ilp32\libgcc.a(divdf3.o)
 *(.glue_7)
 *(.glue_7t)
 *(.gnu.linkonce.t.*)
                0x000000000000e64c                . = ALIGN (0x4)
                0x000000000000e64c                __fsymtab_start = .
 *(FSymTab)
                0x000000000000e64c                __fsymtab_end = .
                0x000000000000e64c                . = ALIGN (0x4)
                0x000000000000e64c                __vsymtab_start = .
 *(VSymTab)
                0x000000000000e64c                __vsymtab_end = .
                0x000000000000e64c                . = ALIGN (0x4)
                0x000000000000e64c                . = ALIGN (0x4)
                0x000000000000e64c                __rt_init_start = .
 *(SORT_BY_NAME(.rti_fn*))
 .rti_fn.0      0x000000000000e64c        0x4 ./rtthread/src/components.o
                0x000000000000e64c                __rt_init_rti_start
 .rti_fn.0.end  0x000000000000e650        0x4 ./rtthread/src/components.o
                0x000000000000e650                __rt_init_rti_board_start
 .rti_fn.1.end  0x000000000000e654        0x4 ./rtthread/src/components.o
                0x000000000000e654                __rt_init_rti_board_end
 .rti_fn.6.end  0x000000000000e658        0x4 ./rtthread/src/components.o
                0x000000000000e658                __rt_init_rti_end
                0x000000000000e65c                __rt_init_end = .
                0x000000000000e65c                . = ALIGN (0x4)
                0x000000000000e65c                . = ALIGN (0x4)
                0x000000000000e65c                __rtmsymtab_start = .
 *(RTMSymTab)
                0x000000000000e65c                __rtmsymtab_end = .
                0x000000000000e65c                . = ALIGN (0x4)

.rela.dyn       0x000000000000e65c        0x0
 .rela.text.rt_application_init
                0x000000000000e65c        0x0 ./rtthread/src/clock.o
 .rela.text.rt_thread_idle_excute
                0x000000000000e65c        0x0 ./rtthread/src/clock.o
 .rela.text.rt_interrupt_enter
                0x000000000000e65c        0x0 ./rtthread/src/clock.o
 .rela.text.rt_interrupt_leave
                0x000000000000e65c        0x0 ./rtthread/src/clock.o
 .rela.text.rt_system_scheduler_init
                0x000000000000e65c        0x0 ./rtthread/src/clock.o
 .rela.text.rt_system_scheduler_start
                0x000000000000e65c        0x0 ./rtthread/src/clock.o
 .rela.text.rt_schedule
                0x000000000000e65c        0x0 ./rtthread/src/clock.o
 .rela.text.rt_schedule_insert_thread
                0x000000000000e65c        0x0 ./rtthread/src/clock.o
 .rela.text.rt_schedule_remove_thread
                0x000000000000e65c        0x0 ./rtthread/src/clock.o
 .rela.text.rt_exit_critical
                0x000000000000e65c        0x0 ./rtthread/src/clock.o
 .rela.text.rt_thread_exit
                0x000000000000e65c        0x0 ./rtthread/src/clock.o
 .rela.text.rt_thread_self
                0x000000000000e65c        0x0 ./rtthread/src/clock.o
 .rela.text.rt_thread_yield
                0x000000000000e65c        0x0 ./rtthread/src/clock.o
 .rela.text.rt_thread_sleep
                0x000000000000e65c        0x0 ./rtthread/src/clock.o
 .rela.text.rt_thread_startup
                0x000000000000e65c        0x0 ./rtthread/src/clock.o
 .rela.text     0x000000000000e65c        0x0 ./rtthread/src/clock.o
 .rela.init     0x000000000000e65c        0x0 ./rtthread/src/clock.o
 .rela.vector   0x000000000000e65c        0x0 ./rtthread/src/clock.o
 .rela.text.handle_reset
                0x000000000000e65c        0x0 ./rtthread/src/clock.o
 .rela.text.pikaParseMultiLineToAsm
                0x000000000000e65c        0x0 ./rtthread/src/clock.o
 .rela.text.__impl_pikaMalloc
                0x000000000000e65c        0x0 ./rtthread/src/clock.o
 .rela.text.__impl_pikaFree
                0x000000000000e65c        0x0 ./rtthread/src/clock.o
 .rela.text.pikaVM_runAsmWithPars
                0x000000000000e65c        0x0 ./rtthread/src/clock.o
 .rela.text.pikaMalloc
                0x000000000000e65c        0x0 ./rtthread/src/clock.o
 .rela.text.pikaFree
                0x000000000000e65c        0x0 ./rtthread/src/clock.o
 .rela.text._sbrk_r
                0x000000000000e65c        0x0 ./rtthread/src/clock.o
 .rela.text._svfprintf_r
                0x000000000000e65c        0x0 ./rtthread/src/clock.o
 .rela.text._vfprintf_r
                0x000000000000e65c        0x0 ./rtthread/src/clock.o
 .rela.text._write_r
                0x000000000000e65c        0x0 ./rtthread/src/clock.o
 .rela.text._close_r
                0x000000000000e65c        0x0 ./rtthread/src/clock.o
 .rela.text._lseek_r
                0x000000000000e65c        0x0 ./rtthread/src/clock.o
 .rela.text._read_r
                0x000000000000e65c        0x0 ./rtthread/src/clock.o
 .rela.text._fstat_r
                0x000000000000e65c        0x0 ./rtthread/src/clock.o
 .rela.text._isatty_r
                0x000000000000e65c        0x0 ./rtthread/src/clock.o
 .rela.text._close
                0x000000000000e65c        0x0 ./rtthread/src/clock.o
 .rela.text._fstat
                0x000000000000e65c        0x0 ./rtthread/src/clock.o
 .rela.text._isatty
                0x000000000000e65c        0x0 ./rtthread/src/clock.o
 .rela.text._lseek
                0x000000000000e65c        0x0 ./rtthread/src/clock.o
 .rela.text._read
                0x000000000000e65c        0x0 ./rtthread/src/clock.o
 .rela.text._sbrk
                0x000000000000e65c        0x0 ./rtthread/src/clock.o

.fini           0x000000000000e65c        0x0
 *(SORT_NONE(.fini))
                0x000000000000e65c                . = ALIGN (0x4)
                [!provide]                        PROVIDE (_etext = .)
                [!provide]                        PROVIDE (_eitcm = .)

.preinit_array  0x000000000000e65c        0x0
                [!provide]                        PROVIDE (__preinit_array_start = .)
 *(.preinit_array)
                [!provide]                        PROVIDE (__preinit_array_end = .)

.init_array     0x000000000000e65c        0x0
                [!provide]                        PROVIDE (__init_array_start = .)
 *(SORT_BY_INIT_PRIORITY(.init_array.*) SORT_BY_INIT_PRIORITY(.ctors.*))
 *(.init_array EXCLUDE_FILE(*crtend?.o *crtend.o *crtbegin?.o *crtbegin.o) .ctors)
                [!provide]                        PROVIDE (__init_array_end = .)

.fini_array     0x000000000000e65c        0x0
                [!provide]                        PROVIDE (__fini_array_start = .)
 *(SORT_BY_INIT_PRIORITY(.fini_array.*) SORT_BY_INIT_PRIORITY(.dtors.*))
 *(.fini_array EXCLUDE_FILE(*crtend?.o *crtend.o *crtbegin?.o *crtbegin.o) .dtors)
                [!provide]                        PROVIDE (__fini_array_end = .)

.ctors
 *crtbegin.o(.ctors)
 *crtbegin?.o(.ctors)
 *(EXCLUDE_FILE(*crtend?.o *crtend.o) .ctors)
 *(SORT_BY_NAME(.ctors.*))
 *(.ctors)

.dtors
 *crtbegin.o(.dtors)
 *crtbegin?.o(.dtors)
 *(EXCLUDE_FILE(*crtend?.o *crtend.o) .dtors)
 *(SORT_BY_NAME(.dtors.*))
 *(.dtors)

.dalign         0x0000000020000000        0x0 load address 0x000000000000e65c
                0x0000000020000000                . = ALIGN (0x4)
                0x0000000020000000                PROVIDE (_data_vma = .)

.dlalign        0x000000000000e65c        0x0
                0x000000000000e65c                . = ALIGN (0x4)
                0x000000000000e65c                PROVIDE (_data_lma = .)

.data           0x0000000020000000      0x220 load address 0x000000000000e65c
 *(.gnu.linkonce.r.*)
 *(.data .data.*)
 .data.rt_object_container
                0x0000000020000000       0x20 ./rtthread/src/object.o
 .data.AHBPrescTable
                0x0000000020000020       0x10 ./User/system_ch32v10x.o
                0x0000000020000020                AHBPrescTable
 .data.APBAHBPrescTable
                0x0000000020000030       0x10 ./Peripheral/src/ch32v10x_rcc.o
 .data.impure_data
                0x0000000020000040       0x60 c:/mounriver/mounriver_studio/toolchain/risc-v embedded gcc/bin/../lib/gcc/riscv-none-embed/8.2.0/../../../../riscv-none-embed/lib/rv32imac/ilp32\libg_nano.a(lib_a-impure.o)
 .data.__global_locale
                0x00000000200000a0      0x16c c:/mounriver/mounriver_studio/toolchain/risc-v embedded gcc/bin/../lib/gcc/riscv-none-embed/8.2.0/../../../../riscv-none-embed/lib/rv32imac/ilp32\libg_nano.a(lib_a-locale.o)
                0x00000000200000a0                __global_locale
 *(.gnu.linkonce.d.*)
                0x0000000020000210                . = ALIGN (0x8)
 *fill*         0x000000002000020c        0x4 
                0x0000000020000a10                PROVIDE (__global_pointer$ = (. + 0x800))
 *(.sdata .sdata.*)
 .sdata.SystemCoreClock
                0x0000000020000210        0x4 ./User/system_ch32v10x.o
                0x0000000020000210                SystemCoreClock
 .sdata.ADCPrescTable
                0x0000000020000214        0x4 ./Peripheral/src/ch32v10x_rcc.o
 .sdata._impure_ptr
                0x0000000020000218        0x4 c:/mounriver/mounriver_studio/toolchain/risc-v embedded gcc/bin/../lib/gcc/riscv-none-embed/8.2.0/../../../../riscv-none-embed/lib/rv32imac/ilp32\libg_nano.a(lib_a-impure.o)
                0x0000000020000218                _impure_ptr
 *(.sdata2.*)
 .sdata2._global_impure_ptr
                0x000000002000021c        0x4 c:/mounriver/mounriver_studio/toolchain/risc-v embedded gcc/bin/../lib/gcc/riscv-none-embed/8.2.0/../../../../riscv-none-embed/lib/rv32imac/ilp32\libg_nano.a(lib_a-impure.o)
                0x000000002000021c                _global_impure_ptr
 *(.gnu.linkonce.s.*)
                0x0000000020000220                . = ALIGN (0x8)
 *(.srodata.cst16)
 *(.srodata.cst8)
 *(.srodata.cst4)
 *(.srodata.cst2)
 *(.srodata .srodata.*)
                0x0000000020000220                . = ALIGN (0x4)
                0x0000000020000220                PROVIDE (_edata = .)

.bss            0x0000000020000220      0xbcc load address 0x000000000000e87c
                0x0000000020000220                . = ALIGN (0x4)
                0x0000000020000220                PROVIDE (_sbss = .)
 *(.sbss*)
 .sbss.rt_tick  0x0000000020000220        0x4 ./rtthread/src/clock.o
 .sbss.rt_scheduler_lock_nest
                0x0000000020000224        0x2 ./rtthread/src/scheduler.o
 *fill*         0x0000000020000226        0x2 
 .sbss.random_nr.2005
                0x0000000020000228        0x4 ./rtthread/src/timer.o
 .sbss.rt_timer_list
                0x000000002000022c        0x8 ./rtthread/src/timer.o
 .sbss.rt_interrupt_from_thread
                0x0000000020000234        0x4 ./rtthread/libcpu/risc-v/common/cpuport.o
                0x0000000020000234                rt_interrupt_from_thread
 .sbss.rt_interrupt_to_thread
                0x0000000020000238        0x4 ./rtthread/libcpu/risc-v/common/cpuport.o
                0x0000000020000238                rt_interrupt_to_thread
 .sbss.rt_thread_switch_interrupt_flag
                0x000000002000023c        0x4 ./rtthread/libcpu/risc-v/common/cpuport.o
                0x000000002000023c                rt_thread_switch_interrupt_flag
 .sbss.g_ticks  0x0000000020000240        0x4 ./rtthread/board.o
                0x0000000020000240                g_ticks
 .sbss.RxCnt    0x0000000020000244        0x2 ./User/main.o
                0x0000000020000244                RxCnt
 .sbss.is_Rx_start
                0x0000000020000246        0x1 ./User/main.o
                0x0000000020000246                is_Rx_start
 *fill*         0x0000000020000247        0x1 
 .sbss.t_start  0x0000000020000248        0x4 ./User/main.o
                0x0000000020000248                t_start
 .sbss.pikaMemInfo
                0x000000002000024c        0x8 ./PikaScript/pikascript-core/dataMemory.o
                0x000000002000024c                pikaMemInfo
 .sbss.__malloc_free_list
                0x0000000020000254        0x4 c:/mounriver/mounriver_studio/toolchain/risc-v embedded gcc/bin/../lib/gcc/riscv-none-embed/8.2.0/../../../../riscv-none-embed/lib/rv32imac/ilp32\libg_nano.a(lib_a-nano-mallocr.o)
                0x0000000020000254                __malloc_free_list
 .sbss.__malloc_sbrk_start
                0x0000000020000258        0x4 c:/mounriver/mounriver_studio/toolchain/risc-v embedded gcc/bin/../lib/gcc/riscv-none-embed/8.2.0/../../../../riscv-none-embed/lib/rv32imac/ilp32\libg_nano.a(lib_a-nano-mallocr.o)
                0x0000000020000258                __malloc_sbrk_start
 .sbss.heap_end.1518
                0x000000002000025c        0x4 c:/mounriver/mounriver_studio/toolchain/risc-v embedded gcc/bin/../lib/gcc/riscv-none-embed/8.2.0/../../../../riscv-none-embed/lib/rv32imac/ilp32\libnosys.a(sbrk.o)
 *(.gnu.linkonce.sb.*)
 *(.bss*)
 .bss.main_stack
                0x0000000020000260      0x800 ./rtthread/src/components.o
 .bss.idle      0x0000000020000a60       0x78 ./rtthread/src/idle.o
 .bss.rt_thread_stack
                0x0000000020000ad8      0x100 ./rtthread/src/idle.o
 .bss.RxBuffer  0x0000000020000bd8      0x100 ./User/main.o
                0x0000000020000bd8                RxBuffer
 *(.gnu.linkonce.b.*)
 *(COMMON*)
 COMMON         0x0000000020000cd8       0x78 ./rtthread/src/components.o
                0x0000000020000cd8                main_thread
 COMMON         0x0000000020000d50        0x1 ./rtthread/src/irq.o
                0x0000000020000d50                rt_interrupt_nest
 *fill*         0x0000000020000d51        0x3 
 COMMON         0x0000000020000d54       0x94 ./rtthread/src/scheduler.o
                0x0000000020000d54                rt_thread_priority_table
                0x0000000020000dd4                rt_current_priority
                0x0000000020000dd8                rt_current_thread
                0x0000000020000ddc                rt_thread_ready_priority_group
                0x0000000020000de0                rt_thread_defunct
 COMMON         0x0000000020000de8        0x4 c:/mounriver/mounriver_studio/toolchain/risc-v embedded gcc/bin/../lib/gcc/riscv-none-embed/8.2.0/../../../../riscv-none-embed/lib/rv32imac/ilp32\libg_nano.a(lib_a-reent.o)
                0x0000000020000de8                errno
                0x0000000020000dec                . = ALIGN (0x4)
                0x0000000020000dec                PROVIDE (_ebss = .)
                [!provide]                        PROVIDE (_end = _ebss)
                0x0000000020000dec                PROVIDE (end = .)

.stack          0x0000000020004800      0x800
                0x0000000020004800                . = ALIGN (0x4)
                [!provide]                        PROVIDE (_susrstack = .)
                0x0000000020005000                . = (. + __stack_size)
 *fill*         0x0000000020004800      0x800 
                0x0000000020005000                PROVIDE (_eusrstack = .)
OUTPUT(LED.elf elf32-littleriscv)

.debug_info     0x0000000000000000    0x30847
 .debug_info    0x0000000000000000      0x45a ./rtthread/src/clock.o
 .debug_info    0x000000000000045a      0x62d ./rtthread/src/components.o
 .debug_info    0x0000000000000a87      0x5e9 ./rtthread/src/idle.o
 .debug_info    0x0000000000001070      0x142 ./rtthread/src/irq.o
 .debug_info    0x00000000000011b2      0xea3 ./rtthread/src/kservice.o
 .debug_info    0x0000000000002055      0x665 ./rtthread/src/object.o
 .debug_info    0x00000000000026ba     0x1535 ./rtthread/src/scheduler.o
 .debug_info    0x0000000000003bef      0xedb ./rtthread/src/thread.o
 .debug_info    0x0000000000004aca      0x99a ./rtthread/src/timer.o
 .debug_info    0x0000000000005464       0x26 ./rtthread/libcpu/risc-v/common/context_gcc.o
 .debug_info    0x000000000000548a      0x367 ./rtthread/libcpu/risc-v/common/cpuport.o
 .debug_info    0x00000000000057f1       0x26 ./rtthread/libcpu/risc-v/SW_Handler/interrupt_gcc.o
 .debug_info    0x0000000000005817     0x10ff ./rtthread/board.o
 .debug_info    0x0000000000006916      0xb48 ./User/ch32v10x_it.o
 .debug_info    0x000000000000745e      0xf0c ./User/main.o
 .debug_info    0x000000000000836a      0xd91 ./User/system_ch32v10x.o
 .debug_info    0x00000000000090fb       0x22 ./Startup/startup_ch32v10x.o
 .debug_info    0x000000000000911d      0xaaa ./PikaScript/pikascript-lib/PikaStdLib/PikaStdLib_MemChecker.o
 .debug_info    0x0000000000009bc7      0xbef ./PikaScript/pikascript-lib/PikaStdLib/PikaStdLib_SysObj.o
 .debug_info    0x000000000000a7b6     0x1075 ./PikaScript/pikascript-lib/PikaStdDevice/PikaStdDeivce_GPIO.o
 .debug_info    0x000000000000b82b     0x1536 ./PikaScript/pikascript-lib/CH32V103/CH32V103_GPIO.o
 .debug_info    0x000000000000cd61      0xbe0 ./PikaScript/pikascript-lib/CH32V103/CH32V103_Sys.o
 .debug_info    0x000000000000d941      0xd7b ./PikaScript/pikascript-core/BaseObj.o
 .debug_info    0x000000000000e6bc     0x3185 ./PikaScript/pikascript-core/PikaObj.o
 .debug_info    0x0000000000011841     0x2b7a ./PikaScript/pikascript-core/PikaParser.o
 .debug_info    0x00000000000143bb      0xbc6 ./PikaScript/pikascript-core/PikaPlatform.o
 .debug_info    0x0000000000014f81     0x265a ./PikaScript/pikascript-core/PikaVM.o
 .debug_info    0x00000000000175db      0xa50 ./PikaScript/pikascript-core/TinyObj.o
 .debug_info    0x000000000001802b     0x2458 ./PikaScript/pikascript-core/dataArg.o
 .debug_info    0x000000000001a483     0x21a2 ./PikaScript/pikascript-core/dataArgs.o
 .debug_info    0x000000000001c625      0xc9b ./PikaScript/pikascript-core/dataLink.o
 .debug_info    0x000000000001d2c0      0x9f2 ./PikaScript/pikascript-core/dataLinkNode.o
 .debug_info    0x000000000001dcb2     0x14b2 ./PikaScript/pikascript-core/dataMemory.o
 .debug_info    0x000000000001f164     0x12c1 ./PikaScript/pikascript-core/dataQueue.o
 .debug_info    0x0000000000020425     0x12c6 ./PikaScript/pikascript-core/dataQueueObj.o
 .debug_info    0x00000000000216eb      0xd16 ./PikaScript/pikascript-core/dataStack.o
 .debug_info    0x0000000000022401     0x15b2 ./PikaScript/pikascript-core/dataString.o
 .debug_info    0x00000000000239b3     0x12b5 ./PikaScript/pikascript-core/dataStrs.o
 .debug_info    0x0000000000024c68      0xb76 ./PikaScript/pikascript-api/CH32V103-api.o
 .debug_info    0x00000000000257de      0xcea ./PikaScript/pikascript-api/CH32V103_GPIO-api.o
 .debug_info    0x00000000000264c8      0xb3b ./PikaScript/pikascript-api/CH32V103_Sys-api.o
 .debug_info    0x0000000000027003      0xad4 ./PikaScript/pikascript-api/PikaMain-api.o
 .debug_info    0x0000000000027ad7     0x13bf ./PikaScript/pikascript-api/PikaStdDevice_GPIO-api.o
 .debug_info    0x0000000000028e96      0xb76 ./PikaScript/pikascript-api/PikaStdLib-api.o
 .debug_info    0x0000000000029a0c      0xbf6 ./PikaScript/pikascript-api/PikaStdLib_MemChecker-api.o
 .debug_info    0x000000000002a602      0xbe4 ./PikaScript/pikascript-api/PikaStdLib_SysObj-api.o
 .debug_info    0x000000000002b1e6      0xa29 ./PikaScript/pikascript-api/pikaScript.o
 .debug_info    0x000000000002bc0f     0x124e ./Peripheral/src/ch32v10x_gpio.o
 .debug_info    0x000000000002ce5d     0x1377 ./Peripheral/src/ch32v10x_rcc.o
 .debug_info    0x000000000002e1d4     0x1581 ./Peripheral/src/ch32v10x_usart.o
 .debug_info    0x000000000002f755     0x10f2 ./Debug/debug.o

.debug_abbrev   0x0000000000000000     0x88c6
 .debug_abbrev  0x0000000000000000      0x18d ./rtthread/src/clock.o
 .debug_abbrev  0x000000000000018d      0x21f ./rtthread/src/components.o
 .debug_abbrev  0x00000000000003ac      0x276 ./rtthread/src/idle.o
 .debug_abbrev  0x0000000000000622       0xc8 ./rtthread/src/irq.o
 .debug_abbrev  0x00000000000006ea      0x382 ./rtthread/src/kservice.o
 .debug_abbrev  0x0000000000000a6c      0x2ac ./rtthread/src/object.o
 .debug_abbrev  0x0000000000000d18      0x3a4 ./rtthread/src/scheduler.o
 .debug_abbrev  0x00000000000010bc      0x2fe ./rtthread/src/thread.o
 .debug_abbrev  0x00000000000013ba      0x38c ./rtthread/src/timer.o
 .debug_abbrev  0x0000000000001746       0x14 ./rtthread/libcpu/risc-v/common/context_gcc.o
 .debug_abbrev  0x000000000000175a      0x143 ./rtthread/libcpu/risc-v/common/cpuport.o
 .debug_abbrev  0x000000000000189d       0x14 ./rtthread/libcpu/risc-v/SW_Handler/interrupt_gcc.o
 .debug_abbrev  0x00000000000018b1      0x2c9 ./rtthread/board.o
 .debug_abbrev  0x0000000000001b7a      0x205 ./User/ch32v10x_it.o
 .debug_abbrev  0x0000000000001d7f      0x2b5 ./User/main.o
 .debug_abbrev  0x0000000000002034      0x2c5 ./User/system_ch32v10x.o
 .debug_abbrev  0x00000000000022f9       0x12 ./Startup/startup_ch32v10x.o
 .debug_abbrev  0x000000000000230b      0x244 ./PikaScript/pikascript-lib/PikaStdLib/PikaStdLib_MemChecker.o
 .debug_abbrev  0x000000000000254f      0x28f ./PikaScript/pikascript-lib/PikaStdLib/PikaStdLib_SysObj.o
 .debug_abbrev  0x00000000000027de      0x277 ./PikaScript/pikascript-lib/PikaStdDevice/PikaStdDeivce_GPIO.o
 .debug_abbrev  0x0000000000002a55      0x339 ./PikaScript/pikascript-lib/CH32V103/CH32V103_GPIO.o
 .debug_abbrev  0x0000000000002d8e      0x225 ./PikaScript/pikascript-lib/CH32V103/CH32V103_Sys.o
 .debug_abbrev  0x0000000000002fb3      0x2e5 ./PikaScript/pikascript-core/BaseObj.o
 .debug_abbrev  0x0000000000003298      0x4e4 ./PikaScript/pikascript-core/PikaObj.o
 .debug_abbrev  0x000000000000377c      0x471 ./PikaScript/pikascript-core/PikaParser.o
 .debug_abbrev  0x0000000000003bed      0x2cb ./PikaScript/pikascript-core/PikaPlatform.o
 .debug_abbrev  0x0000000000003eb8      0x43e ./PikaScript/pikascript-core/PikaVM.o
 .debug_abbrev  0x00000000000042f6      0x266 ./PikaScript/pikascript-core/TinyObj.o
 .debug_abbrev  0x000000000000455c      0x4e2 ./PikaScript/pikascript-core/dataArg.o
 .debug_abbrev  0x0000000000004a3e      0x469 ./PikaScript/pikascript-core/dataArgs.o
 .debug_abbrev  0x0000000000004ea7      0x2f5 ./PikaScript/pikascript-core/dataLink.o
 .debug_abbrev  0x000000000000519c      0x23e ./PikaScript/pikascript-core/dataLinkNode.o
 .debug_abbrev  0x00000000000053da      0x443 ./PikaScript/pikascript-core/dataMemory.o
 .debug_abbrev  0x000000000000581d      0x27f ./PikaScript/pikascript-core/dataQueue.o
 .debug_abbrev  0x0000000000005a9c      0x28a ./PikaScript/pikascript-core/dataQueueObj.o
 .debug_abbrev  0x0000000000005d26      0x25f ./PikaScript/pikascript-core/dataStack.o
 .debug_abbrev  0x0000000000005f85      0x42d ./PikaScript/pikascript-core/dataString.o
 .debug_abbrev  0x00000000000063b2      0x335 ./PikaScript/pikascript-core/dataStrs.o
 .debug_abbrev  0x00000000000066e7      0x276 ./PikaScript/pikascript-api/CH32V103-api.o
 .debug_abbrev  0x000000000000695d      0x265 ./PikaScript/pikascript-api/CH32V103_GPIO-api.o
 .debug_abbrev  0x0000000000006bc2      0x276 ./PikaScript/pikascript-api/CH32V103_Sys-api.o
 .debug_abbrev  0x0000000000006e38      0x249 ./PikaScript/pikascript-api/PikaMain-api.o
 .debug_abbrev  0x0000000000007081      0x276 ./PikaScript/pikascript-api/PikaStdDevice_GPIO-api.o
 .debug_abbrev  0x00000000000072f7      0x276 ./PikaScript/pikascript-api/PikaStdLib-api.o
 .debug_abbrev  0x000000000000756d      0x265 ./PikaScript/pikascript-api/PikaStdLib_MemChecker-api.o
 .debug_abbrev  0x00000000000077d2      0x265 ./PikaScript/pikascript-api/PikaStdLib_SysObj-api.o
 .debug_abbrev  0x0000000000007a37      0x219 ./PikaScript/pikascript-api/pikaScript.o
 .debug_abbrev  0x0000000000007c50      0x31f ./Peripheral/src/ch32v10x_gpio.o
 .debug_abbrev  0x0000000000007f6f      0x356 ./Peripheral/src/ch32v10x_rcc.o
 .debug_abbrev  0x00000000000082c5      0x32a ./Peripheral/src/ch32v10x_usart.o
 .debug_abbrev  0x00000000000085ef      0x2d7 ./Debug/debug.o

.debug_loc      0x0000000000000000    0x10833
 .debug_loc     0x0000000000000000       0xc6 ./rtthread/src/clock.o
 .debug_loc     0x00000000000000c6       0x8d ./rtthread/src/components.o
 .debug_loc     0x0000000000000153       0x86 ./rtthread/src/idle.o
 .debug_loc     0x00000000000001d9       0x26 ./rtthread/src/irq.o
 .debug_loc     0x00000000000001ff     0x15d8 ./rtthread/src/kservice.o
 .debug_loc     0x00000000000017d7      0x4c8 ./rtthread/src/object.o
 .debug_loc     0x0000000000001c9f      0x220 ./rtthread/src/scheduler.o
 .debug_loc     0x0000000000001ebf      0x6a6 ./rtthread/src/thread.o
 .debug_loc     0x0000000000002565      0x4b1 ./rtthread/src/timer.o
 .debug_loc     0x0000000000002a16       0x8b ./rtthread/libcpu/risc-v/common/cpuport.o
 .debug_loc     0x0000000000002aa1       0xa9 ./rtthread/board.o
 .debug_loc     0x0000000000002b4a       0x5c ./User/main.o
 .debug_loc     0x0000000000002ba6       0xc3 ./User/system_ch32v10x.o
 .debug_loc     0x0000000000002c69       0x8f ./PikaScript/pikascript-lib/PikaStdLib/PikaStdLib_MemChecker.o
 .debug_loc     0x0000000000002cf8      0x18f ./PikaScript/pikascript-lib/PikaStdLib/PikaStdLib_SysObj.o
 .debug_loc     0x0000000000002e87      0x350 ./PikaScript/pikascript-lib/PikaStdDevice/PikaStdDeivce_GPIO.o
 .debug_loc     0x00000000000031d7      0x319 ./PikaScript/pikascript-lib/CH32V103/CH32V103_GPIO.o
 .debug_loc     0x00000000000034f0       0x42 ./PikaScript/pikascript-lib/CH32V103/CH32V103_Sys.o
 .debug_loc     0x0000000000003532      0x2aa ./PikaScript/pikascript-core/BaseObj.o
 .debug_loc     0x00000000000037dc     0x1eb9 ./PikaScript/pikascript-core/PikaObj.o
 .debug_loc     0x0000000000005695     0x12f3 ./PikaScript/pikascript-core/PikaParser.o
 .debug_loc     0x0000000000006988      0x108 ./PikaScript/pikascript-core/PikaPlatform.o
 .debug_loc     0x0000000000006a90     0x1805 ./PikaScript/pikascript-core/PikaVM.o
 .debug_loc     0x0000000000008295       0x21 ./PikaScript/pikascript-core/TinyObj.o
 .debug_loc     0x00000000000082b6     0x177d ./PikaScript/pikascript-core/dataArg.o
 .debug_loc     0x0000000000009a33     0x1473 ./PikaScript/pikascript-core/dataArgs.o
 .debug_loc     0x000000000000aea6      0x30a ./PikaScript/pikascript-core/dataLink.o
 .debug_loc     0x000000000000b1b0       0x42 ./PikaScript/pikascript-core/dataLinkNode.o
 .debug_loc     0x000000000000b1f2      0xb1f ./PikaScript/pikascript-core/dataMemory.o
 .debug_loc     0x000000000000bd11      0x5d4 ./PikaScript/pikascript-core/dataQueue.o
 .debug_loc     0x000000000000c2e5      0x50c ./PikaScript/pikascript-core/dataQueueObj.o
 .debug_loc     0x000000000000c7f1      0x20a ./PikaScript/pikascript-core/dataStack.o
 .debug_loc     0x000000000000c9fb     0x109c ./PikaScript/pikascript-core/dataString.o
 .debug_loc     0x000000000000da97      0x8e0 ./PikaScript/pikascript-core/dataStrs.o
 .debug_loc     0x000000000000e377      0x12b ./PikaScript/pikascript-api/CH32V103-api.o
 .debug_loc     0x000000000000e4a2      0x1aa ./PikaScript/pikascript-api/CH32V103_GPIO-api.o
 .debug_loc     0x000000000000e64c       0xe1 ./PikaScript/pikascript-api/CH32V103_Sys-api.o
 .debug_loc     0x000000000000e72d       0x60 ./PikaScript/pikascript-api/PikaMain-api.o
 .debug_loc     0x000000000000e78d      0x61b ./PikaScript/pikascript-api/PikaStdDevice_GPIO-api.o
 .debug_loc     0x000000000000eda8      0x12b ./PikaScript/pikascript-api/PikaStdLib-api.o
 .debug_loc     0x000000000000eed3      0x126 ./PikaScript/pikascript-api/PikaStdLib_MemChecker-api.o
 .debug_loc     0x000000000000eff9      0x162 ./PikaScript/pikascript-api/PikaStdLib_SysObj-api.o
 .debug_loc     0x000000000000f15b       0x1e ./PikaScript/pikascript-api/pikaScript.o
 .debug_loc     0x000000000000f179      0x647 ./Peripheral/src/ch32v10x_gpio.o
 .debug_loc     0x000000000000f7c0      0x76c ./Peripheral/src/ch32v10x_rcc.o
 .debug_loc     0x000000000000ff2c      0x7ad ./Peripheral/src/ch32v10x_usart.o
 .debug_loc     0x00000000000106d9      0x15a ./Debug/debug.o

.debug_aranges  0x0000000000000000     0x14a8
 .debug_aranges
                0x0000000000000000       0x40 ./rtthread/src/clock.o
 .debug_aranges
                0x0000000000000040       0x50 ./rtthread/src/components.o
 .debug_aranges
                0x0000000000000090       0x38 ./rtthread/src/idle.o
 .debug_aranges
                0x00000000000000c8       0x30 ./rtthread/src/irq.o
 .debug_aranges
                0x00000000000000f8       0xc0 ./rtthread/src/kservice.o
 .debug_aranges
                0x00000000000001b8       0x50 ./rtthread/src/object.o
 .debug_aranges
                0x0000000000000208       0x58 ./rtthread/src/scheduler.o
 .debug_aranges
                0x0000000000000260       0x88 ./rtthread/src/thread.o
 .debug_aranges
                0x00000000000002e8       0x68 ./rtthread/src/timer.o
 .debug_aranges
                0x0000000000000350       0x20 ./rtthread/libcpu/risc-v/common/context_gcc.o
 .debug_aranges
                0x0000000000000370       0x30 ./rtthread/libcpu/risc-v/common/cpuport.o
 .debug_aranges
                0x00000000000003a0       0x20 ./rtthread/libcpu/risc-v/SW_Handler/interrupt_gcc.o
 .debug_aranges
                0x00000000000003c0       0x28 ./rtthread/board.o
 .debug_aranges
                0x00000000000003e8       0x20 ./User/ch32v10x_it.o
 .debug_aranges
                0x0000000000000408       0x20 ./User/main.o
 .debug_aranges
                0x0000000000000428       0x28 ./User/system_ch32v10x.o
 .debug_aranges
                0x0000000000000450       0x30 ./Startup/startup_ch32v10x.o
 .debug_aranges
                0x0000000000000480       0x30 ./PikaScript/pikascript-lib/PikaStdLib/PikaStdLib_MemChecker.o
 .debug_aranges
                0x00000000000004b0       0x28 ./PikaScript/pikascript-lib/PikaStdLib/PikaStdLib_SysObj.o
 .debug_aranges
                0x00000000000004d8       0x78 ./PikaScript/pikascript-lib/PikaStdDevice/PikaStdDeivce_GPIO.o
 .debug_aranges
                0x0000000000000550       0x60 ./PikaScript/pikascript-lib/CH32V103/CH32V103_GPIO.o
 .debug_aranges
                0x00000000000005b0       0x20 ./PikaScript/pikascript-lib/CH32V103/CH32V103_Sys.o
 .debug_aranges
                0x00000000000005d0       0x38 ./PikaScript/pikascript-core/BaseObj.o
 .debug_aranges
                0x0000000000000608      0x1e8 ./PikaScript/pikascript-core/PikaObj.o
 .debug_aranges
                0x00000000000007f0       0x78 ./PikaScript/pikascript-core/PikaParser.o
 .debug_aranges
                0x0000000000000868       0x70 ./PikaScript/pikascript-core/PikaPlatform.o
 .debug_aranges
                0x00000000000008d8       0x70 ./PikaScript/pikascript-core/PikaVM.o
 .debug_aranges
                0x0000000000000948       0x28 ./PikaScript/pikascript-core/TinyObj.o
 .debug_aranges
                0x0000000000000970      0x160 ./PikaScript/pikascript-core/dataArg.o
 .debug_aranges
                0x0000000000000ad0      0x128 ./PikaScript/pikascript-core/dataArgs.o
 .debug_aranges
                0x0000000000000bf8       0x48 ./PikaScript/pikascript-core/dataLink.o
 .debug_aranges
                0x0000000000000c40       0x30 ./PikaScript/pikascript-core/dataLinkNode.o
 .debug_aranges
                0x0000000000000c70       0xb8 ./PikaScript/pikascript-core/dataMemory.o
 .debug_aranges
                0x0000000000000d28       0x68 ./PikaScript/pikascript-core/dataQueue.o
 .debug_aranges
                0x0000000000000d90       0x70 ./PikaScript/pikascript-core/dataQueueObj.o
 .debug_aranges
                0x0000000000000e00       0x38 ./PikaScript/pikascript-core/dataStack.o
 .debug_aranges
                0x0000000000000e38       0xb0 ./PikaScript/pikascript-core/dataString.o
 .debug_aranges
                0x0000000000000ee8       0x78 ./PikaScript/pikascript-core/dataStrs.o
 .debug_aranges
                0x0000000000000f60       0x30 ./PikaScript/pikascript-api/CH32V103-api.o
 .debug_aranges
                0x0000000000000f90       0x50 ./PikaScript/pikascript-api/CH32V103_GPIO-api.o
 .debug_aranges
                0x0000000000000fe0       0x30 ./PikaScript/pikascript-api/CH32V103_Sys-api.o
 .debug_aranges
                0x0000000000001010       0x28 ./PikaScript/pikascript-api/PikaMain-api.o
 .debug_aranges
                0x0000000000001038       0xb0 ./PikaScript/pikascript-api/PikaStdDevice_GPIO-api.o
 .debug_aranges
                0x00000000000010e8       0x30 ./PikaScript/pikascript-api/PikaStdLib-api.o
 .debug_aranges
                0x0000000000001118       0x40 ./PikaScript/pikascript-api/PikaStdLib_MemChecker-api.o
 .debug_aranges
                0x0000000000001158       0x38 ./PikaScript/pikascript-api/PikaStdLib_SysObj-api.o
 .debug_aranges
                0x0000000000001190       0x20 ./PikaScript/pikascript-api/pikaScript.o
 .debug_aranges
                0x00000000000011b0       0xa0 ./Peripheral/src/ch32v10x_gpio.o
 .debug_aranges
                0x0000000000001250      0x118 ./Peripheral/src/ch32v10x_rcc.o
 .debug_aranges
                0x0000000000001368      0x100 ./Peripheral/src/ch32v10x_usart.o
 .debug_aranges
                0x0000000000001468       0x40 ./Debug/debug.o

.debug_ranges   0x0000000000000000     0x1fc8
 .debug_ranges  0x0000000000000000       0x30 ./rtthread/src/clock.o
 .debug_ranges  0x0000000000000030       0x40 ./rtthread/src/components.o
 .debug_ranges  0x0000000000000070       0x90 ./rtthread/src/idle.o
 .debug_ranges  0x0000000000000100       0x20 ./rtthread/src/irq.o
 .debug_ranges  0x0000000000000120       0xe8 ./rtthread/src/kservice.o
 .debug_ranges  0x0000000000000208       0xd8 ./rtthread/src/object.o
 .debug_ranges  0x00000000000002e0       0xb8 ./rtthread/src/scheduler.o
 .debug_ranges  0x0000000000000398      0x150 ./rtthread/src/thread.o
 .debug_ranges  0x00000000000004e8       0xb0 ./rtthread/src/timer.o
 .debug_ranges  0x0000000000000598       0x20 ./rtthread/libcpu/risc-v/common/cpuport.o
 .debug_ranges  0x00000000000005b8       0x18 ./rtthread/board.o
 .debug_ranges  0x00000000000005d0       0x10 ./User/ch32v10x_it.o
 .debug_ranges  0x00000000000005e0       0x28 ./User/main.o
 .debug_ranges  0x0000000000000608       0x38 ./User/system_ch32v10x.o
 .debug_ranges  0x0000000000000640       0x28 ./Startup/startup_ch32v10x.o
 .debug_ranges  0x0000000000000668       0x20 ./PikaScript/pikascript-lib/PikaStdLib/PikaStdLib_MemChecker.o
 .debug_ranges  0x0000000000000688       0x18 ./PikaScript/pikascript-lib/PikaStdLib/PikaStdLib_SysObj.o
 .debug_ranges  0x00000000000006a0       0x68 ./PikaScript/pikascript-lib/PikaStdDevice/PikaStdDeivce_GPIO.o
 .debug_ranges  0x0000000000000708       0x50 ./PikaScript/pikascript-lib/CH32V103/CH32V103_GPIO.o
 .debug_ranges  0x0000000000000758       0x10 ./PikaScript/pikascript-lib/CH32V103/CH32V103_Sys.o
 .debug_ranges  0x0000000000000768       0x48 ./PikaScript/pikascript-core/BaseObj.o
 .debug_ranges  0x00000000000007b0      0x220 ./PikaScript/pikascript-core/PikaObj.o
 .debug_ranges  0x00000000000009d0      0x1f0 ./PikaScript/pikascript-core/PikaParser.o
 .debug_ranges  0x0000000000000bc0       0x60 ./PikaScript/pikascript-core/PikaPlatform.o
 .debug_ranges  0x0000000000000c20      0x258 ./PikaScript/pikascript-core/PikaVM.o
 .debug_ranges  0x0000000000000e78       0x18 ./PikaScript/pikascript-core/TinyObj.o
 .debug_ranges  0x0000000000000e90      0x410 ./PikaScript/pikascript-core/dataArg.o
 .debug_ranges  0x00000000000012a0      0x168 ./PikaScript/pikascript-core/dataArgs.o
 .debug_ranges  0x0000000000001408       0x50 ./PikaScript/pikascript-core/dataLink.o
 .debug_ranges  0x0000000000001458       0x20 ./PikaScript/pikascript-core/dataLinkNode.o
 .debug_ranges  0x0000000000001478      0x1d0 ./PikaScript/pikascript-core/dataMemory.o
 .debug_ranges  0x0000000000001648       0x58 ./PikaScript/pikascript-core/dataQueue.o
 .debug_ranges  0x00000000000016a0       0x60 ./PikaScript/pikascript-core/dataQueueObj.o
 .debug_ranges  0x0000000000001700       0x28 ./PikaScript/pikascript-core/dataStack.o
 .debug_ranges  0x0000000000001728      0x360 ./PikaScript/pikascript-core/dataString.o
 .debug_ranges  0x0000000000001a88       0xc8 ./PikaScript/pikascript-core/dataStrs.o
 .debug_ranges  0x0000000000001b50       0x20 ./PikaScript/pikascript-api/CH32V103-api.o
 .debug_ranges  0x0000000000001b70       0x40 ./PikaScript/pikascript-api/CH32V103_GPIO-api.o
 .debug_ranges  0x0000000000001bb0       0x20 ./PikaScript/pikascript-api/CH32V103_Sys-api.o
 .debug_ranges  0x0000000000001bd0       0x18 ./PikaScript/pikascript-api/PikaMain-api.o
 .debug_ranges  0x0000000000001be8       0xa0 ./PikaScript/pikascript-api/PikaStdDevice_GPIO-api.o
 .debug_ranges  0x0000000000001c88       0x20 ./PikaScript/pikascript-api/PikaStdLib-api.o
 .debug_ranges  0x0000000000001ca8       0x30 ./PikaScript/pikascript-api/PikaStdLib_MemChecker-api.o
 .debug_ranges  0x0000000000001cd8       0x28 ./PikaScript/pikascript-api/PikaStdLib_SysObj-api.o
 .debug_ranges  0x0000000000001d00       0x10 ./PikaScript/pikascript-api/pikaScript.o
 .debug_ranges  0x0000000000001d10       0x90 ./Peripheral/src/ch32v10x_gpio.o
 .debug_ranges  0x0000000000001da0      0x108 ./Peripheral/src/ch32v10x_rcc.o
 .debug_ranges  0x0000000000001ea8       0xf0 ./Peripheral/src/ch32v10x_usart.o
 .debug_ranges  0x0000000000001f98       0x30 ./Debug/debug.o

.debug_line     0x0000000000000000    0x1adc0
 .debug_line    0x0000000000000000      0x240 ./rtthread/src/clock.o
 .debug_line    0x0000000000000240      0x33c ./rtthread/src/components.o
 .debug_line    0x000000000000057c      0x2fc ./rtthread/src/idle.o
 .debug_line    0x0000000000000878      0x1a1 ./rtthread/src/irq.o
 .debug_line    0x0000000000000a19     0x1a72 ./rtthread/src/kservice.o
 .debug_line    0x000000000000248b      0x5df ./rtthread/src/object.o
 .debug_line    0x0000000000002a6a      0x947 ./rtthread/src/scheduler.o
 .debug_line    0x00000000000033b1      0xe0e ./rtthread/src/thread.o
 .debug_line    0x00000000000041bf      0x8ed ./rtthread/src/timer.o
 .debug_line    0x0000000000004aac      0x25d ./rtthread/libcpu/risc-v/common/context_gcc.o
 .debug_line    0x0000000000004d09      0x269 ./rtthread/libcpu/risc-v/common/cpuport.o
 .debug_line    0x0000000000004f72      0x25d ./rtthread/libcpu/risc-v/SW_Handler/interrupt_gcc.o
 .debug_line    0x00000000000051cf      0x6ec ./rtthread/board.o
 .debug_line    0x00000000000058bb      0x2a5 ./User/ch32v10x_it.o
 .debug_line    0x0000000000005b60      0x5ef ./User/main.o
 .debug_line    0x000000000000614f      0x62a ./User/system_ch32v10x.o
 .debug_line    0x0000000000006779      0x20d ./Startup/startup_ch32v10x.o
 .debug_line    0x0000000000006986      0x390 ./PikaScript/pikascript-lib/PikaStdLib/PikaStdLib_MemChecker.o
 .debug_line    0x0000000000006d16      0x495 ./PikaScript/pikascript-lib/PikaStdLib/PikaStdLib_SysObj.o
 .debug_line    0x00000000000071ab      0x871 ./PikaScript/pikascript-lib/PikaStdDevice/PikaStdDeivce_GPIO.o
 .debug_line    0x0000000000007a1c      0xb0b ./PikaScript/pikascript-lib/CH32V103/CH32V103_GPIO.o
 .debug_line    0x0000000000008527      0x336 ./PikaScript/pikascript-lib/CH32V103/CH32V103_Sys.o
 .debug_line    0x000000000000885d      0x424 ./PikaScript/pikascript-core/BaseObj.o
 .debug_line    0x0000000000008c81     0x1e16 ./PikaScript/pikascript-core/PikaObj.o
 .debug_line    0x000000000000aa97     0x1b11 ./PikaScript/pikascript-core/PikaParser.o
 .debug_line    0x000000000000c5a8      0x3d0 ./PikaScript/pikascript-core/PikaPlatform.o
 .debug_line    0x000000000000c978     0x1b22 ./PikaScript/pikascript-core/PikaVM.o
 .debug_line    0x000000000000e49a      0x288 ./PikaScript/pikascript-core/TinyObj.o
 .debug_line    0x000000000000e722     0x17da ./PikaScript/pikascript-core/dataArg.o
 .debug_line    0x000000000000fefc     0x11fd ./PikaScript/pikascript-core/dataArgs.o
 .debug_line    0x00000000000110f9      0x5c9 ./PikaScript/pikascript-core/dataLink.o
 .debug_line    0x00000000000116c2      0x28b ./PikaScript/pikascript-core/dataLinkNode.o
 .debug_line    0x000000000001194d      0xe64 ./PikaScript/pikascript-core/dataMemory.o
 .debug_line    0x00000000000127b1      0x84e ./PikaScript/pikascript-core/dataQueue.o
 .debug_line    0x0000000000012fff      0x88b ./PikaScript/pikascript-core/dataQueueObj.o
 .debug_line    0x000000000001388a      0x470 ./PikaScript/pikascript-core/dataStack.o
 .debug_line    0x0000000000013cfa     0x1175 ./PikaScript/pikascript-core/dataString.o
 .debug_line    0x0000000000014e6f      0x97f ./PikaScript/pikascript-core/dataStrs.o
 .debug_line    0x00000000000157ee      0x39b ./PikaScript/pikascript-api/CH32V103-api.o
 .debug_line    0x0000000000015b89      0x3de ./PikaScript/pikascript-api/CH32V103_GPIO-api.o
 .debug_line    0x0000000000015f67      0x38c ./PikaScript/pikascript-api/CH32V103_Sys-api.o
 .debug_line    0x00000000000162f3      0x331 ./PikaScript/pikascript-api/PikaMain-api.o
 .debug_line    0x0000000000016624      0x6a6 ./PikaScript/pikascript-api/PikaStdDevice_GPIO-api.o
 .debug_line    0x0000000000016cca      0x39f ./PikaScript/pikascript-api/PikaStdLib-api.o
 .debug_line    0x0000000000017069      0x396 ./PikaScript/pikascript-api/PikaStdLib_MemChecker-api.o
 .debug_line    0x00000000000173ff      0x3e4 ./PikaScript/pikascript-api/PikaStdLib_SysObj-api.o
 .debug_line    0x00000000000177e3      0x2eb ./PikaScript/pikascript-api/pikaScript.o
 .debug_line    0x0000000000017ace      0xc91 ./Peripheral/src/ch32v10x_gpio.o
 .debug_line    0x000000000001875f     0x1016 ./Peripheral/src/ch32v10x_rcc.o
 .debug_line    0x0000000000019775      0xfdd ./Peripheral/src/ch32v10x_usart.o
 .debug_line    0x000000000001a752      0x66e ./Debug/debug.o

.debug_str      0x0000000000000000     0x4ea7
 .debug_str     0x0000000000000000      0x2f2 ./rtthread/src/clock.o
                                        0x392 (size before relaxing)
 .debug_str     0x00000000000002f2      0x1bc ./rtthread/src/components.o
                                        0x4bc (size before relaxing)
 .debug_str     0x00000000000004ae      0x100 ./rtthread/src/idle.o
                                        0x41e (size before relaxing)
 .debug_str     0x00000000000005ae       0x64 ./rtthread/src/irq.o
                                        0x1fe (size before relaxing)
 .debug_str     0x0000000000000612      0x208 ./rtthread/src/kservice.o
                                        0x52f (size before relaxing)
 .debug_str     0x000000000000081a      0x295 ./rtthread/src/object.o
                                        0x51a (size before relaxing)
 .debug_str     0x0000000000000aaf      0x9f0 ./rtthread/src/scheduler.o
                                        0xde6 (size before relaxing)
 .debug_str     0x000000000000149f      0x12b ./rtthread/src/thread.o
                                        0x7aa (size before relaxing)
 .debug_str     0x00000000000015ca       0xbb ./rtthread/src/timer.o
                                        0x56e (size before relaxing)
 .debug_str     0x0000000000001685       0x3b ./rtthread/libcpu/risc-v/common/context_gcc.o
                                         0x59 (size before relaxing)
 .debug_str     0x00000000000016c0       0xba ./rtthread/libcpu/risc-v/common/cpuport.o
                                        0x29b (size before relaxing)
 .debug_str     0x000000000000177a       0x35 ./rtthread/libcpu/risc-v/SW_Handler/interrupt_gcc.o
                                         0x5f (size before relaxing)
 .debug_str     0x00000000000017af       0xed ./rtthread/board.o
                                        0xb7a (size before relaxing)
 .debug_str     0x000000000000189c       0x34 ./User/ch32v10x_it.o
                                        0x758 (size before relaxing)
 .debug_str     0x00000000000018d0      0x123 ./User/main.o
                                        0x8d7 (size before relaxing)
 .debug_str     0x00000000000019f3       0xf5 ./User/system_ch32v10x.o
                                        0x84d (size before relaxing)
 .debug_str     0x0000000000001ae8       0x1e ./Startup/startup_ch32v10x.o
                                         0x48 (size before relaxing)
 .debug_str     0x0000000000001b06       0xc7 ./PikaScript/pikascript-lib/PikaStdLib/PikaStdLib_MemChecker.o
                                        0x65c (size before relaxing)
 .debug_str     0x0000000000001bcd      0x12a ./PikaScript/pikascript-lib/PikaStdLib/PikaStdLib_SysObj.o
                                        0x6cc (size before relaxing)
 .debug_str     0x0000000000001cf7      0x29d ./PikaScript/pikascript-lib/PikaStdDevice/PikaStdDeivce_GPIO.o
                                        0x85e (size before relaxing)
 .debug_str     0x0000000000001f94      0x2ba ./PikaScript/pikascript-lib/CH32V103/CH32V103_GPIO.o
                                        0xa5b (size before relaxing)
 .debug_str     0x000000000000224e       0x48 ./PikaScript/pikascript-lib/CH32V103/CH32V103_Sys.o
                                        0x7b0 (size before relaxing)
 .debug_str     0x0000000000002296       0xe7 ./PikaScript/pikascript-core/BaseObj.o
                                        0x71f (size before relaxing)
 .debug_str     0x000000000000237d      0x696 ./PikaScript/pikascript-core/PikaObj.o
                                        0xe70 (size before relaxing)
 .debug_str     0x0000000000002a13      0x48d ./PikaScript/pikascript-core/PikaParser.o
                                        0xb7f (size before relaxing)
 .debug_str     0x0000000000002ea0      0x136 ./PikaScript/pikascript-core/PikaPlatform.o
                                        0x743 (size before relaxing)
 .debug_str     0x0000000000002fd6      0x2c9 ./PikaScript/pikascript-core/PikaVM.o
                                        0xc34 (size before relaxing)
 .debug_str     0x000000000000329f       0x42 ./PikaScript/pikascript-core/TinyObj.o
                                        0x5f4 (size before relaxing)
 .debug_str     0x00000000000032e1      0x2f0 ./PikaScript/pikascript-core/dataArg.o
                                        0xa60 (size before relaxing)
 .debug_str     0x00000000000035d1      0x214 ./PikaScript/pikascript-core/dataArgs.o
                                        0xb21 (size before relaxing)
 .debug_str     0x00000000000037e5       0x74 ./PikaScript/pikascript-core/dataLink.o
                                        0x6a4 (size before relaxing)
 .debug_str     0x0000000000003859       0x48 ./PikaScript/pikascript-core/dataLinkNode.o
                                        0x5c7 (size before relaxing)
 .debug_str     0x00000000000038a1      0x24f ./PikaScript/pikascript-core/dataMemory.o
