
LED.elf:     file format elf32-littleriscv
LED.elf
architecture: riscv:rv32, flags 0x00000112:
EXEC_P, HAS_SYMS, D_PAGED
start address 0x00000000

Program Header:
    LOAD off    0x00001000 vaddr 0x00000000 paddr 0x00000000 align 2**12
         filesz 0x0000e65c memsz 0x0000e65c flags r-x
    LOAD off    0x00010000 vaddr 0x20000000 paddr 0x0000e65c align 2**12
         filesz 0x00000220 memsz 0x00000dec flags rw-
    LOAD off    0x00010800 vaddr 0x20004800 paddr 0x20004800 align 2**12
         filesz 0x00000000 memsz 0x00000800 flags rw-

Sections:
Idx Name          Size      VMA       LMA       File off  Algn
  0 .init         00000038  00000000  00000000  00001000  2**1
                  CONTENTS, ALLOC, LOAD, READONLY, CODE
  1 .vector       00000108  00000038  00000038  00001038  2**1
                  CONTENTS, ALLOC, LOAD, READONLY, CODE
  2 .text         0000e51c  00000140  00000140  00001140  2**6
                  CONTENTS, ALLOC, LOAD, READONLY, CODE
  3 .fini         00000000  0000e65c  0000e65c  00010220  2**0
                  CONTENTS, ALLOC, LOAD, CODE
  4 .dalign       00000000  20000000  20000000  00010220  2**0
                  CONTENTS
  5 .dlalign      00000000  0000e65c  0000e65c  00010220  2**0
                  CONTENTS
  6 .data         00000220  20000000  0000e65c  00010000  2**2
                  CONTENTS, ALLOC, LOAD, DATA
  7 .bss          00000bcc  20000220  0000e87c  00010220  2**3
                  ALLOC
  8 .stack        00000800  20004800  20004800  00010800  2**0
                  ALLOC
  9 .debug_info   00030847  00000000  00000000  00010220  2**0
                  CONTENTS, READONLY, DEBUGGING
 10 .debug_abbrev 000088c6  00000000  00000000  00040a67  2**0
                  CONTENTS, READONLY, DEBUGGING
 11 .debug_loc    00010833  00000000  00000000  0004932d  2**0
                  CONTENTS, READONLY, DEBUGGING
 12 .debug_aranges 000014a8  00000000  00000000  00059b60  2**3
                  CONTENTS, READONLY, DEBUGGING
 13 .debug_ranges 00001fc8  00000000  00000000  0005b008  2**3
                  CONTENTS, READONLY, DEBUGGING
 14 .debug_line   0001adc0  00000000  00000000  0005cfd0  2**0
                  CONTENTS, READONLY, DEBUGGING
 15 .debug_str    00004ea7  00000000  00000000  00077d90  2**0
                  CONTENTS, READONLY, DEBUGGING
 16 .comment      00000033  00000000  00000000  0007cc37  2**0
                  CONTENTS, READONLY
 17 .debug_frame  000054d4  00000000  00000000  0007cc6c  2**2
                  CONTENTS, READONLY, DEBUGGING
 18 .stab         00000084  00000000  00000000  00082140  2**2
                  CONTENTS, READONLY, DEBUGGING
 19 .stabstr      00000117  00000000  00000000  000821c4  2**0
                  CONTENTS, READONLY, DEBUGGING
SYMBOL TABLE:
00000000 l    d  .init	00000000 .init
00000038 l    d  .vector	00000000 .vector
00000140 l    d  .text	00000000 .text
0000e65c l    d  .fini	00000000 .fini
20000000 l    d  .dalign	00000000 .dalign
0000e65c l    d  .dlalign	00000000 .dlalign
20000000 l    d  .data	00000000 .data
20000220 l    d  .bss	00000000 .bss
20004800 l    d  .stack	00000000 .stack
00000000 l    d  .debug_info	00000000 .debug_info
00000000 l    d  .debug_abbrev	00000000 .debug_abbrev
00000000 l    d  .debug_loc	00000000 .debug_loc
00000000 l    d  .debug_aranges	00000000 .debug_aranges
00000000 l    d  .debug_ranges	00000000 .debug_ranges
00000000 l    d  .debug_line	00000000 .debug_line
00000000 l    d  .debug_str	00000000 .debug_str
00000000 l    d  .comment	00000000 .comment
00000000 l    d  .debug_frame	00000000 .debug_frame
00000000 l    d  .stab	00000000 .stab
00000000 l    d  .stabstr	00000000 .stabstr
00000000 l    df *ABS*	00000000 ./Startup/startup_ch32v10x.o
00000038 l       .vector	00000000 _vector_base
00000000 l    df *ABS*	00000000 ./rtthread/libcpu/risc-v/common/context_gcc.o
0000017a l       .text	00000000 save_mpie
00000000 l    df *ABS*	00000000 ./rtthread/libcpu/risc-v/SW_Handler/interrupt_gcc.o
000002ca l       .text	00000000 spurious_interrupt
00000000 l    df *ABS*	00000000 clock.c
20000220 l     O .bss	00000004 rt_tick
00000000 l    df *ABS*	00000000 components.c
00000534 l     F .text	00000004 rti_start
00000538 l     F .text	00000004 rti_end
0000053c l     F .text	00000004 rti_board_start
00000540 l     F .text	00000004 rti_board_end
20000260 l     O .bss	00000800 main_stack
00000000 l    df *ABS*	00000000 idle.c
0000069a l     F .text	00000008 rt_thread_idle_entry
20000a60 l     O .bss	00000078 idle
20000ad8 l     O .bss	00000100 rt_thread_stack
00000000 l    df *ABS*	00000000 irq.c
00000000 l    df *ABS*	00000000 kservice.c
00000000 l    df *ABS*	00000000 object.c
20000000 l     O .data	00000020 rt_object_container
00000000 l    df *ABS*	00000000 scheduler.c
20000224 l     O .bss	00000002 rt_scheduler_lock_nest
00000000 l    df *ABS*	00000000 thread.c
00000000 l    df *ABS*	00000000 timer.c
00000d24 l     F .text	00000012 _rt_timer_remove.part.0
20000228 l     O .bss	00000004 random_nr.2005
2000022c l     O .bss	00000008 rt_timer_list
00000000 l    df *ABS*	00000000 cpuport.c
00000000 l    df *ABS*	00000000 board.c
00000000 l    df *ABS*	00000000 ch32v10x_it.c
00000000 l    df *ABS*	00000000 main.c
00000000 l    df *ABS*	00000000 system_ch32v10x.c
00000000 l    df *ABS*	00000000 PikaStdLib_MemChecker.c
00000000 l    df *ABS*	00000000 PikaStdLib_SysObj.c
00000000 l    df *ABS*	00000000 PikaStdDeivce_GPIO.c
00000000 l    df *ABS*	00000000 CH32V103_GPIO.c
00000000 l    df *ABS*	00000000 CH32V103_Sys.c
00000000 l    df *ABS*	00000000 BaseObj.c
00001c62 l     F .text	00000050 print
00000000 l    df *ABS*	00000000 PikaObj.c
0000d7c0 l     O .text	00000320 a.3933
0000db08 l     O .text	000000c8 str100p
00000000 l    df *ABS*	00000000 PikaParser.c
00002670 l     F .text	00000062 addBlockDeepth
00000000 l    df *ABS*	00000000 PikaPlatform.c
00000000 l    df *ABS*	00000000 PikaVM.c
00000000 l    df *ABS*	00000000 TinyObj.c
00000000 l    df *ABS*	00000000 dataArg.c
00000000 l    df *ABS*	00000000 dataArgs.c
00000000 l    df *ABS*	00000000 dataLink.c
00000000 l    df *ABS*	00000000 dataLinkNode.c
00000000 l    df *ABS*	00000000 dataMemory.c
00000000 l    df *ABS*	00000000 dataQueue.c
00000000 l    df *ABS*	00000000 dataQueueObj.c
00000000 l    df *ABS*	00000000 dataStack.c
00000000 l    df *ABS*	00000000 dataString.c
00000000 l    df *ABS*	00000000 dataStrs.c
00000000 l    df *ABS*	00000000 CH32V103-api.c
00000000 l    df *ABS*	00000000 CH32V103_GPIO-api.c
00000000 l    df *ABS*	00000000 CH32V103_Sys-api.c
00000000 l    df *ABS*	00000000 PikaMain-api.c
00000000 l    df *ABS*	00000000 PikaStdDevice_GPIO-api.c
00000000 l    df *ABS*	00000000 PikaStdLib-api.c
00000000 l    df *ABS*	00000000 PikaStdLib_MemChecker-api.c
00000000 l    df *ABS*	00000000 PikaStdLib_SysObj-api.c
00000000 l    df *ABS*	00000000 pikaScript.c
00000000 l    df *ABS*	00000000 ch32v10x_gpio.c
00000000 l    df *ABS*	00000000 ch32v10x_rcc.c
20000030 l     O .data	00000010 APBAHBPrescTable
20000214 l     O .data	00000004 ADCPrescTable
00000000 l    df *ABS*	00000000 ch32v10x_usart.c
00000000 l    df *ABS*	00000000 debug.c
00000000 l    df *ABS*	00000000 printfloat.c
00000000 l    df *ABS*	00000000 wchprintf.c
00000000 l    df *ABS*	00000000 libgcc2.c
00000000 l    df *ABS*	00000000 libgcc2.c
00000000 l    df *ABS*	00000000 muldf3.c
00000000 l    df *ABS*	00000000 subdf3.c
00000000 l    df *ABS*	00000000 floatsidf.c
00000000 l    df *ABS*	00000000 fixdfdi.c
00000000 l    df *ABS*	00000000 floatdidf.c
00000000 l    df *ABS*	00000000 addsf3.c
00000000 l    df *ABS*	00000000 divsf3.c
00000000 l    df *ABS*	00000000 eqsf2.c
00000000 l    df *ABS*	00000000 gesf2.c
00000000 l    df *ABS*	00000000 lesf2.c
00000000 l    df *ABS*	00000000 mulsf3.c
00000000 l    df *ABS*	00000000 subsf3.c
00000000 l    df *ABS*	00000000 floatsisf.c
00000000 l    df *ABS*	00000000 extendsfdf2.c
00000000 l    df *ABS*	00000000 truncdfsf2.c
00000000 l    df *ABS*	00000000 libgcc2.c
00000000 l    df *ABS*	00000000 atof.c
00000000 l    df *ABS*	00000000 malloc.c
00000000 l    df *ABS*	00000000 memcpy.c
00000000 l    df *ABS*	00000000 memmove.c
00000000 l    df *ABS*	00000000 nano-mallocr.c
00000000 l    df *ABS*	00000000 nano-mallocr.c
00000000 l    df *ABS*	00000000 sbrkr.c
00000000 l    df *ABS*	00000000 sprintf.c
00000000 l    df *ABS*	00000000 strcpy.c
00000000 l    df *ABS*	00000000 strlen.c
00000000 l    df *ABS*	00000000 strncmp.c
00000000 l    df *ABS*	00000000 strtod.c
00009000 l     F .text	0000004e sulp
0000e310 l     O .text	00000014 fpi.3395
0000e324 l     O .text	00000014 fpinan.3431
0000e338 l     O .text	00000028 tinytens
00000000 l    df *ABS*	00000000 vprintf.c
00000000 l    df *ABS*	00000000 vsnprintf.c
00000000 l    df *ABS*	00000000 vsprintf.c
00000000 l    df *ABS*	00000000 findfp.c
00009dc8 l     F .text	0000006a std
00000000 l    df *ABS*	00000000 fwalk.c
00000000 l    df *ABS*	00000000 gdtoa-gethex.c
00009ffc l     F .text	00000076 rshift
00000000 l    df *ABS*	00000000 gdtoa-hexnan.c
0000a57e l     F .text	0000002c L_shift
00000000 l    df *ABS*	00000000 localeconv.c
00000000 l    df *ABS*	00000000 mbtowc_r.c
00000000 l    df *ABS*	00000000 mlock.c
00000000 l    df *ABS*	00000000 mprec.c
0000e4c0 l     O .text	0000000c p05.3319
00000000 l    df *ABS*	00000000 nano-mallocr.c
00000000 l    df *ABS*	00000000 nano-vfprintf.c
00000000 l    df *ABS*	00000000 nano-vfprintf.c
0000b4a0 l     F .text	00000028 __sfputc_r
00000000 l    df *ABS*	00000000 nano-vfprintf_i.c
00000000 l    df *ABS*	00000000 stdio.c
00000000 l    df *ABS*	00000000 wbuf.c
00000000 l    df *ABS*	00000000 wctomb_r.c
00000000 l    df *ABS*	00000000 writer.c
00000000 l    df *ABS*	00000000 wsetup.c
00000000 l    df *ABS*	00000000 closer.c
00000000 l    df *ABS*	00000000 fflush.c
00000000 l    df *ABS*	00000000 lseekr.c
00000000 l    df *ABS*	00000000 makebuf.c
00000000 l    df *ABS*	00000000 memchr.c
00000000 l    df *ABS*	00000000 nano-mallocr.c
00000000 l    df *ABS*	00000000 readr.c
00000000 l    df *ABS*	00000000 fstatr.c
00000000 l    df *ABS*	00000000 isattyr.c
00000000 l    df *ABS*	00000000 nano-mallocr.c
00000000 l    df *ABS*	00000000 adddf3.c
00000000 l    df *ABS*	00000000 divdf3.c
00000000 l    df *ABS*	00000000 eqdf2.c
00000000 l    df *ABS*	00000000 gedf2.c
00000000 l    df *ABS*	00000000 ledf2.c
00000000 l    df *ABS*	00000000 fixdfsi.c
00000000 l    df *ABS*	00000000 fixunsdfsi.c
00000000 l    df *ABS*	00000000 floatunsidf.c
00000000 l    df *ABS*	00000000 close.c
00000000 l    df *ABS*	00000000 fstat.c
00000000 l    df *ABS*	00000000 isatty.c
00000000 l    df *ABS*	00000000 lseek.c
00000000 l    df *ABS*	00000000 read.c
00000000 l    df *ABS*	00000000 sbrk.c
2000025c l     O .bss	00000004 heap_end.1518
00000000 l    df *ABS*	00000000 libgcc2.c
00000000 l    df *ABS*	00000000 locale.c
00000000 l    df *ABS*	00000000 ctype_.c
00000000 l    df *ABS*	00000000 impure.c
20000040 l     O .data	00000060 impure_data
00000000 l    df *ABS*	00000000 reent.c
00006110 g     F .text	000000ee printDouble
0000c222 g     F .text	00000014 _malloc_usable_size_r
000056d2 g     F .text	00000024 PikaStdDevice_GPIO_setPinMethod
00000608 g     F .text	0000000e entry
0000b0c4 g     F .text	00000046 __any_on
0000c1f8 g     F .text	0000002a _isatty_r
000025c6 g     F .text	00000046 obj_sysPrintf
00008fb0 g     F .text	00000012 strcpy
00002514 g     F .text	00000004 obj_run
000008d4 g     F .text	00000008 rt_object_is_systemobject
00005688 g     F .text	00000004 PikaStdDevice_GPIO_platformLowMethod
00000796 g     F .text	0000002c rt_strncpy
00005684 g     F .text	00000004 PikaStdDevice_GPIO_platformHighMethod
00003346  w    F .text	00000004 __impl_pikaMalloc
00000f46 g     F .text	00000036 rt_hw_stack_init
00004692 g     F .text	00000020 args_getFloat
0000c006 g     F .text	0000002e _lseek_r
00004a5a g     F .text	0000000a pikaMemNow
000018de g     F .text	00000002 PikaStdDevice_GPIO_platformEnable
00001ce8 g     F .text	00000022 obj_newObj
000052ae g     F .text	00000030 strsCut
00004902 g     F .text	00000014 args_removeArg
0000cf1a g     F .text	0000006a .hidden __eqdf2
00004268 g     F .text	0000005a content_setContent
00001564 g     F .text	00000004 PikaStdLib_MemChecker_resetMax
0000333a  w    F .text	00000002 __platformDisableIrqHandle
000061fe g     F .text	00000340 print
0000d280 g     O .text	00000100 __lowest_bit_bitmap
00007a00 g     F .text	000001b6 .hidden __floatdidf
00004fb0 g     F .text	0000006e strGetLastToken
00001dda g     F .text	0000005a fast_itoa
00004f9c g     F .text	00000010 strGetTokenNum
0000653e g     F .text	00000024 printf
20000a10 g       .data	00000000 __global_pointer$
00009db8 g     F .text	00000010 vsprintf
00000910 g     F .text	00000028 rt_system_scheduler_start
000017cc g     F .text	00000070 PikaStdDevice_GPIO_setMode
00005638 g     F .text	00000004 PikaStdDevice_GPIO_enableMethod
20000238 g     O .bss	00000004 rt_interrupt_to_thread
000033e2 g     F .text	00000016 gotoNextLine
0000bbda g     F .text	00000036 __sseek
00009e84 g     F .text	0000006c __sinit
0000bc16 g     F .text	000000c2 __swbuf_r
00004d6c g     F .text	00000010 stack_deinit
00005680 g     F .text	00000004 PikaStdDevice_GPIO_platformEnableMethod
00001192 g     F .text	0000004a HardFault_Handler
00005568 g     F .text	0000001c CH32V103_GPIO
00009e3c g     F .text	00000048 __sfmoreglue
00005f12 g     F .text	000000f4 printInt
0000530a g     F .text	00000044 strsGetFirstToken
0000a77c g     F .text	00000002 __malloc_unlock
000016da g     F .text	0000002c PikaStdDevice_GPIO_disable
00004152 g     F .text	00000038 arg_getFloat
00007f20 g     F .text	000002b2 .hidden __divsf3
00001068 g     F .text	000000d2 SysTick_Handler
0000a072 g     F .text	00000040 __hexdig_fun
00003fd4 g     F .text	00000020 content_init
00000caa g     F .text	00000002 rt_thread_delay
20000234 g     O .bss	00000004 rt_interrupt_from_thread
00000598 g     F .text	0000000e main_thread_entry
00008d7a g     F .text	0000004a memmove
000022b6 g     F .text	00000046 obj_getStr
00000eb2 g     F .text	00000084 rt_timer_check
000043b2 g     F .text	00000012 arg_getContentSize
000020ee g     F .text	0000005c obj_setArg
000009a4 g     F .text	0000004a rt_schedule_insert_thread
0000113a g     F .text	00000058 NMI_Handler
0000a77e g     F .text	0000008c _Balloc
00004ed8 g     F .text	0000004e strDeleteChar
00005282 g     F .text	0000002c strsGetLastToken
0000cf84 g     F .text	000000ae .hidden __gtdf2
00004610 g     F .text	00000018 args_getPtr
0000563c g     F .text	0000001a PikaStdDevice_GPIO_getModeMethod
00005678 g     F .text	00000004 PikaStdDevice_GPIO_lowMethod
0000174a g     F .text	0000002c PikaStdDevice_GPIO_low
0000e65c g       .text	00000000 __rtmsymtab_start
0000a73a g     F .text	00000006 __localeconv_l
000050e6 g     F .text	0000004a strIsStartWith
00005464 g     F .text	00000018 CH32V103_GPIOMethod
00004120 g     F .text	00000032 arg_setFloat
00000240 g       .text	00000000 SW_handler
00005674 g     F .text	00000004 PikaStdDevice_GPIO_initMethod
000053d8 g     F .text	0000008c strsGetCleanCmd
000022fc g     F .text	0000001a methodArg_getPtr
00005976 g     F .text	0000001c PikaStdLib_MemChecker
000040fe g     F .text	00000004 arg_setType
00005d0c g     F .text	0000000c USART_GetFlagStatus
0000c1cc g     F .text	0000002c _fstat_r
00000616 g     F .text	00000084 rt_thread_idle_excute
00001d0a g     F .text	0000002a New_BaseObj
00000c14 g     F .text	0000004a rt_thread_suspend
20000de8 g     O .bss	00000004 errno
20000220 g       .bss	00000000 _sbss
00000800 g       *ABS*	00000000 __stack_size
000054d4 g     F .text	00000004 CH32V103_GPIO_platformDisableMethod
000018bc g     F .text	00000022 PikaStdDevice_GPIO_platformDisable
00005d18 g     F .text	0000007e USART_Printf_Init
000018e6 g     F .text	00000002 PikaStdDevice_GPIO_platformRead
000085d0 g     F .text	00000388 .hidden __subsf3
00000af8 g     F .text	00000020 rt_thread_timeout
00002868 g     F .text	0000031c AST_parseStmt
0000501e g     F .text	00000062 strPopToken
00004d44 g     F .text	00000028 New_Stack
000044e2 g     F .text	00000038 args_getNode_hash
00004b02 g     F .text	0000004a queue_popArg
0000e64c g       .text	00000000 __rt_init_start
0000345e g     F .text	000000ae getAddrOffsetFromJmp
00002316 g     F .text	00000010 methodArg_getDec
00004916 g     F .text	00000004 New_args
00002770 g     F .text	00000072 strs_deleteBetween
0000e64c g       .text	00000000 __fsymtab_end
00003efe g     F .text	00000022 content_setNext
0000420a g     F .text	00000024 arg_getPtr
000056f6 g     F .text	00000024 PikaStdDevice_GPIO_setPullMethod
00008cc4 g     F .text	000000b6 memcpy
0000a5da g     F .text	00000160 __hexnan
00009e32 g     F .text	0000000a _cleanup_r
0000b220 g     F .text	00000280 _svfprintf_r
000078d2 g     F .text	00000072 .hidden __floatsidf
00006006 g     F .text	0000010a printLongLongInt
0000d032 g     F .text	000000b6 .hidden __ltdf2
0000056e g     F .text	0000002a rt_components_init
00000d36 g     F .text	00000040 rt_timer_init
00006562 g     F .text	00000054 puts
0000e65c g       .text	00000000 __rt_init_end
0000547c g     F .text	00000018 CH32V103_SysMethod
000006a2 g     F .text	00000038 rt_thread_idle_init
0000262c g     F .text	00000024 method_returnArg
20000210 g     O .data	00000004 SystemCoreClock
0000b01a g     F .text	00000074 __ratio
00005494 g     F .text	00000040 New_CH32V103
00009d8a g     F .text	0000002e _vsiprintf_r
00005d02 g     F .text	0000000a USART_ReceiveData
00008cb0 g     F .text	0000000a malloc
00005584 g     F .text	00000024 CH32V103_Sys_delayMethod
000008dc g     F .text	00000034 rt_system_scheduler_init
0000014c g       .text	00000000 rt_hw_context_switch_to
0000d220 g     F .text	0000000c _fstat
0000e3f8 g     O .text	000000c8 __mprec_tens
00000038 g       .init	00000000 _einit
00005920 g     F .text	00000056 New_PikaStdLib_MemChecker
2000023c g     O .bss	00000004 rt_thread_switch_interrupt_flag
00009d78 g     F .text	00000012 vsnprintf
000082b4 g     F .text	0000008c .hidden __lesf2
00001f24 g     F .text	00000054 obj_setInt
00005be4 g     F .text	0000001e RCC_APB2PeriphClockCmd
00001568 g     F .text	00000060 PikaStdLib_SysObj_remove
0000d150 g     F .text	0000005c .hidden __fixunsdfsi
0000244e g     F .text	00000004 obj_runDirect
0000e658 g     O .text	00000004 __rt_init_rti_end
00005a68 g     F .text	000000c2 GPIO_Init
00005208 g     F .text	00000032 strsRemovePrefix
00001f78 g     F .text	0000004c obj_setPtr
0000aa3c g     F .text	0000001c __i2b
000023c2 g     F .text	0000008c class_defineMethod
00005cdc g     F .text	0000001c USART_Cmd
00003ff4 g     F .text	00000014 content_totleSize
000026d2 g     F .text	0000009e strsPopTokenWithSkip
00000f7c g     F .text	00000026 rt_hw_context_switch_interrupt
00008f40 g     F .text	0000002a _sbrk_r
00005656 g     F .text	0000001a PikaStdDevice_GPIO_getPinMethod
00005202 g     F .text	00000006 New_strBuff
0000183c g     F .text	00000072 PikaStdDevice_GPIO_setPull
0000226a g     F .text	0000004c obj_getObjDirect
0000c19e g     F .text	0000002e _read_r
000025a0 g     F .text	0000000c obj_getSysOut
00004080 g     F .text	0000001c content_getNext
0000e65c g       .text	00000000 __rtmsymtab_end
00004720 g     F .text	00000046 getPrintStringFromInt
000055ee g     F .text	00000046 New_PikaMain
000059da g     F .text	00000040 New_PikaStdLib_SysObj
00000bbc g     F .text	00000058 rt_thread_yield
00008a1e g     F .text	000000ac .hidden __extendsfdf2
000005a6 g     F .text	0000003e rt_application_init
20000248 g     O .bss	00000004 t_start
0000c236 g     F .text	00000730 .hidden __adddf3
000043c4 g     F .text	00000004 New_arg
000081d2 g     F .text	0000005c .hidden __nesf2
00003372  w    F .text	00000004 __platformLoadPikaAsm
0000534e g     F .text	0000002c strsPopToken
0000ae92 g     F .text	000000b4 __b2d
0000694e g     F .text	0000038e .hidden __umoddi3
0000d22c g     F .text	0000000c _isatty
000041a4 g     F .text	0000002a arg_setStr
2000021c g     O .data	00000004 _global_impure_ptr
0000c146 g     F .text	00000058 _realloc_r
000018e4 g     F .text	00000002 PikaStdDevice_GPIO_platformSetMode
000043aa g     F .text	00000008 arg_getType
00004802 g     F .text	0000009a args_print
000018e0 g     F .text	00000002 PikaStdDevice_GPIO_platformLow
00004a6a g     F .text	00000006 pikaMemMaxReset
000065b6 g     F .text	00000398 .hidden __udivdi3
00001e44 g     F .text	00000022 obj_deinit
00009db8 g     F .text	00000010 vsiprintf
00004aaa g     F .text	00000058 queue_pushArg
0000e3d0 g     O .text	00000028 __mprec_bigtens
0000a8e6 g     F .text	000000a6 __s2b
0000d1ac g     F .text	00000068 .hidden __floatunsidf
0000d250 g     F .text	00000020 _sbrk
0000ad28 g     F .text	00000032 __mcmp
0000173e g     F .text	0000000c PikaStdDevice_GPIO_getPin
00005914 g     F .text	00000004 PikaStdLib_MemChecker_maxMethod
00001ebc g     F .text	00000068 obj_getObj
000018ae g     F .text	0000000e PikaStdDevice_GPIO_setPin
00004b9a g     F .text	00000068 queueObj_pushObj
00000d76 g     F .text	0000002a rt_timer_detach
0000409c g     F .text	00000062 content_setType
00000544 g     F .text	0000002a rt_components_board_init
0000904e g     F .text	00000c7e _strtod_l
0000a5aa g     F .text	00000030 __match
0000403e g     F .text	00000008 arg_freeContent
000007c2 g     F .text	00000002 rt_show_version
20000dec g       .bss	00000000 _ebss
00004766 g     F .text	00000052 getPrintStringFromFloat
0000454c g     F .text	00000036 args_setArg
0000e64c g     O .text	00000004 __rt_init_rti_start
0000571a g     F .text	0000018a New_PikaStdDevice_GPIO
00000fa2 g     F .text	000000c6 rt_hw_board_init
00009d78 g     F .text	00000012 vsniprintf
00001bd4 g     F .text	00000030 CH32V103_GPIO_platformLow
0000a98c g     F .text	00000046 __hi0bits
00004628 g     F .text	00000030 args_getStr
00000cac g     F .text	0000004c rt_thread_resume
0000d0e8 g     F .text	00000068 .hidden __fixdfsi
000005e4 g     F .text	00000024 rtthread_startup
000015c8 g     F .text	000000a0 PikaStdLib_SysObj_type
00002566 g     F .text	0000002c args_getErrorCode
00009ccc g     F .text	0000001c strtod
00001c5c g     F .text	00000006 CH32V103_Sys_delay
000017a2 g     F .text	0000002a PikaStdDevice_GPIO_read
000014f4 g     F .text	00000038 PikaStdLib_MemChecker_max
00008caa g     F .text	00000006 atof
00000e74 g     F .text	0000003e rt_timer_control
0000822e g     F .text	00000086 .hidden __gtsf2
000041ce g     F .text	0000003c arg_getInt
20000d54 g     O .bss	00000080 rt_thread_priority_table
0000d032 g     F .text	000000b6 .hidden __ledf2
000054e0 g     F .text	00000004 CH32V103_GPIO_platformLowMethod
00005b2a g     F .text	0000000a GPIO_WriteBit
000058bc g     F .text	00000018 PikaStdLib_SysObjMethod
00000a9c g     F .text	0000005c rt_thread_exit
0000ab9c g     F .text	000000be __pow5mult
000054e8 g     F .text	00000080 New_CH32V103_GPIO
00003214 g     F .text	0000002e pikaParseLineToAsm
00009ce8 g     F .text	00000030 vprintf
00001e9a g     F .text	00000022 removeMethodInfo
0000e360 g     O .text	00000020 __sf_fake_stderr
00002190 g     F .text	00000028 obj_getClassObj
20000dec g       .bss	00000000 end
0000404a g     F .text	00000036 arg_newContent
0000b132 g     F .text	000000ee __ssputs_r
0000453a g     F .text	00000012 args_isArgExist_hash
00005b34 g     F .text	000000b0 RCC_GetClocksFreq
00004046 g     F .text	00000004 arg_deinit
00001ba4 g     F .text	00000030 CH32V103_GPIO_platformHigh
00004008 g     F .text	00000018 content_getNameHash
00008c34 g     F .text	00000076 .hidden __clzsi2
0000b4c8 g     F .text	00000044 __sfputs_r
000058d4 g     F .text	00000040 New_PikaStdLib
0000c12c g     F .text	0000001a memchr
00005c02 g     F .text	000000da USART_Init
00004396 g     F .text	00000004 arg_setName
00008dc4 g     F .text	000000a8 _free_r
0000568c g     F .text	00000004 PikaStdDevice_GPIO_platformReadMethod
00004ddc g     F .text	0000006e stack_popStr
20000dd4 g     O .bss	00000001 rt_current_priority
00000000 g       .init	00000000 _start
20000020 g     O .data	00000010 AHBPrescTable
000035ee g     F .text	000006aa pikaVM_runInstruct
000042ca g     F .text	00000066 content_setNameHash
000052de g     F .text	0000002c strsDeleteChar
0000d238 g     F .text	0000000c _lseek
0000ac5a g     F .text	000000ce __lshift
00008958 g     F .text	000000c6 .hidden __floatsisf
00005e32 g     F .text	000000e0 prints
00004c02 g     F .text	00000030 queueObj_getCurrentObj
00008fd4 g     F .text	0000002c strncmp
000045dc g     F .text	00000030 args_setInt
0000523a g     F .text	00000048 strsAppend
00005690 g     F .text	00000004 PikaStdDevice_GPIO_platformSetModeMethod
0000aa58 g     F .text	00000144 __multiply
00002650 g     F .text	00000020 New_PikaObj
000081d2 g     F .text	0000005c .hidden __eqsf2
0000af46 g     F .text	000000d4 __d2b
0000260c g     F .text	0000000e method_returnStr
0000350c g     F .text	000000e2 pikaVM_runAsmWithPars
00002554 g     F .text	00000012 args_setErrorCode
00004232 g     F .text	00000014 content_typeOffset
00000506 g     F .text	0000002e rt_tick_increase
00004f68 g     F .text	00000034 strCountSign
00000e38 g     F .text	0000003c rt_timer_stop
0000200c g     F .text	0000004c obj_setStr
0000be36 g     F .text	0000002a _close_r
20000000 g       .dalign	00000000 _data_vma
0000261a g     F .text	00000012 method_returnInt
0000489c g     F .text	00000030 args_setPtrWithType
000049bc g     F .text	00000012 New_link
0000bd26 g     F .text	00000110 __swsetup_r
00002326 g     F .text	0000009c obj_saveMethodInfo
000033f8 g     F .text	00000022 gotoLastLine
0000c966 g     F .text	000005b4 .hidden __divdf3
00009ef0 g     F .text	000000a0 __sfp
000027e2 g     F .text	0000003c checkIsEqu
0000b08e g     F .text	00000036 __copybits
00001ffa g     F .text	00000012 newRootObj
00009d18 g     F .text	00000060 _vsnprintf_r
00006cdc g     F .text	000004b8 .hidden __muldf3
0000bb5c g     F .text	00000030 __sread
000020aa g     F .text	00000044 obj_getArg
000018e2 g     F .text	00000002 PikaStdDevice_GPIO_platformHigh
00001e34 g     F .text	00000010 deinitAllSubObj
0000a77a g     F .text	00000002 __malloc_lock
00005992 g     F .text	00000024 PikaStdLib_SysObj_removeMethod
00005634 g     F .text	00000004 PikaStdDevice_GPIO_disableMethod
0000bf9e g     F .text	00000068 _fflush_r
000007c4 g     F .text	00000056 __rt_ffs
0000b10a g     F .text	00000028 _calloc_r
0000e380 g     O .text	00000020 __sf_fake_stdin
00000a36 g     F .text	00000022 rt_enter_critical
00000c5e g     F .text	0000004c rt_thread_sleep
20000240 g     O .bss	00000004 g_ticks
20000bd8 g     O .bss	00000100 RxBuffer
00000336 g     F .text	000000a8 memset
000011dc g     F .text	00000112 main
00005a1a g     F .text	0000001c PikaStdLib_SysObj
00001c04 g     F .text	00000058 CH32V103_GPIO_platformSetMode
00002518 g     F .text	00000012 obj_setErrorCode
00003f20 g     F .text	00000020 hash_time33
00004020 g     F .text	0000001e content_deinit
000006f4 g     F .text	0000001a rt_interrupt_leave
000082b4 g     F .text	0000008c .hidden __ltsf2
00004330 g     F .text	00000066 content_setName
0000491a g     F .text	00000030 link_deinit
00003210 g     F .text	00000004 AST_deinit
0000bc10 g     F .text	00000006 __sclose
00000f44 g     F .text	00000002 rt_system_timer_thread_init
00008aca g     F .text	0000016a .hidden __truncdfsf2
00000b18 g     F .text	0000009e rt_thread_init
00008e6c g     F .text	000000d4 _malloc_r
0000bcd8 g     F .text	00000020 __ascii_wctomb
0000334e  w    F .text	00000004 __isLocked_pikaMemory
2000024c g     O .bss	00000008 pikaMemInfo
0000e64c g       .text	00000000 __vsymtab_start
000046b2 g     F .text	00000012 args_isArgExist
20000246 g     O .bss	00000001 is_Rx_start
20000d50 g     O .bss	00000001 rt_interrupt_nest
000049d2 g     F .text	0000004e pikaMalloc
00008340 g     F .text	00000290 .hidden __mulsf3
000003de g     F .text	0000011e strcmp
00003010 g     F .text	00000200 AST_toPikaAsm
00001cb2 g     F .text	00000036 arg_setMetaObj
00003ebc g     F .text	0000000a pikaVM_runAsm
000046c4 g     F .text	0000005c getPrintSring
000012ee g     F .text	00000106 SystemInit
00004246 g     F .text	00000022 content_getType
00000140 g       .text	00000000 rt_hw_interrupt_disable
0000451a g     F .text	0000001c args_getNode
0000cf1a g     F .text	0000006a .hidden __nedf2
00004a64 g     F .text	00000006 pikaMemMax
00000cf8 g     F .text	0000002c rt_thread_startup
00005de6 g     F .text	0000004c printchar
00004454 g     F .text	0000008e updateArg
000047b8 g     F .text	0000004a getPrintStringFromPtr
00002b84 g     F .text	00000290 pikaParseLine
20000dd8 g     O .bss	00000004 rt_current_thread
00002e14 g     F .text	000001fc AST_appandPikaAsm
00004d7c g     F .text	00000060 stack_pushStr
00008f6a g     F .text	00000046 sprintf
0000e1b0 g     O .text	00000100 .hidden __clz_tab
00000000 g       .init	00000000 _sinit
000054e4 g     F .text	00000004 CH32V103_GPIO_platformSetModeMethod
00007944 g     F .text	000000bc .hidden __fixdfdi
00003352  w    F .text	00000020 __platformPrintf
0000822e g     F .text	00000086 .hidden __gesf2
00001b3a g     F .text	00000002 CH32V103_GPIO_platformDisable
0000bcf8 g     F .text	0000002e _write_r
00009d8a g     F .text	0000002e _vsprintf_r
0000333c  w    F .text	00000002 __platformEnableIrqHandle
20000ddc g     O .bss	00000004 rt_thread_ready_priority_group
00004424 g     F .text	00000030 args_getBuff
20000cd8 g     O .bss	00000078 main_thread
0000b7ac g     F .text	0000010c _printf_common
20000218 g     O .data	00000004 _impure_ptr
000058a4 g     F .text	00000018 PikaStdLib_MemCheckerMethod
0000be60 g     F .text	0000013e __sflush_r
0000195a g     F .text	00000152 get_GPIO_pin
0000467a g     F .text	00000018 args_getType
20000de0 g     O .bss	00000008 rt_thread_defunct
0000e654 g     O .text	00000004 __rt_init_rti_board_end
0000b220 g     F .text	00000280 _svfiprintf_r
000001ba g       .text	00000000 rt_hw_context_switch_exit
0000070e g     F .text	00000088 rt_memset
0000a740 g     F .text	0000003a __ascii_mbtowc
00004a70 g     F .text	0000003a New_queue
000051aa g     F .text	00000034 strIsContain
00004f26 g     F .text	00000042 strAppendWithSize
000018e8 g     F .text	00000072 get_GPIO_group
00003c98 g     F .text	00000224 pikaVM_runAsmLine
0000ae4c g     F .text	00000046 __ulp
00003376  w    F .text	00000004 __platformSavePikaAsm
00004658 g     F .text	00000022 args_getInt
0000e64c g       .text	00000000 __vsymtab_end
20005000 g       .stack	00000000 _eusrstack
000008aa g     F .text	0000002a rt_object_detach
00009d18 g     F .text	00000060 _vsniprintf_r
000055a8 g     F .text	0000002a New_CH32V103_Sys
00004b4c g     F .text	00000034 queueObj_init
00001d5e g     F .text	0000007c fast_atoi
00003342  w    F .text	00000004 __platformFree
00002212 g     F .text	00000058 initObj
00003efa g     F .text	00000004 New_TinyObj
00000f36 g     F .text	0000000e rt_system_timer_init
00004cec g     F .text	00000058 queueObj_popStr
000009ee g     F .text	00000048 rt_schedule_remove_thread
0000c034 g     F .text	00000058 __swhatbuf_r
00005cf8 g     F .text	0000000a USART_SendData
000006da g     F .text	0000001a rt_interrupt_enter
00001706 g     F .text	0000002c PikaStdDevice_GPIO_enable
000054dc g     F .text	00000004 CH32V103_GPIO_platformHighMethod
0000337e  w    F .text	00000004 __platformSavePikaAsmEOF
0000214a g     F .text	00000046 obj_getPtr
00001b3c g     F .text	00000068 CH32V103_GPIO_platformEnable
00000146 g       .text	00000000 rt_hw_interrupt_enable
00005d96 g     F .text	00000050 _write
20000220 g       .data	00000000 _edata
0000567c g     F .text	00000004 PikaStdDevice_GPIO_platformDisableMethod
00000a58 g     F .text	00000044 rt_exit_critical
0000337a  w    F .text	00000004 __platformAsmIsToFlash
0000439a g     F .text	00000010 arg_getNameHash
20000244 g     O .bss	00000002 RxCnt
00001e94 g     F .text	00000006 getNewClassObjFunByName
0000e65c g       .dlalign	00000000 _data_lma
000053a2 g     F .text	00000036 strsFormat
000024ca g     F .text	0000004a obj_isArgExist
00004c32 g     F .text	0000005a queueObj_popObj
00002058 g     F .text	00000052 obj_getInt
000025ac g     F .text	0000000c args_getSysOut
0000bb8c g     F .text	0000004e __swrite
00002452 g     F .text	00000078 obj_removeArg
00000bb6 g     F .text	00000006 rt_thread_self
0000b50c g     F .text	000002a0 _vfiprintf_r
000045b0 g     F .text	0000002c args_setStr
00009f90 g     F .text	0000006c _fwalk_reent
0000333e  w    F .text	00000004 __platformMalloc
000013f4 g     F .text	0000007e SystemCoreClockUpdate
0000ad5a g     F .text	000000f2 __mdiff
00004b80 g     F .text	0000001a New_queueObj
00001ae0 g     F .text	0000005a get_GPIO_Clock_group
000051de g     F .text	00000024 strCopy
000042c2 g     F .text	00000008 arg_setContent
00002592 g     F .text	0000000e obj_setSysOut
000025b8 g     F .text	0000000e args_setSysOut
000004fc g     F .text	0000000a rt_tick_get
0000e3a0 g     O .text	00000020 __sf_fake_stdout
00008f6a g     F .text	00000046 siprintf
00005150 g     F .text	0000005a strRemovePrefix
00004e4a g     F .text	0000008e strCut
0000e508 g     O .text	00000101 _ctype_
0000d244 g     F .text	0000000c _read
000043c8 g     F .text	0000005a arg_copy
00001472  w      .text	00000000 handle_reset
00001e66 g     F .text	0000002e deinitEachSubObj
00005918 g     F .text	00000004 PikaStdLib_MemChecker_nowMethod
000050c6 g     F .text	00000020 strAppend
00003f40 g     F .text	00000094 content_init_hash
0000494a g     F .text	0000000c link_addNode
00004a20 g     F .text	0000003a pikaFree
000059b6 g     F .text	00000024 PikaStdLib_SysObj_typeMethod
00001776 g     F .text	0000002c PikaStdDevice_GPIO_high
00004536 g     F .text	00000004 args_getArg_hash
00003382 g     F .text	00000060 __clearInvokeQueues
00005080 g     F .text	00000046 strGetFirstToken
0000c08c g     F .text	000000a0 __smakebuf_r
00005a36 g     F .text	00000032 pikaScriptInit
0000152c g     F .text	00000038 PikaStdLib_MemChecker_now
00008fc2 g     F .text	00000012 strlen
0000b8b8 g     F .text	000002a4 _printf_i
0000cf84 g     F .text	000000ae .hidden __gedf2
0000a0b2 g     F .text	000004cc __gethex
20000258 g     O .bss	00000004 __malloc_sbrk_start
00001aac g     F .text	00000034 get_GPIO_mode
0000252a g     F .text	0000002a obj_getErrorCode
0000460c g     F .text	00000004 args_getArg
0000591c g     F .text	00000004 PikaStdLib_MemChecker_resetMaxMethod
00001fc4 g     F .text	00000036 obj_getClassObjByNewFun
0000e650 g     O .text	00000004 __rt_init_rti_board_start
00005130 g     F .text	00000020 strEqu
20000254 g     O .bss	00000004 __malloc_free_list
0000e64c g       .text	00000000 __fsymtab_start
00004582 g     F .text	0000002e args_setPtr
0000418a g     F .text	0000001a arg_setPtr
00004422 g     F .text	00000002 args_deinit
00007194 g     F .text	0000073e .hidden __subdf3
0000b50c g     F .text	000002a0 _vfprintf_r
00003ec6 g     F .text	00000034 pikaVM_run
00000938 g     F .text	0000006c rt_schedule
0000081a g     F .text	00000090 rt_object_init
00005694 g     F .text	0000001a PikaStdDevice_GPIO_readMethod
0000a9d2 g     F .text	0000006a __lo0bits
0000334a  w    F .text	00000004 __impl_pikaFree
0000281e g     F .text	0000004a checkIsDirect
00004102 g     F .text	00000004 arg_getContent
000049ce g     F .text	00000004 linkNode_deinit
00000da0 g     F .text	00000098 rt_timer_start
00001d34 g     F .text	0000002a __foreach_removeMethodInfo
00007bb6 g     F .text	0000036a .hidden __addsf3
00003242 g     F .text	000000f8 pikaParseMultiLineToAsm
200000a0 g     O .data	0000016c __global_locale
000054d8 g     F .text	00000004 CH32V103_GPIO_platformEnableMethod
00004c8c g     F .text	00000060 queueObj_pushStr
00004fac g     F .text	00000004 strGetSize
00004956 g     F .text	00000066 link_removeNode
0000422e g     F .text	00000004 arg_getStr
000056ae g     F .text	00000024 PikaStdDevice_GPIO_setModeMethod
00009ce8 g     F .text	00000030 viprintf
00001668 g     F .text	00000072 PikaStdDevice_GPIO_init
00000164 g       .text	00000000 rt_hw_context_switch
0000341a g     F .text	00000044 getThisBlockDeepth
000055d2 g     F .text	0000001c CH32V103_Sys
0000537a g     F .text	00000028 strsCopy
0000d214 g     F .text	0000000c _close
000048cc g     F .text	00000036 args_foreach
00008cba g     F .text	0000000a free
00004106 g     F .text	0000001a arg_setInt
0000a84e g     F .text	00000098 __multadd
00005670 g     F .text	00000004 PikaStdDevice_GPIO_highMethod
0000a80a g     F .text	00000044 _Bfree
000021b8 g     F .text	0000005a obj_getMethod
00001732 g     F .text	0000000c PikaStdDevice_GPIO_getMode



Disassembly of section .init:

00000000 <_sinit>:
   0:	4720106f          	j	1472 <handle_reset>
   4:	00000013          	nop
   8:	00000013          	nop
   c:	00000013          	nop
  10:	00000013          	nop
  14:	00000013          	nop
  18:	00000013          	nop
  1c:	00000013          	nop
  20:	00000013          	nop
  24:	00000013          	nop
  28:	00000013          	nop
  2c:	00000013          	nop
  30:	00000013          	nop
  34:	00100073          	ebreak

Disassembly of section .vector:

00000038 <_vector_base>:
  38:	fc9ff06f          	j	0 <_sinit>
  3c:	0000                	unimp
  3e:	0000                	unimp
  40:	0fa0106f          	j	113a <NMI_Handler>
  44:	14e0106f          	j	1192 <HardFault_Handler>
	...
  68:	0000106f          	j	1068 <SysTick_Handler>
  6c:	0000                	unimp
  6e:	0000                	unimp
  70:	1d00006f          	j	240 <SW_handler>
  74:	0000                	unimp
  76:	0000                	unimp
  78:	f89ff06f          	j	0 <_sinit>
  7c:	f85ff06f          	j	0 <_sinit>
  80:	f81ff06f          	j	0 <_sinit>
  84:	f7dff06f          	j	0 <_sinit>
  88:	f79ff06f          	j	0 <_sinit>
  8c:	f75ff06f          	j	0 <_sinit>
  90:	f71ff06f          	j	0 <_sinit>
  94:	f6dff06f          	j	0 <_sinit>
  98:	f69ff06f          	j	0 <_sinit>
  9c:	f65ff06f          	j	0 <_sinit>
  a0:	f61ff06f          	j	0 <_sinit>
  a4:	f5dff06f          	j	0 <_sinit>
  a8:	f59ff06f          	j	0 <_sinit>
  ac:	f55ff06f          	j	0 <_sinit>
  b0:	f51ff06f          	j	0 <_sinit>
  b4:	f4dff06f          	j	0 <_sinit>
  b8:	f49ff06f          	j	0 <_sinit>
  bc:	f45ff06f          	j	0 <_sinit>
  c0:	f41ff06f          	j	0 <_sinit>
	...
  d4:	f2dff06f          	j	0 <_sinit>
  d8:	f29ff06f          	j	0 <_sinit>
  dc:	f25ff06f          	j	0 <_sinit>
  e0:	f21ff06f          	j	0 <_sinit>
  e4:	f1dff06f          	j	0 <_sinit>
  e8:	f19ff06f          	j	0 <_sinit>
  ec:	f15ff06f          	j	0 <_sinit>
  f0:	f11ff06f          	j	0 <_sinit>
  f4:	f0dff06f          	j	0 <_sinit>
  f8:	f09ff06f          	j	0 <_sinit>
  fc:	f05ff06f          	j	0 <_sinit>
 100:	f01ff06f          	j	0 <_sinit>
 104:	efdff06f          	j	0 <_sinit>
 108:	ef9ff06f          	j	0 <_sinit>
 10c:	ef5ff06f          	j	0 <_sinit>
 110:	ef1ff06f          	j	0 <_sinit>
 114:	eedff06f          	j	0 <_sinit>
 118:	ee9ff06f          	j	0 <_sinit>
 11c:	ee5ff06f          	j	0 <_sinit>
 120:	ee1ff06f          	j	0 <_sinit>
 124:	eddff06f          	j	0 <_sinit>
	...

Disassembly of section .text:

00000140 <rt_hw_interrupt_disable>:
     140:	30047573          	csrrci	a0,mstatus,8
     144:	8082                	ret

00000146 <rt_hw_interrupt_enable>:
     146:	30051073          	csrw	mstatus,a0
     14a:	8082                	ret

0000014c <rt_hw_context_switch_to>:
     14c:	20005297          	auipc	t0,0x20005
     150:	eb428293          	addi	t0,t0,-332 # 20005000 <_eusrstack>
     154:	34029073          	csrw	mscratch,t0
     158:	00052103          	lw	sp,0(a0)
     15c:	4522                	lw	a0,8(sp)
     15e:	30051073          	csrw	mstatus,a0
     162:	a8a1                	j	1ba <rt_hw_context_switch_exit>

00000164 <rt_hw_context_switch>:
     164:	7119                	addi	sp,sp,-128
     166:	00252023          	sw	sp,0(a0)
     16a:	c006                	sw	ra,0(sp)
     16c:	c206                	sw	ra,4(sp)
     16e:	30002573          	csrr	a0,mstatus
     172:	8921                	andi	a0,a0,8
     174:	c119                	beqz	a0,17a <save_mpie>
     176:	08000513          	li	a0,128

0000017a <save_mpie>:
     17a:	c42a                	sw	a0,8(sp)
     17c:	c812                	sw	tp,16(sp)
     17e:	ca16                	sw	t0,20(sp)
     180:	cc1a                	sw	t1,24(sp)
     182:	ce1e                	sw	t2,28(sp)
     184:	d022                	sw	s0,32(sp)
     186:	d226                	sw	s1,36(sp)
     188:	d42a                	sw	a0,40(sp)
     18a:	d62e                	sw	a1,44(sp)
     18c:	d832                	sw	a2,48(sp)
     18e:	da36                	sw	a3,52(sp)
     190:	dc3a                	sw	a4,56(sp)
     192:	de3e                	sw	a5,60(sp)
     194:	c0c2                	sw	a6,64(sp)
     196:	c2c6                	sw	a7,68(sp)
     198:	c4ca                	sw	s2,72(sp)
     19a:	c6ce                	sw	s3,76(sp)
     19c:	c8d2                	sw	s4,80(sp)
     19e:	cad6                	sw	s5,84(sp)
     1a0:	ccda                	sw	s6,88(sp)
     1a2:	cede                	sw	s7,92(sp)
     1a4:	d0e2                	sw	s8,96(sp)
     1a6:	d2e6                	sw	s9,100(sp)
     1a8:	d4ea                	sw	s10,104(sp)
     1aa:	d6ee                	sw	s11,108(sp)
     1ac:	d8f2                	sw	t3,112(sp)
     1ae:	daf6                	sw	t4,116(sp)
     1b0:	dcfa                	sw	t5,120(sp)
     1b2:	defe                	sw	t6,124(sp)
     1b4:	0005a103          	lw	sp,0(a1)
     1b8:	a009                	j	1ba <rt_hw_context_switch_exit>

000001ba <rt_hw_context_switch_exit>:
     1ba:	4502                	lw	a0,0(sp)
     1bc:	34151073          	csrw	mepc,a0
     1c0:	4092                	lw	ra,4(sp)
     1c2:	000022b7          	lui	t0,0x2
     1c6:	80028293          	addi	t0,t0,-2048 # 1800 <PikaStdDevice_GPIO_setMode+0x34>
     1ca:	3002a073          	csrs	mstatus,t0
     1ce:	4522                	lw	a0,8(sp)
     1d0:	30052073          	csrs	mstatus,a0
     1d4:	4242                	lw	tp,16(sp)
     1d6:	42d2                	lw	t0,20(sp)
     1d8:	4362                	lw	t1,24(sp)
     1da:	43f2                	lw	t2,28(sp)
     1dc:	5402                	lw	s0,32(sp)
     1de:	5492                	lw	s1,36(sp)
     1e0:	5522                	lw	a0,40(sp)
     1e2:	55b2                	lw	a1,44(sp)
     1e4:	5642                	lw	a2,48(sp)
     1e6:	56d2                	lw	a3,52(sp)
     1e8:	5762                	lw	a4,56(sp)
     1ea:	57f2                	lw	a5,60(sp)
     1ec:	4806                	lw	a6,64(sp)
     1ee:	4896                	lw	a7,68(sp)
     1f0:	4926                	lw	s2,72(sp)
     1f2:	49b6                	lw	s3,76(sp)
     1f4:	4a46                	lw	s4,80(sp)
     1f6:	4ad6                	lw	s5,84(sp)
     1f8:	4b66                	lw	s6,88(sp)
     1fa:	4bf6                	lw	s7,92(sp)
     1fc:	5c06                	lw	s8,96(sp)
     1fe:	5c96                	lw	s9,100(sp)
     200:	5d26                	lw	s10,104(sp)
     202:	5db6                	lw	s11,108(sp)
     204:	5e46                	lw	t3,112(sp)
     206:	5ed6                	lw	t4,116(sp)
     208:	5f66                	lw	t5,120(sp)
     20a:	5ff6                	lw	t6,124(sp)
     20c:	6109                	addi	sp,sp,128
     20e:	30200073          	mret
	...

00000240 <SW_handler>:
     240:	7119                	addi	sp,sp,-128
     242:	c206                	sw	ra,4(sp)
     244:	08000293          	li	t0,128
     248:	c416                	sw	t0,8(sp)
     24a:	c812                	sw	tp,16(sp)
     24c:	ca16                	sw	t0,20(sp)
     24e:	cc1a                	sw	t1,24(sp)
     250:	ce1e                	sw	t2,28(sp)
     252:	d022                	sw	s0,32(sp)
     254:	d226                	sw	s1,36(sp)
     256:	d42a                	sw	a0,40(sp)
     258:	d62e                	sw	a1,44(sp)
     25a:	d832                	sw	a2,48(sp)
     25c:	da36                	sw	a3,52(sp)
     25e:	dc3a                	sw	a4,56(sp)
     260:	de3e                	sw	a5,60(sp)
     262:	c0c2                	sw	a6,64(sp)
     264:	c2c6                	sw	a7,68(sp)
     266:	c4ca                	sw	s2,72(sp)
     268:	c6ce                	sw	s3,76(sp)
     26a:	c8d2                	sw	s4,80(sp)
     26c:	cad6                	sw	s5,84(sp)
     26e:	ccda                	sw	s6,88(sp)
     270:	cede                	sw	s7,92(sp)
     272:	d0e2                	sw	s8,96(sp)
     274:	d2e6                	sw	s9,100(sp)
     276:	d4ea                	sw	s10,104(sp)
     278:	d6ee                	sw	s11,108(sp)
     27a:	d8f2                	sw	t3,112(sp)
     27c:	daf6                	sw	t4,116(sp)
     27e:	dcfa                	sw	t5,120(sp)
     280:	defe                	sw	t6,124(sp)
     282:	34011173          	csrrw	sp,mscratch,sp
     286:	2991                	jal	6da <rt_interrupt_enter>
     288:	21b5                	jal	6f4 <rt_interrupt_leave>
     28a:	34011173          	csrrw	sp,mscratch,sp
     28e:	20000417          	auipc	s0,0x20000
     292:	fae40413          	addi	s0,s0,-82 # 2000023c <rt_thread_switch_interrupt_flag>
     296:	00042903          	lw	s2,0(s0)
     29a:	02090863          	beqz	s2,2ca <spurious_interrupt>
     29e:	00042023          	sw	zero,0(s0)
     2a2:	34102573          	csrr	a0,mepc
     2a6:	c02a                	sw	a0,0(sp)
     2a8:	20000417          	auipc	s0,0x20000
     2ac:	f8c40413          	addi	s0,s0,-116 # 20000234 <rt_interrupt_from_thread>
     2b0:	4004                	lw	s1,0(s0)
     2b2:	0024a023          	sw	sp,0(s1)
     2b6:	20000417          	auipc	s0,0x20000
     2ba:	f8240413          	addi	s0,s0,-126 # 20000238 <rt_interrupt_to_thread>
     2be:	4004                	lw	s1,0(s0)
     2c0:	0004a103          	lw	sp,0(s1)
     2c4:	4502                	lw	a0,0(sp)
     2c6:	34151073          	csrw	mepc,a0

000002ca <spurious_interrupt>:
     2ca:	4092                	lw	ra,4(sp)
     2cc:	000022b7          	lui	t0,0x2
     2d0:	80028293          	addi	t0,t0,-2048 # 1800 <PikaStdDevice_GPIO_setMode+0x34>
     2d4:	3002a073          	csrs	mstatus,t0
     2d8:	42a2                	lw	t0,8(sp)
     2da:	3002a073          	csrs	mstatus,t0
     2de:	4242                	lw	tp,16(sp)
     2e0:	42d2                	lw	t0,20(sp)
     2e2:	4362                	lw	t1,24(sp)
     2e4:	43f2                	lw	t2,28(sp)
     2e6:	5402                	lw	s0,32(sp)
     2e8:	5492                	lw	s1,36(sp)
     2ea:	5522                	lw	a0,40(sp)
     2ec:	55b2                	lw	a1,44(sp)
     2ee:	5642                	lw	a2,48(sp)
     2f0:	56d2                	lw	a3,52(sp)
     2f2:	5762                	lw	a4,56(sp)
     2f4:	57f2                	lw	a5,60(sp)
     2f6:	4806                	lw	a6,64(sp)
     2f8:	4896                	lw	a7,68(sp)
     2fa:	4926                	lw	s2,72(sp)
     2fc:	49b6                	lw	s3,76(sp)
     2fe:	4a46                	lw	s4,80(sp)
     300:	4ad6                	lw	s5,84(sp)
     302:	4b66                	lw	s6,88(sp)
     304:	4bf6                	lw	s7,92(sp)
     306:	5c06                	lw	s8,96(sp)
     308:	5c96                	lw	s9,100(sp)
     30a:	5d26                	lw	s10,104(sp)
     30c:	5db6                	lw	s11,108(sp)
     30e:	5e46                	lw	t3,112(sp)
     310:	5ed6                	lw	t4,116(sp)
     312:	5f66                	lw	t5,120(sp)
     314:	5ff6                	lw	t6,124(sp)
     316:	6109                	addi	sp,sp,128
     318:	30200073          	mret
	...

00000336 <memset>:
     336:	433d                	li	t1,15
     338:	872a                	mv	a4,a0
     33a:	02c37363          	bgeu	t1,a2,360 <memset+0x2a>
     33e:	00f77793          	andi	a5,a4,15
     342:	efbd                	bnez	a5,3c0 <memset+0x8a>
     344:	e5ad                	bnez	a1,3ae <memset+0x78>
     346:	ff067693          	andi	a3,a2,-16
     34a:	8a3d                	andi	a2,a2,15
     34c:	96ba                	add	a3,a3,a4
     34e:	c30c                	sw	a1,0(a4)
     350:	c34c                	sw	a1,4(a4)
     352:	c70c                	sw	a1,8(a4)
     354:	c74c                	sw	a1,12(a4)
     356:	0741                	addi	a4,a4,16
     358:	fed76be3          	bltu	a4,a3,34e <memset+0x18>
     35c:	e211                	bnez	a2,360 <memset+0x2a>
     35e:	8082                	ret
     360:	40c306b3          	sub	a3,t1,a2
     364:	068a                	slli	a3,a3,0x2
     366:	00000297          	auipc	t0,0x0
     36a:	9696                	add	a3,a3,t0
     36c:	00a68067          	jr	10(a3)
     370:	00b70723          	sb	a1,14(a4)
     374:	00b706a3          	sb	a1,13(a4)
     378:	00b70623          	sb	a1,12(a4)
     37c:	00b705a3          	sb	a1,11(a4)
     380:	00b70523          	sb	a1,10(a4)
     384:	00b704a3          	sb	a1,9(a4)
     388:	00b70423          	sb	a1,8(a4)
     38c:	00b703a3          	sb	a1,7(a4)
     390:	00b70323          	sb	a1,6(a4)
     394:	00b702a3          	sb	a1,5(a4)
     398:	00b70223          	sb	a1,4(a4)
     39c:	00b701a3          	sb	a1,3(a4)
     3a0:	00b70123          	sb	a1,2(a4)
     3a4:	00b700a3          	sb	a1,1(a4)
     3a8:	00b70023          	sb	a1,0(a4)
     3ac:	8082                	ret
     3ae:	0ff5f593          	andi	a1,a1,255
     3b2:	00859693          	slli	a3,a1,0x8
     3b6:	8dd5                	or	a1,a1,a3
     3b8:	01059693          	slli	a3,a1,0x10
     3bc:	8dd5                	or	a1,a1,a3
     3be:	b761                	j	346 <memset+0x10>
     3c0:	00279693          	slli	a3,a5,0x2
     3c4:	00000297          	auipc	t0,0x0
     3c8:	9696                	add	a3,a3,t0
     3ca:	8286                	mv	t0,ra
     3cc:	fa8680e7          	jalr	-88(a3)
     3d0:	8096                	mv	ra,t0
     3d2:	17c1                	addi	a5,a5,-16
     3d4:	8f1d                	sub	a4,a4,a5
     3d6:	963e                	add	a2,a2,a5
     3d8:	f8c374e3          	bgeu	t1,a2,360 <memset+0x2a>
     3dc:	b7a5                	j	344 <memset+0xe>

000003de <strcmp>:
     3de:	00b56733          	or	a4,a0,a1
     3e2:	53fd                	li	t2,-1
     3e4:	8b0d                	andi	a4,a4,3
     3e6:	e779                	bnez	a4,4b4 <strcmp+0xd6>
     3e8:	7f7f87b7          	lui	a5,0x7f7f8
     3ec:	f7f78793          	addi	a5,a5,-129 # 7f7f7f7f <_eusrstack+0x5f7f2f7f>
     3f0:	4110                	lw	a2,0(a0)
     3f2:	4194                	lw	a3,0(a1)
     3f4:	00f672b3          	and	t0,a2,a5
     3f8:	00f66333          	or	t1,a2,a5
     3fc:	92be                	add	t0,t0,a5
     3fe:	0062e2b3          	or	t0,t0,t1
     402:	0c729763          	bne	t0,t2,4d0 <strcmp+0xf2>
     406:	06d61863          	bne	a2,a3,476 <strcmp+0x98>
     40a:	4150                	lw	a2,4(a0)
     40c:	41d4                	lw	a3,4(a1)
     40e:	00f672b3          	and	t0,a2,a5
     412:	00f66333          	or	t1,a2,a5
     416:	92be                	add	t0,t0,a5
     418:	0062e2b3          	or	t0,t0,t1
     41c:	0a729863          	bne	t0,t2,4cc <strcmp+0xee>
     420:	04d61b63          	bne	a2,a3,476 <strcmp+0x98>
     424:	4510                	lw	a2,8(a0)
     426:	4594                	lw	a3,8(a1)
     428:	00f672b3          	and	t0,a2,a5
     42c:	00f66333          	or	t1,a2,a5
     430:	92be                	add	t0,t0,a5
     432:	0062e2b3          	or	t0,t0,t1
     436:	0a729163          	bne	t0,t2,4d8 <strcmp+0xfa>
     43a:	02d61e63          	bne	a2,a3,476 <strcmp+0x98>
     43e:	4550                	lw	a2,12(a0)
     440:	45d4                	lw	a3,12(a1)
     442:	00f672b3          	and	t0,a2,a5
     446:	00f66333          	or	t1,a2,a5
     44a:	92be                	add	t0,t0,a5
     44c:	0062e2b3          	or	t0,t0,t1
     450:	08729a63          	bne	t0,t2,4e4 <strcmp+0x106>
     454:	02d61163          	bne	a2,a3,476 <strcmp+0x98>
     458:	4910                	lw	a2,16(a0)
     45a:	4994                	lw	a3,16(a1)
     45c:	00f672b3          	and	t0,a2,a5
     460:	00f66333          	or	t1,a2,a5
     464:	92be                	add	t0,t0,a5
     466:	0062e2b3          	or	t0,t0,t1
     46a:	08729363          	bne	t0,t2,4f0 <strcmp+0x112>
     46e:	0551                	addi	a0,a0,20
     470:	05d1                	addi	a1,a1,20
     472:	f6d60fe3          	beq	a2,a3,3f0 <strcmp+0x12>
     476:	01061713          	slli	a4,a2,0x10
     47a:	01069793          	slli	a5,a3,0x10
     47e:	00f71c63          	bne	a4,a5,496 <strcmp+0xb8>
     482:	01065713          	srli	a4,a2,0x10
     486:	0106d793          	srli	a5,a3,0x10
     48a:	40f70533          	sub	a0,a4,a5
     48e:	0ff57593          	andi	a1,a0,255
     492:	e991                	bnez	a1,4a6 <strcmp+0xc8>
     494:	8082                	ret
     496:	8341                	srli	a4,a4,0x10
     498:	83c1                	srli	a5,a5,0x10
     49a:	40f70533          	sub	a0,a4,a5
     49e:	0ff57593          	andi	a1,a0,255
     4a2:	e191                	bnez	a1,4a6 <strcmp+0xc8>
     4a4:	8082                	ret
     4a6:	0ff77713          	andi	a4,a4,255
     4aa:	0ff7f793          	andi	a5,a5,255
     4ae:	40f70533          	sub	a0,a4,a5
     4b2:	8082                	ret
     4b4:	00054603          	lbu	a2,0(a0)
     4b8:	0005c683          	lbu	a3,0(a1)
     4bc:	0505                	addi	a0,a0,1
     4be:	0585                	addi	a1,a1,1
     4c0:	00d61363          	bne	a2,a3,4c6 <strcmp+0xe8>
     4c4:	fa65                	bnez	a2,4b4 <strcmp+0xd6>
     4c6:	40d60533          	sub	a0,a2,a3
     4ca:	8082                	ret
     4cc:	0511                	addi	a0,a0,4
     4ce:	0591                	addi	a1,a1,4
     4d0:	fed612e3          	bne	a2,a3,4b4 <strcmp+0xd6>
     4d4:	4501                	li	a0,0
     4d6:	8082                	ret
     4d8:	0521                	addi	a0,a0,8
     4da:	05a1                	addi	a1,a1,8
     4dc:	fcd61ce3          	bne	a2,a3,4b4 <strcmp+0xd6>
     4e0:	4501                	li	a0,0
     4e2:	8082                	ret
     4e4:	0531                	addi	a0,a0,12
     4e6:	05b1                	addi	a1,a1,12
     4e8:	fcd616e3          	bne	a2,a3,4b4 <strcmp+0xd6>
     4ec:	4501                	li	a0,0
     4ee:	8082                	ret
     4f0:	0541                	addi	a0,a0,16
     4f2:	05c1                	addi	a1,a1,16
     4f4:	fcd610e3          	bne	a2,a3,4b4 <strcmp+0xd6>
     4f8:	4501                	li	a0,0
     4fa:	8082                	ret

000004fc <rt_tick_get>:
     4fc:	200007b7          	lui	a5,0x20000
     500:	2207a503          	lw	a0,544(a5) # 20000220 <_edata>
     504:	8082                	ret

00000506 <rt_tick_increase>:
     506:	200007b7          	lui	a5,0x20000
     50a:	22078793          	addi	a5,a5,544 # 20000220 <_edata>
     50e:	4398                	lw	a4,0(a5)
     510:	1141                	addi	sp,sp,-16
     512:	c606                	sw	ra,12(sp)
     514:	0705                	addi	a4,a4,1
     516:	c398                	sw	a4,0(a5)
     518:	69e000ef          	jal	ra,bb6 <rt_thread_self>
     51c:	413c                	lw	a5,64(a0)
     51e:	17fd                	addi	a5,a5,-1
     520:	c13c                	sw	a5,64(a0)
     522:	e789                	bnez	a5,52c <rt_tick_increase+0x26>
     524:	5d5c                	lw	a5,60(a0)
     526:	c13c                	sw	a5,64(a0)
     528:	694000ef          	jal	ra,bbc <rt_thread_yield>
     52c:	40b2                	lw	ra,12(sp)
     52e:	0141                	addi	sp,sp,16
     530:	1830006f          	j	eb2 <rt_timer_check>

00000534 <rti_start>:
     534:	4501                	li	a0,0
     536:	8082                	ret

00000538 <rti_end>:
     538:	4501                	li	a0,0
     53a:	8082                	ret

0000053c <rti_board_start>:
     53c:	4501                	li	a0,0
     53e:	8082                	ret

00000540 <rti_board_end>:
     540:	4501                	li	a0,0
     542:	8082                	ret

00000544 <rt_components_board_init>:
     544:	1141                	addi	sp,sp,-16
     546:	c422                	sw	s0,8(sp)
     548:	c226                	sw	s1,4(sp)
     54a:	6439                	lui	s0,0xe
     54c:	64b9                	lui	s1,0xe
     54e:	c606                	sw	ra,12(sp)
     550:	65040413          	addi	s0,s0,1616 # e650 <__rt_init_rti_board_start>
     554:	65448493          	addi	s1,s1,1620 # e654 <__rt_init_rti_board_end>
     558:	00946763          	bltu	s0,s1,566 <rt_components_board_init+0x22>
     55c:	40b2                	lw	ra,12(sp)
     55e:	4422                	lw	s0,8(sp)
     560:	4492                	lw	s1,4(sp)
     562:	0141                	addi	sp,sp,16
     564:	8082                	ret
     566:	401c                	lw	a5,0(s0)
     568:	0411                	addi	s0,s0,4
     56a:	9782                	jalr	a5
     56c:	b7f5                	j	558 <rt_components_board_init+0x14>

0000056e <rt_components_init>:
     56e:	1141                	addi	sp,sp,-16
     570:	c422                	sw	s0,8(sp)
     572:	c226                	sw	s1,4(sp)
     574:	6439                	lui	s0,0xe
     576:	64b9                	lui	s1,0xe
     578:	c606                	sw	ra,12(sp)
     57a:	65440413          	addi	s0,s0,1620 # e654 <__rt_init_rti_board_end>
     57e:	65848493          	addi	s1,s1,1624 # e658 <__rt_init_rti_end>
     582:	00946763          	bltu	s0,s1,590 <rt_components_init+0x22>
     586:	40b2                	lw	ra,12(sp)
     588:	4422                	lw	s0,8(sp)
     58a:	4492                	lw	s1,4(sp)
     58c:	0141                	addi	sp,sp,16
     58e:	8082                	ret
     590:	401c                	lw	a5,0(s0)
     592:	0411                	addi	s0,s0,4
     594:	9782                	jalr	a5
     596:	b7f5                	j	582 <rt_components_init+0x14>

00000598 <main_thread_entry>:
     598:	1141                	addi	sp,sp,-16
     59a:	c606                	sw	ra,12(sp)
     59c:	3fc9                	jal	56e <rt_components_init>
     59e:	40b2                	lw	ra,12(sp)
     5a0:	0141                	addi	sp,sp,16
     5a2:	43b0006f          	j	11dc <main>

000005a6 <rt_application_init>:
     5a6:	1141                	addi	sp,sp,-16
     5a8:	c422                	sw	s0,8(sp)
     5aa:	6785                	lui	a5,0x1
     5ac:	20000737          	lui	a4,0x20000
     5b0:	00000637          	lui	a2,0x0
     5b4:	0000d5b7          	lui	a1,0xd
     5b8:	2c818513          	addi	a0,gp,712 # 20000cd8 <main_thread>
     5bc:	48d1                	li	a7,20
     5be:	4815                	li	a6,5
     5c0:	80078793          	addi	a5,a5,-2048 # 800 <__stack_size>
     5c4:	26070713          	addi	a4,a4,608 # 20000260 <main_stack>
     5c8:	4681                	li	a3,0
     5ca:	59860613          	addi	a2,a2,1432 # 598 <main_thread_entry>
     5ce:	27058593          	addi	a1,a1,624 # d270 <_sbrk+0x20>
     5d2:	c606                	sw	ra,12(sp)
     5d4:	2391                	jal	b18 <rt_thread_init>
     5d6:	2c818513          	addi	a0,gp,712 # 20000cd8 <main_thread>
     5da:	4422                	lw	s0,8(sp)
     5dc:	40b2                	lw	ra,12(sp)
     5de:	0141                	addi	sp,sp,16
     5e0:	7180006f          	j	cf8 <rt_thread_startup>

000005e4 <rtthread_startup>:
     5e4:	1141                	addi	sp,sp,-16
     5e6:	c606                	sw	ra,12(sp)
     5e8:	3ea1                	jal	140 <rt_hw_interrupt_disable>
     5ea:	1b9000ef          	jal	ra,fa2 <rt_hw_board_init>
     5ee:	2ad1                	jal	7c2 <rt_show_version>
     5f0:	147000ef          	jal	ra,f36 <rt_system_timer_init>
     5f4:	24e5                	jal	8dc <rt_system_scheduler_init>
     5f6:	3f45                	jal	5a6 <rt_application_init>
     5f8:	14d000ef          	jal	ra,f44 <rt_system_timer_thread_init>
     5fc:	205d                	jal	6a2 <rt_thread_idle_init>
     5fe:	2e09                	jal	910 <rt_system_scheduler_start>
     600:	40b2                	lw	ra,12(sp)
     602:	4501                	li	a0,0
     604:	0141                	addi	sp,sp,16
     606:	8082                	ret

00000608 <entry>:
     608:	1141                	addi	sp,sp,-16
     60a:	c606                	sw	ra,12(sp)
     60c:	3fe1                	jal	5e4 <rtthread_startup>
     60e:	40b2                	lw	ra,12(sp)
     610:	4501                	li	a0,0
     612:	0141                	addi	sp,sp,16
     614:	8082                	ret

00000616 <rt_thread_idle_excute>:
     616:	1101                	addi	sp,sp,-32
     618:	ca26                	sw	s1,20(sp)
     61a:	c64e                	sw	s3,12(sp)
     61c:	c256                	sw	s5,4(sp)
     61e:	ce06                	sw	ra,28(sp)
     620:	cc22                	sw	s0,24(sp)
     622:	c84a                	sw	s2,16(sp)
     624:	c452                	sw	s4,8(sp)
     626:	3d018993          	addi	s3,gp,976 # 20000de0 <rt_thread_defunct>
     62a:	4a85                	li	s5,1
     62c:	3d01a783          	lw	a5,976(gp) # 20000de0 <rt_thread_defunct>
     630:	01379b63          	bne	a5,s3,646 <rt_thread_idle_excute+0x30>
     634:	40f2                	lw	ra,28(sp)
     636:	4462                	lw	s0,24(sp)
     638:	44d2                	lw	s1,20(sp)
     63a:	4942                	lw	s2,16(sp)
     63c:	49b2                	lw	s3,12(sp)
     63e:	4a22                	lw	s4,8(sp)
     640:	4a92                	lw	s5,4(sp)
     642:	6105                	addi	sp,sp,32
     644:	8082                	ret
     646:	3ced                	jal	140 <rt_hw_interrupt_disable>
     648:	3d01a783          	lw	a5,976(gp) # 20000de0 <rt_thread_defunct>
     64c:	8a2a                	mv	s4,a0
     64e:	03378963          	beq	a5,s3,680 <rt_thread_idle_excute+0x6a>
     652:	3d01a403          	lw	s0,976(gp) # 20000de0 <rt_thread_defunct>
     656:	405c                	lw	a5,4(s0)
     658:	4018                	lw	a4,0(s0)
     65a:	fec40913          	addi	s2,s0,-20
     65e:	c35c                	sw	a5,4(a4)
     660:	c398                	sw	a4,0(a5)
     662:	c040                	sw	s0,4(s0)
     664:	c000                	sw	s0,0(s0)
     666:	2ec1                	jal	a36 <rt_enter_critical>
     668:	4c7c                	lw	a5,92(s0)
     66a:	c399                	beqz	a5,670 <rt_thread_idle_excute+0x5a>
     66c:	854a                	mv	a0,s2
     66e:	9782                	jalr	a5
     670:	854a                	mv	a0,s2
     672:	248d                	jal	8d4 <rt_object_is_systemobject>
     674:	01551f63          	bne	a0,s5,692 <rt_thread_idle_excute+0x7c>
     678:	854a                	mv	a0,s2
     67a:	2c05                	jal	8aa <rt_object_detach>
     67c:	2ef1                	jal	a58 <rt_exit_critical>
     67e:	8552                	mv	a0,s4
     680:	4462                	lw	s0,24(sp)
     682:	40f2                	lw	ra,28(sp)
     684:	44d2                	lw	s1,20(sp)
     686:	4942                	lw	s2,16(sp)
     688:	49b2                	lw	s3,12(sp)
     68a:	4a22                	lw	s4,8(sp)
     68c:	4a92                	lw	s5,4(sp)
     68e:	6105                	addi	sp,sp,32
     690:	bc5d                	j	146 <rt_hw_interrupt_enable>
     692:	26d9                	jal	a58 <rt_exit_critical>
     694:	8552                	mv	a0,s4
     696:	3c45                	jal	146 <rt_hw_interrupt_enable>
     698:	bf51                	j	62c <rt_thread_idle_excute+0x16>

0000069a <rt_thread_idle_entry>:
     69a:	1141                	addi	sp,sp,-16
     69c:	c606                	sw	ra,12(sp)
     69e:	3fa5                	jal	616 <rt_thread_idle_excute>
     6a0:	bffd                	j	69e <rt_thread_idle_entry+0x4>

000006a2 <rt_thread_idle_init>:
     6a2:	1141                	addi	sp,sp,-16
     6a4:	c422                	sw	s0,8(sp)
     6a6:	00000637          	lui	a2,0x0
     6aa:	0000d5b7          	lui	a1,0xd
     6ae:	05018513          	addi	a0,gp,80 # 20000a60 <idle>
     6b2:	02000893          	li	a7,32
     6b6:	483d                	li	a6,15
     6b8:	10000793          	li	a5,256
     6bc:	0c818713          	addi	a4,gp,200 # 20000ad8 <rt_thread_stack>
     6c0:	4681                	li	a3,0
     6c2:	69a60613          	addi	a2,a2,1690 # 69a <rt_thread_idle_entry>
     6c6:	27858593          	addi	a1,a1,632 # d278 <_sbrk+0x28>
     6ca:	c606                	sw	ra,12(sp)
     6cc:	21b1                	jal	b18 <rt_thread_init>
     6ce:	05018513          	addi	a0,gp,80 # 20000a60 <idle>
     6d2:	4422                	lw	s0,8(sp)
     6d4:	40b2                	lw	ra,12(sp)
     6d6:	0141                	addi	sp,sp,16
     6d8:	a505                	j	cf8 <rt_thread_startup>

000006da <rt_interrupt_enter>:
     6da:	1141                	addi	sp,sp,-16
     6dc:	c606                	sw	ra,12(sp)
     6de:	348d                	jal	140 <rt_hw_interrupt_disable>
     6e0:	3401c783          	lbu	a5,832(gp) # 20000d50 <rt_interrupt_nest>
     6e4:	40b2                	lw	ra,12(sp)
     6e6:	0785                	addi	a5,a5,1
     6e8:	0ff7f793          	andi	a5,a5,255
     6ec:	34f18023          	sb	a5,832(gp) # 20000d50 <rt_interrupt_nest>
     6f0:	0141                	addi	sp,sp,16
     6f2:	bc91                	j	146 <rt_hw_interrupt_enable>

000006f4 <rt_interrupt_leave>:
     6f4:	1141                	addi	sp,sp,-16
     6f6:	c606                	sw	ra,12(sp)
     6f8:	34a1                	jal	140 <rt_hw_interrupt_disable>
     6fa:	3401c783          	lbu	a5,832(gp) # 20000d50 <rt_interrupt_nest>
     6fe:	40b2                	lw	ra,12(sp)
     700:	17fd                	addi	a5,a5,-1
     702:	0ff7f793          	andi	a5,a5,255
     706:	34f18023          	sb	a5,832(gp) # 20000d50 <rt_interrupt_nest>
     70a:	0141                	addi	sp,sp,16
     70c:	bc2d                	j	146 <rt_hw_interrupt_enable>

0000070e <rt_memset>:
     70e:	470d                	li	a4,3
     710:	87aa                	mv	a5,a0
     712:	00c77663          	bgeu	a4,a2,71e <rt_memset+0x10>
     716:	00357793          	andi	a5,a0,3
     71a:	c791                	beqz	a5,726 <rt_memset+0x18>
     71c:	87aa                	mv	a5,a0
     71e:	963e                	add	a2,a2,a5
     720:	06c79763          	bne	a5,a2,78e <rt_memset+0x80>
     724:	8082                	ret
     726:	0ff5f793          	andi	a5,a1,255
     72a:	00879713          	slli	a4,a5,0x8
     72e:	8fd9                	or	a5,a5,a4
     730:	01079713          	slli	a4,a5,0x10
     734:	8f5d                	or	a4,a4,a5
     736:	00c508b3          	add	a7,a0,a2
     73a:	87aa                	mv	a5,a0
     73c:	46bd                	li	a3,15
     73e:	40f88833          	sub	a6,a7,a5
     742:	0306eb63          	bltu	a3,a6,778 <rt_memset+0x6a>
     746:	00465793          	srli	a5,a2,0x4
     74a:	56c1                	li	a3,-16
     74c:	02d786b3          	mul	a3,a5,a3
     750:	0792                	slli	a5,a5,0x4
     752:	97aa                	add	a5,a5,a0
     754:	480d                	li	a6,3
     756:	9636                	add	a2,a2,a3
     758:	00c78333          	add	t1,a5,a2
     75c:	86be                	mv	a3,a5
     75e:	40d308b3          	sub	a7,t1,a3
     762:	03186263          	bltu	a6,a7,786 <rt_memset+0x78>
     766:	00265713          	srli	a4,a2,0x2
     76a:	56f1                	li	a3,-4
     76c:	02d706b3          	mul	a3,a4,a3
     770:	070a                	slli	a4,a4,0x2
     772:	97ba                	add	a5,a5,a4
     774:	9636                	add	a2,a2,a3
     776:	b765                	j	71e <rt_memset+0x10>
     778:	c398                	sw	a4,0(a5)
     77a:	c3d8                	sw	a4,4(a5)
     77c:	c798                	sw	a4,8(a5)
     77e:	07c1                	addi	a5,a5,16
     780:	fee7ae23          	sw	a4,-4(a5)
     784:	bf6d                	j	73e <rt_memset+0x30>
     786:	0691                	addi	a3,a3,4
     788:	fee6ae23          	sw	a4,-4(a3)
     78c:	bfc9                	j	75e <rt_memset+0x50>
     78e:	0785                	addi	a5,a5,1
     790:	feb78fa3          	sb	a1,-1(a5)
     794:	b771                	j	720 <rt_memset+0x12>

00000796 <rt_strncpy>:
     796:	c60d                	beqz	a2,7c0 <rt_strncpy+0x2a>
     798:	87aa                	mv	a5,a0
     79a:	0585                	addi	a1,a1,1
     79c:	fff58703          	lb	a4,-1(a1)
     7a0:	0785                	addi	a5,a5,1
     7a2:	fff60693          	addi	a3,a2,-1
     7a6:	fee78fa3          	sb	a4,-1(a5)
     7aa:	eb09                	bnez	a4,7bc <rt_strncpy+0x26>
     7ac:	963e                	add	a2,a2,a5
     7ae:	0785                	addi	a5,a5,1
     7b0:	00c79363          	bne	a5,a2,7b6 <rt_strncpy+0x20>
     7b4:	8082                	ret
     7b6:	fe078fa3          	sb	zero,-1(a5)
     7ba:	bfd5                	j	7ae <rt_strncpy+0x18>
     7bc:	8636                	mv	a2,a3
     7be:	fef1                	bnez	a3,79a <rt_strncpy+0x4>
     7c0:	8082                	ret

000007c2 <rt_show_version>:
     7c2:	8082                	ret

000007c4 <__rt_ffs>:
     7c4:	c931                	beqz	a0,818 <__stack_size+0x18>
     7c6:	66b5                	lui	a3,0xd
     7c8:	0ff57713          	andi	a4,a0,255
     7cc:	28068693          	addi	a3,a3,640 # d280 <__lowest_bit_bitmap>
     7d0:	c711                	beqz	a4,7dc <__rt_ffs+0x18>
     7d2:	96ba                	add	a3,a3,a4
     7d4:	0006c503          	lbu	a0,0(a3)
     7d8:	0505                	addi	a0,a0,1
     7da:	8082                	ret
     7dc:	67c1                	lui	a5,0x10
     7de:	f0078793          	addi	a5,a5,-256 # ff00 <__rt_init_end+0x18a4>
     7e2:	8fe9                	and	a5,a5,a0
     7e4:	cb89                	beqz	a5,7f6 <__rt_ffs+0x32>
     7e6:	8521                	srai	a0,a0,0x8
     7e8:	0ff57713          	andi	a4,a0,255
     7ec:	9736                	add	a4,a4,a3
     7ee:	00074503          	lbu	a0,0(a4)
     7f2:	0525                	addi	a0,a0,9
     7f4:	8082                	ret
     7f6:	00ff07b7          	lui	a5,0xff0
     7fa:	8fe9                	and	a5,a5,a0
     7fc:	cb89                	beqz	a5,80e <__stack_size+0xe>
     7fe:	8541                	srai	a0,a0,0x10
     800:	0ff57793          	andi	a5,a0,255
     804:	97b6                	add	a5,a5,a3
     806:	0007c503          	lbu	a0,0(a5) # ff0000 <__rt_init_end+0xfe19a4>
     80a:	0545                	addi	a0,a0,17
     80c:	8082                	ret
     80e:	8161                	srli	a0,a0,0x18
     810:	9536                	add	a0,a0,a3
     812:	00054503          	lbu	a0,0(a0)
     816:	0565                	addi	a0,a0,25
     818:	8082                	ret

0000081a <rt_object_init>:
     81a:	1101                	addi	sp,sp,-32
     81c:	cc22                	sw	s0,24(sp)
     81e:	20000437          	lui	s0,0x20000
     822:	00042783          	lw	a5,0(s0) # 20000000 <_data_vma>
     826:	c84a                	sw	s2,16(sp)
     828:	c64e                	sw	s3,12(sp)
     82a:	c256                	sw	s5,4(sp)
     82c:	ce06                	sw	ra,28(sp)
     82e:	ca26                	sw	s1,20(sp)
     830:	c452                	sw	s4,8(sp)
     832:	892a                	mv	s2,a0
     834:	89ae                	mv	s3,a1
     836:	8ab2                	mv	s5,a2
     838:	00040413          	mv	s0,s0
     83c:	00f58a63          	beq	a1,a5,850 <rt_object_init+0x36>
     840:	481c                	lw	a5,16(s0)
     842:	4485                	li	s1,1
     844:	00f58763          	beq	a1,a5,852 <rt_object_init+0x38>
     848:	22fd                	jal	a36 <rt_enter_critical>
     84a:	00402783          	lw	a5,4(zero) # 4 <_sinit+0x4>
     84e:	9002                	ebreak
     850:	4481                	li	s1,0
     852:	0492                	slli	s1,s1,0x4
     854:	00940a33          	add	s4,s0,s1
     858:	2af9                	jal	a36 <rt_enter_critical>
     85a:	004a2783          	lw	a5,4(s4)
     85e:	0491                	addi	s1,s1,4
     860:	9426                	add	s0,s0,s1
     862:	04f41263          	bne	s0,a5,8a6 <rt_object_init+0x8c>
     866:	2acd                	jal	a58 <rt_exit_critical>
     868:	f809e993          	ori	s3,s3,-128
     86c:	01390423          	sb	s3,8(s2)
     870:	85d6                	mv	a1,s5
     872:	4621                	li	a2,8
     874:	854a                	mv	a0,s2
     876:	3705                	jal	796 <rt_strncpy>
     878:	8c9ff0ef          	jal	ra,140 <rt_hw_interrupt_disable>
     87c:	004a2703          	lw	a4,4(s4)
     880:	00c90793          	addi	a5,s2,12
     884:	40f2                	lw	ra,28(sp)
     886:	c35c                	sw	a5,4(a4)
     888:	00e92623          	sw	a4,12(s2)
     88c:	00fa2223          	sw	a5,4(s4)
     890:	00892823          	sw	s0,16(s2)
     894:	4462                	lw	s0,24(sp)
     896:	44d2                	lw	s1,20(sp)
     898:	4942                	lw	s2,16(sp)
     89a:	49b2                	lw	s3,12(sp)
     89c:	4a22                	lw	s4,8(sp)
     89e:	4a92                	lw	s5,4(sp)
     8a0:	6105                	addi	sp,sp,32
     8a2:	8a5ff06f          	j	146 <rt_hw_interrupt_enable>
     8a6:	439c                	lw	a5,0(a5)
     8a8:	bf6d                	j	862 <rt_object_init+0x48>

000008aa <rt_object_detach>:
     8aa:	1141                	addi	sp,sp,-16
     8ac:	c422                	sw	s0,8(sp)
     8ae:	c606                	sw	ra,12(sp)
     8b0:	00050423          	sb	zero,8(a0)
     8b4:	842a                	mv	s0,a0
     8b6:	88bff0ef          	jal	ra,140 <rt_hw_interrupt_disable>
     8ba:	4454                	lw	a3,12(s0)
     8bc:	4818                	lw	a4,16(s0)
     8be:	00c40793          	addi	a5,s0,12
     8c2:	40b2                	lw	ra,12(sp)
     8c4:	c2d8                	sw	a4,4(a3)
     8c6:	c314                	sw	a3,0(a4)
     8c8:	c81c                	sw	a5,16(s0)
     8ca:	c45c                	sw	a5,12(s0)
     8cc:	4422                	lw	s0,8(sp)
     8ce:	0141                	addi	sp,sp,16
     8d0:	877ff06f          	j	146 <rt_hw_interrupt_enable>

000008d4 <rt_object_is_systemobject>:
     8d4:	00850503          	lb	a0,8(a0)
     8d8:	817d                	srli	a0,a0,0x1f
     8da:	8082                	ret

000008dc <rt_system_scheduler_init>:
     8dc:	200007b7          	lui	a5,0x20000
     8e0:	22079223          	sh	zero,548(a5) # 20000224 <rt_scheduler_lock_nest>
     8e4:	34418793          	addi	a5,gp,836 # 20000d54 <rt_thread_priority_table>
     8e8:	08078713          	addi	a4,a5,128
     8ec:	c3dc                	sw	a5,4(a5)
     8ee:	c39c                	sw	a5,0(a5)
     8f0:	07a1                	addi	a5,a5,8
     8f2:	fee79de3          	bne	a5,a4,8ec <rt_system_scheduler_init+0x10>
     8f6:	473d                	li	a4,15
     8f8:	3ce18223          	sb	a4,964(gp) # 20000dd4 <rt_current_priority>
     8fc:	3c01a423          	sw	zero,968(gp) # 20000dd8 <rt_current_thread>
     900:	3c01a623          	sw	zero,972(gp) # 20000ddc <rt_thread_ready_priority_group>
     904:	3d018793          	addi	a5,gp,976 # 20000de0 <rt_thread_defunct>
     908:	c3dc                	sw	a5,4(a5)
     90a:	3cf1a823          	sw	a5,976(gp) # 20000de0 <rt_thread_defunct>
     90e:	8082                	ret

00000910 <rt_system_scheduler_start>:
     910:	3cc1a503          	lw	a0,972(gp) # 20000ddc <rt_thread_ready_priority_group>
     914:	1141                	addi	sp,sp,-16
     916:	c606                	sw	ra,12(sp)
     918:	3575                	jal	7c4 <__rt_ffs>
     91a:	157d                	addi	a0,a0,-1
     91c:	34418793          	addi	a5,gp,836 # 20000d54 <rt_thread_priority_table>
     920:	050e                	slli	a0,a0,0x3
     922:	953e                	add	a0,a0,a5
     924:	4108                	lw	a0,0(a0)
     926:	40b2                	lw	ra,12(sp)
     928:	fec50713          	addi	a4,a0,-20
     92c:	3ce1a423          	sw	a4,968(gp) # 20000dd8 <rt_current_thread>
     930:	0521                	addi	a0,a0,8
     932:	0141                	addi	sp,sp,16
     934:	819ff06f          	j	14c <rt_hw_context_switch_to>

00000938 <rt_schedule>:
     938:	1141                	addi	sp,sp,-16
     93a:	c422                	sw	s0,8(sp)
     93c:	c606                	sw	ra,12(sp)
     93e:	803ff0ef          	jal	ra,140 <rt_hw_interrupt_disable>
     942:	200007b7          	lui	a5,0x20000
     946:	22479783          	lh	a5,548(a5) # 20000224 <rt_scheduler_lock_nest>
     94a:	842a                	mv	s0,a0
     94c:	ef9d                	bnez	a5,98a <rt_schedule+0x52>
     94e:	3cc1a503          	lw	a0,972(gp) # 20000ddc <rt_thread_ready_priority_group>
     952:	3d8d                	jal	7c4 <__rt_ffs>
     954:	fff50693          	addi	a3,a0,-1
     958:	34418713          	addi	a4,gp,836 # 20000d54 <rt_thread_priority_table>
     95c:	00369793          	slli	a5,a3,0x3
     960:	97ba                	add	a5,a5,a4
     962:	438c                	lw	a1,0(a5)
     964:	3c81a503          	lw	a0,968(gp) # 20000dd8 <rt_current_thread>
     968:	fec58713          	addi	a4,a1,-20
     96c:	00e50f63          	beq	a0,a4,98a <rt_schedule+0x52>
     970:	3ce1a423          	sw	a4,968(gp) # 20000dd8 <rt_current_thread>
     974:	3401c783          	lbu	a5,832(gp) # 20000d50 <rt_interrupt_nest>
     978:	3cd18223          	sb	a3,964(gp) # 20000dd4 <rt_current_priority>
     97c:	0ff7f793          	andi	a5,a5,255
     980:	0571                	addi	a0,a0,28
     982:	05a1                	addi	a1,a1,8
     984:	eb89                	bnez	a5,996 <rt_schedule+0x5e>
     986:	fdeff0ef          	jal	ra,164 <rt_hw_context_switch>
     98a:	8522                	mv	a0,s0
     98c:	4422                	lw	s0,8(sp)
     98e:	40b2                	lw	ra,12(sp)
     990:	0141                	addi	sp,sp,16
     992:	fb4ff06f          	j	146 <rt_hw_interrupt_enable>
     996:	23dd                	jal	f7c <rt_hw_context_switch_interrupt>
     998:	e000e7b7          	lui	a5,0xe000e
     99c:	6711                	lui	a4,0x4
     99e:	20e7a023          	sw	a4,512(a5) # e000e200 <_eusrstack+0xc0009200>
     9a2:	b7e5                	j	98a <rt_schedule+0x52>

000009a4 <rt_schedule_insert_thread>:
     9a4:	1141                	addi	sp,sp,-16
     9a6:	c422                	sw	s0,8(sp)
     9a8:	c606                	sw	ra,12(sp)
     9aa:	842a                	mv	s0,a0
     9ac:	f94ff0ef          	jal	ra,140 <rt_hw_interrupt_disable>
     9b0:	03444783          	lbu	a5,52(s0)
     9b4:	03544703          	lbu	a4,53(s0)
     9b8:	01440693          	addi	a3,s0,20
     9bc:	9bc1                	andi	a5,a5,-16
     9be:	0017e793          	ori	a5,a5,1
     9c2:	02f40a23          	sb	a5,52(s0)
     9c6:	070e                	slli	a4,a4,0x3
     9c8:	34418793          	addi	a5,gp,836 # 20000d54 <rt_thread_priority_table>
     9cc:	97ba                	add	a5,a5,a4
     9ce:	43d8                	lw	a4,4(a5)
     9d0:	40b2                	lw	ra,12(sp)
     9d2:	c314                	sw	a3,0(a4)
     9d4:	cc18                	sw	a4,24(s0)
     9d6:	c3d4                	sw	a3,4(a5)
     9d8:	c85c                	sw	a5,20(s0)
     9da:	3cc1a683          	lw	a3,972(gp) # 20000ddc <rt_thread_ready_priority_group>
     9de:	5c1c                	lw	a5,56(s0)
     9e0:	4422                	lw	s0,8(sp)
     9e2:	8fd5                	or	a5,a5,a3
     9e4:	3cf1a623          	sw	a5,972(gp) # 20000ddc <rt_thread_ready_priority_group>
     9e8:	0141                	addi	sp,sp,16
     9ea:	f5cff06f          	j	146 <rt_hw_interrupt_enable>

000009ee <rt_schedule_remove_thread>:
     9ee:	1141                	addi	sp,sp,-16
     9f0:	c422                	sw	s0,8(sp)
     9f2:	c606                	sw	ra,12(sp)
     9f4:	842a                	mv	s0,a0
     9f6:	f4aff0ef          	jal	ra,140 <rt_hw_interrupt_disable>
     9fa:	4c18                	lw	a4,24(s0)
     9fc:	4854                	lw	a3,20(s0)
     9fe:	01440793          	addi	a5,s0,20
     a02:	c2d8                	sw	a4,4(a3)
     a04:	c314                	sw	a3,0(a4)
     a06:	c85c                	sw	a5,20(s0)
     a08:	cc1c                	sw	a5,24(s0)
     a0a:	03544783          	lbu	a5,53(s0)
     a0e:	34418713          	addi	a4,gp,836 # 20000d54 <rt_thread_priority_table>
     a12:	078e                	slli	a5,a5,0x3
     a14:	97ba                	add	a5,a5,a4
     a16:	4398                	lw	a4,0(a5)
     a18:	00f71a63          	bne	a4,a5,a2c <rt_schedule_remove_thread+0x3e>
     a1c:	5c1c                	lw	a5,56(s0)
     a1e:	3cc1a683          	lw	a3,972(gp) # 20000ddc <rt_thread_ready_priority_group>
     a22:	fff7c793          	not	a5,a5
     a26:	8ff5                	and	a5,a5,a3
     a28:	3cf1a623          	sw	a5,972(gp) # 20000ddc <rt_thread_ready_priority_group>
     a2c:	4422                	lw	s0,8(sp)
     a2e:	40b2                	lw	ra,12(sp)
     a30:	0141                	addi	sp,sp,16
     a32:	f14ff06f          	j	146 <rt_hw_interrupt_enable>

00000a36 <rt_enter_critical>:
     a36:	1141                	addi	sp,sp,-16
     a38:	c606                	sw	ra,12(sp)
     a3a:	f06ff0ef          	jal	ra,140 <rt_hw_interrupt_disable>
     a3e:	200007b7          	lui	a5,0x20000
     a42:	22478793          	addi	a5,a5,548 # 20000224 <rt_scheduler_lock_nest>
     a46:	0007d703          	lhu	a4,0(a5)
     a4a:	40b2                	lw	ra,12(sp)
     a4c:	0705                	addi	a4,a4,1
     a4e:	00e79023          	sh	a4,0(a5)
     a52:	0141                	addi	sp,sp,16
     a54:	ef2ff06f          	j	146 <rt_hw_interrupt_enable>

00000a58 <rt_exit_critical>:
     a58:	1141                	addi	sp,sp,-16
     a5a:	c606                	sw	ra,12(sp)
     a5c:	ee4ff0ef          	jal	ra,140 <rt_hw_interrupt_disable>
     a60:	20000737          	lui	a4,0x20000
     a64:	22470713          	addi	a4,a4,548 # 20000224 <rt_scheduler_lock_nest>
     a68:	00075783          	lhu	a5,0(a4)
     a6c:	17fd                	addi	a5,a5,-1
     a6e:	07c2                	slli	a5,a5,0x10
     a70:	87c1                	srai	a5,a5,0x10
     a72:	00f71023          	sh	a5,0(a4)
     a76:	00f04c63          	bgtz	a5,a8e <rt_exit_critical+0x36>
     a7a:	00071023          	sh	zero,0(a4)
     a7e:	ec8ff0ef          	jal	ra,146 <rt_hw_interrupt_enable>
     a82:	3c81a783          	lw	a5,968(gp) # 20000dd8 <rt_current_thread>
     a86:	cb81                	beqz	a5,a96 <rt_exit_critical+0x3e>
     a88:	40b2                	lw	ra,12(sp)
     a8a:	0141                	addi	sp,sp,16
     a8c:	b575                	j	938 <rt_schedule>
     a8e:	40b2                	lw	ra,12(sp)
     a90:	0141                	addi	sp,sp,16
     a92:	eb4ff06f          	j	146 <rt_hw_interrupt_enable>
     a96:	40b2                	lw	ra,12(sp)
     a98:	0141                	addi	sp,sp,16
     a9a:	8082                	ret

00000a9c <rt_thread_exit>:
     a9c:	1141                	addi	sp,sp,-16
     a9e:	c422                	sw	s0,8(sp)
     aa0:	3c81a403          	lw	s0,968(gp) # 20000dd8 <rt_current_thread>
     aa4:	c606                	sw	ra,12(sp)
     aa6:	c226                	sw	s1,4(sp)
     aa8:	e98ff0ef          	jal	ra,140 <rt_hw_interrupt_disable>
     aac:	84aa                	mv	s1,a0
     aae:	8522                	mv	a0,s0
     ab0:	3f3d                	jal	9ee <rt_schedule_remove_thread>
     ab2:	4791                	li	a5,4
     ab4:	02f40a23          	sb	a5,52(s0)
     ab8:	04440513          	addi	a0,s0,68
     abc:	2c6d                	jal	d76 <rt_timer_detach>
     abe:	8522                	mv	a0,s0
     ac0:	3d11                	jal	8d4 <rt_object_is_systemobject>
     ac2:	4785                	li	a5,1
     ac4:	00f51e63          	bne	a0,a5,ae0 <rt_thread_exit+0x44>
     ac8:	583c                	lw	a5,112(s0)
     aca:	eb99                	bnez	a5,ae0 <rt_thread_exit+0x44>
     acc:	8522                	mv	a0,s0
     ace:	3bf1                	jal	8aa <rt_object_detach>
     ad0:	8526                	mv	a0,s1
     ad2:	e74ff0ef          	jal	ra,146 <rt_hw_interrupt_enable>
     ad6:	4422                	lw	s0,8(sp)
     ad8:	40b2                	lw	ra,12(sp)
     ada:	4492                	lw	s1,4(sp)
     adc:	0141                	addi	sp,sp,16
     ade:	bda9                	j	938 <rt_schedule>
     ae0:	3d01a683          	lw	a3,976(gp) # 20000de0 <rt_thread_defunct>
     ae4:	01440713          	addi	a4,s0,20
     ae8:	3ce1a823          	sw	a4,976(gp) # 20000de0 <rt_thread_defunct>
     aec:	c2d8                	sw	a4,4(a3)
     aee:	3d018793          	addi	a5,gp,976 # 20000de0 <rt_thread_defunct>
     af2:	c854                	sw	a3,20(s0)
     af4:	cc1c                	sw	a5,24(s0)
     af6:	bfe9                	j	ad0 <rt_thread_exit+0x34>

00000af8 <rt_thread_timeout>:
     af8:	4950                	lw	a2,20(a0)
     afa:	4d14                	lw	a3,24(a0)
     afc:	1141                	addi	sp,sp,-16
     afe:	5779                	li	a4,-2
     b00:	c606                	sw	ra,12(sp)
     b02:	d918                	sw	a4,48(a0)
     b04:	c254                	sw	a3,4(a2)
     b06:	01450713          	addi	a4,a0,20
     b0a:	c290                	sw	a2,0(a3)
     b0c:	cd18                	sw	a4,24(a0)
     b0e:	c958                	sw	a4,20(a0)
     b10:	3d51                	jal	9a4 <rt_schedule_insert_thread>
     b12:	40b2                	lw	ra,12(sp)
     b14:	0141                	addi	sp,sp,16
     b16:	b50d                	j	938 <rt_schedule>

00000b18 <rt_thread_init>:
     b18:	7179                	addi	sp,sp,-48
     b1a:	d226                	sw	s1,36(sp)
     b1c:	84b2                	mv	s1,a2
     b1e:	862e                	mv	a2,a1
     b20:	4585                	li	a1,1
     b22:	d606                	sw	ra,44(sp)
     b24:	d422                	sw	s0,40(sp)
     b26:	c842                	sw	a6,16(sp)
     b28:	842a                	mv	s0,a0
     b2a:	c646                	sw	a7,12(sp)
     b2c:	ce36                	sw	a3,28(sp)
     b2e:	cc3a                	sw	a4,24(sp)
     b30:	ca3e                	sw	a5,20(sp)
     b32:	31e5                	jal	81a <rt_object_init>
     b34:	4762                	lw	a4,24(sp)
     b36:	47d2                	lw	a5,20(sp)
     b38:	46f2                	lw	a3,28(sp)
     b3a:	01440613          	addi	a2,s0,20
     b3e:	d418                	sw	a4,40(s0)
     b40:	cc10                	sw	a2,24(s0)
     b42:	c850                	sw	a2,20(s0)
     b44:	d004                	sw	s1,32(s0)
     b46:	d054                	sw	a3,36(s0)
     b48:	d45c                	sw	a5,44(s0)
     b4a:	863e                	mv	a2,a5
     b4c:	853a                	mv	a0,a4
     b4e:	02300593          	li	a1,35
     b52:	3e75                	jal	70e <rt_memset>
     b54:	545c                	lw	a5,44(s0)
     b56:	5410                	lw	a2,40(s0)
     b58:	504c                	lw	a1,36(s0)
     b5a:	5008                	lw	a0,32(s0)
     b5c:	17f1                	addi	a5,a5,-4
     b5e:	000016b7          	lui	a3,0x1
     b62:	963e                	add	a2,a2,a5
     b64:	a9c68693          	addi	a3,a3,-1380 # a9c <rt_thread_exit>
     b68:	2ef9                	jal	f46 <rt_hw_stack_init>
     b6a:	4842                	lw	a6,16(sp)
     b6c:	48b2                	lw	a7,12(sp)
     b6e:	00001637          	lui	a2,0x1
     b72:	cc48                	sw	a0,28(s0)
     b74:	03040b23          	sb	a6,54(s0)
     b78:	04440513          	addi	a0,s0,68
     b7c:	03040aa3          	sb	a6,53(s0)
     b80:	02042c23          	sw	zero,56(s0)
     b84:	03142e23          	sw	a7,60(s0)
     b88:	05142023          	sw	a7,64(s0)
     b8c:	02042823          	sw	zero,48(s0)
     b90:	02040a23          	sb	zero,52(s0)
     b94:	06042823          	sw	zero,112(s0)
     b98:	06042a23          	sw	zero,116(s0)
     b9c:	86a2                	mv	a3,s0
     b9e:	85a2                	mv	a1,s0
     ba0:	4781                	li	a5,0
     ba2:	4701                	li	a4,0
     ba4:	af860613          	addi	a2,a2,-1288 # af8 <rt_thread_timeout>
     ba8:	2279                	jal	d36 <rt_timer_init>
     baa:	50b2                	lw	ra,44(sp)
     bac:	5422                	lw	s0,40(sp)
     bae:	5492                	lw	s1,36(sp)
     bb0:	4501                	li	a0,0
     bb2:	6145                	addi	sp,sp,48
     bb4:	8082                	ret

00000bb6 <rt_thread_self>:
     bb6:	3c81a503          	lw	a0,968(gp) # 20000dd8 <rt_current_thread>
     bba:	8082                	ret

00000bbc <rt_thread_yield>:
     bbc:	1141                	addi	sp,sp,-16
     bbe:	c606                	sw	ra,12(sp)
     bc0:	d80ff0ef          	jal	ra,140 <rt_hw_interrupt_disable>
     bc4:	3c81a783          	lw	a5,968(gp) # 20000dd8 <rt_current_thread>
     bc8:	4605                	li	a2,1
     bca:	86aa                	mv	a3,a0
     bcc:	0347c703          	lbu	a4,52(a5)
     bd0:	8b3d                	andi	a4,a4,15
     bd2:	02c71d63          	bne	a4,a2,c0c <rt_thread_yield+0x50>
     bd6:	4bd0                	lw	a2,20(a5)
     bd8:	4f98                	lw	a4,24(a5)
     bda:	02e60963          	beq	a2,a4,c0c <rt_thread_yield+0x50>
     bde:	c258                	sw	a4,4(a2)
     be0:	c310                	sw	a2,0(a4)
     be2:	0357c603          	lbu	a2,53(a5)
     be6:	01478693          	addi	a3,a5,20
     bea:	060e                	slli	a2,a2,0x3
     bec:	34418713          	addi	a4,gp,836 # 20000d54 <rt_thread_priority_table>
     bf0:	cf94                	sw	a3,24(a5)
     bf2:	9732                	add	a4,a4,a2
     bf4:	4350                	lw	a2,4(a4)
     bf6:	c214                	sw	a3,0(a2)
     bf8:	cf90                	sw	a2,24(a5)
     bfa:	c354                	sw	a3,4(a4)
     bfc:	cbd8                	sw	a4,20(a5)
     bfe:	d48ff0ef          	jal	ra,146 <rt_hw_interrupt_enable>
     c02:	3b1d                	jal	938 <rt_schedule>
     c04:	40b2                	lw	ra,12(sp)
     c06:	4501                	li	a0,0
     c08:	0141                	addi	sp,sp,16
     c0a:	8082                	ret
     c0c:	8536                	mv	a0,a3
     c0e:	d38ff0ef          	jal	ra,146 <rt_hw_interrupt_enable>
     c12:	bfcd                	j	c04 <rt_thread_yield+0x48>

00000c14 <rt_thread_suspend>:
     c14:	03454783          	lbu	a5,52(a0)
     c18:	4705                	li	a4,1
     c1a:	8bbd                	andi	a5,a5,15
     c1c:	02e79f63          	bne	a5,a4,c5a <rt_thread_suspend+0x46>
     c20:	1141                	addi	sp,sp,-16
     c22:	c606                	sw	ra,12(sp)
     c24:	c422                	sw	s0,8(sp)
     c26:	c226                	sw	s1,4(sp)
     c28:	842a                	mv	s0,a0
     c2a:	d16ff0ef          	jal	ra,140 <rt_hw_interrupt_disable>
     c2e:	03444783          	lbu	a5,52(s0)
     c32:	84aa                	mv	s1,a0
     c34:	8522                	mv	a0,s0
     c36:	9bc1                	andi	a5,a5,-16
     c38:	0027e793          	ori	a5,a5,2
     c3c:	02f40a23          	sb	a5,52(s0)
     c40:	337d                	jal	9ee <rt_schedule_remove_thread>
     c42:	04440513          	addi	a0,s0,68
     c46:	2acd                	jal	e38 <rt_timer_stop>
     c48:	8526                	mv	a0,s1
     c4a:	cfcff0ef          	jal	ra,146 <rt_hw_interrupt_enable>
     c4e:	40b2                	lw	ra,12(sp)
     c50:	4422                	lw	s0,8(sp)
     c52:	4492                	lw	s1,4(sp)
     c54:	4501                	li	a0,0
     c56:	0141                	addi	sp,sp,16
     c58:	8082                	ret
     c5a:	557d                	li	a0,-1
     c5c:	8082                	ret

00000c5e <rt_thread_sleep>:
     c5e:	1101                	addi	sp,sp,-32
     c60:	ce06                	sw	ra,28(sp)
     c62:	cc22                	sw	s0,24(sp)
     c64:	ca26                	sw	s1,20(sp)
     c66:	c84a                	sw	s2,16(sp)
     c68:	c62a                	sw	a0,12(sp)
     c6a:	cd6ff0ef          	jal	ra,140 <rt_hw_interrupt_disable>
     c6e:	3c81a403          	lw	s0,968(gp) # 20000dd8 <rt_current_thread>
     c72:	892a                	mv	s2,a0
     c74:	8522                	mv	a0,s0
     c76:	3f79                	jal	c14 <rt_thread_suspend>
     c78:	04440493          	addi	s1,s0,68
     c7c:	0070                	addi	a2,sp,12
     c7e:	4581                	li	a1,0
     c80:	8526                	mv	a0,s1
     c82:	2acd                	jal	e74 <rt_timer_control>
     c84:	8526                	mv	a0,s1
     c86:	2a29                	jal	da0 <rt_timer_start>
     c88:	854a                	mv	a0,s2
     c8a:	cbcff0ef          	jal	ra,146 <rt_hw_interrupt_enable>
     c8e:	316d                	jal	938 <rt_schedule>
     c90:	5818                	lw	a4,48(s0)
     c92:	57f9                	li	a5,-2
     c94:	00f71463          	bne	a4,a5,c9c <rt_thread_sleep+0x3e>
     c98:	02042823          	sw	zero,48(s0)
     c9c:	40f2                	lw	ra,28(sp)
     c9e:	4462                	lw	s0,24(sp)
     ca0:	44d2                	lw	s1,20(sp)
     ca2:	4942                	lw	s2,16(sp)
     ca4:	4501                	li	a0,0
     ca6:	6105                	addi	sp,sp,32
     ca8:	8082                	ret

00000caa <rt_thread_delay>:
     caa:	bf55                	j	c5e <rt_thread_sleep>

00000cac <rt_thread_resume>:
     cac:	03454783          	lbu	a5,52(a0)
     cb0:	4709                	li	a4,2
     cb2:	8bbd                	andi	a5,a5,15
     cb4:	04e79063          	bne	a5,a4,cf4 <rt_thread_resume+0x48>
     cb8:	1141                	addi	sp,sp,-16
     cba:	c606                	sw	ra,12(sp)
     cbc:	c422                	sw	s0,8(sp)
     cbe:	c226                	sw	s1,4(sp)
     cc0:	842a                	mv	s0,a0
     cc2:	c7eff0ef          	jal	ra,140 <rt_hw_interrupt_disable>
     cc6:	4854                	lw	a3,20(s0)
     cc8:	4c18                	lw	a4,24(s0)
     cca:	01440793          	addi	a5,s0,20
     cce:	84aa                	mv	s1,a0
     cd0:	c2d8                	sw	a4,4(a3)
     cd2:	c314                	sw	a3,0(a4)
     cd4:	cc1c                	sw	a5,24(s0)
     cd6:	c85c                	sw	a5,20(s0)
     cd8:	04440513          	addi	a0,s0,68
     cdc:	2ab1                	jal	e38 <rt_timer_stop>
     cde:	8526                	mv	a0,s1
     ce0:	c66ff0ef          	jal	ra,146 <rt_hw_interrupt_enable>
     ce4:	8522                	mv	a0,s0
     ce6:	397d                	jal	9a4 <rt_schedule_insert_thread>
     ce8:	40b2                	lw	ra,12(sp)
     cea:	4422                	lw	s0,8(sp)
     cec:	4492                	lw	s1,4(sp)
     cee:	4501                	li	a0,0
     cf0:	0141                	addi	sp,sp,16
     cf2:	8082                	ret
     cf4:	557d                	li	a0,-1
     cf6:	8082                	ret

00000cf8 <rt_thread_startup>:
     cf8:	1141                	addi	sp,sp,-16
     cfa:	c606                	sw	ra,12(sp)
     cfc:	03654683          	lbu	a3,54(a0)
     d00:	4705                	li	a4,1
     d02:	00d71733          	sll	a4,a4,a3
     d06:	dd18                	sw	a4,56(a0)
     d08:	4709                	li	a4,2
     d0a:	02d50aa3          	sb	a3,53(a0)
     d0e:	02e50a23          	sb	a4,52(a0)
     d12:	3f69                	jal	cac <rt_thread_resume>
     d14:	3c81a783          	lw	a5,968(gp) # 20000dd8 <rt_current_thread>
     d18:	c391                	beqz	a5,d1c <rt_thread_startup+0x24>
     d1a:	3939                	jal	938 <rt_schedule>
     d1c:	40b2                	lw	ra,12(sp)
     d1e:	4501                	li	a0,0
     d20:	0141                	addi	sp,sp,16
     d22:	8082                	ret

00000d24 <_rt_timer_remove.part.0>:
     d24:	4954                	lw	a3,20(a0)
     d26:	4d18                	lw	a4,24(a0)
     d28:	01450793          	addi	a5,a0,20
     d2c:	c2d8                	sw	a4,4(a3)
     d2e:	c314                	sw	a3,0(a4)
     d30:	cd1c                	sw	a5,24(a0)
     d32:	c95c                	sw	a5,20(a0)
     d34:	8082                	ret

00000d36 <rt_timer_init>:
     d36:	1101                	addi	sp,sp,-32
     d38:	ca26                	sw	s1,20(sp)
     d3a:	84b2                	mv	s1,a2
     d3c:	862e                	mv	a2,a1
     d3e:	45a9                	li	a1,10
     d40:	cc22                	sw	s0,24(sp)
     d42:	ce06                	sw	ra,28(sp)
     d44:	842a                	mv	s0,a0
     d46:	c636                	sw	a3,12(sp)
     d48:	c43a                	sw	a4,8(sp)
     d4a:	c23e                	sw	a5,4(sp)
     d4c:	34f9                	jal	81a <rt_object_init>
     d4e:	4792                	lw	a5,4(sp)
     d50:	46b2                	lw	a3,12(sp)
     d52:	4722                	lw	a4,8(sp)
     d54:	9bf9                	andi	a5,a5,-2
     d56:	00f404a3          	sb	a5,9(s0)
     d5a:	01440793          	addi	a5,s0,20
     d5e:	cc44                	sw	s1,28(s0)
     d60:	d014                	sw	a3,32(s0)
     d62:	02042423          	sw	zero,40(s0)
     d66:	d058                	sw	a4,36(s0)
     d68:	cc1c                	sw	a5,24(s0)
     d6a:	c85c                	sw	a5,20(s0)
     d6c:	40f2                	lw	ra,28(sp)
     d6e:	4462                	lw	s0,24(sp)
     d70:	44d2                	lw	s1,20(sp)
     d72:	6105                	addi	sp,sp,32
     d74:	8082                	ret

00000d76 <rt_timer_detach>:
     d76:	1141                	addi	sp,sp,-16
     d78:	c606                	sw	ra,12(sp)
     d7a:	c422                	sw	s0,8(sp)
     d7c:	c226                	sw	s1,4(sp)
     d7e:	842a                	mv	s0,a0
     d80:	bc0ff0ef          	jal	ra,140 <rt_hw_interrupt_disable>
     d84:	84aa                	mv	s1,a0
     d86:	8522                	mv	a0,s0
     d88:	3f71                	jal	d24 <_rt_timer_remove.part.0>
     d8a:	8526                	mv	a0,s1
     d8c:	bbaff0ef          	jal	ra,146 <rt_hw_interrupt_enable>
     d90:	8522                	mv	a0,s0
     d92:	3e21                	jal	8aa <rt_object_detach>
     d94:	40b2                	lw	ra,12(sp)
     d96:	4422                	lw	s0,8(sp)
     d98:	4492                	lw	s1,4(sp)
     d9a:	4501                	li	a0,0
     d9c:	0141                	addi	sp,sp,16
     d9e:	8082                	ret

00000da0 <rt_timer_start>:
     da0:	1141                	addi	sp,sp,-16
     da2:	c606                	sw	ra,12(sp)
     da4:	c422                	sw	s0,8(sp)
     da6:	c226                	sw	s1,4(sp)
     da8:	842a                	mv	s0,a0
     daa:	b96ff0ef          	jal	ra,140 <rt_hw_interrupt_disable>
     dae:	84aa                	mv	s1,a0
     db0:	8522                	mv	a0,s0
     db2:	3f8d                	jal	d24 <_rt_timer_remove.part.0>
     db4:	00944783          	lbu	a5,9(s0)
     db8:	8526                	mv	a0,s1
     dba:	9bf9                	andi	a5,a5,-2
     dbc:	00f404a3          	sb	a5,9(s0)
     dc0:	b86ff0ef          	jal	ra,146 <rt_hw_interrupt_enable>
     dc4:	f38ff0ef          	jal	ra,4fc <rt_tick_get>
     dc8:	505c                	lw	a5,36(s0)
     dca:	953e                	add	a0,a0,a5
     dcc:	d408                	sw	a0,40(s0)
     dce:	b72ff0ef          	jal	ra,140 <rt_hw_interrupt_disable>
     dd2:	200007b7          	lui	a5,0x20000
     dd6:	22c78713          	addi	a4,a5,556 # 2000022c <rt_timer_list>
     dda:	00472803          	lw	a6,4(a4)
     dde:	80000637          	lui	a2,0x80000
     de2:	22c78793          	addi	a5,a5,556
     de6:	ffe64613          	xori	a2,a2,-2
     dea:	4398                	lw	a4,0(a5)
     dec:	02f81d63          	bne	a6,a5,e26 <rt_timer_start+0x86>
     df0:	200006b7          	lui	a3,0x20000
     df4:	22868693          	addi	a3,a3,552 # 20000228 <random_nr.2005>
     df8:	4290                	lw	a2,0(a3)
     dfa:	0605                	addi	a2,a2,1
     dfc:	c290                	sw	a2,0(a3)
     dfe:	01440693          	addi	a3,s0,20
     e02:	c354                	sw	a3,4(a4)
     e04:	c858                	sw	a4,20(s0)
     e06:	c394                	sw	a3,0(a5)
     e08:	cc1c                	sw	a5,24(s0)
     e0a:	00944783          	lbu	a5,9(s0)
     e0e:	0017e793          	ori	a5,a5,1
     e12:	00f404a3          	sb	a5,9(s0)
     e16:	b30ff0ef          	jal	ra,146 <rt_hw_interrupt_enable>
     e1a:	40b2                	lw	ra,12(sp)
     e1c:	4422                	lw	s0,8(sp)
     e1e:	4492                	lw	s1,4(sp)
     e20:	4501                	li	a0,0
     e22:	0141                	addi	sp,sp,16
     e24:	8082                	ret
     e26:	4b54                	lw	a3,20(a4)
     e28:	540c                	lw	a1,40(s0)
     e2a:	00b68563          	beq	a3,a1,e34 <rt_timer_start+0x94>
     e2e:	8e8d                	sub	a3,a3,a1
     e30:	fcd670e3          	bgeu	a2,a3,df0 <rt_timer_start+0x50>
     e34:	87ba                	mv	a5,a4
     e36:	bf55                	j	dea <rt_timer_start+0x4a>

00000e38 <rt_timer_stop>:
     e38:	00954783          	lbu	a5,9(a0)
     e3c:	8b85                	andi	a5,a5,1
     e3e:	cb8d                	beqz	a5,e70 <rt_timer_stop+0x38>
     e40:	1141                	addi	sp,sp,-16
     e42:	c606                	sw	ra,12(sp)
     e44:	c422                	sw	s0,8(sp)
     e46:	c226                	sw	s1,4(sp)
     e48:	842a                	mv	s0,a0
     e4a:	af6ff0ef          	jal	ra,140 <rt_hw_interrupt_disable>
     e4e:	84aa                	mv	s1,a0
     e50:	8522                	mv	a0,s0
     e52:	3dc9                	jal	d24 <_rt_timer_remove.part.0>
     e54:	8526                	mv	a0,s1
     e56:	af0ff0ef          	jal	ra,146 <rt_hw_interrupt_enable>
     e5a:	00944783          	lbu	a5,9(s0)
     e5e:	4501                	li	a0,0
     e60:	9bf9                	andi	a5,a5,-2
     e62:	00f404a3          	sb	a5,9(s0)
     e66:	40b2                	lw	ra,12(sp)
     e68:	4422                	lw	s0,8(sp)
     e6a:	4492                	lw	s1,4(sp)
     e6c:	0141                	addi	sp,sp,16
     e6e:	8082                	ret
     e70:	557d                	li	a0,-1
     e72:	8082                	ret

00000e74 <rt_timer_control>:
     e74:	4785                	li	a5,1
     e76:	02f58263          	beq	a1,a5,e9a <rt_timer_control+0x26>
     e7a:	00b7c563          	blt	a5,a1,e84 <rt_timer_control+0x10>
     e7e:	c18d                	beqz	a1,ea0 <rt_timer_control+0x2c>
     e80:	4501                	li	a0,0
     e82:	8082                	ret
     e84:	4789                	li	a5,2
     e86:	02f58063          	beq	a1,a5,ea6 <rt_timer_control+0x32>
     e8a:	478d                	li	a5,3
     e8c:	fef59ae3          	bne	a1,a5,e80 <rt_timer_control+0xc>
     e90:	00954783          	lbu	a5,9(a0)
     e94:	0027e793          	ori	a5,a5,2
     e98:	a811                	j	eac <rt_timer_control+0x38>
     e9a:	515c                	lw	a5,36(a0)
     e9c:	c21c                	sw	a5,0(a2)
     e9e:	b7cd                	j	e80 <rt_timer_control+0xc>
     ea0:	421c                	lw	a5,0(a2)
     ea2:	d15c                	sw	a5,36(a0)
     ea4:	bff1                	j	e80 <rt_timer_control+0xc>
     ea6:	00954783          	lbu	a5,9(a0)
     eaa:	9bf5                	andi	a5,a5,-3
     eac:	00f504a3          	sb	a5,9(a0)
     eb0:	bfc1                	j	e80 <rt_timer_control+0xc>

00000eb2 <rt_timer_check>:
     eb2:	1101                	addi	sp,sp,-32
     eb4:	ce06                	sw	ra,28(sp)
     eb6:	ca26                	sw	s1,20(sp)
     eb8:	c84a                	sw	s2,16(sp)
     eba:	c64e                	sw	s3,12(sp)
     ebc:	c256                	sw	s5,4(sp)
     ebe:	c05a                	sw	s6,0(sp)
     ec0:	cc22                	sw	s0,24(sp)
     ec2:	c452                	sw	s4,8(sp)
     ec4:	e38ff0ef          	jal	ra,4fc <rt_tick_get>
     ec8:	89aa                	mv	s3,a0
     eca:	200004b7          	lui	s1,0x20000
     ece:	a72ff0ef          	jal	ra,140 <rt_hw_interrupt_disable>
     ed2:	80000937          	lui	s2,0x80000
     ed6:	8aaa                	mv	s5,a0
     ed8:	22c48493          	addi	s1,s1,556 # 2000022c <rt_timer_list>
     edc:	ffe94913          	xori	s2,s2,-2
     ee0:	4b0d                	li	s6,3
     ee2:	4080                	lw	s0,0(s1)
     ee4:	00941e63          	bne	s0,s1,f00 <rt_timer_check+0x4e>
     ee8:	4462                	lw	s0,24(sp)
     eea:	40f2                	lw	ra,28(sp)
     eec:	44d2                	lw	s1,20(sp)
     eee:	4942                	lw	s2,16(sp)
     ef0:	49b2                	lw	s3,12(sp)
     ef2:	4a22                	lw	s4,8(sp)
     ef4:	4b02                	lw	s6,0(sp)
     ef6:	8556                	mv	a0,s5
     ef8:	4a92                	lw	s5,4(sp)
     efa:	6105                	addi	sp,sp,32
     efc:	a4aff06f          	j	146 <rt_hw_interrupt_enable>
     f00:	4848                	lw	a0,20(s0)
     f02:	fec40a13          	addi	s4,s0,-20
     f06:	40a98533          	sub	a0,s3,a0
     f0a:	fca96fe3          	bltu	s2,a0,ee8 <rt_timer_check+0x36>
     f0e:	8552                	mv	a0,s4
     f10:	3d11                	jal	d24 <_rt_timer_remove.part.0>
     f12:	441c                	lw	a5,8(s0)
     f14:	4448                	lw	a0,12(s0)
     f16:	9782                	jalr	a5
     f18:	de4ff0ef          	jal	ra,4fc <rt_tick_get>
     f1c:	ff544783          	lbu	a5,-11(s0)
     f20:	89aa                	mv	s3,a0
     f22:	0037f713          	andi	a4,a5,3
     f26:	9bf9                	andi	a5,a5,-2
     f28:	fef40aa3          	sb	a5,-11(s0)
     f2c:	fb671be3          	bne	a4,s6,ee2 <rt_timer_check+0x30>
     f30:	8552                	mv	a0,s4
     f32:	35bd                	jal	da0 <rt_timer_start>
     f34:	b77d                	j	ee2 <rt_timer_check+0x30>

00000f36 <rt_system_timer_init>:
     f36:	200007b7          	lui	a5,0x20000
     f3a:	22c78793          	addi	a5,a5,556 # 2000022c <rt_timer_list>
     f3e:	c3dc                	sw	a5,4(a5)
     f40:	c39c                	sw	a5,0(a5)
     f42:	8082                	ret

00000f44 <rt_system_timer_thread_init>:
     f44:	8082                	ret

00000f46 <rt_hw_stack_init>:
     f46:	0611                	addi	a2,a2,4
     f48:	9a71                	andi	a2,a2,-4
     f4a:	882a                	mv	a6,a0
     f4c:	deadc737          	lui	a4,0xdeadc
     f50:	f8060513          	addi	a0,a2,-128 # 7fffff80 <_eusrstack+0x5fffaf80>
     f54:	87aa                	mv	a5,a0
     f56:	eef70713          	addi	a4,a4,-273 # deadbeef <_eusrstack+0xbead6eef>
     f5a:	00f61e63          	bne	a2,a5,f76 <rt_hw_stack_init+0x30>
     f5e:	6789                	lui	a5,0x2
     f60:	88878793          	addi	a5,a5,-1912 # 1888 <PikaStdDevice_GPIO_setPull+0x4c>
     f64:	f8d62223          	sw	a3,-124(a2)
     f68:	fab62423          	sw	a1,-88(a2)
     f6c:	f9062023          	sw	a6,-128(a2)
     f70:	f8f62423          	sw	a5,-120(a2)
     f74:	8082                	ret
     f76:	c398                	sw	a4,0(a5)
     f78:	0791                	addi	a5,a5,4
     f7a:	b7c5                	j	f5a <rt_hw_stack_init+0x14>

00000f7c <rt_hw_context_switch_interrupt>:
     f7c:	200007b7          	lui	a5,0x20000
     f80:	23c78713          	addi	a4,a5,572 # 2000023c <rt_thread_switch_interrupt_flag>
     f84:	4318                	lw	a4,0(a4)
     f86:	23c78793          	addi	a5,a5,572
     f8a:	e709                	bnez	a4,f94 <rt_hw_context_switch_interrupt+0x18>
     f8c:	20000737          	lui	a4,0x20000
     f90:	22a72a23          	sw	a0,564(a4) # 20000234 <rt_interrupt_from_thread>
     f94:	20000737          	lui	a4,0x20000
     f98:	22b72c23          	sw	a1,568(a4) # 20000238 <rt_interrupt_to_thread>
     f9c:	4705                	li	a4,1
     f9e:	c398                	sw	a4,0(a5)
     fa0:	8082                	ret

00000fa2 <rt_hw_board_init>:
     fa2:	1141                	addi	sp,sp,-16
     fa4:	c606                	sw	ra,12(sp)
     fa6:	21b9                	jal	13f4 <SystemCoreClockUpdate>
     fa8:	200007b7          	lui	a5,0x20000
     fac:	2107a783          	lw	a5,528(a5) # 20000210 <SystemCoreClock>
     fb0:	6709                	lui	a4,0x2
     fb2:	f4070713          	addi	a4,a4,-192 # 1f40 <obj_setInt+0x1c>
     fb6:	02e7d7b3          	divu	a5,a5,a4
     fba:	01000737          	lui	a4,0x1000
     fbe:	fff78693          	addi	a3,a5,-1
     fc2:	08e6ff63          	bgeu	a3,a4,1060 <rt_hw_board_init+0xbe>
     fc6:	20000737          	lui	a4,0x20000
     fca:	24070713          	addi	a4,a4,576 # 20000240 <g_ticks>
     fce:	c31c                	sw	a5,0(a4)
     fd0:	fa0507b7          	lui	a5,0xfa050
     fd4:	e000e637          	lui	a2,0xe000e
     fd8:	078d                	addi	a5,a5,3
     fda:	c63c                	sw	a5,72(a2)
     fdc:	57c1                	li	a5,-16
     fde:	40f60623          	sb	a5,1036(a2) # e000e40c <_eusrstack+0xc000940c>
     fe2:	40f60723          	sb	a5,1038(a2)
     fe6:	e000f7b7          	lui	a5,0xe000f
     fea:	0007a023          	sw	zero,0(a5) # e000f000 <_eusrstack+0xc000a000>
     fee:	00078223          	sb	zero,4(a5)
     ff2:	000782a3          	sb	zero,5(a5)
     ff6:	00078323          	sb	zero,6(a5)
     ffa:	000783a3          	sb	zero,7(a5)
     ffe:	00078423          	sb	zero,8(a5)
    1002:	000784a3          	sb	zero,9(a5)
    1006:	00078523          	sb	zero,10(a5)
    100a:	000785a3          	sb	zero,11(a5)
    100e:	4314                	lw	a3,0(a4)
    1010:	16fd                	addi	a3,a3,-1
    1012:	0ff6f693          	andi	a3,a3,255
    1016:	00d78623          	sb	a3,12(a5)
    101a:	4314                	lw	a3,0(a4)
    101c:	16fd                	addi	a3,a3,-1
    101e:	82a1                	srli	a3,a3,0x8
    1020:	0ff6f693          	andi	a3,a3,255
    1024:	00d786a3          	sb	a3,13(a5)
    1028:	4314                	lw	a3,0(a4)
    102a:	16fd                	addi	a3,a3,-1
    102c:	82c1                	srli	a3,a3,0x10
    102e:	0ff6f693          	andi	a3,a3,255
    1032:	00d78723          	sb	a3,14(a5)
    1036:	4318                	lw	a4,0(a4)
    1038:	177d                	addi	a4,a4,-1
    103a:	8361                	srli	a4,a4,0x18
    103c:	00e787a3          	sb	a4,15(a5)
    1040:	00078823          	sb	zero,16(a5)
    1044:	000788a3          	sb	zero,17(a5)
    1048:	00078923          	sb	zero,18(a5)
    104c:	000789a3          	sb	zero,19(a5)
    1050:	4705                	li	a4,1
    1052:	c398                	sw	a4,0(a5)
    1054:	6785                	lui	a5,0x1
    1056:	10f62023          	sw	a5,256(a2)
    105a:	6791                	lui	a5,0x4
    105c:	10f62023          	sw	a5,256(a2)
    1060:	40b2                	lw	ra,12(sp)
    1062:	0141                	addi	sp,sp,16
    1064:	ce0ff06f          	j	544 <rt_components_board_init>

00001068 <SysTick_Handler>:
    1068:	7139                	addi	sp,sp,-64
    106a:	de06                	sw	ra,60(sp)
    106c:	dc16                	sw	t0,56(sp)
    106e:	da1a                	sw	t1,52(sp)
    1070:	d81e                	sw	t2,48(sp)
    1072:	d62a                	sw	a0,44(sp)
    1074:	d42e                	sw	a1,40(sp)
    1076:	d232                	sw	a2,36(sp)
    1078:	d036                	sw	a3,32(sp)
    107a:	ce3a                	sw	a4,28(sp)
    107c:	cc3e                	sw	a5,24(sp)
    107e:	ca42                	sw	a6,20(sp)
    1080:	c846                	sw	a7,16(sp)
    1082:	c672                	sw	t3,12(sp)
    1084:	c476                	sw	t4,8(sp)
    1086:	c27a                	sw	t5,4(sp)
    1088:	c07e                	sw	t6,0(sp)
    108a:	34011173          	csrrw	sp,mscratch,sp
    108e:	e4cff0ef          	jal	ra,6da <rt_interrupt_enter>
    1092:	c74ff0ef          	jal	ra,506 <rt_tick_increase>
    1096:	e000f7b7          	lui	a5,0xe000f
    109a:	0007a023          	sw	zero,0(a5) # e000f000 <_eusrstack+0xc000a000>
    109e:	00078223          	sb	zero,4(a5)
    10a2:	000782a3          	sb	zero,5(a5)
    10a6:	00078323          	sb	zero,6(a5)
    10aa:	000783a3          	sb	zero,7(a5)
    10ae:	00078423          	sb	zero,8(a5)
    10b2:	000784a3          	sb	zero,9(a5)
    10b6:	00078523          	sb	zero,10(a5)
    10ba:	200006b7          	lui	a3,0x20000
    10be:	000785a3          	sb	zero,11(a5)
    10c2:	24068693          	addi	a3,a3,576 # 20000240 <g_ticks>
    10c6:	4298                	lw	a4,0(a3)
    10c8:	177d                	addi	a4,a4,-1
    10ca:	0ff77713          	andi	a4,a4,255
    10ce:	00e78623          	sb	a4,12(a5)
    10d2:	4298                	lw	a4,0(a3)
    10d4:	177d                	addi	a4,a4,-1
    10d6:	8321                	srli	a4,a4,0x8
    10d8:	0ff77713          	andi	a4,a4,255
    10dc:	00e786a3          	sb	a4,13(a5)
    10e0:	4298                	lw	a4,0(a3)
    10e2:	177d                	addi	a4,a4,-1
    10e4:	8341                	srli	a4,a4,0x10
    10e6:	0ff77713          	andi	a4,a4,255
    10ea:	00e78723          	sb	a4,14(a5)
    10ee:	4298                	lw	a4,0(a3)
    10f0:	177d                	addi	a4,a4,-1
    10f2:	8361                	srli	a4,a4,0x18
    10f4:	00e787a3          	sb	a4,15(a5)
    10f8:	00078823          	sb	zero,16(a5)
    10fc:	000788a3          	sb	zero,17(a5)
    1100:	00078923          	sb	zero,18(a5)
    1104:	000789a3          	sb	zero,19(a5)
    1108:	4705                	li	a4,1
    110a:	c398                	sw	a4,0(a5)
    110c:	de8ff0ef          	jal	ra,6f4 <rt_interrupt_leave>
    1110:	34011173          	csrrw	sp,mscratch,sp
    1114:	50f2                	lw	ra,60(sp)
    1116:	52e2                	lw	t0,56(sp)
    1118:	5352                	lw	t1,52(sp)
    111a:	53c2                	lw	t2,48(sp)
    111c:	5532                	lw	a0,44(sp)
    111e:	55a2                	lw	a1,40(sp)
    1120:	5612                	lw	a2,36(sp)
    1122:	5682                	lw	a3,32(sp)
    1124:	4772                	lw	a4,28(sp)
    1126:	47e2                	lw	a5,24(sp)
    1128:	4852                	lw	a6,20(sp)
    112a:	48c2                	lw	a7,16(sp)
    112c:	4e32                	lw	t3,12(sp)
    112e:	4ea2                	lw	t4,8(sp)
    1130:	4f12                	lw	t5,4(sp)
    1132:	4f82                	lw	t6,0(sp)
    1134:	6121                	addi	sp,sp,64
    1136:	30200073          	mret

0000113a <NMI_Handler>:
    113a:	7139                	addi	sp,sp,-64
    113c:	de06                	sw	ra,60(sp)
    113e:	dc16                	sw	t0,56(sp)
    1140:	da1a                	sw	t1,52(sp)
    1142:	d81e                	sw	t2,48(sp)
    1144:	d62a                	sw	a0,44(sp)
    1146:	d42e                	sw	a1,40(sp)
    1148:	d232                	sw	a2,36(sp)
    114a:	d036                	sw	a3,32(sp)
    114c:	ce3a                	sw	a4,28(sp)
    114e:	cc3e                	sw	a5,24(sp)
    1150:	ca42                	sw	a6,20(sp)
    1152:	c846                	sw	a7,16(sp)
    1154:	c672                	sw	t3,12(sp)
    1156:	c476                	sw	t4,8(sp)
    1158:	c27a                	sw	t5,4(sp)
    115a:	c07e                	sw	t6,0(sp)
    115c:	34011173          	csrrw	sp,mscratch,sp
    1160:	d7aff0ef          	jal	ra,6da <rt_interrupt_enter>
    1164:	d90ff0ef          	jal	ra,6f4 <rt_interrupt_leave>
    1168:	34011173          	csrrw	sp,mscratch,sp
    116c:	50f2                	lw	ra,60(sp)
    116e:	52e2                	lw	t0,56(sp)
    1170:	5352                	lw	t1,52(sp)
    1172:	53c2                	lw	t2,48(sp)
    1174:	5532                	lw	a0,44(sp)
    1176:	55a2                	lw	a1,40(sp)
    1178:	5612                	lw	a2,36(sp)
    117a:	5682                	lw	a3,32(sp)
    117c:	4772                	lw	a4,28(sp)
    117e:	47e2                	lw	a5,24(sp)
    1180:	4852                	lw	a6,20(sp)
    1182:	48c2                	lw	a7,16(sp)
    1184:	4e32                	lw	t3,12(sp)
    1186:	4ea2                	lw	t4,8(sp)
    1188:	4f12                	lw	t5,4(sp)
    118a:	4f82                	lw	t6,0(sp)
    118c:	6121                	addi	sp,sp,64
    118e:	30200073          	mret

00001192 <HardFault_Handler>:
    1192:	7139                	addi	sp,sp,-64
    1194:	de06                	sw	ra,60(sp)
    1196:	dc16                	sw	t0,56(sp)
    1198:	da1a                	sw	t1,52(sp)
    119a:	d81e                	sw	t2,48(sp)
    119c:	d62a                	sw	a0,44(sp)
    119e:	d42e                	sw	a1,40(sp)
    11a0:	d232                	sw	a2,36(sp)
    11a2:	d036                	sw	a3,32(sp)
    11a4:	ce3a                	sw	a4,28(sp)
    11a6:	cc3e                	sw	a5,24(sp)
    11a8:	ca42                	sw	a6,20(sp)
    11aa:	c846                	sw	a7,16(sp)
    11ac:	c672                	sw	t3,12(sp)
    11ae:	c476                	sw	t4,8(sp)
    11b0:	c27a                	sw	t5,4(sp)
    11b2:	c07e                	sw	t6,0(sp)
    11b4:	3759                	jal	113a <NMI_Handler>
    11b6:	50f2                	lw	ra,60(sp)
    11b8:	52e2                	lw	t0,56(sp)
    11ba:	5352                	lw	t1,52(sp)
    11bc:	53c2                	lw	t2,48(sp)
    11be:	5532                	lw	a0,44(sp)
    11c0:	55a2                	lw	a1,40(sp)
    11c2:	5612                	lw	a2,36(sp)
    11c4:	5682                	lw	a3,32(sp)
    11c6:	4772                	lw	a4,28(sp)
    11c8:	47e2                	lw	a5,24(sp)
    11ca:	4852                	lw	a6,20(sp)
    11cc:	48c2                	lw	a7,16(sp)
    11ce:	4e32                	lw	t3,12(sp)
    11d0:	4ea2                	lw	t4,8(sp)
    11d2:	4f12                	lw	t5,4(sp)
    11d4:	4f82                	lw	t6,0(sp)
    11d6:	6121                	addi	sp,sp,64
    11d8:	30200073          	mret

000011dc <main>:
    11dc:	6571                	lui	a0,0x1c
    11de:	7179                	addi	sp,sp,-48
    11e0:	20050513          	addi	a0,a0,512 # 1c200 <__rt_init_end+0xdba4>
    11e4:	d606                	sw	ra,44(sp)
    11e6:	d422                	sw	s0,40(sp)
    11e8:	d226                	sw	s1,36(sp)
    11ea:	d04a                	sw	s2,32(sp)
    11ec:	cc52                	sw	s4,24(sp)
    11ee:	ca56                	sw	s5,20(sp)
    11f0:	c85a                	sw	s6,16(sp)
    11f2:	ce4e                	sw	s3,28(sp)
    11f4:	c65e                	sw	s7,12(sp)
    11f6:	c462                	sw	s8,8(sp)
    11f8:	321040ef          	jal	ra,5d18 <USART_Printf_Init>
    11fc:	0000d537          	lui	a0,0xd
    1200:	38050513          	addi	a0,a0,896 # d380 <__lowest_bit_bitmap+0x100>
    1204:	35e050ef          	jal	ra,6562 <puts>
    1208:	0000d537          	lui	a0,0xd
    120c:	39050513          	addi	a0,a0,912 # d390 <__lowest_bit_bitmap+0x110>
    1210:	352050ef          	jal	ra,6562 <puts>
    1214:	023040ef          	jal	ra,5a36 <pikaScriptInit>
    1218:	0000d937          	lui	s2,0xd
    121c:	8b2a                	mv	s6,a0
    121e:	400144b7          	lui	s1,0x40014
    1222:	54890513          	addi	a0,s2,1352 # d548 <__lowest_bit_bitmap+0x2c8>
    1226:	318050ef          	jal	ra,653e <printf>
    122a:	80048493          	addi	s1,s1,-2048 # 40013800 <_eusrstack+0x2000e800>
    122e:	20000a37          	lui	s4,0x20000
    1232:	20000ab7          	lui	s5,0x20000
    1236:	1c818413          	addi	s0,gp,456 # 20000bd8 <RxBuffer>
    123a:	4b85                	li	s7,1
    123c:	20000c37          	lui	s8,0x20000
    1240:	02000593          	li	a1,32
    1244:	8526                	mv	a0,s1
    1246:	2c7040ef          	jal	ra,5d0c <USART_GetFlagStatus>
    124a:	246c0993          	addi	s3,s8,582 # 20000246 <is_Rx_start>
    124e:	03751b63          	bne	a0,s7,1284 <main+0xa8>
    1252:	01798023          	sb	s7,0(s3)
    1256:	aa6ff0ef          	jal	ra,4fc <rt_tick_get>
    125a:	24aa2423          	sw	a0,584(s4) # 20000248 <t_start>
    125e:	8526                	mv	a0,s1
    1260:	2a3040ef          	jal	ra,5d02 <USART_ReceiveData>
    1264:	01851793          	slli	a5,a0,0x18
    1268:	87e1                	srai	a5,a5,0x18
    126a:	0007cd63          	bltz	a5,1284 <main+0xa8>
    126e:	244a8713          	addi	a4,s5,580 # 20000244 <RxCnt>
    1272:	00075783          	lhu	a5,0(a4)
    1276:	00178693          	addi	a3,a5,1
    127a:	97a2                	add	a5,a5,s0
    127c:	00d71023          	sh	a3,0(a4)
    1280:	00a78023          	sb	a0,0(a5)
    1284:	0009c783          	lbu	a5,0(s3)
    1288:	fb779ce3          	bne	a5,s7,1240 <main+0x64>
    128c:	a70ff0ef          	jal	ra,4fc <rt_tick_get>
    1290:	248a2783          	lw	a5,584(s4)
    1294:	8d1d                	sub	a0,a0,a5
    1296:	47a9                	li	a5,10
    1298:	faa7f1e3          	bgeu	a5,a0,123a <main+0x5e>
    129c:	00098023          	sb	zero,0(s3)
    12a0:	4981                	li	s3,0
    12a2:	244a8b93          	addi	s7,s5,580
    12a6:	000bd783          	lhu	a5,0(s7)
    12aa:	02f9c363          	blt	s3,a5,12d0 <main+0xf4>
    12ae:	85a2                	mv	a1,s0
    12b0:	855a                	mv	a0,s6
    12b2:	262010ef          	jal	ra,2514 <obj_run>
    12b6:	54890513          	addi	a0,s2,1352
    12ba:	284050ef          	jal	ra,653e <printf>
    12be:	10000613          	li	a2,256
    12c2:	4581                	li	a1,0
    12c4:	8522                	mv	a0,s0
    12c6:	870ff0ef          	jal	ra,336 <memset>
    12ca:	000b9023          	sh	zero,0(s7)
    12ce:	b7b5                	j	123a <main+0x5e>
    12d0:	013407b3          	add	a5,s0,s3
    12d4:	0007c583          	lbu	a1,0(a5)
    12d8:	8526                	mv	a0,s1
    12da:	21f040ef          	jal	ra,5cf8 <USART_SendData>
    12de:	08000593          	li	a1,128
    12e2:	8526                	mv	a0,s1
    12e4:	229040ef          	jal	ra,5d0c <USART_GetFlagStatus>
    12e8:	d97d                	beqz	a0,12de <main+0x102>
    12ea:	0985                	addi	s3,s3,1
    12ec:	bf5d                	j	12a2 <main+0xc6>

000012ee <SystemInit>:
    12ee:	400217b7          	lui	a5,0x40021
    12f2:	4398                	lw	a4,0(a5)
    12f4:	f8ff06b7          	lui	a3,0xf8ff0
    12f8:	1141                	addi	sp,sp,-16
    12fa:	00176713          	ori	a4,a4,1
    12fe:	c398                	sw	a4,0(a5)
    1300:	43d8                	lw	a4,4(a5)
    1302:	00020637          	lui	a2,0x20
    1306:	8f75                	and	a4,a4,a3
    1308:	c3d8                	sw	a4,4(a5)
    130a:	4398                	lw	a4,0(a5)
    130c:	fef706b7          	lui	a3,0xfef70
    1310:	16fd                	addi	a3,a3,-1
    1312:	8f75                	and	a4,a4,a3
    1314:	c398                	sw	a4,0(a5)
    1316:	4398                	lw	a4,0(a5)
    1318:	fffc06b7          	lui	a3,0xfffc0
    131c:	16fd                	addi	a3,a3,-1
    131e:	8f75                	and	a4,a4,a3
    1320:	c398                	sw	a4,0(a5)
    1322:	43d8                	lw	a4,4(a5)
    1324:	ff8106b7          	lui	a3,0xff810
    1328:	16fd                	addi	a3,a3,-1
    132a:	8f75                	and	a4,a4,a3
    132c:	c3d8                	sw	a4,4(a5)
    132e:	009f0737          	lui	a4,0x9f0
    1332:	c798                	sw	a4,8(a5)
    1334:	c402                	sw	zero,8(sp)
    1336:	c602                	sw	zero,12(sp)
    1338:	4398                	lw	a4,0(a5)
    133a:	66c1                	lui	a3,0x10
    133c:	8f55                	or	a4,a4,a3
    133e:	c398                	sw	a4,0(a5)
    1340:	400216b7          	lui	a3,0x40021
    1344:	50000713          	li	a4,1280
    1348:	429c                	lw	a5,0(a3)
    134a:	8ff1                	and	a5,a5,a2
    134c:	c63e                	sw	a5,12(sp)
    134e:	47a2                	lw	a5,8(sp)
    1350:	0785                	addi	a5,a5,1
    1352:	c43e                	sw	a5,8(sp)
    1354:	47b2                	lw	a5,12(sp)
    1356:	e781                	bnez	a5,135e <SystemInit+0x70>
    1358:	47a2                	lw	a5,8(sp)
    135a:	fee797e3          	bne	a5,a4,1348 <SystemInit+0x5a>
    135e:	400217b7          	lui	a5,0x40021
    1362:	439c                	lw	a5,0(a5)
    1364:	00e79713          	slli	a4,a5,0xe
    1368:	08075463          	bgez	a4,13f0 <SystemInit+0x102>
    136c:	4785                	li	a5,1
    136e:	c63e                	sw	a5,12(sp)
    1370:	4732                	lw	a4,12(sp)
    1372:	4785                	li	a5,1
    1374:	06f71c63          	bne	a4,a5,13ec <SystemInit+0xfe>
    1378:	400227b7          	lui	a5,0x40022
    137c:	4398                	lw	a4,0(a5)
    137e:	ffc106b7          	lui	a3,0xffc10
    1382:	16fd                	addi	a3,a3,-1
    1384:	01076713          	ori	a4,a4,16
    1388:	c398                	sw	a4,0(a5)
    138a:	4398                	lw	a4,0(a5)
    138c:	9b71                	andi	a4,a4,-4
    138e:	c398                	sw	a4,0(a5)
    1390:	4398                	lw	a4,0(a5)
    1392:	00276713          	ori	a4,a4,2
    1396:	c398                	sw	a4,0(a5)
    1398:	400217b7          	lui	a5,0x40021
    139c:	43d8                	lw	a4,4(a5)
    139e:	c3d8                	sw	a4,4(a5)
    13a0:	43d8                	lw	a4,4(a5)
    13a2:	c3d8                	sw	a4,4(a5)
    13a4:	43d8                	lw	a4,4(a5)
    13a6:	40076713          	ori	a4,a4,1024
    13aa:	c3d8                	sw	a4,4(a5)
    13ac:	43d8                	lw	a4,4(a5)
    13ae:	8f75                	and	a4,a4,a3
    13b0:	c3d8                	sw	a4,4(a5)
    13b2:	43d8                	lw	a4,4(a5)
    13b4:	001d06b7          	lui	a3,0x1d0
    13b8:	8f55                	or	a4,a4,a3
    13ba:	c3d8                	sw	a4,4(a5)
    13bc:	4398                	lw	a4,0(a5)
    13be:	010006b7          	lui	a3,0x1000
    13c2:	8f55                	or	a4,a4,a3
    13c4:	c398                	sw	a4,0(a5)
    13c6:	4398                	lw	a4,0(a5)
    13c8:	00671693          	slli	a3,a4,0x6
    13cc:	fe06dde3          	bgez	a3,13c6 <SystemInit+0xd8>
    13d0:	43d8                	lw	a4,4(a5)
    13d2:	400216b7          	lui	a3,0x40021
    13d6:	9b71                	andi	a4,a4,-4
    13d8:	c3d8                	sw	a4,4(a5)
    13da:	43d8                	lw	a4,4(a5)
    13dc:	00276713          	ori	a4,a4,2
    13e0:	c3d8                	sw	a4,4(a5)
    13e2:	4721                	li	a4,8
    13e4:	42dc                	lw	a5,4(a3)
    13e6:	8bb1                	andi	a5,a5,12
    13e8:	fee79ee3          	bne	a5,a4,13e4 <SystemInit+0xf6>
    13ec:	0141                	addi	sp,sp,16
    13ee:	8082                	ret
    13f0:	c602                	sw	zero,12(sp)
    13f2:	bfbd                	j	1370 <SystemInit+0x82>

000013f4 <SystemCoreClockUpdate>:
    13f4:	400216b7          	lui	a3,0x40021
    13f8:	42dc                	lw	a5,4(a3)
    13fa:	20000737          	lui	a4,0x20000
    13fe:	4611                	li	a2,4
    1400:	8bb1                	andi	a5,a5,12
    1402:	21070713          	addi	a4,a4,528 # 20000210 <SystemCoreClock>
    1406:	00c78563          	beq	a5,a2,1410 <SystemCoreClockUpdate+0x1c>
    140a:	4621                	li	a2,8
    140c:	02c78963          	beq	a5,a2,143e <SystemCoreClockUpdate+0x4a>
    1410:	007a17b7          	lui	a5,0x7a1
    1414:	20078793          	addi	a5,a5,512 # 7a1200 <__rt_init_end+0x792ba4>
    1418:	c31c                	sw	a5,0(a4)
    141a:	400217b7          	lui	a5,0x40021
    141e:	43dc                	lw	a5,4(a5)
    1420:	8391                	srli	a5,a5,0x4
    1422:	00f7f693          	andi	a3,a5,15
    1426:	200007b7          	lui	a5,0x20000
    142a:	02078793          	addi	a5,a5,32 # 20000020 <AHBPrescTable>
    142e:	97b6                	add	a5,a5,a3
    1430:	0007c683          	lbu	a3,0(a5)
    1434:	431c                	lw	a5,0(a4)
    1436:	00d7d7b3          	srl	a5,a5,a3
    143a:	c31c                	sw	a5,0(a4)
    143c:	8082                	ret
    143e:	42dc                	lw	a5,4(a3)
    1440:	42d0                	lw	a2,4(a3)
    1442:	83c9                	srli	a5,a5,0x12
    1444:	8bbd                	andi	a5,a5,15
    1446:	00f61593          	slli	a1,a2,0xf
    144a:	0789                	addi	a5,a5,2
    144c:	0005c963          	bltz	a1,145e <SystemCoreClockUpdate+0x6a>
    1450:	003d16b7          	lui	a3,0x3d1
    1454:	90068693          	addi	a3,a3,-1792 # 3d0900 <__rt_init_end+0x3c22a4>
    1458:	02d787b3          	mul	a5,a5,a3
    145c:	bf75                	j	1418 <SystemCoreClockUpdate+0x24>
    145e:	42d4                	lw	a3,4(a3)
    1460:	00e69613          	slli	a2,a3,0xe
    1464:	fe0646e3          	bltz	a2,1450 <SystemCoreClockUpdate+0x5c>
    1468:	007a16b7          	lui	a3,0x7a1
    146c:	20068693          	addi	a3,a3,512 # 7a1200 <__rt_init_end+0x792ba4>
    1470:	b7e5                	j	1458 <SystemCoreClockUpdate+0x64>

00001472 <handle_reset>:
    1472:	1ffff197          	auipc	gp,0x1ffff
    1476:	59e18193          	addi	gp,gp,1438 # 20000a10 <__global_pointer$>
    147a:	20004117          	auipc	sp,0x20004
    147e:	b8610113          	addi	sp,sp,-1146 # 20005000 <_eusrstack>
    1482:	0000d517          	auipc	a0,0xd
    1486:	1da50513          	addi	a0,a0,474 # e65c <__rt_init_end>
    148a:	1ffff597          	auipc	a1,0x1ffff
    148e:	b7658593          	addi	a1,a1,-1162 # 20000000 <_data_vma>
    1492:	81018613          	addi	a2,gp,-2032 # 20000220 <_edata>
    1496:	00c5fa63          	bgeu	a1,a2,14aa <handle_reset+0x38>
    149a:	00052283          	lw	t0,0(a0)
    149e:	0055a023          	sw	t0,0(a1)
    14a2:	0511                	addi	a0,a0,4
    14a4:	0591                	addi	a1,a1,4
    14a6:	fec5eae3          	bltu	a1,a2,149a <handle_reset+0x28>
    14aa:	1ffff517          	auipc	a0,0x1ffff
    14ae:	d7650513          	addi	a0,a0,-650 # 20000220 <_edata>
    14b2:	3dc18593          	addi	a1,gp,988 # 20000dec <_ebss>
    14b6:	00b57763          	bgeu	a0,a1,14c4 <handle_reset+0x52>
    14ba:	00052023          	sw	zero,0(a0)
    14be:	0511                	addi	a0,a0,4
    14c0:	feb56de3          	bltu	a0,a1,14ba <handle_reset+0x48>
    14c4:	000022b7          	lui	t0,0x2
    14c8:	88828293          	addi	t0,t0,-1912 # 1888 <PikaStdDevice_GPIO_setPull+0x4c>
    14cc:	3002a073          	csrs	mstatus,t0
    14d0:	fffff297          	auipc	t0,0xfffff
    14d4:	b6828293          	addi	t0,t0,-1176 # 38 <_einit>
    14d8:	0012e293          	ori	t0,t0,1
    14dc:	30529073          	csrw	mtvec,t0
    14e0:	e0fff0ef          	jal	ra,12ee <SystemInit>
    14e4:	fffff297          	auipc	t0,0xfffff
    14e8:	12428293          	addi	t0,t0,292 # 608 <entry>
    14ec:	34129073          	csrw	mepc,t0
    14f0:	30200073          	mret

000014f4 <PikaStdLib_MemChecker_max>:
    14f4:	1141                	addi	sp,sp,-16
    14f6:	c606                	sw	ra,12(sp)
    14f8:	c422                	sw	s0,8(sp)
    14fa:	842a                	mv	s0,a0
    14fc:	568030ef          	jal	ra,4a64 <pikaMemMax>
    1500:	3d2060ef          	jal	ra,78d2 <__floatsidf>
    1504:	0000d7b7          	lui	a5,0xd
    1508:	5507a603          	lw	a2,1360(a5) # d550 <__lowest_bit_bitmap+0x2d0>
    150c:	5547a683          	lw	a3,1364(a5)
    1510:	7cc050ef          	jal	ra,6cdc <__muldf3>
    1514:	862a                	mv	a2,a0
    1516:	8522                	mv	a0,s0
    1518:	4422                	lw	s0,8(sp)
    151a:	40b2                	lw	ra,12(sp)
    151c:	86ae                	mv	a3,a1
    151e:	0000d5b7          	lui	a1,0xd
    1522:	55858593          	addi	a1,a1,1368 # d558 <__lowest_bit_bitmap+0x2d8>
    1526:	0141                	addi	sp,sp,16
    1528:	09e0106f          	j	25c6 <obj_sysPrintf>

0000152c <PikaStdLib_MemChecker_now>:
    152c:	1141                	addi	sp,sp,-16
    152e:	c606                	sw	ra,12(sp)
    1530:	c422                	sw	s0,8(sp)
    1532:	842a                	mv	s0,a0
    1534:	526030ef          	jal	ra,4a5a <pikaMemNow>
    1538:	39a060ef          	jal	ra,78d2 <__floatsidf>
    153c:	0000d7b7          	lui	a5,0xd
    1540:	5507a603          	lw	a2,1360(a5) # d550 <__lowest_bit_bitmap+0x2d0>
    1544:	5547a683          	lw	a3,1364(a5)
    1548:	794050ef          	jal	ra,6cdc <__muldf3>
    154c:	862a                	mv	a2,a0
    154e:	8522                	mv	a0,s0
    1550:	4422                	lw	s0,8(sp)
    1552:	40b2                	lw	ra,12(sp)
    1554:	86ae                	mv	a3,a1
    1556:	0000d5b7          	lui	a1,0xd
    155a:	55858593          	addi	a1,a1,1368 # d558 <__lowest_bit_bitmap+0x2d8>
    155e:	0141                	addi	sp,sp,16
    1560:	0660106f          	j	25c6 <obj_sysPrintf>

00001564 <PikaStdLib_MemChecker_resetMax>:
    1564:	5060306f          	j	4a6a <pikaMemMaxReset>

00001568 <PikaStdLib_SysObj_remove>:
    1568:	1141                	addi	sp,sp,-16
    156a:	c226                	sw	s1,4(sp)
    156c:	84ae                	mv	s1,a1
    156e:	4581                	li	a1,0
    1570:	c606                	sw	ra,12(sp)
    1572:	c422                	sw	s0,8(sp)
    1574:	842a                	mv	s0,a0
    1576:	7a3000ef          	jal	ra,2518 <obj_setErrorCode>
    157a:	85a6                	mv	a1,s1
    157c:	8522                	mv	a0,s0
    157e:	6d5000ef          	jal	ra,2452 <obj_removeArg>
    1582:	4785                	li	a5,1
    1584:	02f51163          	bne	a0,a5,15a6 <PikaStdLib_SysObj_remove+0x3e>
    1588:	0000d5b7          	lui	a1,0xd
    158c:	56458593          	addi	a1,a1,1380 # d564 <__lowest_bit_bitmap+0x2e4>
    1590:	8522                	mv	a0,s0
    1592:	000010ef          	jal	ra,2592 <obj_setSysOut>
    1596:	4585                	li	a1,1
    1598:	8522                	mv	a0,s0
    159a:	4422                	lw	s0,8(sp)
    159c:	40b2                	lw	ra,12(sp)
    159e:	4492                	lw	s1,4(sp)
    15a0:	0141                	addi	sp,sp,16
    15a2:	7770006f          	j	2518 <obj_setErrorCode>
    15a6:	4789                	li	a5,2
    15a8:	00f51b63          	bne	a0,a5,15be <PikaStdLib_SysObj_remove+0x56>
    15ac:	0000d5b7          	lui	a1,0xd
    15b0:	58458593          	addi	a1,a1,1412 # d584 <__lowest_bit_bitmap+0x304>
    15b4:	8522                	mv	a0,s0
    15b6:	7dd000ef          	jal	ra,2592 <obj_setSysOut>
    15ba:	4589                	li	a1,2
    15bc:	bff1                	j	1598 <PikaStdLib_SysObj_remove+0x30>
    15be:	40b2                	lw	ra,12(sp)
    15c0:	4422                	lw	s0,8(sp)
    15c2:	4492                	lw	s1,4(sp)
    15c4:	0141                	addi	sp,sp,16
    15c6:	8082                	ret

000015c8 <PikaStdLib_SysObj_type>:
    15c8:	1141                	addi	sp,sp,-16
    15ca:	c422                	sw	s0,8(sp)
    15cc:	c606                	sw	ra,12(sp)
    15ce:	842a                	mv	s0,a0
    15d0:	2db000ef          	jal	ra,20aa <obj_getArg>
    15d4:	ed19                	bnez	a0,15f2 <PikaStdLib_SysObj_type+0x2a>
    15d6:	0000d5b7          	lui	a1,0xd
    15da:	8522                	mv	a0,s0
    15dc:	5a058593          	addi	a1,a1,1440 # d5a0 <__lowest_bit_bitmap+0x320>
    15e0:	7b3000ef          	jal	ra,2592 <obj_setSysOut>
    15e4:	8522                	mv	a0,s0
    15e6:	4422                	lw	s0,8(sp)
    15e8:	40b2                	lw	ra,12(sp)
    15ea:	4585                	li	a1,1
    15ec:	0141                	addi	sp,sp,16
    15ee:	72b0006f          	j	2518 <obj_setErrorCode>
    15f2:	5b9020ef          	jal	ra,43aa <arg_getType>
    15f6:	4789                	li	a5,2
    15f8:	00f51c63          	bne	a0,a5,1610 <PikaStdLib_SysObj_type+0x48>
    15fc:	0000e5b7          	lui	a1,0xe
    1600:	ee458593          	addi	a1,a1,-284 # dee4 <str100p+0x3dc>
    1604:	8522                	mv	a0,s0
    1606:	4422                	lw	s0,8(sp)
    1608:	40b2                	lw	ra,12(sp)
    160a:	0141                	addi	sp,sp,16
    160c:	7870006f          	j	2592 <obj_setSysOut>
    1610:	478d                	li	a5,3
    1612:	00f51763          	bne	a0,a5,1620 <PikaStdLib_SysObj_type+0x58>
    1616:	0000d5b7          	lui	a1,0xd
    161a:	5bc58593          	addi	a1,a1,1468 # d5bc <__lowest_bit_bitmap+0x33c>
    161e:	b7dd                	j	1604 <PikaStdLib_SysObj_type+0x3c>
    1620:	479d                	li	a5,7
    1622:	00f51763          	bne	a0,a5,1630 <PikaStdLib_SysObj_type+0x68>
    1626:	0000d5b7          	lui	a1,0xd
    162a:	5c458593          	addi	a1,a1,1476 # d5c4 <__lowest_bit_bitmap+0x344>
    162e:	bfd9                	j	1604 <PikaStdLib_SysObj_type+0x3c>
    1630:	4795                	li	a5,5
    1632:	00f51763          	bne	a0,a5,1640 <PikaStdLib_SysObj_type+0x78>
    1636:	0000d5b7          	lui	a1,0xd
    163a:	5cc58593          	addi	a1,a1,1484 # d5cc <__lowest_bit_bitmap+0x34c>
    163e:	b7d9                	j	1604 <PikaStdLib_SysObj_type+0x3c>
    1640:	4799                	li	a5,6
    1642:	00f51763          	bne	a0,a5,1650 <PikaStdLib_SysObj_type+0x88>
    1646:	0000d5b7          	lui	a1,0xd
    164a:	5d458593          	addi	a1,a1,1492 # d5d4 <__lowest_bit_bitmap+0x354>
    164e:	bf5d                	j	1604 <PikaStdLib_SysObj_type+0x3c>
    1650:	4791                	li	a5,4
    1652:	00f51763          	bne	a0,a5,1660 <PikaStdLib_SysObj_type+0x98>
    1656:	0000d5b7          	lui	a1,0xd
    165a:	5e058593          	addi	a1,a1,1504 # d5e0 <__lowest_bit_bitmap+0x360>
    165e:	b75d                	j	1604 <PikaStdLib_SysObj_type+0x3c>
    1660:	40b2                	lw	ra,12(sp)
    1662:	4422                	lw	s0,8(sp)
    1664:	0141                	addi	sp,sp,16
    1666:	8082                	ret

00001668 <PikaStdDevice_GPIO_init>:
    1668:	0000d5b7          	lui	a1,0xd
    166c:	1141                	addi	sp,sp,-16
    166e:	4681                	li	a3,0
    1670:	4601                	li	a2,0
    1672:	62058593          	addi	a1,a1,1568 # d620 <__lowest_bit_bitmap+0x3a0>
    1676:	c606                	sw	ra,12(sp)
    1678:	c422                	sw	s0,8(sp)
    167a:	842a                	mv	s0,a0
    167c:	0a9000ef          	jal	ra,1f24 <obj_setInt>
    1680:	0000d637          	lui	a2,0xd
    1684:	0000d5b7          	lui	a1,0xd
    1688:	62c60613          	addi	a2,a2,1580 # d62c <__lowest_bit_bitmap+0x3ac>
    168c:	63058593          	addi	a1,a1,1584 # d630 <__lowest_bit_bitmap+0x3b0>
    1690:	8522                	mv	a0,s0
    1692:	17b000ef          	jal	ra,200c <obj_setStr>
    1696:	0000d637          	lui	a2,0xd
    169a:	0000d5b7          	lui	a1,0xd
    169e:	63460613          	addi	a2,a2,1588 # d634 <__lowest_bit_bitmap+0x3b4>
    16a2:	63858593          	addi	a1,a1,1592 # d638 <__lowest_bit_bitmap+0x3b8>
    16a6:	8522                	mv	a0,s0
    16a8:	165000ef          	jal	ra,200c <obj_setStr>
    16ac:	0000d5b7          	lui	a1,0xd
    16b0:	4601                	li	a2,0
    16b2:	64058593          	addi	a1,a1,1600 # d640 <__lowest_bit_bitmap+0x3c0>
    16b6:	8522                	mv	a0,s0
    16b8:	4681                	li	a3,0
    16ba:	06b000ef          	jal	ra,1f24 <obj_setInt>
    16be:	8522                	mv	a0,s0
    16c0:	4422                	lw	s0,8(sp)
    16c2:	40b2                	lw	ra,12(sp)
    16c4:	0000d637          	lui	a2,0xd
    16c8:	0000d5b7          	lui	a1,0xd
    16cc:	64860613          	addi	a2,a2,1608 # d648 <__lowest_bit_bitmap+0x3c8>
    16d0:	65058593          	addi	a1,a1,1616 # d650 <__lowest_bit_bitmap+0x3d0>
    16d4:	0141                	addi	sp,sp,16
    16d6:	1370006f          	j	200c <obj_setStr>

000016da <PikaStdDevice_GPIO_disable>:
    16da:	0000d5b7          	lui	a1,0xd
    16de:	1141                	addi	sp,sp,-16
    16e0:	62058593          	addi	a1,a1,1568 # d620 <__lowest_bit_bitmap+0x3a0>
    16e4:	4601                	li	a2,0
    16e6:	4681                	li	a3,0
    16e8:	c422                	sw	s0,8(sp)
    16ea:	c606                	sw	ra,12(sp)
    16ec:	842a                	mv	s0,a0
    16ee:	037000ef          	jal	ra,1f24 <obj_setInt>
    16f2:	8522                	mv	a0,s0
    16f4:	4422                	lw	s0,8(sp)
    16f6:	40b2                	lw	ra,12(sp)
    16f8:	0000d5b7          	lui	a1,0xd
    16fc:	5e858593          	addi	a1,a1,1512 # d5e8 <__lowest_bit_bitmap+0x368>
    1700:	0141                	addi	sp,sp,16
    1702:	6130006f          	j	2514 <obj_run>

00001706 <PikaStdDevice_GPIO_enable>:
    1706:	0000d5b7          	lui	a1,0xd
    170a:	1141                	addi	sp,sp,-16
    170c:	62058593          	addi	a1,a1,1568 # d620 <__lowest_bit_bitmap+0x3a0>
    1710:	4605                	li	a2,1
    1712:	4681                	li	a3,0
    1714:	c422                	sw	s0,8(sp)
    1716:	c606                	sw	ra,12(sp)
    1718:	842a                	mv	s0,a0
    171a:	00b000ef          	jal	ra,1f24 <obj_setInt>
    171e:	8522                	mv	a0,s0
    1720:	4422                	lw	s0,8(sp)
    1722:	40b2                	lw	ra,12(sp)
    1724:	0000d5b7          	lui	a1,0xd
    1728:	5fc58593          	addi	a1,a1,1532 # d5fc <__lowest_bit_bitmap+0x37c>
    172c:	0141                	addi	sp,sp,16
    172e:	5e70006f          	j	2514 <obj_run>

00001732 <PikaStdDevice_GPIO_getMode>:
    1732:	0000d5b7          	lui	a1,0xd
    1736:	63858593          	addi	a1,a1,1592 # d638 <__lowest_bit_bitmap+0x3b8>
    173a:	37d0006f          	j	22b6 <obj_getStr>

0000173e <PikaStdDevice_GPIO_getPin>:
    173e:	0000d5b7          	lui	a1,0xd
    1742:	63058593          	addi	a1,a1,1584 # d630 <__lowest_bit_bitmap+0x3b0>
    1746:	3710006f          	j	22b6 <obj_getStr>

0000174a <PikaStdDevice_GPIO_low>:
    174a:	0000d5b7          	lui	a1,0xd
    174e:	1141                	addi	sp,sp,-16
    1750:	64058593          	addi	a1,a1,1600 # d640 <__lowest_bit_bitmap+0x3c0>
    1754:	4601                	li	a2,0
    1756:	4681                	li	a3,0
    1758:	c422                	sw	s0,8(sp)
    175a:	c606                	sw	ra,12(sp)
    175c:	842a                	mv	s0,a0
    175e:	7c6000ef          	jal	ra,1f24 <obj_setInt>
    1762:	8522                	mv	a0,s0
    1764:	4422                	lw	s0,8(sp)
    1766:	40b2                	lw	ra,12(sp)
    1768:	0000d5b7          	lui	a1,0xd
    176c:	65858593          	addi	a1,a1,1624 # d658 <__lowest_bit_bitmap+0x3d8>
    1770:	0141                	addi	sp,sp,16
    1772:	5a30006f          	j	2514 <obj_run>

00001776 <PikaStdDevice_GPIO_high>:
    1776:	0000d5b7          	lui	a1,0xd
    177a:	1141                	addi	sp,sp,-16
    177c:	64058593          	addi	a1,a1,1600 # d640 <__lowest_bit_bitmap+0x3c0>
    1780:	4605                	li	a2,1
    1782:	4681                	li	a3,0
    1784:	c422                	sw	s0,8(sp)
    1786:	c606                	sw	ra,12(sp)
    1788:	842a                	mv	s0,a0
    178a:	79a000ef          	jal	ra,1f24 <obj_setInt>
    178e:	8522                	mv	a0,s0
    1790:	4422                	lw	s0,8(sp)
    1792:	40b2                	lw	ra,12(sp)
    1794:	0000d5b7          	lui	a1,0xd
    1798:	61058593          	addi	a1,a1,1552 # d610 <__lowest_bit_bitmap+0x390>
    179c:	0141                	addi	sp,sp,16
    179e:	5770006f          	j	2514 <obj_run>

000017a2 <PikaStdDevice_GPIO_read>:
    17a2:	0000d5b7          	lui	a1,0xd
    17a6:	1141                	addi	sp,sp,-16
    17a8:	69858593          	addi	a1,a1,1688 # d698 <__lowest_bit_bitmap+0x418>
    17ac:	c606                	sw	ra,12(sp)
    17ae:	c422                	sw	s0,8(sp)
    17b0:	842a                	mv	s0,a0
    17b2:	563000ef          	jal	ra,2514 <obj_run>
    17b6:	0000d5b7          	lui	a1,0xd
    17ba:	8522                	mv	a0,s0
    17bc:	6a858593          	addi	a1,a1,1704 # d6a8 <__lowest_bit_bitmap+0x428>
    17c0:	099000ef          	jal	ra,2058 <obj_getInt>
    17c4:	40b2                	lw	ra,12(sp)
    17c6:	4422                	lw	s0,8(sp)
    17c8:	0141                	addi	sp,sp,16
    17ca:	8082                	ret

000017cc <PikaStdDevice_GPIO_setMode>:
    17cc:	1141                	addi	sp,sp,-16
    17ce:	c226                	sw	s1,4(sp)
    17d0:	84ae                	mv	s1,a1
    17d2:	0000d5b7          	lui	a1,0xd
    17d6:	c422                	sw	s0,8(sp)
    17d8:	63458593          	addi	a1,a1,1588 # d634 <__lowest_bit_bitmap+0x3b4>
    17dc:	842a                	mv	s0,a0
    17de:	8526                	mv	a0,s1
    17e0:	c606                	sw	ra,12(sp)
    17e2:	14f030ef          	jal	ra,5130 <strEqu>
    17e6:	c505                	beqz	a0,180e <PikaStdDevice_GPIO_setMode+0x42>
    17e8:	0000d5b7          	lui	a1,0xd
    17ec:	8626                	mv	a2,s1
    17ee:	63858593          	addi	a1,a1,1592 # d638 <__lowest_bit_bitmap+0x3b8>
    17f2:	8522                	mv	a0,s0
    17f4:	019000ef          	jal	ra,200c <obj_setStr>
    17f8:	8522                	mv	a0,s0
    17fa:	4422                	lw	s0,8(sp)
    17fc:	40b2                	lw	ra,12(sp)
    17fe:	4492                	lw	s1,4(sp)
    1800:	0000d5b7          	lui	a1,0xd
    1804:	6b458593          	addi	a1,a1,1716 # d6b4 <__lowest_bit_bitmap+0x434>
    1808:	0141                	addi	sp,sp,16
    180a:	50b0006f          	j	2514 <obj_run>
    180e:	0000d5b7          	lui	a1,0xd
    1812:	6c858593          	addi	a1,a1,1736 # d6c8 <__lowest_bit_bitmap+0x448>
    1816:	8526                	mv	a0,s1
    1818:	119030ef          	jal	ra,5130 <strEqu>
    181c:	f571                	bnez	a0,17e8 <PikaStdDevice_GPIO_setMode+0x1c>
    181e:	8522                	mv	a0,s0
    1820:	4585                	li	a1,1
    1822:	4f7000ef          	jal	ra,2518 <obj_setErrorCode>
    1826:	8522                	mv	a0,s0
    1828:	4422                	lw	s0,8(sp)
    182a:	40b2                	lw	ra,12(sp)
    182c:	4492                	lw	s1,4(sp)
    182e:	0000d5b7          	lui	a1,0xd
    1832:	6cc58593          	addi	a1,a1,1740 # d6cc <__lowest_bit_bitmap+0x44c>
    1836:	0141                	addi	sp,sp,16
    1838:	55b0006f          	j	2592 <obj_setSysOut>

0000183c <PikaStdDevice_GPIO_setPull>:
    183c:	1141                	addi	sp,sp,-16
    183e:	c422                	sw	s0,8(sp)
    1840:	842e                	mv	s0,a1
    1842:	0000d5b7          	lui	a1,0xd
    1846:	c226                	sw	s1,4(sp)
    1848:	6f858593          	addi	a1,a1,1784 # d6f8 <__lowest_bit_bitmap+0x478>
    184c:	84aa                	mv	s1,a0
    184e:	8522                	mv	a0,s0
    1850:	c606                	sw	ra,12(sp)
    1852:	0df030ef          	jal	ra,5130 <strEqu>
    1856:	cd09                	beqz	a0,1870 <PikaStdDevice_GPIO_setPull+0x34>
    1858:	8622                	mv	a2,s0
    185a:	4422                	lw	s0,8(sp)
    185c:	40b2                	lw	ra,12(sp)
    185e:	8526                	mv	a0,s1
    1860:	4492                	lw	s1,4(sp)
    1862:	0000d5b7          	lui	a1,0xd
    1866:	65058593          	addi	a1,a1,1616 # d650 <__lowest_bit_bitmap+0x3d0>
    186a:	0141                	addi	sp,sp,16
    186c:	7a00006f          	j	200c <obj_setStr>
    1870:	0000d5b7          	lui	a1,0xd
    1874:	6fc58593          	addi	a1,a1,1788 # d6fc <__lowest_bit_bitmap+0x47c>
    1878:	8522                	mv	a0,s0
    187a:	0b7030ef          	jal	ra,5130 <strEqu>
    187e:	fd69                	bnez	a0,1858 <PikaStdDevice_GPIO_setPull+0x1c>
    1880:	0000d5b7          	lui	a1,0xd
    1884:	64858593          	addi	a1,a1,1608 # d648 <__lowest_bit_bitmap+0x3c8>
    1888:	8522                	mv	a0,s0
    188a:	0a7030ef          	jal	ra,5130 <strEqu>
    188e:	f569                	bnez	a0,1858 <PikaStdDevice_GPIO_setPull+0x1c>
    1890:	8526                	mv	a0,s1
    1892:	4585                	li	a1,1
    1894:	485000ef          	jal	ra,2518 <obj_setErrorCode>
    1898:	4422                	lw	s0,8(sp)
    189a:	40b2                	lw	ra,12(sp)
    189c:	8526                	mv	a0,s1
    189e:	4492                	lw	s1,4(sp)
    18a0:	0000d5b7          	lui	a1,0xd
    18a4:	70458593          	addi	a1,a1,1796 # d704 <__lowest_bit_bitmap+0x484>
    18a8:	0141                	addi	sp,sp,16
    18aa:	4e90006f          	j	2592 <obj_setSysOut>

000018ae <PikaStdDevice_GPIO_setPin>:
    18ae:	862e                	mv	a2,a1
    18b0:	0000d5b7          	lui	a1,0xd
    18b4:	63058593          	addi	a1,a1,1584 # d630 <__lowest_bit_bitmap+0x3b0>
    18b8:	7540006f          	j	200c <obj_setStr>

000018bc <PikaStdDevice_GPIO_platformDisable>:
    18bc:	1141                	addi	sp,sp,-16
    18be:	4585                	li	a1,1
    18c0:	c422                	sw	s0,8(sp)
    18c2:	c606                	sw	ra,12(sp)
    18c4:	842a                	mv	s0,a0
    18c6:	453000ef          	jal	ra,2518 <obj_setErrorCode>
    18ca:	8522                	mv	a0,s0
    18cc:	4422                	lw	s0,8(sp)
    18ce:	40b2                	lw	ra,12(sp)
    18d0:	0000d5b7          	lui	a1,0xd
    18d4:	66858593          	addi	a1,a1,1640 # d668 <__lowest_bit_bitmap+0x3e8>
    18d8:	0141                	addi	sp,sp,16
    18da:	4b90006f          	j	2592 <obj_setSysOut>

000018de <PikaStdDevice_GPIO_platformEnable>:
    18de:	bff9                	j	18bc <PikaStdDevice_GPIO_platformDisable>

000018e0 <PikaStdDevice_GPIO_platformLow>:
    18e0:	bff1                	j	18bc <PikaStdDevice_GPIO_platformDisable>

000018e2 <PikaStdDevice_GPIO_platformHigh>:
    18e2:	bfe9                	j	18bc <PikaStdDevice_GPIO_platformDisable>

000018e4 <PikaStdDevice_GPIO_platformSetMode>:
    18e4:	bfe1                	j	18bc <PikaStdDevice_GPIO_platformDisable>

000018e6 <PikaStdDevice_GPIO_platformRead>:
    18e6:	bfd9                	j	18bc <PikaStdDevice_GPIO_platformDisable>

000018e8 <get_GPIO_group>:
    18e8:	0000d5b7          	lui	a1,0xd
    18ec:	1141                	addi	sp,sp,-16
    18ee:	73858593          	addi	a1,a1,1848 # d738 <__lowest_bit_bitmap+0x4b8>
    18f2:	c422                	sw	s0,8(sp)
    18f4:	c606                	sw	ra,12(sp)
    18f6:	842a                	mv	s0,a0
    18f8:	7ee030ef          	jal	ra,50e6 <strIsStartWith>
    18fc:	e529                	bnez	a0,1946 <get_GPIO_group+0x5e>
    18fe:	0000d5b7          	lui	a1,0xd
    1902:	73c58593          	addi	a1,a1,1852 # d73c <__lowest_bit_bitmap+0x4bc>
    1906:	8522                	mv	a0,s0
    1908:	7de030ef          	jal	ra,50e6 <strIsStartWith>
    190c:	e131                	bnez	a0,1950 <get_GPIO_group+0x68>
    190e:	0000d5b7          	lui	a1,0xd
    1912:	74058593          	addi	a1,a1,1856 # d740 <__lowest_bit_bitmap+0x4c0>
    1916:	8522                	mv	a0,s0
    1918:	7ce030ef          	jal	ra,50e6 <strIsStartWith>
    191c:	400117b7          	lui	a5,0x40011
    1920:	ed11                	bnez	a0,193c <get_GPIO_group+0x54>
    1922:	0000d5b7          	lui	a1,0xd
    1926:	74458593          	addi	a1,a1,1860 # d744 <__lowest_bit_bitmap+0x4c4>
    192a:	8522                	mv	a0,s0
    192c:	7ba030ef          	jal	ra,50e6 <strIsStartWith>
    1930:	4781                	li	a5,0
    1932:	c509                	beqz	a0,193c <get_GPIO_group+0x54>
    1934:	400117b7          	lui	a5,0x40011
    1938:	40078793          	addi	a5,a5,1024 # 40011400 <_eusrstack+0x2000c400>
    193c:	40b2                	lw	ra,12(sp)
    193e:	4422                	lw	s0,8(sp)
    1940:	853e                	mv	a0,a5
    1942:	0141                	addi	sp,sp,16
    1944:	8082                	ret
    1946:	400117b7          	lui	a5,0x40011
    194a:	80078793          	addi	a5,a5,-2048 # 40010800 <_eusrstack+0x2000b800>
    194e:	b7fd                	j	193c <get_GPIO_group+0x54>
    1950:	400117b7          	lui	a5,0x40011
    1954:	c0078793          	addi	a5,a5,-1024 # 40010c00 <_eusrstack+0x2000bc00>
    1958:	b7d5                	j	193c <get_GPIO_group+0x54>

0000195a <get_GPIO_pin>:
    195a:	1141                	addi	sp,sp,-16
    195c:	c422                	sw	s0,8(sp)
    195e:	0000d5b7          	lui	a1,0xd
    1962:	00250413          	addi	s0,a0,2
    1966:	74858593          	addi	a1,a1,1864 # d748 <__lowest_bit_bitmap+0x4c8>
    196a:	8522                	mv	a0,s0
    196c:	c606                	sw	ra,12(sp)
    196e:	7c2030ef          	jal	ra,5130 <strEqu>
    1972:	4785                	li	a5,1
    1974:	12051363          	bnez	a0,1a9a <get_GPIO_pin+0x140>
    1978:	0000d5b7          	lui	a1,0xd
    197c:	74c58593          	addi	a1,a1,1868 # d74c <__lowest_bit_bitmap+0x4cc>
    1980:	8522                	mv	a0,s0
    1982:	7ae030ef          	jal	ra,5130 <strEqu>
    1986:	4789                	li	a5,2
    1988:	10051963          	bnez	a0,1a9a <get_GPIO_pin+0x140>
    198c:	0000d5b7          	lui	a1,0xd
    1990:	75058593          	addi	a1,a1,1872 # d750 <__lowest_bit_bitmap+0x4d0>
    1994:	8522                	mv	a0,s0
    1996:	79a030ef          	jal	ra,5130 <strEqu>
    199a:	4791                	li	a5,4
    199c:	0e051f63          	bnez	a0,1a9a <get_GPIO_pin+0x140>
    19a0:	0000d5b7          	lui	a1,0xd
    19a4:	75458593          	addi	a1,a1,1876 # d754 <__lowest_bit_bitmap+0x4d4>
    19a8:	8522                	mv	a0,s0
    19aa:	786030ef          	jal	ra,5130 <strEqu>
    19ae:	47a1                	li	a5,8
    19b0:	0e051563          	bnez	a0,1a9a <get_GPIO_pin+0x140>
    19b4:	0000d5b7          	lui	a1,0xd
    19b8:	75858593          	addi	a1,a1,1880 # d758 <__lowest_bit_bitmap+0x4d8>
    19bc:	8522                	mv	a0,s0
    19be:	772030ef          	jal	ra,5130 <strEqu>
    19c2:	47c1                	li	a5,16
    19c4:	0c051b63          	bnez	a0,1a9a <get_GPIO_pin+0x140>
    19c8:	0000d5b7          	lui	a1,0xd
    19cc:	75c58593          	addi	a1,a1,1884 # d75c <__lowest_bit_bitmap+0x4dc>
    19d0:	8522                	mv	a0,s0
    19d2:	75e030ef          	jal	ra,5130 <strEqu>
    19d6:	02000793          	li	a5,32
    19da:	e161                	bnez	a0,1a9a <get_GPIO_pin+0x140>
    19dc:	0000d5b7          	lui	a1,0xd
    19e0:	76058593          	addi	a1,a1,1888 # d760 <__lowest_bit_bitmap+0x4e0>
    19e4:	8522                	mv	a0,s0
    19e6:	74a030ef          	jal	ra,5130 <strEqu>
    19ea:	04000793          	li	a5,64
    19ee:	e555                	bnez	a0,1a9a <get_GPIO_pin+0x140>
    19f0:	0000d5b7          	lui	a1,0xd
    19f4:	76458593          	addi	a1,a1,1892 # d764 <__lowest_bit_bitmap+0x4e4>
    19f8:	8522                	mv	a0,s0
    19fa:	736030ef          	jal	ra,5130 <strEqu>
    19fe:	08000793          	li	a5,128
    1a02:	ed41                	bnez	a0,1a9a <get_GPIO_pin+0x140>
    1a04:	0000d5b7          	lui	a1,0xd
    1a08:	76858593          	addi	a1,a1,1896 # d768 <__lowest_bit_bitmap+0x4e8>
    1a0c:	8522                	mv	a0,s0
    1a0e:	722030ef          	jal	ra,5130 <strEqu>
    1a12:	10000793          	li	a5,256
    1a16:	e151                	bnez	a0,1a9a <get_GPIO_pin+0x140>
    1a18:	0000d5b7          	lui	a1,0xd
    1a1c:	76c58593          	addi	a1,a1,1900 # d76c <__lowest_bit_bitmap+0x4ec>
    1a20:	8522                	mv	a0,s0
    1a22:	70e030ef          	jal	ra,5130 <strEqu>
    1a26:	20000793          	li	a5,512
    1a2a:	e925                	bnez	a0,1a9a <get_GPIO_pin+0x140>
    1a2c:	0000d5b7          	lui	a1,0xd
    1a30:	77058593          	addi	a1,a1,1904 # d770 <__lowest_bit_bitmap+0x4f0>
    1a34:	8522                	mv	a0,s0
    1a36:	6fa030ef          	jal	ra,5130 <strEqu>
    1a3a:	40000793          	li	a5,1024
    1a3e:	ed31                	bnez	a0,1a9a <get_GPIO_pin+0x140>
    1a40:	0000d5b7          	lui	a1,0xd
    1a44:	77458593          	addi	a1,a1,1908 # d774 <__lowest_bit_bitmap+0x4f4>
    1a48:	8522                	mv	a0,s0
    1a4a:	6e6030ef          	jal	ra,5130 <strEqu>
    1a4e:	e939                	bnez	a0,1aa4 <get_GPIO_pin+0x14a>
    1a50:	0000d5b7          	lui	a1,0xd
    1a54:	77858593          	addi	a1,a1,1912 # d778 <__lowest_bit_bitmap+0x4f8>
    1a58:	8522                	mv	a0,s0
    1a5a:	6d6030ef          	jal	ra,5130 <strEqu>
    1a5e:	6785                	lui	a5,0x1
    1a60:	ed0d                	bnez	a0,1a9a <get_GPIO_pin+0x140>
    1a62:	0000d5b7          	lui	a1,0xd
    1a66:	77c58593          	addi	a1,a1,1916 # d77c <__lowest_bit_bitmap+0x4fc>
    1a6a:	8522                	mv	a0,s0
    1a6c:	6c4030ef          	jal	ra,5130 <strEqu>
    1a70:	6789                	lui	a5,0x2
    1a72:	e505                	bnez	a0,1a9a <get_GPIO_pin+0x140>
    1a74:	0000d5b7          	lui	a1,0xd
    1a78:	78058593          	addi	a1,a1,1920 # d780 <__lowest_bit_bitmap+0x500>
    1a7c:	8522                	mv	a0,s0
    1a7e:	6b2030ef          	jal	ra,5130 <strEqu>
    1a82:	6791                	lui	a5,0x4
    1a84:	e919                	bnez	a0,1a9a <get_GPIO_pin+0x140>
    1a86:	0000d5b7          	lui	a1,0xd
    1a8a:	78458593          	addi	a1,a1,1924 # d784 <__lowest_bit_bitmap+0x504>
    1a8e:	8522                	mv	a0,s0
    1a90:	6a0030ef          	jal	ra,5130 <strEqu>
    1a94:	00a037b3          	snez	a5,a0
    1a98:	07be                	slli	a5,a5,0xf
    1a9a:	40b2                	lw	ra,12(sp)
    1a9c:	4422                	lw	s0,8(sp)
    1a9e:	853e                	mv	a0,a5
    1aa0:	0141                	addi	sp,sp,16
    1aa2:	8082                	ret
    1aa4:	6785                	lui	a5,0x1
    1aa6:	80078793          	addi	a5,a5,-2048 # 800 <__stack_size>
    1aaa:	bfc5                	j	1a9a <get_GPIO_pin+0x140>

00001aac <get_GPIO_mode>:
    1aac:	0000d5b7          	lui	a1,0xd
    1ab0:	1141                	addi	sp,sp,-16
    1ab2:	63458593          	addi	a1,a1,1588 # d634 <__lowest_bit_bitmap+0x3b4>
    1ab6:	c422                	sw	s0,8(sp)
    1ab8:	c606                	sw	ra,12(sp)
    1aba:	842a                	mv	s0,a0
    1abc:	674030ef          	jal	ra,5130 <strEqu>
    1ac0:	c511                	beqz	a0,1acc <get_GPIO_mode+0x20>
    1ac2:	4541                	li	a0,16
    1ac4:	40b2                	lw	ra,12(sp)
    1ac6:	4422                	lw	s0,8(sp)
    1ac8:	0141                	addi	sp,sp,16
    1aca:	8082                	ret
    1acc:	0000d5b7          	lui	a1,0xd
    1ad0:	6c858593          	addi	a1,a1,1736 # d6c8 <__lowest_bit_bitmap+0x448>
    1ad4:	8522                	mv	a0,s0
    1ad6:	65a030ef          	jal	ra,5130 <strEqu>
    1ada:	d565                	beqz	a0,1ac2 <get_GPIO_mode+0x16>
    1adc:	4511                	li	a0,4
    1ade:	b7dd                	j	1ac4 <get_GPIO_mode+0x18>

00001ae0 <get_GPIO_Clock_group>:
    1ae0:	0000d5b7          	lui	a1,0xd
    1ae4:	1141                	addi	sp,sp,-16
    1ae6:	73858593          	addi	a1,a1,1848 # d738 <__lowest_bit_bitmap+0x4b8>
    1aea:	c422                	sw	s0,8(sp)
    1aec:	c606                	sw	ra,12(sp)
    1aee:	842a                	mv	s0,a0
    1af0:	5f6030ef          	jal	ra,50e6 <strIsStartWith>
    1af4:	4791                	li	a5,4
    1af6:	ed0d                	bnez	a0,1b30 <get_GPIO_Clock_group+0x50>
    1af8:	0000d5b7          	lui	a1,0xd
    1afc:	73c58593          	addi	a1,a1,1852 # d73c <__lowest_bit_bitmap+0x4bc>
    1b00:	8522                	mv	a0,s0
    1b02:	5e4030ef          	jal	ra,50e6 <strIsStartWith>
    1b06:	47a1                	li	a5,8
    1b08:	e505                	bnez	a0,1b30 <get_GPIO_Clock_group+0x50>
    1b0a:	0000d5b7          	lui	a1,0xd
    1b0e:	74058593          	addi	a1,a1,1856 # d740 <__lowest_bit_bitmap+0x4c0>
    1b12:	8522                	mv	a0,s0
    1b14:	5d2030ef          	jal	ra,50e6 <strIsStartWith>
    1b18:	47c1                	li	a5,16
    1b1a:	e919                	bnez	a0,1b30 <get_GPIO_Clock_group+0x50>
    1b1c:	0000d5b7          	lui	a1,0xd
    1b20:	74458593          	addi	a1,a1,1860 # d744 <__lowest_bit_bitmap+0x4c4>
    1b24:	8522                	mv	a0,s0
    1b26:	5c0030ef          	jal	ra,50e6 <strIsStartWith>
    1b2a:	00a037b3          	snez	a5,a0
    1b2e:	0796                	slli	a5,a5,0x5
    1b30:	40b2                	lw	ra,12(sp)
    1b32:	4422                	lw	s0,8(sp)
    1b34:	853e                	mv	a0,a5
    1b36:	0141                	addi	sp,sp,16
    1b38:	8082                	ret

00001b3a <CH32V103_GPIO_platformDisable>:
    1b3a:	8082                	ret

00001b3c <CH32V103_GPIO_platformEnable>:
    1b3c:	0000d5b7          	lui	a1,0xd
    1b40:	7179                	addi	sp,sp,-48
    1b42:	63058593          	addi	a1,a1,1584 # d630 <__lowest_bit_bitmap+0x3b0>
    1b46:	d606                	sw	ra,44(sp)
    1b48:	d422                	sw	s0,40(sp)
    1b4a:	d226                	sw	s1,36(sp)
    1b4c:	d04a                	sw	s2,32(sp)
    1b4e:	ce4e                	sw	s3,28(sp)
    1b50:	84aa                	mv	s1,a0
    1b52:	764000ef          	jal	ra,22b6 <obj_getStr>
    1b56:	0000d5b7          	lui	a1,0xd
    1b5a:	63858593          	addi	a1,a1,1592 # d638 <__lowest_bit_bitmap+0x3b8>
    1b5e:	842a                	mv	s0,a0
    1b60:	8526                	mv	a0,s1
    1b62:	754000ef          	jal	ra,22b6 <obj_getStr>
    1b66:	892a                	mv	s2,a0
    1b68:	8522                	mv	a0,s0
    1b6a:	3bbd                	jal	18e8 <get_GPIO_group>
    1b6c:	84aa                	mv	s1,a0
    1b6e:	8522                	mv	a0,s0
    1b70:	33ed                	jal	195a <get_GPIO_pin>
    1b72:	89aa                	mv	s3,a0
    1b74:	854a                	mv	a0,s2
    1b76:	3f1d                	jal	1aac <get_GPIO_mode>
    1b78:	892a                	mv	s2,a0
    1b7a:	8522                	mv	a0,s0
    1b7c:	3795                	jal	1ae0 <get_GPIO_Clock_group>
    1b7e:	4585                	li	a1,1
    1b80:	064040ef          	jal	ra,5be4 <RCC_APB2PeriphClockCmd>
    1b84:	478d                	li	a5,3
    1b86:	004c                	addi	a1,sp,4
    1b88:	8526                	mv	a0,s1
    1b8a:	01311223          	sh	s3,4(sp)
    1b8e:	c64a                	sw	s2,12(sp)
    1b90:	c43e                	sw	a5,8(sp)
    1b92:	6d7030ef          	jal	ra,5a68 <GPIO_Init>
    1b96:	50b2                	lw	ra,44(sp)
    1b98:	5422                	lw	s0,40(sp)
    1b9a:	5492                	lw	s1,36(sp)
    1b9c:	5902                	lw	s2,32(sp)
    1b9e:	49f2                	lw	s3,28(sp)
    1ba0:	6145                	addi	sp,sp,48
    1ba2:	8082                	ret

00001ba4 <CH32V103_GPIO_platformHigh>:
    1ba4:	0000d5b7          	lui	a1,0xd
    1ba8:	1141                	addi	sp,sp,-16
    1baa:	63058593          	addi	a1,a1,1584 # d630 <__lowest_bit_bitmap+0x3b0>
    1bae:	c606                	sw	ra,12(sp)
    1bb0:	c422                	sw	s0,8(sp)
    1bb2:	c226                	sw	s1,4(sp)
    1bb4:	702000ef          	jal	ra,22b6 <obj_getStr>
    1bb8:	84aa                	mv	s1,a0
    1bba:	333d                	jal	18e8 <get_GPIO_group>
    1bbc:	842a                	mv	s0,a0
    1bbe:	8526                	mv	a0,s1
    1bc0:	3b69                	jal	195a <get_GPIO_pin>
    1bc2:	85aa                	mv	a1,a0
    1bc4:	8522                	mv	a0,s0
    1bc6:	4422                	lw	s0,8(sp)
    1bc8:	40b2                	lw	ra,12(sp)
    1bca:	4492                	lw	s1,4(sp)
    1bcc:	4605                	li	a2,1
    1bce:	0141                	addi	sp,sp,16
    1bd0:	75b0306f          	j	5b2a <GPIO_WriteBit>

00001bd4 <CH32V103_GPIO_platformLow>:
    1bd4:	0000d5b7          	lui	a1,0xd
    1bd8:	1141                	addi	sp,sp,-16
    1bda:	63058593          	addi	a1,a1,1584 # d630 <__lowest_bit_bitmap+0x3b0>
    1bde:	c606                	sw	ra,12(sp)
    1be0:	c422                	sw	s0,8(sp)
    1be2:	c226                	sw	s1,4(sp)
    1be4:	6d2000ef          	jal	ra,22b6 <obj_getStr>
    1be8:	84aa                	mv	s1,a0
    1bea:	39fd                	jal	18e8 <get_GPIO_group>
    1bec:	842a                	mv	s0,a0
    1bee:	8526                	mv	a0,s1
    1bf0:	33ad                	jal	195a <get_GPIO_pin>
    1bf2:	85aa                	mv	a1,a0
    1bf4:	8522                	mv	a0,s0
    1bf6:	4422                	lw	s0,8(sp)
    1bf8:	40b2                	lw	ra,12(sp)
    1bfa:	4492                	lw	s1,4(sp)
    1bfc:	4601                	li	a2,0
    1bfe:	0141                	addi	sp,sp,16
    1c00:	72b0306f          	j	5b2a <GPIO_WriteBit>

00001c04 <CH32V103_GPIO_platformSetMode>:
    1c04:	0000d5b7          	lui	a1,0xd
    1c08:	1101                	addi	sp,sp,-32
    1c0a:	63858593          	addi	a1,a1,1592 # d638 <__lowest_bit_bitmap+0x3b8>
    1c0e:	ce06                	sw	ra,28(sp)
    1c10:	cc22                	sw	s0,24(sp)
    1c12:	ca26                	sw	s1,20(sp)
    1c14:	c84a                	sw	s2,16(sp)
    1c16:	842a                	mv	s0,a0
    1c18:	69e000ef          	jal	ra,22b6 <obj_getStr>
    1c1c:	0000d5b7          	lui	a1,0xd
    1c20:	63058593          	addi	a1,a1,1584 # d630 <__lowest_bit_bitmap+0x3b0>
    1c24:	892a                	mv	s2,a0
    1c26:	8522                	mv	a0,s0
    1c28:	68e000ef          	jal	ra,22b6 <obj_getStr>
    1c2c:	84aa                	mv	s1,a0
    1c2e:	cbbff0ef          	jal	ra,18e8 <get_GPIO_group>
    1c32:	842a                	mv	s0,a0
    1c34:	8526                	mv	a0,s1
    1c36:	3315                	jal	195a <get_GPIO_pin>
    1c38:	84aa                	mv	s1,a0
    1c3a:	854a                	mv	a0,s2
    1c3c:	3d85                	jal	1aac <get_GPIO_mode>
    1c3e:	c62a                	sw	a0,12(sp)
    1c40:	478d                	li	a5,3
    1c42:	004c                	addi	a1,sp,4
    1c44:	8522                	mv	a0,s0
    1c46:	00911223          	sh	s1,4(sp)
    1c4a:	c43e                	sw	a5,8(sp)
    1c4c:	61d030ef          	jal	ra,5a68 <GPIO_Init>
    1c50:	40f2                	lw	ra,28(sp)
    1c52:	4462                	lw	s0,24(sp)
    1c54:	44d2                	lw	s1,20(sp)
    1c56:	4942                	lw	s2,16(sp)
    1c58:	6105                	addi	sp,sp,32
    1c5a:	8082                	ret

00001c5c <CH32V103_Sys_delay>:
    1c5c:	852e                	mv	a0,a1
    1c5e:	84cff06f          	j	caa <rt_thread_delay>

00001c62 <print>:
    1c62:	1141                	addi	sp,sp,-16
    1c64:	c226                	sw	s1,4(sp)
    1c66:	84ae                	mv	s1,a1
    1c68:	4581                	li	a1,0
    1c6a:	c422                	sw	s0,8(sp)
    1c6c:	c606                	sw	ra,12(sp)
    1c6e:	842a                	mv	s0,a0
    1c70:	0a9000ef          	jal	ra,2518 <obj_setErrorCode>
    1c74:	0000d5b7          	lui	a1,0xd
    1c78:	79858593          	addi	a1,a1,1944 # d798 <__lowest_bit_bitmap+0x518>
    1c7c:	8526                	mv	a0,s1
    1c7e:	385020ef          	jal	ra,4802 <args_print>
    1c82:	e105                	bnez	a0,1ca2 <print+0x40>
    1c84:	0000d5b7          	lui	a1,0xd
    1c88:	8522                	mv	a0,s0
    1c8a:	79c58593          	addi	a1,a1,1948 # d79c <__lowest_bit_bitmap+0x51c>
    1c8e:	105000ef          	jal	ra,2592 <obj_setSysOut>
    1c92:	8522                	mv	a0,s0
    1c94:	4422                	lw	s0,8(sp)
    1c96:	40b2                	lw	ra,12(sp)
    1c98:	4492                	lw	s1,4(sp)
    1c9a:	4585                	li	a1,1
    1c9c:	0141                	addi	sp,sp,16
    1c9e:	07b0006f          	j	2518 <obj_setErrorCode>
    1ca2:	85aa                	mv	a1,a0
    1ca4:	8522                	mv	a0,s0
    1ca6:	4422                	lw	s0,8(sp)
    1ca8:	40b2                	lw	ra,12(sp)
    1caa:	4492                	lw	s1,4(sp)
    1cac:	0141                	addi	sp,sp,16
    1cae:	0e50006f          	j	2592 <obj_setSysOut>

00001cb2 <arg_setMetaObj>:
    1cb2:	1101                	addi	sp,sp,-32
    1cb4:	ce06                	sw	ra,28(sp)
    1cb6:	cc22                	sw	s0,24(sp)
    1cb8:	ca26                	sw	s1,20(sp)
    1cba:	c432                	sw	a2,8(sp)
    1cbc:	c62a                	sw	a0,12(sp)
    1cbe:	544030ef          	jal	ra,5202 <New_strBuff>
    1cc2:	84aa                	mv	s1,a0
    1cc4:	4501                	li	a0,0
    1cc6:	6fe020ef          	jal	ra,43c4 <New_arg>
    1cca:	46a2                	lw	a3,8(sp)
    1ccc:	45b2                	lw	a1,12(sp)
    1cce:	4619                	li	a2,6
    1cd0:	4ba020ef          	jal	ra,418a <arg_setPtr>
    1cd4:	842a                	mv	s0,a0
    1cd6:	8526                	mv	a0,s1
    1cd8:	74a020ef          	jal	ra,4422 <args_deinit>
    1cdc:	8522                	mv	a0,s0
    1cde:	40f2                	lw	ra,28(sp)
    1ce0:	4462                	lw	s0,24(sp)
    1ce2:	44d2                	lw	s1,20(sp)
    1ce4:	6105                	addi	sp,sp,32
    1ce6:	8082                	ret

00001ce8 <obj_newObj>:
    1ce8:	1141                	addi	sp,sp,-16
    1cea:	c422                	sw	s0,8(sp)
    1cec:	842a                	mv	s0,a0
    1cee:	852e                	mv	a0,a1
    1cf0:	85b2                	mv	a1,a2
    1cf2:	8636                	mv	a2,a3
    1cf4:	c606                	sw	ra,12(sp)
    1cf6:	3f75                	jal	1cb2 <arg_setMetaObj>
    1cf8:	85aa                	mv	a1,a0
    1cfa:	4008                	lw	a0,0(s0)
    1cfc:	051020ef          	jal	ra,454c <args_setArg>
    1d00:	40b2                	lw	ra,12(sp)
    1d02:	4422                	lw	s0,8(sp)
    1d04:	4501                	li	a0,0
    1d06:	0141                	addi	sp,sp,16
    1d08:	8082                	ret

00001d0a <New_BaseObj>:
    1d0a:	1141                	addi	sp,sp,-16
    1d0c:	c606                	sw	ra,12(sp)
    1d0e:	c422                	sw	s0,8(sp)
    1d10:	1ea020ef          	jal	ra,3efa <New_TinyObj>
    1d14:	00002637          	lui	a2,0x2
    1d18:	0000d5b7          	lui	a1,0xd
    1d1c:	c6260613          	addi	a2,a2,-926 # 1c62 <print>
    1d20:	78858593          	addi	a1,a1,1928 # d788 <__lowest_bit_bitmap+0x508>
    1d24:	842a                	mv	s0,a0
    1d26:	69c000ef          	jal	ra,23c2 <class_defineMethod>
    1d2a:	8522                	mv	a0,s0
    1d2c:	40b2                	lw	ra,12(sp)
    1d2e:	4422                	lw	s0,8(sp)
    1d30:	0141                	addi	sp,sp,16
    1d32:	8082                	ret

00001d34 <__foreach_removeMethodInfo>:
    1d34:	1141                	addi	sp,sp,-16
    1d36:	c422                	sw	s0,8(sp)
    1d38:	c226                	sw	s1,4(sp)
    1d3a:	c606                	sw	ra,12(sp)
    1d3c:	84aa                	mv	s1,a0
    1d3e:	842e                	mv	s0,a1
    1d40:	66a020ef          	jal	ra,43aa <arg_getType>
    1d44:	4791                	li	a5,4
    1d46:	00f51663          	bne	a0,a5,1d52 <__foreach_removeMethodInfo+0x1e>
    1d4a:	85a6                	mv	a1,s1
    1d4c:	8522                	mv	a0,s0
    1d4e:	3b5020ef          	jal	ra,4902 <args_removeArg>
    1d52:	40b2                	lw	ra,12(sp)
    1d54:	4422                	lw	s0,8(sp)
    1d56:	4492                	lw	s1,4(sp)
    1d58:	4501                	li	a0,0
    1d5a:	0141                	addi	sp,sp,16
    1d5c:	8082                	ret

00001d5e <fast_atoi>:
    1d5e:	1141                	addi	sp,sp,-16
    1d60:	c422                	sw	s0,8(sp)
    1d62:	c606                	sw	ra,12(sp)
    1d64:	842a                	mv	s0,a0
    1d66:	246030ef          	jal	ra,4fac <strGetSize>
    1d6a:	0542                	slli	a0,a0,0x10
    1d6c:	8141                	srli	a0,a0,0x10
    1d6e:	fff50613          	addi	a2,a0,-1
    1d72:	00c405b3          	add	a1,s0,a2
    1d76:	00058783          	lb	a5,0(a1)
    1d7a:	4501                	li	a0,0
    1d7c:	c3b9                	beqz	a5,1dc2 <fast_atoi+0x64>
    1d7e:	67b5                	lui	a5,0xd
    1d80:	200008b7          	lui	a7,0x20000
    1d84:	7c078813          	addi	a6,a5,1984 # d7c0 <a.3933>
    1d88:	4501                	li	a0,0
    1d8a:	7c078693          	addi	a3,a5,1984
    1d8e:	fd088893          	addi	a7,a7,-48 # 1fffffd0 <__rt_init_end+0x1fff1974>
    1d92:	a811                	j	1da6 <fast_atoi+0x48>
    1d94:	01178733          	add	a4,a5,a7
    1d98:	070e                	slli	a4,a4,0x3
    1d9a:	9742                	add	a4,a4,a6
    1d9c:	431c                	lw	a5,0(a4)
    1d9e:	05080813          	addi	a6,a6,80
    1da2:	15fd                	addi	a1,a1,-1
    1da4:	953e                	add	a0,a0,a5
    1da6:	00058783          	lb	a5,0(a1)
    1daa:	fe8595e3          	bne	a1,s0,1d94 <fast_atoi+0x36>
    1dae:	05000713          	li	a4,80
    1db2:	02e60633          	mul	a2,a2,a4
    1db6:	02d00713          	li	a4,45
    1dba:	00e79863          	bne	a5,a4,1dca <fast_atoi+0x6c>
    1dbe:	40a00533          	neg	a0,a0
    1dc2:	40b2                	lw	ra,12(sp)
    1dc4:	4422                	lw	s0,8(sp)
    1dc6:	0141                	addi	sp,sp,16
    1dc8:	8082                	ret
    1dca:	078e                	slli	a5,a5,0x3
    1dcc:	e8078793          	addi	a5,a5,-384
    1dd0:	97b6                	add	a5,a5,a3
    1dd2:	97b2                	add	a5,a5,a2
    1dd4:	439c                	lw	a5,0(a5)
    1dd6:	953e                	add	a0,a0,a5
    1dd8:	b7ed                	j	1dc2 <fast_atoi+0x64>

00001dda <fast_itoa>:
    1dda:	6739                	lui	a4,0xe
    1ddc:	00a50793          	addi	a5,a0,10
    1de0:	00050523          	sb	zero,10(a0)
    1de4:	b0870713          	addi	a4,a4,-1272 # db08 <str100p>
    1de8:	06300513          	li	a0,99
    1dec:	06400613          	li	a2,100
    1df0:	17f9                	addi	a5,a5,-2
    1df2:	02b56263          	bltu	a0,a1,1e16 <fast_itoa+0x3c>
    1df6:	00159693          	slli	a3,a1,0x1
    1dfa:	9736                	add	a4,a4,a3
    1dfc:	00074683          	lbu	a3,0(a4)
    1e00:	00a5b593          	sltiu	a1,a1,10
    1e04:	00b78533          	add	a0,a5,a1
    1e08:	00d78023          	sb	a3,0(a5)
    1e0c:	00174703          	lbu	a4,1(a4)
    1e10:	00e780a3          	sb	a4,1(a5)
    1e14:	8082                	ret
    1e16:	02c5f6b3          	remu	a3,a1,a2
    1e1a:	0686                	slli	a3,a3,0x1
    1e1c:	96ba                	add	a3,a3,a4
    1e1e:	0006c803          	lbu	a6,0(a3)
    1e22:	02c5d5b3          	divu	a1,a1,a2
    1e26:	01078023          	sb	a6,0(a5)
    1e2a:	0016c683          	lbu	a3,1(a3)
    1e2e:	00d780a3          	sb	a3,1(a5)
    1e32:	bf7d                	j	1df0 <fast_itoa+0x16>

00001e34 <deinitAllSubObj>:
    1e34:	4108                	lw	a0,0(a0)
    1e36:	000025b7          	lui	a1,0x2
    1e3a:	4601                	li	a2,0
    1e3c:	e6658593          	addi	a1,a1,-410 # 1e66 <deinitEachSubObj>
    1e40:	28d0206f          	j	48cc <args_foreach>

00001e44 <obj_deinit>:
    1e44:	1141                	addi	sp,sp,-16
    1e46:	c606                	sw	ra,12(sp)
    1e48:	c422                	sw	s0,8(sp)
    1e4a:	842a                	mv	s0,a0
    1e4c:	37e5                	jal	1e34 <deinitAllSubObj>
    1e4e:	4008                	lw	a0,0(s0)
    1e50:	5d2020ef          	jal	ra,4422 <args_deinit>
    1e54:	8522                	mv	a0,s0
    1e56:	4591                	li	a1,4
    1e58:	3c9020ef          	jal	ra,4a20 <pikaFree>
    1e5c:	40b2                	lw	ra,12(sp)
    1e5e:	4422                	lw	s0,8(sp)
    1e60:	4501                	li	a0,0
    1e62:	0141                	addi	sp,sp,16
    1e64:	8082                	ret

00001e66 <deinitEachSubObj>:
    1e66:	1141                	addi	sp,sp,-16
    1e68:	c226                	sw	s1,4(sp)
    1e6a:	c606                	sw	ra,12(sp)
    1e6c:	c422                	sw	s0,8(sp)
    1e6e:	4485                	li	s1,1
    1e70:	ed81                	bnez	a1,1e88 <deinitEachSubObj+0x22>
    1e72:	842a                	mv	s0,a0
    1e74:	536020ef          	jal	ra,43aa <arg_getType>
    1e78:	4785                	li	a5,1
    1e7a:	4481                	li	s1,0
    1e7c:	00f51663          	bne	a0,a5,1e88 <deinitEachSubObj+0x22>
    1e80:	8522                	mv	a0,s0
    1e82:	388020ef          	jal	ra,420a <arg_getPtr>
    1e86:	3f7d                	jal	1e44 <obj_deinit>
    1e88:	40b2                	lw	ra,12(sp)
    1e8a:	4422                	lw	s0,8(sp)
    1e8c:	8526                	mv	a0,s1
    1e8e:	4492                	lw	s1,4(sp)
    1e90:	0141                	addi	sp,sp,16
    1e92:	8082                	ret

00001e94 <getNewClassObjFunByName>:
    1e94:	4108                	lw	a0,0(a0)
    1e96:	77a0206f          	j	4610 <args_getPtr>

00001e9a <removeMethodInfo>:
    1e9a:	4110                	lw	a2,0(a0)
    1e9c:	1141                	addi	sp,sp,-16
    1e9e:	000025b7          	lui	a1,0x2
    1ea2:	c422                	sw	s0,8(sp)
    1ea4:	d3458593          	addi	a1,a1,-716 # 1d34 <__foreach_removeMethodInfo>
    1ea8:	842a                	mv	s0,a0
    1eaa:	8532                	mv	a0,a2
    1eac:	c606                	sw	ra,12(sp)
    1eae:	21f020ef          	jal	ra,48cc <args_foreach>
    1eb2:	8522                	mv	a0,s0
    1eb4:	40b2                	lw	ra,12(sp)
    1eb6:	4422                	lw	s0,8(sp)
    1eb8:	0141                	addi	sp,sp,16
    1eba:	8082                	ret

00001ebc <obj_getObj>:
    1ebc:	1101                	addi	sp,sp,-32
    1ebe:	ce06                	sw	ra,28(sp)
    1ec0:	cc22                	sw	s0,24(sp)
    1ec2:	ca26                	sw	s1,20(sp)
    1ec4:	c84a                	sw	s2,16(sp)
    1ec6:	84ae                	mv	s1,a1
    1ec8:	8932                	mv	s2,a2
    1eca:	c64e                	sw	s3,12(sp)
    1ecc:	c452                	sw	s4,8(sp)
    1ece:	842a                	mv	s0,a0
    1ed0:	332030ef          	jal	ra,5202 <New_strBuff>
    1ed4:	85a6                	mv	a1,s1
    1ed6:	89aa                	mv	s3,a0
    1ed8:	4a2030ef          	jal	ra,537a <strsCopy>
    1edc:	8a2a                	mv	s4,a0
    1ede:	02e00593          	li	a1,46
    1ee2:	8526                	mv	a0,s1
    1ee4:	0b8030ef          	jal	ra,4f9c <strGetTokenNum>
    1ee8:	4481                	li	s1,0
    1eea:	41250933          	sub	s2,a0,s2
    1eee:	0124ce63          	blt	s1,s2,1f0a <obj_getObj+0x4e>
    1ef2:	854e                	mv	a0,s3
    1ef4:	52e020ef          	jal	ra,4422 <args_deinit>
    1ef8:	8522                	mv	a0,s0
    1efa:	40f2                	lw	ra,28(sp)
    1efc:	4462                	lw	s0,24(sp)
    1efe:	44d2                	lw	s1,20(sp)
    1f00:	4942                	lw	s2,16(sp)
    1f02:	49b2                	lw	s3,12(sp)
    1f04:	4a22                	lw	s4,8(sp)
    1f06:	6105                	addi	sp,sp,32
    1f08:	8082                	ret
    1f0a:	02e00613          	li	a2,46
    1f0e:	85d2                	mv	a1,s4
    1f10:	854e                	mv	a0,s3
    1f12:	43c030ef          	jal	ra,534e <strsPopToken>
    1f16:	85aa                	mv	a1,a0
    1f18:	8522                	mv	a0,s0
    1f1a:	2e81                	jal	226a <obj_getObjDirect>
    1f1c:	842a                	mv	s0,a0
    1f1e:	d971                	beqz	a0,1ef2 <obj_getObj+0x36>
    1f20:	0485                	addi	s1,s1,1
    1f22:	b7f1                	j	1eee <obj_getObj+0x32>

00001f24 <obj_setInt>:
    1f24:	1101                	addi	sp,sp,-32
    1f26:	c84a                	sw	s2,16(sp)
    1f28:	8932                	mv	s2,a2
    1f2a:	4605                	li	a2,1
    1f2c:	c64e                	sw	s3,12(sp)
    1f2e:	c452                	sw	s4,8(sp)
    1f30:	ce06                	sw	ra,28(sp)
    1f32:	cc22                	sw	s0,24(sp)
    1f34:	ca26                	sw	s1,20(sp)
    1f36:	8a2e                	mv	s4,a1
    1f38:	89b6                	mv	s3,a3
    1f3a:	3749                	jal	1ebc <obj_getObj>
    1f3c:	cd05                	beqz	a0,1f74 <obj_setInt+0x50>
    1f3e:	842a                	mv	s0,a0
    1f40:	2c2030ef          	jal	ra,5202 <New_strBuff>
    1f44:	02e00613          	li	a2,46
    1f48:	85d2                	mv	a1,s4
    1f4a:	84aa                	mv	s1,a0
    1f4c:	336030ef          	jal	ra,5282 <strsGetLastToken>
    1f50:	85aa                	mv	a1,a0
    1f52:	4008                	lw	a0,0(s0)
    1f54:	864a                	mv	a2,s2
    1f56:	86ce                	mv	a3,s3
    1f58:	684020ef          	jal	ra,45dc <args_setInt>
    1f5c:	8526                	mv	a0,s1
    1f5e:	4c4020ef          	jal	ra,4422 <args_deinit>
    1f62:	4501                	li	a0,0
    1f64:	40f2                	lw	ra,28(sp)
    1f66:	4462                	lw	s0,24(sp)
    1f68:	44d2                	lw	s1,20(sp)
    1f6a:	4942                	lw	s2,16(sp)
    1f6c:	49b2                	lw	s3,12(sp)
    1f6e:	4a22                	lw	s4,8(sp)
    1f70:	6105                	addi	sp,sp,32
    1f72:	8082                	ret
    1f74:	4505                	li	a0,1
    1f76:	b7fd                	j	1f64 <obj_setInt+0x40>

00001f78 <obj_setPtr>:
    1f78:	1101                	addi	sp,sp,-32
    1f7a:	c84a                	sw	s2,16(sp)
    1f7c:	8932                	mv	s2,a2
    1f7e:	4605                	li	a2,1
    1f80:	c64e                	sw	s3,12(sp)
    1f82:	ce06                	sw	ra,28(sp)
    1f84:	cc22                	sw	s0,24(sp)
    1f86:	ca26                	sw	s1,20(sp)
    1f88:	89ae                	mv	s3,a1
    1f8a:	3f0d                	jal	1ebc <obj_getObj>
    1f8c:	c915                	beqz	a0,1fc0 <obj_setPtr+0x48>
    1f8e:	842a                	mv	s0,a0
    1f90:	272030ef          	jal	ra,5202 <New_strBuff>
    1f94:	02e00613          	li	a2,46
    1f98:	85ce                	mv	a1,s3
    1f9a:	84aa                	mv	s1,a0
    1f9c:	2e6030ef          	jal	ra,5282 <strsGetLastToken>
    1fa0:	85aa                	mv	a1,a0
    1fa2:	4008                	lw	a0,0(s0)
    1fa4:	864a                	mv	a2,s2
    1fa6:	5dc020ef          	jal	ra,4582 <args_setPtr>
    1faa:	8526                	mv	a0,s1
    1fac:	476020ef          	jal	ra,4422 <args_deinit>
    1fb0:	4501                	li	a0,0
    1fb2:	40f2                	lw	ra,28(sp)
    1fb4:	4462                	lw	s0,24(sp)
    1fb6:	44d2                	lw	s1,20(sp)
    1fb8:	4942                	lw	s2,16(sp)
    1fba:	49b2                	lw	s3,12(sp)
    1fbc:	6105                	addi	sp,sp,32
    1fbe:	8082                	ret
    1fc0:	4505                	li	a0,1
    1fc2:	bfc5                	j	1fb2 <obj_setPtr+0x3a>

00001fc4 <obj_getClassObjByNewFun>:
    1fc4:	1101                	addi	sp,sp,-32
    1fc6:	4501                	li	a0,0
    1fc8:	ce06                	sw	ra,28(sp)
    1fca:	cc22                	sw	s0,24(sp)
    1fcc:	ca26                	sw	s1,20(sp)
    1fce:	c632                	sw	a2,12(sp)
    1fd0:	147020ef          	jal	ra,4916 <New_args>
    1fd4:	4632                	lw	a2,12(sp)
    1fd6:	84aa                	mv	s1,a0
    1fd8:	9602                	jalr	a2
    1fda:	4632                	lw	a2,12(sp)
    1fdc:	0000e5b7          	lui	a1,0xe
    1fe0:	ae858593          	addi	a1,a1,-1304 # dae8 <a.3933+0x328>
    1fe4:	842a                	mv	s0,a0
    1fe6:	3f49                	jal	1f78 <obj_setPtr>
    1fe8:	8526                	mv	a0,s1
    1fea:	438020ef          	jal	ra,4422 <args_deinit>
    1fee:	8522                	mv	a0,s0
    1ff0:	40f2                	lw	ra,28(sp)
    1ff2:	4462                	lw	s0,24(sp)
    1ff4:	44d2                	lw	s1,20(sp)
    1ff6:	6105                	addi	sp,sp,32
    1ff8:	8082                	ret

00001ffa <newRootObj>:
    1ffa:	1141                	addi	sp,sp,-16
    1ffc:	862e                	mv	a2,a1
    1ffe:	85aa                	mv	a1,a0
    2000:	4501                	li	a0,0
    2002:	c606                	sw	ra,12(sp)
    2004:	37c1                	jal	1fc4 <obj_getClassObjByNewFun>
    2006:	40b2                	lw	ra,12(sp)
    2008:	0141                	addi	sp,sp,16
    200a:	bd41                	j	1e9a <removeMethodInfo>

0000200c <obj_setStr>:
    200c:	1101                	addi	sp,sp,-32
    200e:	c84a                	sw	s2,16(sp)
    2010:	8932                	mv	s2,a2
    2012:	4605                	li	a2,1
    2014:	c64e                	sw	s3,12(sp)
    2016:	ce06                	sw	ra,28(sp)
    2018:	cc22                	sw	s0,24(sp)
    201a:	ca26                	sw	s1,20(sp)
    201c:	89ae                	mv	s3,a1
    201e:	3d79                	jal	1ebc <obj_getObj>
    2020:	c915                	beqz	a0,2054 <obj_setStr+0x48>
    2022:	842a                	mv	s0,a0
    2024:	1de030ef          	jal	ra,5202 <New_strBuff>
    2028:	02e00613          	li	a2,46
    202c:	85ce                	mv	a1,s3
    202e:	84aa                	mv	s1,a0
    2030:	252030ef          	jal	ra,5282 <strsGetLastToken>
    2034:	85aa                	mv	a1,a0
    2036:	4008                	lw	a0,0(s0)
    2038:	864a                	mv	a2,s2
    203a:	576020ef          	jal	ra,45b0 <args_setStr>
    203e:	8526                	mv	a0,s1
    2040:	3e2020ef          	jal	ra,4422 <args_deinit>
    2044:	4501                	li	a0,0
    2046:	40f2                	lw	ra,28(sp)
    2048:	4462                	lw	s0,24(sp)
    204a:	44d2                	lw	s1,20(sp)
    204c:	4942                	lw	s2,16(sp)
    204e:	49b2                	lw	s3,12(sp)
    2050:	6105                	addi	sp,sp,32
    2052:	8082                	ret
    2054:	4505                	li	a0,1
    2056:	bfc5                	j	2046 <obj_setStr+0x3a>

00002058 <obj_getInt>:
    2058:	1141                	addi	sp,sp,-16
    205a:	4605                	li	a2,1
    205c:	c04a                	sw	s2,0(sp)
    205e:	c606                	sw	ra,12(sp)
    2060:	c422                	sw	s0,8(sp)
    2062:	c226                	sw	s1,4(sp)
    2064:	892e                	mv	s2,a1
    2066:	3d99                	jal	1ebc <obj_getObj>
    2068:	c91d                	beqz	a0,209e <obj_getInt+0x46>
    206a:	842a                	mv	s0,a0
    206c:	196030ef          	jal	ra,5202 <New_strBuff>
    2070:	02e00613          	li	a2,46
    2074:	85ca                	mv	a1,s2
    2076:	84aa                	mv	s1,a0
    2078:	20a030ef          	jal	ra,5282 <strsGetLastToken>
    207c:	85aa                	mv	a1,a0
    207e:	4008                	lw	a0,0(s0)
    2080:	5d8020ef          	jal	ra,4658 <args_getInt>
    2084:	842a                	mv	s0,a0
    2086:	8526                	mv	a0,s1
    2088:	39a020ef          	jal	ra,4422 <args_deinit>
    208c:	8522                	mv	a0,s0
    208e:	41f45593          	srai	a1,s0,0x1f
    2092:	40b2                	lw	ra,12(sp)
    2094:	4422                	lw	s0,8(sp)
    2096:	4492                	lw	s1,4(sp)
    2098:	4902                	lw	s2,0(sp)
    209a:	0141                	addi	sp,sp,16
    209c:	8082                	ret
    209e:	c4653537          	lui	a0,0xc4653
    20a2:	60150513          	addi	a0,a0,1537 # c4653601 <_eusrstack+0xa464e601>
    20a6:	55fd                	li	a1,-1
    20a8:	b7ed                	j	2092 <obj_getInt+0x3a>

000020aa <obj_getArg>:
    20aa:	1141                	addi	sp,sp,-16
    20ac:	4605                	li	a2,1
    20ae:	c422                	sw	s0,8(sp)
    20b0:	c04a                	sw	s2,0(sp)
    20b2:	c606                	sw	ra,12(sp)
    20b4:	c226                	sw	s1,4(sp)
    20b6:	892e                	mv	s2,a1
    20b8:	3511                	jal	1ebc <obj_getObj>
    20ba:	4401                	li	s0,0
    20bc:	c115                	beqz	a0,20e0 <obj_getArg+0x36>
    20be:	842a                	mv	s0,a0
    20c0:	142030ef          	jal	ra,5202 <New_strBuff>
    20c4:	02e00613          	li	a2,46
    20c8:	85ca                	mv	a1,s2
    20ca:	84aa                	mv	s1,a0
    20cc:	1b6030ef          	jal	ra,5282 <strsGetLastToken>
    20d0:	85aa                	mv	a1,a0
    20d2:	4008                	lw	a0,0(s0)
    20d4:	538020ef          	jal	ra,460c <args_getArg>
    20d8:	842a                	mv	s0,a0
    20da:	8526                	mv	a0,s1
    20dc:	346020ef          	jal	ra,4422 <args_deinit>
    20e0:	8522                	mv	a0,s0
    20e2:	40b2                	lw	ra,12(sp)
    20e4:	4422                	lw	s0,8(sp)
    20e6:	4492                	lw	s1,4(sp)
    20e8:	4902                	lw	s2,0(sp)
    20ea:	0141                	addi	sp,sp,16
    20ec:	8082                	ret

000020ee <obj_setArg>:
    20ee:	7179                	addi	sp,sp,-48
    20f0:	d04a                	sw	s2,32(sp)
    20f2:	8932                	mv	s2,a2
    20f4:	4605                	li	a2,1
    20f6:	ce4e                	sw	s3,28(sp)
    20f8:	d606                	sw	ra,44(sp)
    20fa:	d422                	sw	s0,40(sp)
    20fc:	d226                	sw	s1,36(sp)
    20fe:	89ae                	mv	s3,a1
    2100:	dbdff0ef          	jal	ra,1ebc <obj_getObj>
    2104:	c129                	beqz	a0,2146 <obj_setArg+0x58>
    2106:	842a                	mv	s0,a0
    2108:	0fa030ef          	jal	ra,5202 <New_strBuff>
    210c:	02e00613          	li	a2,46
    2110:	85ce                	mv	a1,s3
    2112:	84aa                	mv	s1,a0
    2114:	16e030ef          	jal	ra,5282 <strsGetLastToken>
    2118:	c62a                	sw	a0,12(sp)
    211a:	854a                	mv	a0,s2
    211c:	2ac020ef          	jal	ra,43c8 <arg_copy>
    2120:	45b2                	lw	a1,12(sp)
    2122:	274020ef          	jal	ra,4396 <arg_setName>
    2126:	c62a                	sw	a0,12(sp)
    2128:	8526                	mv	a0,s1
    212a:	2f8020ef          	jal	ra,4422 <args_deinit>
    212e:	45b2                	lw	a1,12(sp)
    2130:	4008                	lw	a0,0(s0)
    2132:	41a020ef          	jal	ra,454c <args_setArg>
    2136:	4501                	li	a0,0
    2138:	50b2                	lw	ra,44(sp)
    213a:	5422                	lw	s0,40(sp)
    213c:	5492                	lw	s1,36(sp)
    213e:	5902                	lw	s2,32(sp)
    2140:	49f2                	lw	s3,28(sp)
    2142:	6145                	addi	sp,sp,48
    2144:	8082                	ret
    2146:	4505                	li	a0,1
    2148:	bfc5                	j	2138 <obj_setArg+0x4a>

0000214a <obj_getPtr>:
    214a:	1141                	addi	sp,sp,-16
    214c:	4605                	li	a2,1
    214e:	c422                	sw	s0,8(sp)
    2150:	c04a                	sw	s2,0(sp)
    2152:	c606                	sw	ra,12(sp)
    2154:	c226                	sw	s1,4(sp)
    2156:	892e                	mv	s2,a1
    2158:	d65ff0ef          	jal	ra,1ebc <obj_getObj>
    215c:	4401                	li	s0,0
    215e:	c115                	beqz	a0,2182 <obj_getPtr+0x38>
    2160:	842a                	mv	s0,a0
    2162:	0a0030ef          	jal	ra,5202 <New_strBuff>
    2166:	02e00613          	li	a2,46
    216a:	85ca                	mv	a1,s2
    216c:	84aa                	mv	s1,a0
    216e:	114030ef          	jal	ra,5282 <strsGetLastToken>
    2172:	85aa                	mv	a1,a0
    2174:	4008                	lw	a0,0(s0)
    2176:	49a020ef          	jal	ra,4610 <args_getPtr>
    217a:	842a                	mv	s0,a0
    217c:	8526                	mv	a0,s1
    217e:	2a4020ef          	jal	ra,4422 <args_deinit>
    2182:	8522                	mv	a0,s0
    2184:	40b2                	lw	ra,12(sp)
    2186:	4422                	lw	s0,8(sp)
    2188:	4492                	lw	s1,4(sp)
    218a:	4902                	lw	s2,0(sp)
    218c:	0141                	addi	sp,sp,16
    218e:	8082                	ret

00002190 <obj_getClassObj>:
    2190:	0000e5b7          	lui	a1,0xe
    2194:	1141                	addi	sp,sp,-16
    2196:	ae858593          	addi	a1,a1,-1304 # dae8 <a.3933+0x328>
    219a:	c422                	sw	s0,8(sp)
    219c:	c606                	sw	ra,12(sp)
    219e:	842a                	mv	s0,a0
    21a0:	376d                	jal	214a <obj_getPtr>
    21a2:	862a                	mv	a2,a0
    21a4:	8522                	mv	a0,s0
    21a6:	4422                	lw	s0,8(sp)
    21a8:	40b2                	lw	ra,12(sp)
    21aa:	0000e5b7          	lui	a1,0xe
    21ae:	d1458593          	addi	a1,a1,-748 # dd14 <str100p+0x20c>
    21b2:	0141                	addi	sp,sp,16
    21b4:	e11ff06f          	j	1fc4 <obj_getClassObjByNewFun>

000021b8 <obj_getMethod>:
    21b8:	1101                	addi	sp,sp,-32
    21ba:	ce06                	sw	ra,28(sp)
    21bc:	cc22                	sw	s0,24(sp)
    21be:	ca26                	sw	s1,20(sp)
    21c0:	c84a                	sw	s2,16(sp)
    21c2:	84aa                	mv	s1,a0
    21c4:	c62e                	sw	a1,12(sp)
    21c6:	03c030ef          	jal	ra,5202 <New_strBuff>
    21ca:	45b2                	lw	a1,12(sp)
    21cc:	02e00613          	li	a2,46
    21d0:	892a                	mv	s2,a0
    21d2:	0b0030ef          	jal	ra,5282 <strsGetLastToken>
    21d6:	842a                	mv	s0,a0
    21d8:	85aa                	mv	a1,a0
    21da:	8526                	mv	a0,s1
    21dc:	35f9                	jal	20aa <obj_getArg>
    21de:	cd11                	beqz	a0,21fa <obj_getMethod+0x42>
    21e0:	1e8020ef          	jal	ra,43c8 <arg_copy>
    21e4:	842a                	mv	s0,a0
    21e6:	854a                	mv	a0,s2
    21e8:	23a020ef          	jal	ra,4422 <args_deinit>
    21ec:	8522                	mv	a0,s0
    21ee:	40f2                	lw	ra,28(sp)
    21f0:	4462                	lw	s0,24(sp)
    21f2:	44d2                	lw	s1,20(sp)
    21f4:	4942                	lw	s2,16(sp)
    21f6:	6105                	addi	sp,sp,32
    21f8:	8082                	ret
    21fa:	8526                	mv	a0,s1
    21fc:	3f51                	jal	2190 <obj_getClassObj>
    21fe:	85a2                	mv	a1,s0
    2200:	84aa                	mv	s1,a0
    2202:	3565                	jal	20aa <obj_getArg>
    2204:	1c4020ef          	jal	ra,43c8 <arg_copy>
    2208:	842a                	mv	s0,a0
    220a:	8526                	mv	a0,s1
    220c:	c39ff0ef          	jal	ra,1e44 <obj_deinit>
    2210:	bfd9                	j	21e6 <obj_getMethod+0x2e>

00002212 <initObj>:
    2212:	1101                	addi	sp,sp,-32
    2214:	ce06                	sw	ra,28(sp)
    2216:	cc22                	sw	s0,24(sp)
    2218:	ca26                	sw	s1,20(sp)
    221a:	c84a                	sw	s2,16(sp)
    221c:	84ae                	mv	s1,a1
    221e:	842a                	mv	s0,a0
    2220:	c75ff0ef          	jal	ra,1e94 <getNewClassObjFunByName>
    2224:	c62a                	sw	a0,12(sp)
    2226:	4501                	li	a0,0
    2228:	6ee020ef          	jal	ra,4916 <New_args>
    222c:	4632                	lw	a2,12(sp)
    222e:	892a                	mv	s2,a0
    2230:	ca1d                	beqz	a2,2266 <initObj+0x54>
    2232:	85a6                	mv	a1,s1
    2234:	8522                	mv	a0,s0
    2236:	d8fff0ef          	jal	ra,1fc4 <obj_getClassObjByNewFun>
    223a:	c61ff0ef          	jal	ra,1e9a <removeMethodInfo>
    223e:	86aa                	mv	a3,a0
    2240:	4008                	lw	a0,0(s0)
    2242:	4605                	li	a2,1
    2244:	85a6                	mv	a1,s1
    2246:	656020ef          	jal	ra,489c <args_setPtrWithType>
    224a:	8522                	mv	a0,s0
    224c:	85a6                	mv	a1,s1
    224e:	3df5                	jal	214a <obj_getPtr>
    2250:	842a                	mv	s0,a0
    2252:	854a                	mv	a0,s2
    2254:	1ce020ef          	jal	ra,4422 <args_deinit>
    2258:	8522                	mv	a0,s0
    225a:	40f2                	lw	ra,28(sp)
    225c:	4462                	lw	s0,24(sp)
    225e:	44d2                	lw	s1,20(sp)
    2260:	4942                	lw	s2,16(sp)
    2262:	6105                	addi	sp,sp,32
    2264:	8082                	ret
    2266:	4401                	li	s0,0
    2268:	b7ed                	j	2252 <initObj+0x40>

0000226a <obj_getObjDirect>:
    226a:	c521                	beqz	a0,22b2 <obj_getObjDirect+0x48>
    226c:	1141                	addi	sp,sp,-16
    226e:	c422                	sw	s0,8(sp)
    2270:	842a                	mv	s0,a0
    2272:	4108                	lw	a0,0(a0)
    2274:	c226                	sw	s1,4(sp)
    2276:	c606                	sw	ra,12(sp)
    2278:	84ae                	mv	s1,a1
    227a:	400020ef          	jal	ra,467a <args_getType>
    227e:	4799                	li	a5,6
    2280:	00f51963          	bne	a0,a5,2292 <obj_getObjDirect+0x28>
    2284:	8522                	mv	a0,s0
    2286:	4422                	lw	s0,8(sp)
    2288:	40b2                	lw	ra,12(sp)
    228a:	85a6                	mv	a1,s1
    228c:	4492                	lw	s1,4(sp)
    228e:	0141                	addi	sp,sp,16
    2290:	b749                	j	2212 <initObj>
    2292:	4785                	li	a5,1
    2294:	00f51963          	bne	a0,a5,22a6 <obj_getObjDirect+0x3c>
    2298:	8522                	mv	a0,s0
    229a:	4422                	lw	s0,8(sp)
    229c:	40b2                	lw	ra,12(sp)
    229e:	85a6                	mv	a1,s1
    22a0:	4492                	lw	s1,4(sp)
    22a2:	0141                	addi	sp,sp,16
    22a4:	b55d                	j	214a <obj_getPtr>
    22a6:	40b2                	lw	ra,12(sp)
    22a8:	4422                	lw	s0,8(sp)
    22aa:	4492                	lw	s1,4(sp)
    22ac:	4501                	li	a0,0
    22ae:	0141                	addi	sp,sp,16
    22b0:	8082                	ret
    22b2:	4501                	li	a0,0
    22b4:	8082                	ret

000022b6 <obj_getStr>:
    22b6:	1141                	addi	sp,sp,-16
    22b8:	4605                	li	a2,1
    22ba:	c422                	sw	s0,8(sp)
    22bc:	c04a                	sw	s2,0(sp)
    22be:	c606                	sw	ra,12(sp)
    22c0:	c226                	sw	s1,4(sp)
    22c2:	892e                	mv	s2,a1
    22c4:	bf9ff0ef          	jal	ra,1ebc <obj_getObj>
    22c8:	4401                	li	s0,0
    22ca:	c115                	beqz	a0,22ee <obj_getStr+0x38>
    22cc:	842a                	mv	s0,a0
    22ce:	735020ef          	jal	ra,5202 <New_strBuff>
    22d2:	02e00613          	li	a2,46
    22d6:	85ca                	mv	a1,s2
    22d8:	84aa                	mv	s1,a0
    22da:	7a9020ef          	jal	ra,5282 <strsGetLastToken>
    22de:	85aa                	mv	a1,a0
    22e0:	4008                	lw	a0,0(s0)
    22e2:	346020ef          	jal	ra,4628 <args_getStr>
    22e6:	842a                	mv	s0,a0
    22e8:	8526                	mv	a0,s1
    22ea:	138020ef          	jal	ra,4422 <args_deinit>
    22ee:	8522                	mv	a0,s0
    22f0:	40b2                	lw	ra,12(sp)
    22f2:	4422                	lw	s0,8(sp)
    22f4:	4492                	lw	s1,4(sp)
    22f6:	4902                	lw	s2,0(sp)
    22f8:	0141                	addi	sp,sp,16
    22fa:	8082                	ret

000022fc <methodArg_getPtr>:
    22fc:	1101                	addi	sp,sp,-32
    22fe:	ce06                	sw	ra,28(sp)
    2300:	603010ef          	jal	ra,4102 <arg_getContent>
    2304:	85aa                	mv	a1,a0
    2306:	4611                	li	a2,4
    2308:	0068                	addi	a0,sp,12
    230a:	1bb060ef          	jal	ra,8cc4 <memcpy>
    230e:	40f2                	lw	ra,28(sp)
    2310:	4532                	lw	a0,12(sp)
    2312:	6105                	addi	sp,sp,32
    2314:	8082                	ret

00002316 <methodArg_getDec>:
    2316:	1141                	addi	sp,sp,-16
    2318:	c606                	sw	ra,12(sp)
    231a:	5e9010ef          	jal	ra,4102 <arg_getContent>
    231e:	40b2                	lw	ra,12(sp)
    2320:	0511                	addi	a0,a0,4
    2322:	0141                	addi	sp,sp,16
    2324:	8082                	ret

00002326 <obj_saveMethodInfo>:
    2326:	7139                	addi	sp,sp,-64
    2328:	de06                	sw	ra,60(sp)
    232a:	dc22                	sw	s0,56(sp)
    232c:	da26                	sw	s1,52(sp)
    232e:	d84a                	sw	s2,48(sp)
    2330:	d64e                	sw	s3,44(sp)
    2332:	d452                	sw	s4,40(sp)
    2334:	d256                	sw	s5,36(sp)
    2336:	d05a                	sw	s6,32(sp)
    2338:	ce5e                	sw	s7,28(sp)
    233a:	c636                	sw	a3,12(sp)
    233c:	89ae                	mv	s3,a1
    233e:	8b2a                	mv	s6,a0
    2340:	c432                	sw	a2,8(sp)
    2342:	6c1020ef          	jal	ra,5202 <New_strBuff>
    2346:	45a2                	lw	a1,8(sp)
    2348:	864e                	mv	a2,s3
    234a:	842a                	mv	s0,a0
    234c:	6bd020ef          	jal	ra,5208 <strsRemovePrefix>
    2350:	8a2a                	mv	s4,a0
    2352:	4501                	li	a0,0
    2354:	070020ef          	jal	ra,43c4 <New_arg>
    2358:	8baa                	mv	s7,a0
    235a:	8552                	mv	a0,s4
    235c:	451020ef          	jal	ra,4fac <strGetSize>
    2360:	00550913          	addi	s2,a0,5
    2364:	8aaa                	mv	s5,a0
    2366:	85ca                	mv	a1,s2
    2368:	8522                	mv	a0,s0
    236a:	0ba020ef          	jal	ra,4424 <args_getBuff>
    236e:	006c                	addi	a1,sp,12
    2370:	4611                	li	a2,4
    2372:	84aa                	mv	s1,a0
    2374:	151060ef          	jal	ra,8cc4 <memcpy>
    2378:	001a8613          	addi	a2,s5,1
    237c:	85d2                	mv	a1,s4
    237e:	00448513          	addi	a0,s1,4
    2382:	143060ef          	jal	ra,8cc4 <memcpy>
    2386:	85ce                	mv	a1,s3
    2388:	855e                	mv	a0,s7
    238a:	00c020ef          	jal	ra,4396 <arg_setName>
    238e:	4591                	li	a1,4
    2390:	56f010ef          	jal	ra,40fe <arg_setType>
    2394:	864a                	mv	a2,s2
    2396:	85a6                	mv	a1,s1
    2398:	72b010ef          	jal	ra,42c2 <arg_setContent>
    239c:	85aa                	mv	a1,a0
    239e:	000b2503          	lw	a0,0(s6)
    23a2:	1aa020ef          	jal	ra,454c <args_setArg>
    23a6:	8522                	mv	a0,s0
    23a8:	07a020ef          	jal	ra,4422 <args_deinit>
    23ac:	50f2                	lw	ra,60(sp)
    23ae:	5462                	lw	s0,56(sp)
    23b0:	54d2                	lw	s1,52(sp)
    23b2:	5942                	lw	s2,48(sp)
    23b4:	59b2                	lw	s3,44(sp)
    23b6:	5a22                	lw	s4,40(sp)
    23b8:	5a92                	lw	s5,36(sp)
    23ba:	5b02                	lw	s6,32(sp)
    23bc:	4bf2                	lw	s7,28(sp)
    23be:	6121                	addi	sp,sp,64
    23c0:	8082                	ret

000023c2 <class_defineMethod>:
    23c2:	1101                	addi	sp,sp,-32
    23c4:	c256                	sw	s5,4(sp)
    23c6:	8aaa                	mv	s5,a0
    23c8:	852e                	mv	a0,a1
    23ca:	ce06                	sw	ra,28(sp)
    23cc:	cc22                	sw	s0,24(sp)
    23ce:	ca26                	sw	s1,20(sp)
    23d0:	c84a                	sw	s2,16(sp)
