:100000006F102047130000001300000013000000D1
:100010001300000013000000130000001300000094
:100020001300000013000000130000001300000084
:08003000130000007300100032
:100038006FF09FFC000000006F10A00F6F10E0141D
:1000480000000000000000000000000000000000A8
:100058000000000000000000000000000000000098
:100068006F100000000000006F00001D000000007D
:100078006FF09FF86FF05FF86FF01FF86FF0DFF721
:100088006FF09FF76FF05FF76FF01FF76FF0DFF615
:100098006FF09FF66FF05FF66FF01FF66FF0DFF509
:1000A8006FF09FF56FF05FF56FF01FF56FF0DFF4FD
:1000B8006FF09FF46FF05FF46FF01FF40000000022
:1000C8000000000000000000000000006FF0DFF2F8
:1000D8006FF09FF26FF05FF26FF01FF26FF0DFF1D9
:1000E8006FF09FF16FF05FF16FF01FF16FF0DFF0CD
:1000F8006FF09FF06FF05FF06FF01FF06FF0DFEFC1
:100108006FF09FEF6FF05FEF6FF01FEF6FF0DFEEB4
:100118006FF09FEE6FF05FEE6FF01FEE6FF0DFEDA8
:1001280000000000000000000000000000000000C7
:080138000000000000000000BF
:1001400073750430828073100530828097520020CE
:10015000938242EB73900234032105002245731011
:100160000530A1A819712320250006C006C27325F9
:100170000030218919C1130500082AC412C816CA03
:100180001ACC1ECE22D026D22AD42ED632D836DA97
:100190003ADC3EDEC2C0C6C2CAC4CEC6D2C8D6CAC7
:1001A000DACCDECEE2D0E6D2EAD4EED6F2D8F6DA77
:1001B000FADCFEDE03A1050009A002457310153428
:1001C0009240B72200009382028073A00230224541
:1001D000732005304242D2426243F24302549254A9
:1001E0002255B2554256D2566257F25706489648A3
:1001F0002649B649464AD64A664BF64B065C965C9B
:10020000265DB65D465ED65E665FF65F0961730089
:10021000203000000000000000000000000000008E
:1002200000000000000000000000000000000000CE
:1002300000000000000000000000000000000000BE
:10024000197106C29302000816C412C816CA1ACC45
:100250001ECE22D026D22AD42ED632D836DA3ADC96
:100260003EDEC2C0C6C2CAC4CEC6D2C8D6CADACC66
:10027000DECEE2D0E6D2EAD4EED6F2D8F6DAFADC76
:10028000FEDE731101349129B52173110134170475
:1002900000201304E4FA0329040063080902232060
:1002A0000400732510342AC0170400201304C4F876
:1002B000044023A0240017040020130424F8044061
:1002C00003A104000245731015349240B7220000C8
:1002D0009382028073A00230A24273A00230424295
:1002E000D2426243F243025492542255B2554256CE
:1002F000D2566257F257064896482649B649464AAA
:10030000D64A664BF64B065C965C265DB65D465E4D
:10031000D65E665FF65F0961730020300000000062
:1003200000000000000000000000000000000000CD
:100330000000000000003D432A876373C3029377E7
:10034000F700BDEFADE5937606FF3D8ABA960CC384
:100350004CC30CC74CC74107E36BD7FE11E2828048
:10036000B306C3408A069702000096966780A600EF
:100370002307B700A306B7002306B700A305B700FD
:100380002305B700A304B7002304B700A303B700F5
:100390002303B700A302B7002302B700A301B700ED
:1003A0002301B700A300B7002300B700828093F5B4
:1003B000F50F93968500D58D93960501D58D61B780
:1003C000939627009702000096968682E78086FA29
:1003D0009680C1171D8F3E96E374C3F8A5B73367A7
:1003E000B500FD530D8B79E7B7877F7F9387F7F7CC
:1003F00010419441B372F6003363F600BE92B3E24B
:1004000062006397720C6318D6065041D441B372F0
:10041000F6003363F600BE92B3E262006398720A9C
:10042000631BD60410459445B372F6003363F6009F
:10043000BE92B3E262006391720A631ED602504517
:10044000D445B372F6003363F600BE92B3E26200A5
:10045000639A72086311D60210499449B372F60088
:100460003363F600BE92B3E26200639372085105F3
:10047000D105E30FD6F61317060193970601631C07
:10048000F7001357060193D706013305F74093751C
:10049000F50F91E982804183C1833305F74093755D
:1004A000F50F91E182801377F70F93F7F70F33057C
:1004B000F74082800346050083C6050005058505D3
:1004C0006313D60065FA3305D64082801105910585
:1004D000E312D6FE014582802105A105E31CD6FC6E
:1004E000014582803105B105E316D6FC01458280C5
:1004F0004105C105E310D6FC01458280B707002005
:1005000003A507228280B70700209387072298431C
:10051000411106C6050798C3EF00E0693C41FD178D
:100520003CC189E75C5D3CC1EF004069B2404101DC
:100530006F0030180145828001458280014582802C
:1005400001458280411122C426C23964B96406C6BD
:10055000130404659384446563679400B2402244A5
:100560009244410182801C4011048297F5B74111E9
:1005700022C426C23964B96406C613044465938450
:10058000846563679400B2402244924441018280B2
:100590001C4011048297F5B7411106C6C93FB2400D
:1005A00041016F00B043411122C485673707002025
:1005B00037060000B7D500001385812CD1481548B7
:1005C000938707801307072681461306865993856C
:1005D000052706C691231385812C2244B240410190
:1005E0006F008071411106C6A13EEF00901BD12A19
:1005F000EF007014E524453FEF00D0145D20092E74
:10060000B240014541018280411106C6E13FB2403E
:10061000014541018280011126CA4EC656C206CE4E
:1006200022CC4AC852C49389013D854A83A7013D23
:10063000639B3701F2406244D2444249B249224AA4
:10064000924A05618280ED3C83A7013D2A8A638935
:10065000370303A4013D5C4018401309C4FE5CC38A
:1006600098C340C000C0C12E7C4C99C34A85829774
:100670004A858D24631F55014A85052CF12E52852C
:100680006244F240D2444249B249224A924A056148
:100690005DBCD9265285453C51BF411106C6A53FD8
:1006A000FDBF411122C437060000B7D500001385F5
:1006B0000105930800023D48930700101387810C41
:1006C00081461306A6699385852706C6B121138541
:1006D00001052244B240410105A5411106C68D34F1
:1006E00083C70134B240850793F7F70F2380F134B5
:1006F000410191BC411106C6A13483C70134B24007
:10070000FD1793F7F70F2380F13441012DBC0D47FE
:10071000AA876376C7009377350091C7AA873E966C
:100720006397C706828093F7F50F13978700D98FD9
:10073000139707015D8FB308C500AA87BD463388AC
:10074000F84063EB060393574600C156B386D702C1
:100750009207AA970D4836963383C700BE86B30822
:10076000D3406362180313572600F156B306D7022D
:100770000A07BA97369665B798C3D8C398C7C10712
:1007800023AEE7FE6DBF910623AEE6FEC9BF850727
:10079000A38FB7FE71B70DC6AA8785050387F5FF3E
:1007A00085079306F6FFA38FE7FE09EB3E968507C4
:1007B0006393C7008280A38F07FED5BF3686F1FE04
:1007C0008280828031C9B5661377F50F938606283B
:1007D00011C7BA9603C5060005058280C1679387D5
:1007E00007F0E98F89CB21851377F50F36970345FD
:1007F000070025058280B707FF00E98F89CB418577
:100800009377F50FB69703C5070045058280618190
:1008100036950345050065058280011122CC370419
:100820000020832704004AC84EC656C206CE26CAF8
:1008300052C42A89AE89B28A13040400638AF5007F
:100840001C4885446387F500FD2283274000029001
:1008500081449204330A9400F92A83274A009104C0
:1008600026946312F404CD2A93E909F8230439018C
:10087000D68521464A850537EFF09F8C03274A002D
:100880009307C900F2405CC32326E9002322FA0043
:10089000232889006244D2444249B249224A924AFA
:1008A00005616FF05F8A9C436DBF411122C406C68B
:1008B000230405002A84EFF0BF88544418489307A6
:1008C000C400B240D8C214C31CC85CC42244410155
:1008D0006FF07F87030585007D818280B707002048
:1008E000239207229387413413870708DCC39CC3F4
:1008F000A107E39DE7FE3D472382E13C23A4013CA1
:1009000023A6013C9387013DDCC323A8F13C8280F0
:1009100003A5C13C411106C675357D159387413449
:100920000E053E950841B2401307C5FE23A4E13CE5
:10093000210541016FF09F81411122C406C6EFF0ED
:100940003F80B7070020839747222A849DEF03A5A5
:10095000C13C8D3D9306F5FF1387413493973600D4
:10096000BA978C4303A5813C1387C5FE630FE5004E
:1009700023A4E13C83C701342382D13C93F7F70FD2
:100980007105A10589EBEFF0EFFD22852244B2400D
:1009900041016FF04FFBDD23B7E700E0116723A0B3
:1009A000E720E5B7411122C406C62A84EFF04FF9CB
:1009B000834744030347540393064401C19B93E7D1
:1009C0001700230AF4020E0793874134BA97D843DD
:1009D000B24014C318CCD4C35CC883A6C13C1C5C11
:1009E0002244D58F23A6F13C41016FF0CFF5411190
:1009F00022C406C62A84EFF0AFF4184C544893077B
:100A00004401D8C214C35CC81CCC83475403138769
:100A100041348E07BA979843631AF7001C5C83A68B
:100A2000C13C93C7F7FFF58F23A6F13C2244B240A7
:100A300041016FF04FF1411106C6EFF06FF0B707BB
:100A400000209387472203D70700B2400507239071
:100A5000E70041016FF02FEF411106C6EFF04FEEB6
:100A6000370700201307472283570700FD17C207E7
:100A7000C1872310F700634CF00023100700EFF04C
:100A80008FEC83A7813C81CBB240410175B5B24068
:100A900041016FF04FEBB24041018280411122C40D
:100AA00003A4813C06C626C2EFF08FE9AA84228502
:100AB0003D3F9147230AF402130544046D2C22851F
:100AC000113D8547631EF5003C5899EB2285F13BAB
:100AD0002685EFF04FE72244B24092444101A9BD80
:100AE00083A6013D1307440123A8E13CD8C29387A4
:100AF000013D54C81CCCE9BF5049144D41117957F0
:100B000006C618D954C21307450190C218CD58C95A
:100B1000513DB24041010DB5797126D2B2842E8685
:100B2000854506D622D442C82A8446C636CE3ACC5B
:100B30003ECAE5316247D247F2461306440118D453
:100B400010CC50C804D054D05CD43E863A8593056E
:100B50003002753E5C5410544C500850F117B716D3
:100B600000003E969386C6A9F92E4248B248371631
:100B7000000048CC230B040313054404A30A040318
:100B8000232C0402232E14032320140523280402FB
:100B9000230A040223280406232A0406A286A28527
:100BA00081470147130686AF7922B25022549254EE
:100BB00001454561828003A5813C8280411106C6C2
:100BC000EFF00FD883A7813C0546AA8603C74703E9
:100BD0003D8B631DC702D04B984F6309E60258C294
:100BE00010C303C65703938647010E06138741348B
:100BF00094CF3297504314C290CF54C3D8CBEFF068
:100C00008FD41D3BB2400145410182803685EFF013
:100C10008FD3CDBF834745030547BD8B639FE70255
:100C2000411106C622C426C22A84EFF06FD1834741
:100C30004403AA842285C19B93E72700230AF40278
:100C40007D3313054404CD2A2685EFF0CFCFB24083
:100C5000224492440145410182807D5582800111E8
:100C600006CE22CC26CA4AC82AC6EFF06FCD03A40E
:100C7000813C2A892285793F930444047000814590
:100C80002685CD2A2685292A4A85EFF0CFCB6D31DE
:100C90001858F9576314F70023280402F2406244FD
:100CA000D244424901450561828055BF83474503CF
:100CB0000947BD8B6390E704411106C622C426C2D2
:100CC0002A84EFF0EFC75448184C93074401AA84D4
:100CD000D8C214C31CCC5CC813054404B12A2685B1
:100CE000EFF06FC622857D39B2402244924401451F
:100CF000410182807D558280411106C6834665038D
:100D000005473317D70018DD0947A30AD502230A80
:100D1000E502693F83A7813C91C33939B24001455F
:100D2000410182805449184D93074501D8C214C32C
:100D30001CCD5CC98280011126CAB2842E86A945C9
:100D400022CC06CE2A8436C63AC43EC2F934924733
:100D5000B2462247F99BA304F4009307440144CC14
:100D600014D02324040258D01CCC5CC8F240624446
:100D7000D24405618280411106C622C426C22A845B
:100D8000EFF00FBCAA842285713F2685EFF0AFBB40
:100D90002285213EB2402244924401454101828095
:100DA000411106C622C426C22A84EFF06FB9AA8474
:100DB00022858D3F834794002685F99BA304F40088
:100DC000EFF06FB8EFF08FF35C503E9508D4EFF082
:100DD0002FB7B70700201387C7220328470037061D
:100DE00000809387C7221346E6FF9843631DF802ED
:100DF000B7060020938686229042050690C293068D
:100E0000440154C358C894C31CCC8347940093E74F
:100E10001700A304F400EFF00FB3B2402244924451
:100E2000014541018280544B0C546385B6008D8E80
:100E3000E370D6FCBA8755BF83479500858B8DCB71
:100E4000411106C622C426C22A84EFF06FAFAA84DD
:100E50002285C93D2685EFF00FAF834794000145F9
:100E6000F99BA304F400B2402244924441018280E1
:100E70007D55828085476382F50263C5B7008DC1C9
:100E80000145828089476380F5028D47E39AF5FE2C
:100E90008347950093E7270011A85C511CC2CDB78A
:100EA0001C425CD1F1BF83479500F59BA304F5007C
:100EB000C1BF011106CE26CA4AC84EC656C25AC084
:100EC00022CC52C4EFF08FE3AA89B7040020EFF0E0
:100ED0002FA737090080AA8A9384C4221349E9FF07
:100EE0000D4B8040631E94006244F240D24442495C
:100EF000B249224A024B5685924A05616FF0AFA46F
:100F00004848130AC4FE3385A940E36FA9FC528503
:100F1000113D1C4448448297EFF04FDE834754FF55
:100F2000AA8913F73700F99BA30AF4FEE31B67FBBA
:100F30005285BD357DB7B70700209387C722DCC334
:100F40009CC3828082801106719A2A8837C7ADDEE1
:100F5000130506F8AA871307F7EE631EF6008967E4
:100F6000938787882322D6F82324B6FA232006F90C
:100F70002324F6F8828098C39107C5B7B7070020ED
:100F80001387C72318439387C72309E73707002030
:100F9000232AA72237070020232CB722054798C30E
:100FA0008280411106C6B921B707002083A7072117
:100FB0000967130707F4B3D7E702370700019386E1
:100FC000F7FF63FFE60837070020130707241CC359
:100FD000B70705FA37E600E08D073CC6C157230680
:100FE000F6402307F640B7F700E023A0070023826E
:100FF0000700A382070023830700A383070023843D
:101000000700A384070023850700A3850700144376
:10101000FD1693F6F60F2386D7001443FD16A18222
:1010200093F6F60FA386D7001443FD16C18293F6FC
:10103000F60F2387D70018437D176183A387E70046
:1010400023880700A388070023890700A3890700D6
:10105000054798C385672320F61091672320F61073
:10106000B24041016FF00FCE397106DE16DC1ADA9C
:101070001ED82AD62ED432D236D03ACE3ECC42CA50
:1010800046C872C676C47AC27EC073110134EFF0CE
:10109000CFE4EFF04FC7B7F700E023A007002382AB
:1010A0000700A382070023830700A383070023848C
:1010B0000700A384070023850700B7060020A38547
:1010C00007009386062498427D171377F70F23862F
:1010D000E70098427D1721831377F70FA386E70077
:1010E00098427D1741831377F70F2387E7009842D3
:1010F0007D176183A387E70023880700A388070083
:1011000023890700A3890700054798C3EFF08FDE06
:1011100073110134F250E2525253C2533255A25568
:10112000125682567247E2475248C248324EA24E89
:10113000124F824F216173002030397106DE16DCB8
:101140001ADA1ED82AD62ED432D236D03ACE3ECC97
:1011500042CA46C872C676C47AC27EC073110134D0
:10116000EFF0AFD7EFF00FD973110134F250E25224
:101170005253C2533255A255125682567247E24715
:101180005248C248324EA24E124F824F2161730024
:101190002030397106DE16DC1ADA1ED82AD62ED493
:1011A00032D236D03ACE3ECC42CA46C872C676C497
:1011B0007AC27EC05937F250E2525253C25332556E
:1011C000A255125682567247E2475248C248324EE2
:1011D000A24E124F824F21617300203071657971E8
:1011E0001305052006D622D426D24AD052CC56CAA0
:1011F0005AC84ECE5EC662C4EF40103237D50000EA
:1012000013050538EF50E03537D5000013050539D3
:10121000EF502035EF40300237D900002A8BB74419
:10122000014013058954EF50803193840480370ABC
:101230000020B70A00201384811C854B370C002046
:10124000930500022685EF40702C93096C24631BE4
:10125000750323807901EFF06FAA2324AA24268541
:10126000EF40302A93178501E18763CD070013878C
:101270004A248357070093861700A2972310D700AC
:101280002380A70083C70900E39C77FBEFF00FA73B
:1012900083278A241D8DA947E3F1A7FA238009003B
:1012A0008149938B4A2483D70B0063C3F902A2853B
:1012B0005A85EF10202613058954EF504028130655
:1012C000001081452285EFF00F8723900B00B5B702
:1012D000B307340183C507002685EF40F02193054D
:1012E00000082685EF4090227DD985095DBFB7179C
:1012F00002409843B706FFF841111367170098C3DF
:10130000D84337060200758FD8C39843B706F7FE57
:10131000FD16758F98C39843B706FCFFFD16758FB1
:1013200098C3D843B70681FFFD16758FD8C337071A
:101330009F0098C702C402C69843C166558F98C3E0
:10134000B7160240130700509C42F18F3EC6A247D9
:1013500085073EC4B24781E7A247E397E7FEB71788
:1013600002409C431397E7006354070885473EC635
:1013700032478547631CF706B72702409843B706F4
:10138000C1FFFD161367070198C39843719B98C36B
:1013900098431367270098C3B7170240D843D8C3B0
:1013A000D843D8C3D84313670740D8C3D843758FF1
:1013B000D8C3D843B7061D00558FD8C39843B70686
:1013C0000001558F98C3984393166700E3DD06FE2E
:1013D000D843B7160240719BD8C3D8431367270080
:1013E000D8C32147DC42B18BE39EE7FE41018280F6
:1013F00002C6BDBFB7160240DC42370700201146C7
:10140000B18B130707216385C70021466389C70293
:10141000B7177A00938707201CC3B7170240DC4335
:10142000918393F6F700B707002093870702B697DA
:1014300083C607001C43B3D7D7001CC38280DC429D
:10144000D042C983BD8B9315F600890763C9050097
:10145000B7163D0093860690B387D70275BFD44276
:101460001396E600E34606FEB7167A00938606203A
:10147000E5B797F1FF1F9381E15917410020130150
:1014800061B817D500001305A51D97F5FF1F9385BB
:1014900065B71386018163FAC5008322050023A086
:1014A000550011059105E3EAC5FE17F5FF1F130569
:1014B00065D79385C13D6377B500232005001105ED
:1014C000E36DB5FEB72200009382828873A00230DC
:1014D00097F2FFFF938282B693E21200739052302C
:1014E000EFF0FFE097F2FFFF938242127390123405
:1014F00073002030411106C622C42A84EF30805682
:10150000EF60203DB7D7000003A6075583A64755D7
:10151000EF50C07C2A8622852244B240AE86B7D5E1
:1015200000009385855541016F10E009411106C601
:1015300022C42A84EF306052EF60A039B7D7000090
:1015400003A6075583A64755EF5040792A86228582
:101550002244B240AE86B7D500009385855541013F
:101560006F1060066F306050411126C2AE84814515
:1015700006C622C42A84EF00307AA6852285EF00B1
:10158000506D85476311F502B7D500009385455628
:101590002285EF100000854522852244B240924406
:1015A00041016F0070778947631BF500B7D50000D4
:1015B000938545582285EF00D07D8945F1BFB24023
:1015C0002244924441018280411122C406C62A84E9
:1015D000EF00B02D19EDB7D5000022859385055A8F
:1015E000EF00307B22852244B240854541016F00E7
:1015F000B072EF20905B8947631CF500B7E50000EF
:10160000938545EE22852244B24041016F007078F7
:101610008D476317F500B7D500009385C55BDDB72F
:101620009D476317F500B7D500009385455CD9BF8A
:1016300095476317F500B7D500009385C55CD9B70A
:1016400099476317F500B7D500009385455D5DBFE9
:1016500091476317F500B7D500009385055E5DB728
:10166000B240224441018280B7D500004111814639
:1016700001469385056206C622C42A84EF00900ABB
:1016800037D60000B7D500001306C6629385056300
:101690002285EF00B01737D60000B7D5000013063B
:1016A0004663938585632285EF005016B7D5000009
:1016B00001469385056422858146EF00B0062285A8
:1016C0002244B24037D60000B7D500001306866426
:1016D0009385056541016F007013B7D50000411176
:1016E000938505620146814622C406C62A84EF001E
:1016F000700322852244B240B7D500009385855EF1
:1017000041016F003061B7D500004111938505623A
:101710000546814622C406C62A84EF00B000228511
:101720002244B240B7D500009385C55F41016F00E8
:10173000705EB7D50000938585636F00D037B7D54D
:101740000000938505636F001037B7D50000411185
:10175000938505640146814622C406C62A84EF00AB
:10176000607C22852244B240B7D500009385856510
:1017700041016F00305AB7D50000411193850564CF
:101780000546814622C406C62A84EF00A079228538
:101790002244B240B7D500009385056141016F0036
:1017A0007057B7D5000041119385856906C622C4DC
:1017B0002A84EF003056B7D5000022859385856ACC
:1017C000EF009009B240224441018280411126C2BB
:1017D000AE84B7D5000022C4938545632A8426854C
:1017E00006C6EF30F01405C5B7D5000026869385F0
:1017F00085632285EF00900122852244B240924405
:10180000B7D500009385456B41016F00B050B7D547
:1018100000009385856C2685EF30901171F5228547
:101820008545EF00704F22852244B2409244B7D5DF
:1018300000009385C56C41016F00B055411122C471
:101840002E84B7D5000026C29385856FAA84228591
:1018500006C6EF30F00D09CD22862244B24026851F
:101860009244B7D500009385056541016F00007A69
:10187000B7D500009385C56F2285EF30700B69FDE9
:10188000B7D50000938585642285EF30700A69F52D
:1018900026858545EF0050482244B2402685924473
:1018A000B7D500009385457041016F00904E2E869C
:1018B000B7D50000938505636F00407541118545DC
:1018C00022C406C62A84EF00304522852244B24055
:1018D000B7D500009385856641016F00904BF9BF35
:1018E000F1BFE9BFE1BFD9BFB7D500004111938572
:1018F000857322C406C62A84EF30E07E29E5B7D579
:1019000000009385C5732285EF30E07D31E1B7D5C6
:101910000000938505742285EF30E07CB717014005
:1019200011EDB7D50000938545742285EF30A07B7B
:10193000814709C5B717014093870740B240224449
:101940003E8541018280B717014093870780FDB72C
:10195000B7170140938707C0D5B7411122C4B7D547
:1019600000001304250093858574228506C6EF3098
:10197000207C854763130512B7D500009385C57495
:101980002285EF30E07A894763190510B7D500004A
:10199000938505752285EF30A0799147631F050E69
:1019A000B7D50000938545752285EF306078A14753
:1019B0006315050EB7D50000938585752285EF3038
:1019C0002077C147631B050CB7D500009385C5750B
:1019D0002285EF30E0759307000261E1B7D5000082
:1019E000938505762285EF30A0749307000455E5B2
:1019F000B7D50000938545762285EF306073930755
:101A0000000841EDB7D50000938585762285EF303B
:101A100020729307001051E1B7D500009385C57679
:101A20002285EF30E0709307002025E9B7D500004C
:101A3000938505772285EF30A06F9307004031ED45
:101A4000B7D50000938545772285EF30606E39E980
:101A5000B7D50000938585772285EF30606D856767
:101A60000DEDB7D500009385C5772285EF30406C2A
:101A7000896705E5B7D50000938505782285EF30A5
:101A8000206B916719E9B7D50000938545782285C9
:101A9000EF30006AB337A000BE07B24022443E8553
:101AA00041018280856793870780C5BFB7D5000055
:101AB00041119385456322C406C62A84EF304067EE
:101AC00011C54145B240224441018280B7D5000092
:101AD0009385856C2285EF30A06565D51145DDB70E
:101AE000B7D5000041119385857322C406C62A84A8
:101AF000EF30605F91470DEDB7D500009385C5735A
:101B00002285EF30405EA14705E5B7D500009385FB
:101B100005742285EF30205DC14719E9B7D5000073
:101B2000938545742285EF30005CB337A00096079B
:101B3000B24022443E85410182808280B7D50000B8
:101B400079719385056306D622D426D24AD04ECE2B
:101B5000AA84EF004076B7D50000938585632A8478
:101B60002685EF0040752A892285BD3BAA842285FF
:101B7000ED33AA894A851D3F2A89228595378545F7
:101B8000EF4040068D474C002685231231014AC69E
:101B90003EC4EF30706DB250225492540259F24953
:101BA00045618280B7D5000041119385056306C663
:101BB00022C426C2EF002070AA843D332A842685E1
:101BC000693BAA8522852244B240924405464101E0
:101BD0006F30B075B7D5000041119385056306C617
:101BE00022C426C2EF00206DAA84FD392A842685EE
:101BF000AD33AA8522852244B24092440146410178
:101C00006F30B072B7D5000001119385856306CEA1
:101C100022CC26CA4AC82A84EF00E069B7D5000062
:101C2000938505632A892285EF00E068AA84EFF096
:101C3000BFCB2A8426851533AA844A85853D2AC6CA
:101C40008D474C002285231291003EC4EF30D061B5
:101C5000F2406244D2444249056182802E856FF091
:101C6000CF84411126C2AE84814522C406C62A848F
:101C7000EF00900AB7D50000938585792685EF207F
:101C8000503805E1B7D5000022859385C579EF006E
:101C9000501022852244B2409244854541016F0094
:101CA000B007AA8522852244B240924441016F00C8
:101CB000500E011106CE22CC26CA32C42AC6EF30FD
:101CC0004054AA840145EF20E06FA246B245194670
:101CD000EF20A04B2A842685EF20A0742285F240B5
:101CE0006244D24405618280411122C42A842E8537
:101CF000B285368606C6753FAA850840EF201005D6
:101D0000B2402244014541018280411106C622C4ED
:101D1000EF20A01E37260000B7D50000130626C608
:101D2000938585782A84EF00C0692285B2402244D9
:101D300041018280411122C426C206C6AA842E8493
:101D4000EF20A06691476316F500A6852285EF2057
:101D5000503BB240224492440145410182804111EE
:101D600022C406C62A84EF3060244205418113064E
:101D7000F5FFB305C400838705000145B9C3B56706
:101D8000B70800201388077C01459386077C938859
:101D900008FD11A8338717010E0742971C4313084B
:101DA0000805FD153E9583870500E39585FE13071D
:101DB00000053306E6021307D0026398E7003305F7
:101DC000A040B2402244410182808E07938707E8F9
:101DD000B697B2979C433E95EDB739679307A50038
:101DE00023050500130787B01305300613064006C8
:101DF000F9176362B502939615003697834607007C
:101E000093B5A5003385B7002380D700034717009B
:101E1000A380E7008280B3F6C5028606BA9603C89F
:101E20000600B3D5C5022380070183C61600A38030
:101E3000D7007DBF0841B72500000146938565E6C0
:101E40006F20D028411106C622C42A84E5370840F5
:101E5000EF20205D22859145EF20903CB240224446
:101E6000014541018280411126C206C622C4854433
:101E700081ED2A84EF206053854781446316F50085
:101E80002285EF2080387D3FB2402244268592444F
:101E90004101828008416F20A07710414111B72590
:101EA000000022C4938545D32A84328506C6EF20DC
:101EB000F0212285B240224441018280011106CEE8
:101EC00022CC26CA4AC8AE8432894EC652C42A845D
:101ED000EF302033A685AA89EF30204A2A8A93055D
:101EE000E0022685EF30800B81443309254163CE23
:101EF00024014E85EF20E0522285F2406244D24414
:101F00004249B249224A056182801306E002D28525
:101F10004E85EF30C043AA852285812E2A8471D94F
:101F20008504F1B701114AC8328905464EC652C42C
:101F300006CE22CC26CA2E8AB689493705CD2A84F8
:101F4000EF30202C1306E002D285AA84EF306033F4
:101F5000AA8508404A86CE86EF2040682685EF2075
:101F6000404C0145F2406244D2444249B249224ABF
:101F7000056182800545FDB701114AC832890546D1
:101F80004EC606CE22CC26CAAE890D3F15C92A847C
:101F9000EF3020271306E002CE85AA84EF30602EB2
:101FA000AA8508404A86EF20C05D2685EF2060475D
:101FB0000145F2406244D2444249B24905618280FF
:101FC0000545C5BF0111014506CE22CC26CA32C641
:101FD000EF2070143246AA8402963246B7E500001C
:101FE000938585AE2A84493F2685EF20804322854C
:101FF000F2406244D2440561828041112E86AA8556
:10200000014506C6C137B240410141BD01114AC870
:10201000328905464EC606CE22CC26CAAE89793D07
:1020200015C92A84EF30E01D1306E002CE85AA848C
:10203000EF302025AA8508404A86EF206057268584
:10204000EF20203E0145F2406244D2444249B24969
:10205000056182800545C5BF411105464AC006C6D7
:1020600022C426C22E89993D1DC92A84EF306019E9
:102070001306E002CA85AA84EF30A020AA85084092
:10208000EF20805D2A842685EF20A0392285935594
:10209000F441B240224492440249410182803735E2
:1020A00065C413051560FD55EDB74111054622C401
:1020B0004AC006C626C22E891135014415C12A849C
:1020C000EF3020141306E002CA85AA84EF30601BAB
:1020D000AA850840EF2080532A842685EF206034AB
:1020E0002285B240224492440249410182807971A2
:1020F0004AD0328905464ECE06D622D426D2AE89A3
:10210000EFF0DFDB29C12A84EF30A00F1306E002D5
:10211000CE85AA84EF30E0162AC64A85EF20C02A71
:10212000B245EF2040272AC62685EF20802FB245F2
:102130000840EF20A0410145B25022549254025968
:10214000F249456182800545C5BF4111054622C45B
:102150004AC006C626C22E89EFF05FD6014415C1DB
:102160002A84EF30000A1306E002CA85AA84EF3001
:102170004011AA850840EF20A0492A842685EF2037
:10218000402A2285B2402244924402494101828081
:10219000B7E500004111938585AE22C406C62A84A6
:1021A0006D372A8622852244B240B7E50000938528
:1021B00045D141016FF01FE1011106CE22CC26CAA4
:1021C0004AC8AA842EC6EF30C003B2451306E00207
:1021D0002A89EF30000B2A84AA852685F93511CD8E
:1021E000EF20801E2A844A85EF20A0232285F2401A
:1021F0006244D2444249056182802685513FA285CE
:10220000AA846535EF20401C2A842685EFF09FC301
:10221000D9BF011106CE22CC26CA4AC8AE842A8470
:10222000EFF05FC72AC60145EF20E06E32462A89EB
:102230001DCAA6852285EFF0FFD8EFF01FC6AA863B
:1022400008400546A685EF2060652285A685F53DF8
:102250002A844A85EF20E01C2285F2406244D24461
:102260004249056182800144EDB721C5411122C474
:102270002A84084126C206C6AE84EF200040994752
:102280006319F50022852244B240A685924441019B
:1022900049B785476319F50022852244B240A685D7
:1022A000924441015DB5B24022449244014541014E
:1022B0008280014582804111054622C44AC006C67B
:1022C00026C22E89EFF09FBF014415C12A84EF205A
:1022D00050731306E002CA85AA84EF20907AAA857B
:1022E0000840EF2060342A842685EF208013228561
:1022F000B24022449244024941018280011106CE3B
:10230000EF103060AA8511466800EF60B01BF24004
:10231000324505618280411106C6EF10905EB240E1
:10232000110541018280397106DE22DC26DA4AD8A5
:102330004ED652D456D25AD05ECE36C6AE892A8BED
:1023400032C4EF20106CA2454E862A84EF20D06B59
:102350002A8A0145EF200007AA8B5285EF201045FD
:1023600013095500AA8ACA852285EF20A00B6C00AC
:102370001146AA84EF60101513861A00D2851385C2
:102380004400EF603014CE855E85EF20C00091459B
:10239000EF10F0564A86A685EF10B072AA85032585
:1023A0000B00EF20A01A2285EF20A007F250625404
:1023B000D2544259B259225A925A025BF24B2161CD
:1023C0008280011156C2AA8A2E8506CE22CC26CA48
:1023D0004AC84EC62E8952C4328AEF20303DAA84A4
:1023E000EF203062A6852A84EF20C0031306000286
:1023F000CA85EF20702EA6852A892285EF208002CB
:1024000013068002CA85EF20B047AA85AA8905462F
:102410005685EFF0BFAA854411CDAA841306E002C9
:10242000CE852285EF20F065AA85D28626854A864C
:10243000DD3D81442285EF10D07EF2406244268546
:102440004249D244B249224A924A056182806F10C1
:1024500090270111054606CE22CC26CA2A844AC8F6
:102460004EC6AE89EFF09FA50146CE852A8922850A
:10247000EFF0DFA42A84EF20D058AA8401C422857B
:10248000EFF05F9C0544630709021306E002CE8566
:102490002685EF20105F03240900AA852285EF20FE
:1024A000E016AA852285EF20C045854709446303CD
:1024B000F50001442685EF10D0762285F240624473
:1024C000D2444249B249056182804111054606C69F
:1024D00022C426C24AC02E89EFF05F9E2A84EF20D4
:1024E0005052AA8415C41306E002CA85EF20705921
:1024F000AA850840EF2080113334A0002685EF1014
:1025000050722285B24022449244024941018280A5
:102510000544EDB76FF0BFF32E8693D6F541B7E5CE
:102520000000938505AF6FF0FF9F411122C437E48F
:102530000000930504AF26C206C6AA84793711C5E8
:10254000930504AF2685EFF03FB1B2402244924498
:10255000410182802E8693D6F541B7E50000938530
:1025600005AF6F20A007411122C437E40000930596
:1025700004AF26C206C6AA84EF20A01311C5930596
:1025800004AF2685EF20400DB24022449244410121
:1025900082802E86B7E500009385C5AF6FF01FA738
:1025A000B7E500009385C5AF6FF0FFD0B7E5000039
:1025B0009385C5AF6F2040072E86B7E50000938551
:1025C000C5AF6F10F07E317122CD26CB4AC92011E4
:1025D000AA842E8932D5814513060008080806CF43
:1025E00036D73AD93EDB42DD46DF22C6EFD0BFD434
:1025F0002286CA850808EF70207C0C082685513F8A
:10260000FA406A44DA444A49296182802E86B7E555
:102610000000938505AE6F10B0792E8693D6F541F4
:10262000B7E50000938505AE6F10507B411122C4C1
:102630002A842E85B7E50000938505AE06C6EF1007
:102640009055AA8522852244B24041016F10107036
:102650004111114506C622C4EF20A0372A84014546
:10266000EF20602B08C0B2402285224441018280C5
:10267000797122D42E84B28537E600004AD0130641
:10268000C6C82A89228506D626D236C6EF20F03A59
:10269000B7E50000AA84938505C94A85EFF0DF9B62
:1026A000B246B385A6004808EFF02FF32A86A68528
:1026B0002285EF20903837E60000AA85130646C52C
:1026C0002285EF209037B25022549254025945612E
:1026D0008280011122CC2A842E8526CA4EC652C47D
:1026E00056C25AC006CE4AC8AE84328AB68A3A8BDF
:1026F000EF20D00B81490DC9AA852A892285EF10C8
:102700007052AA8901448147634B24034A8481475C
:1027100063C68704930514004A86A69526854E94C1
:10272000EF60A06523000400F24062444E85D2446D
:102730004249B249224A924A024B0561828033875C
:102740008400830507006393550185076393650142
:10275000FD1799E3E38D45FB05047DB73387F4004E
:10276000830607003387F90085072300D7004DB79C
:1027700001114AC82A892E8532C636C406CE22CC1B
:1027800026CAAE84EF209002AA852A844A85EF10DB
:102790007049A246324681450147814763CB850097
:1027A0002A9723000700F2406244D244424905615F
:1027B00082803388B400830808006395D800FD1731
:1027C00093F7F70F91E73303E500230013010507A3
:1027D000030808006315C800850793F7F70F850500
:1027E00075BF411122C406C62A84EF20207C05054E
:1027F00081471307D003850763E7A7000145B2406F
:10280000224441018280B306F4000386F6FFE314FC
:10281000E6FE83860600E390E6FE0545CDB741114E
:1028200022C406C62A84EF20607809470505A287DE
:10283000018F9306D0033306F7006367A6000145B6
:10284000B24022444101828003860700630AD60019
:10285000038617006316D600038627006314D6008C
:102860008507D1BF0545E9BF397106DE22DC4AD8AC
:1028700052D456D226DAAE8A4ED65AD02A84EF20C7
:102880005018D685130680022A89EF2010282AC600
:10289000EFF0FFF8B245568A0DC51306D0034A85FE
:1028A000EF20B026B7E500002A86938505C2228571
:1028B000EFF0CFF51306D003D6854A85EF20701CC4
:1028C0002A8AEF201014D285930690021306800204
:1028D0002A8BEFF0FFE99305B002AA84EF20F00CF9
:1028E000630B051291495A85EF10B0339147639EEF
:1028F000F91CD28593069002130680024A85EFF0F8
:102900003FE79305A002AA84231E0100EF20F009EF
:1029100009C59307A002230EF1009305F002268556
:10292000EF20B00809C59307F002230EF1009305CC
:10293000B0022685EF20700709C59307B002230E69
:10294000F1009305D0022685EF20300609C59307D4
:10295000D002230EF1009305C0032685EF20F0047A
:1029600009C59307C003230EF1009305E0032685F4
:10297000EF20B00309C59307E003230EF10026857D
:10298000EFF03FE611C591679387D7D3231EF1007F
:10299000B7E500007008938585C22285EFF00FE748
:1029A000D2854A85EF20701D0306C10113079002EE
:1029B000AA85AA84930680024A85EFF09FD1030777
:1029C000D1019307D0032A8A6313F7008504B7E97E
:1029D0000000938549C32285EF20201C2285EF202B
:1029E0004022D2855135938549C32285EF20E01AD4
:1029F0002285EF200021A685853D4A85EF107022B3
:102A00002285F2506254D2544259B259225A925AF3
:102A1000025B216182809305D0022685EF20E07859
:102A2000E31205EC9305A0022685EF200078E31B56
:102A300005EA9305C0032685EF202077E31405EA15
:102A40009305E0032685EF204076E31D05E8268503
:102A5000EFF03FD9E31805E89305F0022685EF2053
:102A6000C074E31105E8930580022685EF20E0732A
:102A700019C18D498DBD930590022685EF20E07226
:102A80006DF9930570022685EF20207219C18549E2
:102A900099BD930520022685EF2020716DF983C72B
:102AA000040025478949938707FD93F7F70FE37CD7
:102AB000F7E2B7E50000938545D12685EF20406712
:102AC0009549E31205E2814939BD8D476393F906C3
:102AD000D285130680024A85EF203003B7D5000067
:102AE0002A869385055E2285EFF04FD293069002E9
:102AF00013068002D6854A85EF20607B2A8AB7E9D3
:102B0000000013079002930680021306C002D285CC
:102B10004A85EFF01FBCAA84E30105EE938549C303
:102B20002285EF2080072285EF20A00DA6852D3B72
:102B3000C9BF639B0900B7E5000052869385C5C3F2
:102B40002285EFF0AFCC55BD85476394F90213069B
:102B50007002D2854A85EF208078AA85130620026C
:102B60004A85EF20C077B7E500002A86938505DE09
:102B7000C1BF8947E393F9E8B7E500005286938522
:102B800005C47DBF5D7186C6A2C44EDE52DC56DA36
:102B90002E8A62D42A84A6C2CAC05AD85ED666D209
:102BA0006AD06ECEEF10D07DAA89EF2080653546C1
:102BB000A285AA8AEF20A0722A8CEF20203F8147AD
:102BC000130700026394A700014729A8B306FC007D
:102BD000838606006382E61C93F637007D5799E2F0
:102BE00013D72700937CF70F1374F70F63180A1A93
:102BF000B7E5000066868146938505C94E85EFF0EE
:102C00006FB20A046294B7E5000019469385C5C9FE
:102C10002285EF60203CA28405ED13060002A28508
:102C20009306A0035685EF20806837E90000B7E5DA
:102C30000000AA84130649CB9385C5CB4E85EFF0DF
:102C4000EFBC63070A00930549CB5285EF200013C0
:102C5000B7E500000D46938545CC2285EF608037AF
:102C600005ED13060002A2859306A0035685EF200A
:102C7000006437E90000B7E50000AA84130689CC98
:102C80009385C5CB4E85EFF06FB863070A009305B7
:102C900089CC5285EF20800E37E90000930509AEFC
:102CA0002285EF20E04801CDB7E40000138644D12F
:102CB000930509AE4E85EFF06FB5938444D1B7E527
:102CC00000001D469385C5CC2285EF60A0300DE540
:102CD000A2855685EF20606AAA8513060002AA84A1
:102CE0005685EF20C06637E60000130646D19305EF
:102CF00009AE4E85EFF08FB1B7E500001146938520
:102D000045CD2285EF60002D21ED9306A00313062B
:102D10000002A2855685EF208059AA855685EF20AE
:102D2000A06B37E40000B7E50000AA841306C4CD09
:102D30009385C5CB4E85EFF06FADB7E500002686D5
:102D4000938505CE4E85B7E40000EFF02FAC938459
:102D500044D163070A009305C4CD5285EF200002D9
:102D6000A6855685EF204067AA854E85EFF0DFAF38
:102D70002A845685EF10E06A2285B64026449644A0
:102D80000649F259625AD25A425BB25B225C925CAB
:102D9000025DF24D6161828085072DB5B7E50000C7
:102DA000938545CA5285EF10300B1375F50F81449A
:102DB0003309854037EB0000374D0000B7ED0000C8
:102DC000E3D824E3014693058BCA4E85EFF00F8FBD
:102DD000AA8B1DE19306ADEF13864DD193058BCAE7
:102DE0004E85EFE07FF0014693058BCA4E85EFF0EC
:102DF000EF8CAA8BEF1090554C00528502C202C492
:102E000023160100EF10907DAA855E85EF101068F3
:102E100085047DB75D7152DC37EA00004EDEAE8975
:102E200093050ABDA2C4A6C2CAC056DA5ED686C63B
:102E30005AD862D466D26AD0AA8A32893684EFF030
:102E4000AFA1AA84930B15004E85EF10905E2A8BDC
:102E500019CD5E86814693050ABD5685EFF08F8CAD
:102E6000A2864A86DA85568575372A84F1BFB7D59A
:102E700000009385055E4E85EFF0EFC3B7E50000D7
:102E8000938585C22A8C4E85EFF0EFC2B7E500002E
:102E90009385C5C3AA8C4E85EFF0EFC1B7E500005E
:102EA000938505C22A8D4E85EFF0EFC0B7E500008F
:102EB000938505DE2A8B4E85EFF0EFBFB7E5000066
:102EC000AA8B938505C44E85EFF0EFBEAA896307F0
:102ED0000D021306000281450A85EFD0CFC5B7E584
:102EE0000000EA862686938585BD0A85EF60E007A7
:102EF000A2850A864A85EF2040342A8463870C0223
:102F00001306000281450A85EFD0EFC2B7E5000045
:102F1000E6862686938545BE0A85EF600005A28574
:102F20000A864A85EF2060312A8463070C02130663
:102F3000000281450A85EFD00FC0B7E50000E286A8
:102F40002686938505BF0A85EF602002A2850A8642
:102F50004A85EF20802E2A8463870B021306000225
:102F600081450A85EFD02FBDB7E50000DE862686B5
:102F70009385C5BF0A85EF50507FA2850A864A8592
:102F8000EF20A02B2A8463870902130600028145E3
:102F90000A85EFD04FBAB7E50000CE862686938526
:102FA00085C00A85EF50707CA2850A864A85EF208D
:102FB000C0282A8463070B021306000281450A8594
:102FC000EFD06FB7B7E50000DA862686938545C156
:102FD0000A85EF509079A2850A864A85EF20E02580
:102FE0002A841386F4FF93050ABD56858146EFE0D7
:102FF0007FF32285B640264496440649F259625A28
:10300000D25A425BB25B225C925C025D616182805B
:10301000397106DE22DC26DA4AD84ED65AD05ECE88
:103020002A842E8952D456D262CC66CA6AC86EC629
:10303000EF20201DB7E50000938545D1AA84EF203D
:10304000C033B7E50000AA890146938585CA228569
:10305000EFE0DFE6B7EB000037EB000041C1AA8AE2
:10306000B7EC000037ED0000B7E70000938547CAD2
:103070005685EFE07FFE2A8A93854CC45685EFE0A3
:10308000BFFDAA8D5685EF1070462A8C21C9938505
:103090004BCBEF20E0091DC19306FAFFB386B64182
:1030A0004E8693F6F60FCA852285EFF06FDCAA856F
:1030B0001306CDC44A85EF204018AA899305CBCDCD
:1030C0006285EF20E0064DD1B7E70000CE8513867C
:1030D00087C54A85EF206016AA8979B74E86814652
:1030E000CA852285EFF0CFD8B7E50000AA8901464E
:1030F0008146938505BD2285EFE0DFE2CE862686F8
:10310000A2852285EFF01FD137EA00009305CACBD4
:10311000AA892285EFF02F9A93854BCBEF204001AF
:1031200011C937E60000CE85130606C62685EF20B6
:10313000C010AA899305CACB2285EFF0CF97B7E5D7
:103140000000938585CCEF10B07E11C937E60000F2
:10315000CE851306C6C62685EF20200EAA899305C4
:10316000CACB2285EFF02F959305CBCDEF10507C85
:1031700039C537E60000130686C7CE852685EF20C1
:10318000C00BB7E50000AA89938505CE2285EFF034
:103190008F922A86CE852685EF20200A37E600000A
:1031A000AA85130646C52685EF20200937E60000CC
:1031B000AA85130606C82685EF202008AA89B7E548
:1031C0000000938505AE2285EFF02FB011C937E6D8
:1031D0000000CE85130686C52685EF200006AA8945
:1031E000CE854A85EF2060192A842685EF1060235A
:1031F0002285F2506254D2544259B259225A925AFC
:10320000025BF24B624CD24C424DB24D2161828046
:103210006FE05FC3411122C42A842E85B28506C6A1
:1032200026C2EFF03F96A285AA84EFF07FDE2A84C3
:103230002685EFF0FFFD2285B240224492444101F1
:103240008280397106DE22DC26DA4ED652D456D27E
:103250002E8A5AD05ECE62CCB7E900004AD866CA40
:10326000AA8BEF10302E138649D1938549D1AA8AB3
:103270000145EF0030732A845285EF1030532A8CB9
:103280005285E5282A8B8144EF10B077B3059A0068
:1032900029462A89EF2060072AC6EF103051B2452F
:1032A000AA9456864A85EFF0FFF68504AA8C630A35
:1032B0000B04D1201375F50F29E509C42285EF0011
:1032C000905801444A85EF10C015E3EF84FB630E6C
:1032D0000B0475207928AA8401C42285EF00B0561A
:1032E0005685EF10B028F250625426854259D254C8
:1032F000B259225A925A025BF24B624CD24C216173
:1033000082802285EF00B072AA8566864A85EF101A
:10331000D0722AC62285EF0010533246938549D1D8
:103320000145EF0030682A8471BF2285EF003070BC
:10333000AA855E85EF20600479BF828082806F500D
:1033400030176F5090176FF09FFF6FF09FFF014590
:10335000828039712ED24C1006CE32D436D63AD86D
:103360003EDA42DC46DE2EC6EF601018F2402161E4
:103370008280014582800545828001458280054525
:103380008280797122D426D24ECE06D64AD0AA8423
:1033900013040003930990038840231601006C0076
:1033A00023068100EF10C02609CDEF10800703A986
:1033B00004006C004A85EF106025AA854A85EF104D
:1033C000405405049377F40F139487016184E395C7
:1033D00037FDB250225492540259F24901454561D9
:1033E000828081472947B306F5008386060085075A
:1033F000E39BE6FE3E8582800D8DF9572947639653
:10340000A700FD17138517008280B386F500838619
:103410000600E389E6FEFD17DDB7011122CC2E84FC
:103420000C4226CA4AC806CE2A89A29593042004D3
:103430004A8532C6EFF05FFC32460C42AA950CC2B8
:10344000A29583870500E39597FE03851500F2405A
:103450006244D2444249130505FD056182807971B9
:1034600026D2B28470004AD04ECE52CC06D622D498
:1034700056CA2A8A2E8902C6EFF03FFAAA896358F3
:10348000900402C64A850144130A2004EFF07FF538
:10349000B2473E952AC64A9583070500639D4701BA
:1034A00083471500938707FD93F7F70F63C5F9006E
:1034B000050462046184E34B94FCB250225432450B
:1034C00092540259F249624AD24A45618280F5D447
:1034D000B2450144930A2004CA955285EFF0DFF10A
:1034E000B245AA952EC6CA9583870500639D5701EC
:1034F00083C71500938707FD93F7F70F639537018F
:103500007D1462046184E3CA84FC45BF5D715AD8AE
:103510002A8B368586C6A2C4A6C22E84CAC04EDEB9
:10352000368956DA5ED662D4B28B66D252DC6AD065
:103530006ECEEF10B0272AC608408145B7E40000E0
:10354000EFF04F810840938544D1A179EFF0CF8609
:10355000814A9389199637EC0000B7EC0000B24716
:1035600063C5FA022285EFF0DFE12285B6402644EA
:1035700096440649F259625AD25A425BB25B225CC7
:10358000925C025DF24D61618280E38D3AFDA2851D
:103590005687CA865E865A85EF0000702A8D0840DD
:1035A000EFF0CF802A8A0840EFE0FFFB937DF50F14
:1035B000D285138544D1EF10B03711E5D2851305BC
:1035C0000CD1EFF01FD963820D02EF109043294612
:1035D000B30559012A8AEF105053AA8513858CD15F
:1035E000EFF03FD75285EF00D063EA8A8DBF5D715F
:1035F000A2C4A6C24EDE86C6AA89CAC03E8552DCD7
:1036000056DA5AD85ED662D466D29547BA84464412
:103610006394F6060145EF00F05A2A849305E00210
:103620002685EF10903837E900001DC92685EF5038
:10363000C067EF5080492A86930549D12285EF0063
:10364000302E2A842285B640264496440649F259F3
:10365000625AD25A425BB25B225C925C61618280A8
:103660002685EFE0CFEF2A869356F541930549D1A1
:103670002285EF005029F1B78D47639DF600014583
:10368000EF005054B7E500002686938545D1EF0042
:10369000703145BF91472E896391F602EF10604665
:1036A000EF0090522A842A86A6854A85EFE03FA43F
:1036B0002285EF005019014471B78547328C639A17
:1036C000F604B7E50000938545D33A85EF10502600
:1036D000054611E9B7E500009385C5D32685EF10AF
:1036E000302509C90146B7E500008146938545D1DB
:1036F000014541B7A6854A85EFE03F9BEF00D04CDE
:103700002A8429F1A6856285EFE03F9AEF00D04B2D
:103710000DBF9947468A6398F6002685EFE02FE4AF
:103720002320AA0049BFA9476390F602930790C1DE
:1037300023A0F800EF10E03CEF001049AA85032514
:103740000900EFE0BFEE85BFA5476395F60470085A
:10375000A2851305D4FF02CEEFF03FCC22861309D9
:103760002004130A150083070600639D27018307C1
:103770001600938707FD63974701A6854E85EFE006
:103780005FC415BF3285EFF0DFC572462A9632CE90
:103790002296D1BF9D476390F602EF108036EF006E
:1037A000B0422A89EF00B0222A844A85EF00B0098E
:1037B000E31304F09DB7A147C28A6395F64A428598
:1037C000EF102034EF0050402A895685EF10603307
:1037D000EF00903FAA894A85EF00303D2A844E854C
:1037E000EF00B03C89476319F40C631AF5424A852F
:1037F000EF00F01D2A844E85EF00701D2A8A37E500
:103800000000A685130545D4EF109012330644013D
:1038100019E937E50000A685130585D4EF1050118E
:1038200009CD330644419356F641B7E50000938530
:1038300045D10145EF00300DE1A037E50000A68538
:103840001305C5D4EF10D00E3306440369FD37E5E8
:103850000000A685130505D5EF10900D01C5334670
:103860004403D1B737E50000A685130545D5EF1011
:10387000300C332644011DED37E50000A685130505
:1038800085D5EF10F00A33268A000DE537E50000F4
:10389000A6851305C5D5EF10B00909E901444A858D
:1038A000EF00607A4E85EF00007A69BB3306444131
:1038B00013361600814695BF8D47E311F4FE894704
:1038C0006319F5144A85EF00D0082A844E85EF006D
:1038D00010102A8A37E50000A685130545D4EF109D
:1038E00030050DC15285EF502007A285EF40A02C76
:1038F000B7E500002A86938545D10145EF005002C7
:103900002A8471BF37E50000A685130585D4EF1022
:10391000300219C55285EF502004AA85228581A660
:1039200037E50000A6851305C5D4EF10700001C966
:103930005285EF506002A285EF40902055BF37E5D9
:103940000000A685130505D5EF10807E19C55285A8
:10395000EF508000AA85228585A837E50000A6855E
:10396000130545D5EF10C07C11C95285EF40D07EBC
:10397000A285EF40D00B3326A0002DBF37E5000015
:10398000A685130585D5EF10A07A35C15285EF4085
:10399000B07CA285EF4010121356F5417D8219BF0D
:1039A00037E50000A6851305C5D4EF10607849F10E
:1039B00037E50000A685130505D5EF10607701C92E
:1039C0005285EF407079A285EF40805515B737E5F5
:1039D0000000A685130545D5EF10807545F937E53C
:1039E0000000A685130585D5EF1080743DFD37E5F1
:1039F0000000A6851305C5D5EF108073E30005EA26
:103A00005285EF407075A285EF40A07C13361500FB
:103A100055B5E31585E84A85EF00A0732A844E85E5
:103A2000EF0020732A8A37E50000A685130545D4E8
:103A3000EF10007001C5D28522854DBD37E500002D
:103A4000A685130585D4EF10A06E19C1D285F9B5EE
:103A500037E50000A6851305C5D4EF10606D01C5DC
:103A6000D2852285D1BD37E50000A685130505D591
:103A7000EF10006C19C1D285F9BD37E50000A685AD
:103A8000130545D5EF10C06A01C5D285228519B747
:103A900037E50000A685130585D5EF10606901C5DF
:103AA000D2852285F9B537E50000A6851305C5D571
:103AB000EF100068E30405DED2852285B1B74E859C
:103AC0000546A685EFE08FBFAA891DE50546A685B8
:103AD0004A85EFE0AFBEAA8905E1032509008545C7
:103AE000EFE05FA7B7E50000938505D60325090041
:103AF0000144EFE07FAC61AAA6854E85EFE0CFEBF5
:103B00002A8419ED032509008945EFE0BFA40325A8
:103B10000900B7E50000938545D8EFE0FFA985AA25
:103B2000EFE0CFFD2A8B2285EFE0EFFEAA855285DC
:103B3000EF10B0042AC622853923B24593069002BD
:103B4000130680025285EF108076AA8C19E90325AE
:103B500009008D45EFE01FA0B7E50000938585DAE9
:103B600071B7EFE0FFAEAA845685EF009079EF00C1
:103B7000B0052A8415C5E6851306C0025285EF10EC
:103B8000007D1306A003AA855285EF100078AA8550
:103B90002285EF005000AA858840EF00301BE9B76E
:103BA00081454E85EFE05F9793854BD14E85EFE0E1
:103BB0005F9E03070B009307200437E40000631C9B
:103BC000F70403072B00A9476317F704A685DA86D5
:103BD00062864E85EFF09F93AA848840930504AED9
:103BE000EF00D022EF00407E2A844E85EFE05F9BFD
:103BF000AA8509C503250900EFE01F9C4E85EFE06B
:103C0000DF9211C5032509009945EFE0BF94268591
:103C1000EFE04FA3ADA88C404E85029B7DBF8D4742
:103C2000E31EF5C64A85EF00805A2A8A4E85152381
:103C30002A8437E50000A685130545D4EF10404FD0
:103C4000E31205CA37E50000A685130585D4EF10F9
:103C5000204EE30705D45285EF401050A285EF4077
:103C6000301779B18947E398F6A4EF108059B7EB84
:103C700000002A8A93854BD12685EF10604BE30024
:103C800005E45685EF00F067EF0000742A84528542
:103C9000EF0020796FF01F9B1D71CEC6D6C2DAC02F
:103CA0005EDE62DC66DA6AD8AE89B68B3A8B86CE87
:103CB000A2CCA6CACAC8D2C46ED6AA8C328DEF10C6
:103CC00040542A8CB38A6B018145A9472E843387DF
:103CD0008A00030707008505E31AF7FE6285EF00F7
:103CE00060742A8A2286D685EF40D07D5294A30044
:103CF00004005285EF10802B02CE231A0100231CF2
:103D0000010083070A0013091B00130720042A99E6
:103D100083AD09006390E70681456E85EFE09F83E0
:103D200003A50900B7E50000938545D1EFE0DF88E2
:103D30004E85EFF00FE56285EF00A06E72469307A7
:103D400090C16309F61619C6D6855E85EFF02FF18E
:103D500033096501F64066444A85D6444649B6496A
:103D6000264A964A064BF25B625CD25C425DB25DCB
:103D70002561828093042A00B7E50000230AF10040
:103D80000D468507938585CE2685230CF100EF50DF
:103D90006024214445CDB7E500000D469385C5CE8E
:103DA0002685EF502023054455C1B7E500000D4698
:103DB000938505CF2685EF50E021154441C9B7E52D
:103DC00000000D46938545CF2685EF50A02009447D
:103DD00035CDB7E500000D46938585CF2685EF509C
:103DE000601F0D4425C5B7E500000D469385C5CF7E
:103DF0002685EF50201E114431C9B7E500000D465D
:103E0000938505D02685EF50E01C194421C1B7E504
:103E100000000D46938545D02685EF50A01B1D441C
:103E200015C5B7E500000D46938585D02685EF5072
:103E3000601A254401CDB7E500000D469385C5D035
:103E40002685EF502019014411E129444C086E8564
:103E5000EF00007CAA8403A509002C08190AEF00D2
:103E6000207BAA8D91E8EF00B040AA842A8603A5A2
:103E700009004C08EF00E070639B0D00EF00503F1D
:103E8000AA8D2A8603A509002C08EF00806FCE8535
:103E900056C09308C1016E88A6875287A2866A869B
:103EA0006685EFF0CFF4AA85E30705E82685EF00E5
:103EB000D03F51B521791309199669BDAE862A867E
:103EC000AA856FF0AFE4011106CE22CC26CA2EC619
:103ED000AA84EF100033B2452A84EFF08FB6AA858A
:103EE0002685EFF0BFFDAA8419C022851D2BF24064
:103EF00062442685D244056182806FE06FF513D756
:103F0000F541814791463306F5002300B600850749
:103F100013168701A181D18D2183E396D7FE82807C
:103F20008567938757508306050089E61395170028
:103F3000058182801397570036970505BA97E5B734
:103F400079712AC61385E60006D622D426D23A8491
:103F50004AD04ECE368952CC2EC4328AEF0070271A
:103F6000AA849309A50011466C001905EF409055ED
:103F700011462C0033852901EF40D0549357890016
:103F800023822401A382F4004A8663000A04D285B6
:103F90004E85EF40305322879356F44181471146B6
:103FA000B385F4002380E50085079395860121837E
:103FB0004D8FA182E396C7FEB25022542685025946
:103FC0009254F249624A4561828081454E85EFC034
:103FD0008FB6D1B7011106CE2EC632C436C23AC052
:103FE000EFF01FF4024792462246B245F2400561C7
:103FF0006FF01FF58347550003454500A2073905BB
:104000003E9542054181828001119305650011466C
:10401000680006CEEF40104BF240324505618280C9
:10402000411106C622C42A84EFF0DFFCAA8522854E
:10403000EF00101FB240224401454101828019C1A6
:104040006FF01FFE82806FF09FFF411126C2939692
:104050000501AA8437E500000147C1820146814578
:10406000130545D106C622C4EFF0DFF62A84268563
:10407000EFF0FFFC2285B24022449244410182804D
:1040800011478147FD563306E50003460600A207A7
:104090007D17B297E319D7FE3E85828011E937E597
:1040A0000000014781460146130545D16FF09FF29C
:1040B000011106CE22CC26CA2A842EC6EFF0DFF4E8
:1040C0008346540083474400AA84A206BE96C206D3
:1040D000C182228536C4EFF0BFFAA246B2452A87D4
:1040E0001306A4002685EFF0BFE5AA842285EFF031
:1040F0003FF3F24062442685D244056182806FF02E
:10410000FFF929058280011132C42E853000014754
:104110009146894506CEEFF0FFEBF24005618280C3
:104120000111935786002306C100A306F10093579F
:1041300006016182A307C1002E85700001479146E8
:104140008D4506CE2307F100EFF0DFE8F240056170
:1041500082809307A5008DC78347A50041112306E0
:10416000F1008347B500A306F1008347C50023078C
:10417000F1008347D500A307F10032454101828059
:10418000B7E7000003A5C7DC8280011136C42E8585
:104190000147B2859146300006CEEFF0BFE3F24012
:1041A000056182800111328522CC06CE2E8432C672
:1041B000EF00D05F93061500228562443246F2403C
:1041C000C2060147C1829D4505616FF0BFE09307BC
:1041D000A50095C71307D5009307950081450145B4
:1041E00093568501A205D58D8346070022057D17CC
:1041F0003695B336D500B695E314F7FE828037C501
:10420000F0FF130515DCFD5582809307A50091CFC3
:104210001307D50093079500014583460700220543
:104220007D173695E39BE7FE828001458280290554
:1042300082808347550003454500A20729053E9526
:10424000420541818280011106CE22CC2A84EFF002
:104250005FFEB305A40011466800EF40B026F240AF
:104260006244324505618280B28611E937E500007B
:104270002E8601478145130545D16FF0BFD5011149
:1042800006CE22CC26CA2A8432C62EC4EFF0DFD74F
:10429000AA842285EFF03FFB2AC22285EFF05FDE81
:1042A000B246224692452A872685EFF07FC9AA8426
:1042B0002285EFF0FFD6F24062442685D2440561A4
:1042C0008280420641826FF03FFA011126CA06CE73
:1042D00022CCAE8401ED6244F2402685D2440147EF
:1042E00081460146814505616FF09FC52A84EFF044
:1042F0009FF583465400834744002AC6A206BE9613
:10430000C206C182228536C4EFF09FD7A246B245CD
:104310002A871306A4002685EFF09FC2AA8422856F
:10432000EFF01FD0F24062442685D24405618280BE
:10433000011126CA06CE22CCAE8401ED6244F240C1
:104340002685D244014781460146814505616FF0CB
:104350007FC82A84EFF03FEF834654008347440030
:104360002AC6A206BE96C206C182228536C4EFF0D6
:104370003FD1A246B2452A871306A4002685EFF056
:104380007FC5AA842285EFF0BFC9F240624426852A
:10439000D244056182806FF0BFF919C16FF0DFC6AA
:1043A00037450F001305F523828019C16FF0BFE96F
:1043B00082808347550003454500A2073E9542058C
:1043C000418182800145828021CD411106C622C4EF
:1043D00026C283465500834745001306A500A20662
:1043E000BE962A84C20637E500000147C182814596
:1043F000130545D1EFF01FBEAA842285EFF0FFF927
:10440000AA852685EFF07FECAA842285EFF0FFF9DC
:104410002244B240AA852685924441016FF01FC80C
:104420008280E5A9011126CAAA84014506CE22CCC4
:104430002EC6EFF03FF9B2458505EFF01FC12A8483
:10444000AA852685192322856244F240D24405615B
:104450006FF03FCB797122D44ECE0041AA892E85D0
:1044600026D24AD052CC06D6AE84EFF01FF32A8A69
:1044700001492285EFF05FB9631745052685EFF006
:104480005FC82AC62685EFF0DFF2B2452A8622856C
:10449000EFF03FE32A842685EFF03FF1AA852285DD
:1044A000EFF0FFC5AA85631A090223A0A90026859B
:1044B000EFF07FB9B250225492540259F249624A45
:1044C0000145456182802285EFF09FBB6DD1228539
:1044D000EFF01FBB22892A8469BF4A85EFF03FA213
:1044E000F9B7411122C4004106C626C205C0AE84F8
:1044F0002285EFF09FEA630C95002285EFF05FB80C
:1045000011C52285EFF0DFB72A84DDB7014422858B
:10451000B2402244924441018280411122C42A8443
:104520002E8506C6EFF0DF9FAA8522852244B24081
:1045300041016FF01FFB6FF0DFFA411106C6EFF08B
:104540009FFFB2403335A00041018280411122C457
:104550002A842E8506C626C2AE84EFF01FE4AA8503
:104560002285EFF09FFDA68509E92285F92EB2404C
:10457000224492440145410182802285EFF09FED63
:10458000FDB7011122CC2A84014506CE2EC632C4C5
:10459000EFF05FE3A246B2451546EFF01FBFAA85D4
:1045A0002285EFF0BFFAF240624401450561828046
:1045B000011122CC2A84014506CE2EC632C4EFF06A
:1045C0007FE02246B245EFF0FFBDAA852285EFF0DD
:1045D000FFF7F2406244014505618280011122CC5F
:1045E0002A84014506CE2EC632C036C2EFF09FDDCA
:1045F00002469246B245EFF01FB1AA852285EFF040
:10460000FFF4F24062440145056182806FF0FFF0E3
:10461000411106C6EFF09FFF09C5B24041016FF09E
:10462000DFBEB2404101828015C5411122C406C6D9
:10463000EFF0DFFD2A8411C9EFF0BFAC19C5228568
:104640002244B24041016FF0DFABB2402244014549
:104650004101828001458280411106C6EFF01FFBB7
:1046600009C5B24041016FF09FB6B240373565C40D
:1046700013051560FD5541018280411106C6EFF01A
:10468000FFF809C5B24041016FF03FD2B24041018D
:104690008280411106C6EFF07FF709C5B2404101A3
:1046A0006FF03FABB240B7E7000003A507DD410163
:1046B0008280411106C6EFF07FF5B2403335A0008D
:1046C00041018280797106D622D426D24AD04ECEBC
:1046D000AA84B2892EC6EF00D032B24637E6000077
:1046E000130646DD930500082A84EF00904B2A89C3
:1046F000CE852285EF0070482A86CA852685EFF090
:104700003FEBCA852685EFF03FF2AA84228531244B
:10471000B2502254268502599254F2494561828052
:10472000011106CE22CC26CA4AC82A842E8932C656
:10473000EF00302DB24637E60000130686DE930503
:104740000002AA84EF00F0452A86CA852285EFF090
:104750007FF72A842685D1222285F2406244D24402
:10476000424905618280011106CE22CC26CA4AC880
:10477000AA842E8932C6EF00D02832462A84328598
:10478000EF40E02937E600002A87AE87130646DEB1
:10479000930500022285EF00D0402A86CA8526852F
:1047A000EFF05FF2AA8422858D2AF24062442685CA
:1047B0004249D24405618280011106CE22CC26CA2C
:1047C0004AC82A842E8932C6EF00B023324737E622
:1047D00000001306C6DE9357F74193050002AA8432
:1047E000EF00303C2A86CA852285EFF0BFED2A848F
:1047F000268525222285F2406244D2444249056141
:104800008280011106CE22CC26CA4AC84EC652C4A6
:10481000AE842A84EFF07FE6AA89EF00901E2A8AF0
:104820000149638F090089476397F902A6852285AC
:10483000EFF09FE22A86A6852285EFF07FEE2A8997
:104840005285E128F24062444A85D2444249B24945
:10485000224A056182808D47639CF900A6852285E6
:10486000EFF03FE32A86A6852285EFF0DFEFC1BF98
:104870009D476397F900A6852285EFF0FFDAC1B75F
:1048800095470149E39EF9FAA6852285EFF05FD8A6
:104890002A86A6852285EFF03FF255B7011122CC7A
:1048A0002A84014506CE2EC632C436C2EFF09FB12F
:1048B00092462246B245EFF05F8DAA852285EFF041
:1048C000FFC8F2406244014505618280011122CC9B
:1048D000004106CE26CA4AC84EC601CC2E89B289EE
:1048E0002285EFF0EFF9AA84CE85228502992684ED
:1048F000E5F8F2406244D2444249B24901450561BB
:10490000828081C9411106C6B920B24001454101EA
:10491000828005458280014555A0411122C4004195
:1049200026C206C64AC0AA8409E82244B240024907
:104930002685924491454101E5A02285EFF04FF490
:104940002A89228569204A84C5B7AE870C411CC1DB
:104950003E856FF0CFDA797122D4004126D24AD059
:104960004ECE06D62A89AE848149631E94022685DE
:10497000EFF00FF183270900AA85639997002AC6F3
:104980002685EFF0EFEFB2452320A90063940902DA
:104990002320B900268422852254B2509254025911
:1049A000F24945612DA065D82285EFF06FEDA2890F
:1049B0002A8465BF4E85EFF08FD4E9BF41111145C0
:1049C00006C60128B24023200500410182806FF015
:1049D0008FE7011122CC06CE2A84EFE05F9775FDA8
:1049E000B70700209387C7249843D443229798C3DE
:1049F00063F3E600D8C3EFE05F942285EFE0BF9455
:104A00002AC6EFE0BF93324501E937E50000130500
:104A100045DFEFE01F9401A0F2406244056182800F
:104A2000411122C426C206C6AA842E84EFE03F921A
:104A300075FDEFE09F90A2852685EFE01F91EFE0E6
:104A4000FF8FB70700209387C7248C43B24092445E
:104A5000818D22448CC341018280B707002003D599
:104A6000C724828003D50184828023A001848280B0
:104A70004111014506C622C4EFF0FFE9B7E5000089
:104A800001468146938545CA2A84EFF03FB5B7E5D4
:104A90000000228501468146938545C4EFF01FB48E
:104AA0002285B24022444101828079714AD037E99F
:104AB00000004ECEAE89930549CA06D622D426D22E
:104AC000AA84EFF07FB913061500B336A600AE96A0
:104AD0002A84930549CA2685EFF05FB0A285480075
:104AE000EFD0AFAFAA854E85EFF0FF8AAA85268565
:104AF000EFF0DFA5B250225492540259F2494561B9
:104B0000828001114AC837E90000930549C406CEE6
:104B100022CC26CAAA84EFF03FB413061500B336A0
:104B2000A600AE962A84930549C42685EFF01FABF4
:104B3000A2854800EFD06FAAAA852685EFF01FADA9
:104B4000F2406244D244424905618280B7E50000E8
:104B5000411101468146938545CA06C622C42A846E
:104B6000EFD04FBCB7E50000228501468146938512
:104B700045C4EFD02FBBB2402244014541018280A1
:104B8000411106C622C4EFD0BFAC2A84EFF01FFC4F
:104B90002285B24022444101828079714AD037E9AE
:104BA000000052CC2E8A930549CA06D622D426D2BA
:104BB0004ECE56CAAA84EFD02FCA2A84AE8AAA85BE
:104BC0004800EFD08FA11306140033348600B306DB
:104BD0005401AA89930549CA2685EFD0AFB4B746D8
:104BE00000005286CE8526859386A6EFEFD0CF8F24
:104BF000B250225492540259F249624AD24A456153
:104C00008280B7E500000111938545CA06CE22CC0B
:104C10002A84EFD06FC49305F5FF4800EFD0EF9BD7
:104C2000AA8501462285EFD06FA9F2406244056152
:104C3000828079714AD037E90000930549C406D6CD
:104C400022D426D24ECE52CCAA84EFD0EFC02A84F2
:104C50002E8AAA854800EFD04F98130614003334EB
:104C60008600B3064401AA89930549C42685EFD07E
:104C70006FABCE8526850146EFD04FA4B2502254AB
:104C800092540259F249624A4561828079714AD050
:104C900037E9000052CC2E8A930549CA06D622D4A1
:104CA00026D24ECE56CAAA84EFD00FBB2A84AE8A33
:104CB000AA854800EFD06F921306140033348600A3
:104CC000B3065401AA89930549CA2685EFD08FA55A
:104CD0005286CE852685EFD06FB3B25022549254BF
:104CE0000259F249624AD24A4561828079714AD0BA
:104CF00037E90000930549C406D622D426D24ECE09
:104D000052CCAA84EFD04FB52A842E8AAA854800B7
:104D1000EFD0AF8C1306140033348600B306440181
:104D2000AA89930549C42685EFD0CF9FCE852685D5
:104D3000EFD06FD8B250225492540259F249624ACD
:104D4000456182804111014506C622C4EFF0BFBC17
:104D5000B7E5000001468146938545CA2A84EFF0F5
:104D6000FF872285B240224441018280411106C65C
:104D7000EFF02FEBB24001454101828079714AD0BA
:104D800037E9000052CC2E8A930549CA06D622D4B0
:104D900026D24ECE56CAAA84EFF01F8C2A84AE8A41
:104DA000AA854800EFD06F831306140033348600C1
:104DB000B3065401AA89930549CA2685EFF01F82DC
:104DC0005286CE852685EFF0AFFEB2502254925423
:104DD0000259F249624AD24A4561828079714ECEC7
:104DE000B7E9000026D2AE84938549CA06D622D4FC
:104DF0004AD02A84EFF05F861309F5FF9336150039
:104E00004A86B386D5402285938549CAEFF00FFDC7
:104E1000CA854800EFC07FFC2A89AA852285EFF069
:104E2000BF80AA852685EF40A018CA852285EFF0AD
:104E3000EFFDAA852285EFF0DFACB2502254268523
:104E400002599254F24945618280011122CC2A8490
:104E50002E8532C636C42EC206CEEF40801692454D
:104E6000A2463246814763CAA70201488147130719
:104E7000F5FF7D56631FC7022A8701468507A28674
:104E800063C3E704238006006303080011E20144C2
:104E90002285F2406244056182803388F500030870
:104EA0000800138717006304C800BA876DBF054860
:104EB0007DBFB388E500838808006384D8007D1730
:104EC00055BF054665BF3385F50003050500850719
:104ED0008506A38FA6FE6DB7011122CC26CA4AC84B
:104EE00006CE2A89014481442E8532C62EC4EF4065
:104EF000400DB3079900A2453246636BA40023809E
:104F00000700F24062444A85D244424905618280EA
:104F100033878500030707006305C7002380E70088
:104F200085040504D1B7011122CC2EC632C406CEA9
:104F30002A84EF4000092246B245814763CBC7006F
:104F40002295329523000500F240228562440561D6
:104F500082803387F500830607003307F500229728
:104F60002300D7008507D9BF011122CC2EC606CE5B
:104F70002A84EF400005B245814701476397A700A7
:104F8000F24062443A8505618280B306F40083866C
:104F900006006393B60005078507CDB7411106C625
:104FA000EFF09FFCB2400505410182806F40600137
:104FB000011122CC2A842E8532C62EC406CEEF40A3
:104FC0004000A24532468147AA956380A702038725
:104FD000F5FF630CC700B306F4002380E600FD155F
:104FE000038705008507E312C7FE3306F4008587B3
:104FF0002287B286A297FD166319F70023000600E8
:105000002285F240624405618280038506008305A3
:1050100007000507A30FA7FE2380B600E9BF011113
:1050200022CC2A842E8532C62EC406CEEF3070796B
:10503000A2453246814701478146014EB388D500DB
:105040003303E40063CBA7002300030023800800A0
:105050002285F2406244056182803388F5000308AE
:10506000080063070E002380080185068507F9B74D
:1050700063060601050723000301CDBF054EFDB7FA
:10508000011122CC2A842E8532C62EC406CEEF30E2
:105090005073A2453246814763C7A7002285F2407C
:1050A0006244056182803387F50083060700E38749
:1050B000C6FE3308F4002300D80003070700E30FFF
:1050C000C7FC8507D1BF011122CC2A842E8506CECC
:1050D0002EC6EF30106F2A8622856244B245F24018
:1050E00005616FF05FE4814731C1A9C1411126C25A
:1050F000AA842E8522C406C62E84EF30906C014708
:1051000085476318A700B240224492443E8541017E
:1051100082803386E400B306E4000306060083863B
:1051200006006303D60081470507E1BF3E85828004
:1051300009CD814781CD411106C6EFB04FAAB240DB
:10514000933715003E854101828081473E858280EC
:10515000011126CA4AC84EC606CE22CC2A89AE897B
:10516000B284EFF05FF821C14E85EF3090652A845C
:105170004A85EF301065636AA400F24062442685D8
:105180004249D244B249056182804E85EF30706356
:10519000B3078900838707003305A44026952300C1
:1051A000F5000504F1B78144C9BF011122CC2EC618
:1051B00006CE2A84EF30F060B24581476397A7009E
:1051C0000145F2406244056182803307F400030721
:1051D00007006304B7008507D5B70545DDB70111A2
:1051E00022CC2A842E8506CE2EC6EF30905DB245A5
:1051F0002A862285EF30102D2285F2406244056117
:10520000828001456FF02FF141114AC02A892E8515
:1052100006C622C426C22E84B284EFF03FD9AA85E6
:105220004A85EFF02FA02A8622852244B240024907
:10523000A685924441016FF0BFF101114AC82A8945
:105240002E8506CE22CC26CA4EC63284AE84EFF01E
:10525000FFD5AA892285EFF07FD5B385A9004A85BD
:10526000EFF04F9CA685EFF09FF7A285AA84EFF0A0
:105270009FE5F240624426854249D244B249056125
:105280008280011126CAAA842E8506CE22CC32C67F
:105290002E84EFF0BFD1AA852685EFF0AF98A285C6
:1052A00062443246F240D24405616FF07FD0011172
:1052B00026CAAA842E8506CE22CC32C62E8436C4B7
:1052C000EFF0DFCEAA852685EFF0CF95A285624468
:1052D000A2463246F240D24405616FF01FB7011179
:1052E00026CAAA842E8506CE22CC32C62E84EFF0A2
:1052F000FFCBAA852685EFF0EF92A2856244324665
:10530000F240D24405616FF03FBD011126CAAA8464
:105310002E8522CC32C62E8406CEEFF03FC932460F
:105320008145631EB500268532C6EFF0AF8FA2859A
:1053300062443246F240D24405616FF07FD4B30735
:10534000B40083870700E380C7FE8505D9BF01113C
:1053500026CAAA842E8506CE22CC32C62E84EFF031
:10536000FFC4AA852685EFF0EF8BA2856244324602
:10537000F240D24405616FF09FCA411126C2AA844F
:105380002E8506C622C42E84EFF05FC2AA8526852C
:10539000EFF04F89A2852244B240924441016FF060
:1053A0001FE45D71BEC27C1806D622D426D232C656
:1053B000AE8436DEBAC0C2C4C6C63ECEEFF08F861B
:1053C000F2463246A6852A84EF40101B2285B25051
:1053D0002254925461618280797122D42A842E856C
:1053E00006D626D24AD04ECE52CC56CA5AC85EC62F
:1053F000AE89EFF0BFBBAA852285EFF0AF822A8984
:105400008144014A0144930A7002130B2002930B5A
:1054100000024E85EFF09FB963E1A4024A94230095
:105420000400B25022544A8592540259F249624A09
:10543000D24A424BB24B45618280B3879900838741
:1054400007006384570163946701134A1A00639449
:10545000770163070A00330789002300F70005047A
:10546000850445BF411122C406C62E84F528AA85AD
:1054700022852244B24041016FD04F9B411122C48A
:1054800006C62E84B922AA8522852244B240410153
:105490006FD0CF99411106C622C4EFE01FA6375640
:1054A0000000B7E5000013064646938585E22A848E
:1054B000EFC03FF137560000B7E500002285130624
:1054C000C647938545E3EFC0DFEF2285B240224413
:1054D000410182806FC06FE66FC04FE66FC08FECF6
:1054E0006FC04FEF6FC00FF2411106C622C43524C2
:1054F00037560000B7D500001306464D9385855EEC
:105500002A84EFC01FEC37560000B7D50000130601
:10551000864D9385C55F2285EFC0BFEA37560000F0
:10552000B7D500001306C64D938505612285EFC0EF
:105530005FE937560000B7D500001306064E938585
:1055400085652285EFC0FFE737560000B7D500001C
:1055500022851306464E9385456BEFC09FE6228554
:10556000B24022444101828037560000B7E5000076
:1055700037E500001306864E938505E4130545D1F3
:105580006FC02FF3411122C42A842E85B7E5000095
:10559000938505E606C6EFF02F8CAA852285224466
:1055A000B24041016FC08FEB411106C622C4EFE04B
:1055B000DF9437560000B7E5000013064658938580
:1055C00045E62A84EFC0FFDF2285B2402244410134
:1055D000828037560000B7E5000037E5000013066B
:1055E000865A938505E5130545D16FC08FEC4111AF
:1055F00006C622C4DD26B7E50000B75600001386B4
:1056000045E793864649938545E72A84EFC0CFED69
:10561000B7E50000B7660000138605E8228593868B
:10562000468D938505E8EFC02FEC2285B2402244D9
:10563000410182806FC06F8A6FC0EF8C411122C41C
:1056400006C62E84EFC0EF8EAA8522852244B24082
:1056500041016FC0BFFB411122C406C62E84EFC0BA
:105660000F8EAA8522852244B24041016FC01FFAE5
:105670006FC06F906FB05FFF6FC02F8D6FC00FA4B2
:105680006FC0EFA56FC0EFA56FC08FA56FC0AFA5AE
:105690006FC04FA5411122C406C62E84EFC06F9083
:1056A000AA8522852244B24041016FC01FF74111F3
:1056B00022C42A842E85B7D500009385856306C64B
:1056C000EFE09FF6AA8522852244B24041016FC0D7
:1056D000EF8F411122C42A842E85B7E500009385FF
:1056E00045F206C6EFE05FF4AA8522852244B24067
:1056F00041016FC0CF9B411122C42A842E85B7D5AA
:1057000000009385056506C6EFE01FF2AA85228595
:105710002244B24041016FC06F92411106C622C4BB
:10572000EFE0AFFD37560000B7E500001306466313
:105730009385C5E82A84EFC0DFC837560000B7E577
:10574000000013068663938585E92285EFC07FC735
:1057500037560000B7E500001306C663938545EA97
:105760002285EFC01FC637560000B7E500001306BC
:105770006665938545EB2285EFC0BFC437560000B0
:10578000B7E5000013060667938545EC2285EFC058
:105790005FC337560000B7E50000130646679385E0
:1057A000C5EC2285EFC0FFC137560000B7E5000009
:1057B00013068667938545ED2285EFC09FC0375657
:1057C0000000B7D500001306C6679385855E228565
:1057D000EFC03FBF37560000B7D50000130606687C
:1057E0009385C55F2285EFC0DFBD37560000B7D572
:1057F000000013064668938505612285EFC07FBCD3
:1058000037560000B7D50000130686689385856576
:105810002285EFC01FBB37560000B7D50000130626
:10582000C668938585692285EFC0BFB937560000E9
:10583000B7D50000130606699385456B2285EFC036
:105840005FB837560000B7E5000013064669938538
:10585000C5ED2285EFC0FFB637560000B7E5000062
:105860001306E66A938585EE2285EFC09FB537560D
:105870000000B7E500001306266D9385C5EF22856D
:10588000EFC03FB437560000B7E50000228513068D
:10589000666F938505F1EFC0DFB22285B2402244E6
:1058A00041018280411122C406C62E84E920AA85C6
:1058B00022852244B24041016FC05FD7411122C40A
:1058C00006C62E84992AAA8522852244B240410127
:1058D0006FC0DFD5411106C622C4EFE00FE2376684
:1058E0000000B7E500001306468A9385C5F22A84B6
:1058F000EFC03FAD37660000B7E500002285130614
:10590000C68B938505F4EFC0DFAB2285B2402244FD
:10591000410182806FB01FBE6FB05FC16FB09FC486
:10592000411106C622C4EFC04FBE37660000B7E57E
:10593000000013064691938505F52A84EFC07FA8E1
:1059400037660000B7E5000013068691938585F55C
:105950002285EFC01FA737660000B7E5000022854B
:105960001306C691938505F6EFC0BFA52285B24008
:1059700022444101828037660000B7E5000037E528
:105980000000130606929385C5F6130545D16FC036
:105990004FB2411122C42A842E85B7E500009385B9
:1059A00005FC06C6EFE05FC8AA8522852244B24006
:1059B00041016FB07FBB411122C42A842E85B7E517
:1059C0000000938505FC06C6EFE01FC6AA85228568
:1059D0002244B24041016FB03FBF411106C622C40C
:1059E000EFC0AFB237660000B7E500001306269996
:1059F000938545F82A84EFC0DF9C37660000B7E541
:105A0000000022851306669B938585F9EFC07F9B76
:105A10002285B24022444101828037660000B7E50A
:105A2000000037E500001306A69D9385C5FA13050F
:105A300045D16FC00FA8B755000037E500004111F0
:105A40009385E55E130585FC06C622C4EFC0EFDA38
:105A5000B7E50000938545FD2A84EFC0BFAB2285E2
:105A6000B2402244410182809C4513F7070113F89C
:105A7000F70001C7D8413368E80083D5050013F764
:105A8000F50F39C318418146854E3D4F930F800273
:105A900093028004214E3396DE00B3F8C5006311F3
:105AA00016039398260033131F011343F3FF337734
:105AB000E300B318180133E7E800639FF70550C906
:105AC0008506E39AC6FD18C11307F00F6375B70486
:105AD00054412146854E3D4F930F8002930280042E
:105AE000414EB398CE0033F715016392E8021317C5
:105AF000260001173313EF001343F3FFB376D300EF
:105B00003317E800D98E639DF701232A1501050696
:105B1000E319C6FD54C18280E39457FA10C94DB70A
:105B2000E39757FE23281501DDB719C20CC98280FF
:105B30004CC98280371702405C439146B18B638524
:105B4000D700A1466386D706B7177A009387072048
:105B50001CC1371602405C423707002013070703B9
:105B60009183BD8BBA9783C607001C41B3D7D7007A
:105B70005CC15442A1829D8ABA9683C60600B3D600
:105B8000D70014C55442AD829D8A3697034707005B
:105B9000B3D7E7005CC55842398393763700138743
:105BA0004180369703470700B3D7E7021CC98280BC
:105BB0005C435443C983BD8B1396F6008907634940
:105BC000060037173D0013070790B387E70249B770
:105BD00058439316E700E3C606FE37177A0013070B
:105BE0000720E5B799C5371702401C4F5D8D08CFD8
:105BF0008280B7170240984F1345F5FF798D88CF03
:105C0000828083560501F577FD17F58F83D66500F1
:105C1000397122DC06DED58F03D7C5002318F500C5
:105C20008356C500FD779387379FF58F83D6450050
:105C30002A842EC6D58F83D68500D58F83D6A5001E
:105C4000D58F2316F50083574501C207C18393F70B
:105C5000F7CFD98F231AF5006808EFF0BFEDB747EB
:105C6000014093870780B245631EF404A257835610
:105C7000C4006547B387E702C206C186984163D571
:105C8000060406070356C4004206B3D7E70213070B
:105C900040064186B3D6E702B3F7E70292066357A0
:105CA00006028E0793872703B3D7E70213F777001F
:105CB000B367D700C207C1832314F400F2506254C3
:105CC00021618280925765B70A076DBF920793875B
:105CD0002703B3D7E702BD8BD58FE9BF81C98357AF
:105CE000C5000967D98F2316F50082800357C500C8
:105CF000F977FD17F98FC5BF93F5F51F2312B5008E
:105D00008280035545001375F51F828003550500F9
:105D10006D8D3335A000828079714AD02A89116552
:105D20008545110506D622D426D2EFF0BFEB3714F5
:105D30000140930700202312F1008D44E1474C00FD
:105D40001305048026C43EC6EFF01FD2930700401F
:105D50002312F1004C0091471305048026C43EC66F
:105D600037440140EFF05FD0B7070C000C08130573
:105D700004804AC83ECC02CA231E0100EFF07FE82F
:105D8000130504808545EFF07FF5B25022549254FC
:105D9000025945618280011126CAB744014022CCD4
:105DA0004AC84EC606CEAE89328901449384048027
:105DB000634A2401F24062444A85D2444249B249CE
:105DC00005618280930500042685EFF03FF47DD9BC
:105DD000B38789008385070026850504C205C18134
:105DE000EFF09FF1F1B7011106CE2EC615CD184187
:105DF000AA8705C358417D5511CB8546631BD70043
:105E000098472300070023A207000545F2400561DB
:105E100082809847B2462300D7009847050798C765
:105E2000D8437D17D8C3D5B705466C00EFF0BFF651
:105E3000E9BF797122D426D24ECE52CC56CA06D6AC
:105E40004AD05AC82A8AAE8A328481449309000211
:105E500063440602B3879A00838707009DE363D6F5
:105E6000840263D2E402198C93F72600930900029E
:105E700081C719E393090003858A014985EA2289CC
:105E800031A88504C1BF058CC5B70144F1BFCE85DB
:105E900052853AC6EFF03FF532477D19E34920FFBE
:105EA00022896353040001493304244163CBE40293
:105EB000CA84B3872441D69783850700A1E122894C
:105EC0006343200563530400014433059400B2503A
:105ED000225492540259F249624AD24A424B4561D5
:105EE0008280B3049740268B9305000352857D1B67
:105EF000EFF07FEFE31A0BFE26995DBF5285EFF0BE
:105F00009FEE85047DB7CE855285EFF0DFED7D19DC
:105F100045BF5D71A6C252DC86C6A2C4CAC04EDEB1
:105F200056DABA843E8A85E5930700030147D28694
:105F300026862C08231CF100EFF0BFEFB640264464
:105F400096440649F259625AD25A616182802A897E
:105F50003684C68A91CAA94701446317F60063D5FF
:105F60000500B305B0400544A30701029307F10201
:105F7000A546130568FC33F7C50263D3E6002A97EC
:105F800013070703A38FE7FE9389F7FF33D7C502F3
:105F900063FBC50409CCB9C813772A0021CB93054C
:105FA000D0024A8542C6EFF01FE43248FD149377D1
:105FB0004A008DC393071006930500034A85631FAB
:105FC000F802EFF05FE2930580074A85EFF0BFE14A
:105FD0000904F9145687D2862686CE854A85EFF0C5
:105FE0005FE52295A1BFBA85CE8771B71307D002AE
:105FF000A38FE9FE01449389E7FF55BFEFF0BFDEB1
:1060000093058005D9B71D71CEC6DAC0BE8986CE8C
:10601000A2CCA6CACAC8D2C4D6C25EDE62DC66DA28
:106020006AD86ED6B3E7C500428B95EB93070003A1
:106030000147C2864E862C002314F100EFF07FDF6B
:10604000F6406644D6444649B649264A964A064B27
:10605000F25B625CD25C425DB25D25618280AA8A9D
:10606000368A3A89AE84328419CFA9470149639CA4
:10607000F600635A0600B304B040B337900033040F
:10608000C0401D8C0549A30F0100130DF101935D64
:10609000FA41A54C138C68FC5286EE862685A285B3
:1060A000EF00F00A63D3AC00629513050503A30F5C
:1060B000ADFE5286EE862685A285930BFDFFE5296F
:1060C0006366B401639A8D0263F84403630D0900AB
:1060D0006388090293772B0085C79305D002568504
:1060E000EFF07FD0FD190147DA864E86DE855685B2
:1060F000EFF03FD44A95A9B7AA842E845E8D69BF7C
:106100009307D002A38FFBFE0149930BEDFFE1BF84
:10611000397126DA5AD0AA842E8B2E85B28506DEF6
:1061200022DC4AD84ED652D456D25ECE62CC66CA53
:106130006AC8B28B36893AC6BE8942C4468AEF1015
:10614000700032472248AE8CBA87AA850547D288AC
:10615000CA8666862A8C2685EFF0FFEA2A8D93058B
:10616000E0022685EFF03FC8050D8147854A0144CE
:10617000294763CD37076285E685EF1070082A86C8
:10618000AE865A85DE85EF10E0002A8BAE8B5685F1
:10619000A285EF10F0062A86AE865A85DE85EF00CE
:1061A000F033EF10207A13D6F541318DB347B600A6
:1061B000B305C5403335B5003386C740D288CE8796
:1061C000CA86098E094826850547EFF0DFE3F250BD
:1061D00062546A95D2544259B259225A925A025B79
:1061E000F24B624CD24C424D21618280B306870251
:1061F000850733345703B30A570336949DBF39716B
:106200005AD037EB000022DC26DA4AD84ED652D4D8
:1062100056D25ECE62CC06DE66CAAA892E89328448
:10622000014A8144930B5002930AB002294C130B8C
:106230008B0A830509008DE56386090081454E853B
:10624000EFF07FBAF250625426854259D254B259C7
:10625000225A925A025BF24B624CD24C21618280EC
:10626000638875014E85EFF01FB885040509D1B725
:1062700083071900930C1900639A77019305500264
:106280004E85EFF05FB685046689CDB7D5D76387B5
:10629000570563C8FA00130730026384E704814797
:1062A00005A01307D002638AE70013070003E398F1
:1062B000E7FE930C2900894721A0930C290085470C
:1062C00003870C006303570563C1EA02930630029B
:1062D000630BD70266890146A54535A8930C2900B2
:1062E0007DBF930C29009147E1BF9306D00263095B
:1062F000D70093060003E31FD7FC93E7270031A0E4
:10630000850C8547C1BF93E74700850CE1B733068D
:1063100086030509369603070900930607FD13F562
:10632000F60FE3F6A5FE9305E0029946631EB7005B
:1063300005098146A54503070900130707FD1375E5
:10634000F70F63F5A502368A030709009305A00637
:106350006300B70C63C1E5029305C004630AB70A82
:1063600093058006630FB70881451DA8B386860391
:106370000509BA96C9B793054007630BB70893059B
:10638000A0076307B7081305C0068145631AA70075
:10639000030519008D456314E500050991450509BC
:1063A0000307090013050006130810066344E500FF
:1063B0001308100413057006634AE5081305500618
:1063C000635FA700130580056302A70A6344E50421
:1063D0001307B7FB1377F70F8945E3E9E5E81D04D9
:1063E000937584FF3307D64013848500D0418C41D8
:1063F000C2887D173E884E85B687A946EFF05FD1EB
:10640000A1A0030519008145E31CE5F8090949BF6E
:10641000050999BF930630066308D7109306400616
:10642000E316D7E411476398E5081D04937584FFCC
:10643000C288138485003E880547B287A946D041AB
:106440008C414E85EFF03FBCAA940DB59306300702
:106450006305D70463CAE6029306F0066301D70A10
:106460009306000793E74700E312D7E011476391D3
:10647000E5081D04937584FFC288138485003E8857
:106480000147B287C14665BF93065007630FD70225
:1064900093068007E30CD7FCD1BB1840930C440053
:1064A000DA8511C3BA855287BE864E85EFF07F9894
:1064B000AA94668465BB0C40D28811043287854655
:1064C00029464E85EFF0FFA441B71147639CE500D4
:1064D0001D04937584FFC288138485003E8801479C
:1064E000B287A9BF0C40D288110432878146C9BF48
:1064F0000C4032871104D28881464146D9B71147F2
:10650000639DE5001D04937584FFC2881384850094
:106510003E880147B287A1461DB70C40328711045F
:10652000D2888146214671BF1840930C4400A306CF
:1065300001002306E100BE8601476C00BDB739713A
:106540002ED232D4AA855010014506CE36D63AD87E
:106550003EDA42DC46DE32C6EFF07FCAF24021610D
:106560008280011122CC26CA06CE83470500AA8468
:106570000144A307F1008307F100050485E3A9475F
:106580009305F10005460145A307F100EFF0BF8038
:106590002285F2406244D24405618280054693051B
:1065A000F1000145EFF02FFFB387840083C7070098
:1065B000A307F100C9B7B687B2882A832E88639DE6
:1065C000061463F9C50A4167636EE61AB70700014E
:1065D0006363F63493568601E1471787000013077B
:1065E00067BD369703470700BA97130700021D8F50
:1065F00019CB3398E500B357F500B318E60033E83C
:1066000007013313E50013D608013355C8029396EA
:106610000801C182935703013377C802B385A602EC
:1066200042073368F700637AB80046989307F5FF8E
:10663000636418016367B8303E853308B840335748
:10664000C8024203135303013378C802B386E6023B
:10665000420833686800637BD80046989307F7FFC9
:106660006365180179176363D8003E874205598D29
:106670008145828001E60547B358C702416763EA56
:10668000E80EB707000163ECF82893D68801E147CC
:1066900017870000130707B2369783460700BE9698
:1066A00093070002958FE5EB939E08013387154110
:1066B00013DF080193DE0E0185459357030133551F
:1066C000E7033377E703B306D5034207D98F63FAAD
:1066D000D700C6971307F5FF63E4170163E6D726D3
:1066E0003A85958F33D7E703420313530301B3F77A
:1066F000E703B30ED703C207B3E7670063FBD70115
:10670000C6979306F7FF63E51701791763E3D7018F
:1067100036874205598D828063E2D504C16763E202
:10672000F604B707000163E4F61E13D7860161483B
:1067300097870000938707A8BA9703C70700130E2F
:1067400000024297330EEE40631A0E0C63EDB61C46
:106750003335C500134515008145828081450145CB
:1067600082809307F00F63F3D71C13D7860021486C
:10677000C1B71307F00FC686E37C17F193D68800E4
:10678000A14739B71307F00FB286E378C7E49356F1
:106790008600A14799B5B398F80033D6D50013DF2A
:1067A0000801335EE6033397F500B356D500558FE5
:1067B000939E080193DE0E013313F50093550701F4
:1067C000B376E603B387CE03C206CD8E63FBF60035
:1067D000C6961306FEFF63E4161763F2F616791EDB
:1067E000C6969D8E33D6E60393170701C183B3F691
:1067F000E6033385CE02139706015D8F637BA70006
:1068000046979307F6FF636817136376A712791606
:10681000469793150E01098FD18D45B5B357E60004
:10682000B396C601DD8E33D3E50013DF0601B357FF
:10683000E303939E060193DE0E013398C50133579F
:10684000E50033680701935808013316C601337316
:10685000E303B385FE024203B368130163FBB80090
:10686000B6981387F7FF63EAD80C63F8B80CF917EA
:10687000B698B388B84033D7E803420813580801E4
:10688000B3F8E8033383EE02C208B3E5080163FB03
:106890006500B6951308F7FF63EDD50863FB65083F
:1068A0007917B695C207416FD98F1307FFFFB3F66B
:1068B000E70093D80701718F4182B38EE602B3855A
:1068C0006540B386C60213D80E013387E802BA9634
:1068D000C2963386C80263F3E6007A9693D806011F
:1068E000469663E2C5026385C5003E858145828088
:1068F00041677D17F98EC206B3FEEE003315C50160
:10690000F696E374D5FE1385F7FF8145828013D791
:106910000601414831BD93560601C1477DB993D662
:106920000801C147B5B381450545828036870148D6
:1069300001B5428785BF3E86E9BDBA871DBF328E4D
:106940004DB579154698D5B97915C69759BBB6870F
:1069500032882A832E872E8E6393061463F1C50A2C
:1069600041676378E61A1307F00FB2866375C700B4
:1069700093568600A147178700001307A783369711
:106980000347070093080002BA97B388F840638C66
:106990000800B3951501B357F5003318160133EE0F
:1069A000B7003313150113560801B357CE02131560
:1069B0000801418193560301337ECE02B307F502ED
:1069C000420E3367DE006378F70042976365070184
:1069D0006373F70042971D8FB356C70293170301E5
:1069E000C1833377C7023305D5024207D98F63ECE1
:1069F000A7083385A740335515018145828001E6FC
:106A000005473358C7024167636CE80EB7070001BA
:106A10006365F82A93568801E1471777000013074A
:106A2000677936970347070093080002BA97B3883F
:106A3000F840639A081E131E0801B38505411356DA
:106A40000801135E0E0113570301B3D6C502B3F557
:106A5000C502B386C603C2054D8F6377D700429740
:106A600063640701636AD726158F3355C702420353
:106A7000135303013377C7023305C5034207B367D6
:106A8000670063F8A700C29763E5070163F3A700F7
:106A9000C2973385A74033551501814582802A88E6
:106AA000E3EED5F4C16763E5F604B707000163E2DE
:106AB000F62013D38601E148977700009387876F0C
:106AC0009A9703CE070013030002469E3303C34187
:106AD0006319030463E4B6006369C5003308C54065
:106AE000958D333705013387E5404285BA8582802D
:106AF0009307F00F63FBD71C13D38600A1486DBF2B
:106B00001307F00FC286E37A07F193568800A14776
:106B100029B7B70700016366F61A93568601E14765
:106B200099BDB357C601B3966600DD8EB3D8C501D3
:106B300013D70601B3DEE802139F0601B357C50160
:106B4000135F0F01B3956500DD8D13D80501331672
:106B5000660033156500B3F8E802B307DF03C20827
:106B600033E80801637BF80036989388FEFF63637F
:106B7000D8166371F816F91E36983308F840B357E3
:106B8000E802C205C1813378E802330FFF02131710
:106B900008014D8F637BE70136979385F7FF6369A3
:106BA000D7126377E713F9173697C20EC162B3EEB7
:106BB000FE001388F2FFB3F80E019355060193DE31
:106BC0000E0133780601B38F08033307E74133889A
:106BD0000E0393D70F01B388B802C298C697B38E3D
:106BE000BE0263F30701969E41687D1893D50701A5
:106BF000B3F70701C207B3FF0F01F695FE97636273
:106C0000B70A630EB708B307F5403335F500B3058F
:106C1000B740898D339EC50133D567003365AE001B
:106C2000B3D5650082803318180133D7F5001356A9
:106C30000801B356C702131E0801B357F500135ECF
:106C40000E01B3951501DD8D93DE0501331315019A
:106C50003377C702B307DE0293160701B3E6D60106
:106C600063F8F600C29663E5060163F3F600C29688
:106C70009D8E33D7C60293970501C183B3F6C60232
:106C80003307EE0293950601DD8D63F8E500C295AA
:106C900063E5050163F3E500C295998D6DB3E37477
:106CA000F5F63386C740B3B7C700B6979D8DB28758
:106CB00099BF13D30601C14801B593560801C147D6
:106CC000A9BB93560601C1477DB136838148EDB318
:106CD000AE87E1BDC68E55B5429779B339714AD8B2
:106CE00013D945014ED652D456D29399C50006DE2B
:106CF00022DC26DA5AD05ECE1379F97F2A8A93D91C
:106D0000C90093DAF501630D090E9307F07F63065E
:106D1000F9181354D5018E09B36934013704800082
:106D200033E4890093143500130919C08149814B5C
:106D300013D74601139AC6001377F77FB285135A0B
:106D4000CA0013DBF601630B07109307F07F6303A0
:106D5000F7049357D6010E0A33EA4701130717C009
:106D6000B7078000B367FA00931536003A99814857
:106D700033C76A01BD463A851308190063E8361720
:106D800017760000130606338A09B29983A6090014
:106D9000B2968286B367CA001309F97F6399071216
:106DA00093E9290081458948E1B701479307F07FBE
:106DB0003704080081443204D20731807E075D8C9D
:106DC000598CA285F250625426854259D254B25948
:106DD000225A925A025BF24B216182805A853E848C
:106DE000AE84C68B8947638DFB0E8D47E38FFBFA1C
:106DF00085472A87639EFB3881470144814465BFEC
:106E000033E4A90061C036C632C4638C092A4E85BA
:106E1000EF1050622246B246AA87130755FF754409
:106E2000938487FF198CB399990033548A00336493
:106E30003401B3149A0013D746011309D0C0139A32
:106E4000C6001377F77F3309F9408149814BB2853A
:106E5000135ACA0013DBF601E31907EEB367CA0041
:106E6000B1C7630F0A22528532C4EF10B05C2246CC
:106E70002A87930655FFF547930587FF958F331AA9
:106E8000BA00B357F600B3E74701B315B6003309AC
:106E9000E9401309D9C08148E1BD33E4A90001EC00
:106EA000A14981441309F07F894B59B593E9190031
:106EB0008145854875BD4E84AA84B1491309F07F88
:106EC0008D4BBDB5914981440149854B95B593E9F9
:106ED0003900D2878D4869BD89475685E397FBF015
:106EE0002A879307F07F01448144F1B5C16E138670
:106EF000FEFF93D6040113DE0501F18CF18D33867C
:106F000095023383B6029358060133059E021A9503
:106F1000AA98B382C60363F36800F692C16F138325
:106F2000FFFF33F5670093D30701B3F76800C2078B
:106F3000337366003E933306950293D80801B387F6
:106F4000A602135F0601B3849302BE94FA94B38E33
:106F5000760263F3F400FE9E416A9307FAFF935FA3
:106F60000401B376F400B3F9F4007D8EC18033845C
:106F7000D502C209338FD401B299CE98B307DE028D
:106F8000935E0401B385BF02AE97BE9E330EFE032F
:106F900063F3BE00529EC1679385F7FF33F6BE00D0
:106FA0006D8C4206229693DE0E01B305D502769EC5
:106FB0003385AF0213D40501B386D302AA96A296F5
:106FC000B38FF30363F3A600BE9F41657D15B3F74E
:106FD000A600C2076D8DAA97B3855800B3B93501D5
:106FE000FA97B2953384370133B6C500B30EC401A6
:106FF0003385CE0033343401B3B7E701C18F33BEDC
:10700000CE0113D406013336C5003E943366CE005C
:107010009394950032947E94B3E4640026049356CE
:107020007501B3349000DD8193179500CD8C558C9C
:10703000DD8C9317740063DB070093D714008588F9
:107040009316F401DD8CD58C058042899307F93FB6
:107050006359F00893F6740081CE93F6F40011465C
:107060006388C60093864400B3B496002694B68421
:107070009316740063D80600B70700FFFD177D8CD8
:10708000930709409306E07F63CFF60E93D6340052
:107090009314D4012604D58C318093F7F77F21BB5C
:1070A000328532C4EF10103993065501F1471307AA
:1070B00005022246E3D1D7DC6115B317A60081454E
:1070C000F9B3EF10303713075501F1459307050267
:1070D0002246B246E3D5E5D461153314AA008144B3
:1070E00099BB85469D8EB1E71309E941B397240109
:1070F000B3D4D40033192401B337F000B36499003A
:10710000DD8C93F77400B356D40081CF93F7F4006D
:1071100011466388C70093874400B3B49700A696CE
:10712000BE849397860063D8070485470144814451
:1071300059B113068003E341D6CC7D46E356D6FA17
:107140000556B307F640930500023356F4006387F3
:10715000B6001309E943B3172401DD8CB334900062
:10716000D18C93F67400014499CA93F7F400114648
:107170008146E392C7FA139496003180F6068D801B
:10718000D58C81470DB99307F07F0144814425B127
:1071900042896DBD370710007D1701113373B700A9
:1071A00093D84601758F935ED60122CC26CA0E0372
:1071B00093D445019357D5010E0706CE4AC84EC653
:1071C00093F8F87F130EF07F33E7EE0093F4F47F2B
:1071D00013D4F50133E36700131F3500FD82931EBE
:1071E00036006380C81993C61600B3851441630541
:1071F000D4126351B018638B081AB70780005D8FF3
:107200006381C4599307800363C4B734FD4763C5E2
:10721000B748930700028D8FB3D9BE003318F7002B
:10722000B39EFE00336838013357B700B339D0013D
:10723000336838013303E340B3090F41B3373F01EB
:107240003306F3409317860063D307243709800081
:107250007D1933792601630F092C4A85EF10901DA3
:10726000130785FF93070002998FB3D7F9003316F0
:10727000E900D18FB399E9006344972A058F13067B
:107280001700FD4663C5C63A13070002118FB3D637
:10729000C9003398E9003397E700558F3338000170
:1072A000B369070133D6C700814493F7790081CFD2
:1072B00093F6F90091476388F6009386490033B846
:1072C00036014296B6899317860063D6071C13874A
:1072D00014009307F07F05886306F720B70780FF47
:1072E000FD17F18F1398D70193D93900A60733689A
:1072F0003801B1831377F77F9396C7005207B182A5
:107300007E04D98EC18EF2406244D2444249B249D1
:107310004285B685056182806356B00A638A081289
:10732000B70780005D8F6387C42D9307800363C711
:10733000B718FD4763D2B73C138805FE93070002D8
:10734000B3590701638AF50093070004B385B7407A
:107350003317B700B3EEEE003338D001336838018D
:1073600095A2B367D7019385148099E393C616005D
:10737000630AD404D1E19387140093F7E77F6399FC
:10738000071EB367E3013368D70163920416638273
:10739000073C63160842131835009316D30113589F
:1073A000380033E806019357330019A2B367D701B9
:1073B0006385071A9387F5FF638B073A638CC523B0
:1073C000BE8589B56399051C9386140093F7E67F03
:1073D000C1EFB367E30163900436638D0744B3677D
:1073E000D701639407460E051318D3010D81336846
:1073F000A800935733006DA8B38598406397042085
:10740000B367E301638D07309387F5FF6389074016
:107410001305F07F6383A520BE859307800363C2B5
:10742000B72AFD4763C8B73C930700028D8F331816
:10743000F3003356BF00B317FF003368C800B339F9
:10744000F0003353B3003368380133076740B5ACFD
:10745000B367D701638307109387F5FF638F071E18
:107460006380C52FBE85D1B59307F07F638BF60689
:10747000FA9E33B6EE01B307E300B2971398F70113
:1074800093DE1E00B369D80113D61700B68493F7B4
:107490007900E39F07E09317D60113D839003368CA
:1074A000F800A685935736001307F07F6380E50642
:1074B000B207B18313F7F57F05883DBD3367D70168
:1074C0003338E000B309E801B3B7E9013386670058
:1074D00093178600E3DD07FA85049307F07F639C2A
:1074E000F41805881307F07F8147014831B563918F
:1074F00007106301083C131836009317D70113587F
:1075000038003368F800368493573700B367F800C3
:10751000E9DB01441307F07FB70708000148E9BB26
:10752000370680FF7D167D8E93F77900998CE39165
:1075300007D895B74E85EF10E06F13078501FD471B
:10754000E3D2E7D2130685FFB397C90081492DB373
:107550003368D70133380001C5B1131835009317CC
:10756000D301135838003368F800935733002DBF08
:10757000B309DF413309E34033363F013309C940E2
:107580009317890063CA072033E82901E31508CC63
:107590008147014431BFB385984063810414B70625
:1075A00080009307F07F3363D3006381F820930753
:1075B000800363CCB722FD4763C9B72C9307000251
:1075C0008D8F3318F300B356BF00B317FF00336835
:1075D000D800B339F0003353B300336838011A9739
:1075E000B309D801B3B7D9013386E700C684CDB556
:1075F000E31108F2131835009317D301135838001C
:107600003368F8009357330011B7370580009307AC
:10761000F07F3363A300E392F8E00E061318D7015E
:107620000D823368C800935737003684C5B50517F7
:107630009306000233D7E700630AD60093060004DE
:107640003386C6403396C700B3E9C90033383001EA
:10765000B369E800014681441DBDB309DF01B307EA
:10766000E30033BFE9013386E701931786008544C1
:10767000E3DF07E08944B70780FFFD17F18F13D7D9
:10768000190013F81900336807019399F701B3E95A
:10769000090113D6170011B9138805FE93070002DC
:1076A000B3590701638AF50093070004B385B74017
:1076B0003317B700B3EEEE003338D001336838012A
:1076C000A5BE3363E30133386000B3890E41B3B71D
:1076D0003E013306F740C6843684ADB6B367E30196
:1076E000638707189387F5FF638C071C9306F07F69
:1076F000638ED50ABE8565BD930700028D8FB3D911
:10770000BE003318F700B39EFE00336838013357CC
:10771000B700B339D001336838013A9365B3131811
:1077200036009317D7011358380033E80701368421
:107730009357370095BBBDCB3367D701E31B07DCFD
:107740000E051318D3010D813368A8009357330039
:1077500075BBE30F08E2131836009317D7011358CF
:1077600038003368F80036849357370091B3B30973
:10777000DF41B307E340333F3F013386E7418544B0
:10778000D1B4131835009316D3011358380033E8D9
:107790000601935733009DBBB389EE413306674022
:1077A00033B93E0133092641368475B40E061318E9
:1077B000D7010D823368C8009357370081BBB309E6
:1077C000DF41B307E34033363F013386C7409317A9
:1077D000860063D7070AB389EE41B3076740B3BE9B
:1077E0003E013386D7413684C9B43363E30133386D
:1077F0006000FDB3138805FE93070002B35903012F
:10780000638AF50093070004B385B7403313B300D0
:10781000336F6F003338E001336838017DB5B389C9
:10782000EE41B3076740B3BE3E013386D74136848D
:10783000854409BC131836009317D7011358380034
:107840003368F80093573700A5B1B309DF01B307D8
:10785000E30033BFE9013386E70193178600E3D8DD
:1078600007C2B70780FFFD177D8E85440DB10E0658
:107870001318D7010D823368C800935737002DB114
:1078800033E8C900E30608D019B1138805FE930751
:107890000002B3590301638AF50093070004B3851E
:1078A000B7403313B300336F6F003338E0013368F0
:1078B00038013DB301441307F07FB70708002DBC22
:1078C000B309DF01B307E300B3BED9013386D701A3
:1078D00069BB411106C622C426C20DCD9357F5419E
:1078E000B3C4A7009D8C2A842685EF10A03493068C
:1078F000E041898EA9477D8093F6F67F63CDA7028C
:107900002D47098FB3D7E4005505B207B394A400FF
:10791000B18329A00144814681478144B207D20640
:10792000B1837E04D58FC18FB24022442685BE85A7
:107930009244410182805515B397A400B207B183E8
:107940008144E9BF3707100093D745019306F7FF3D
:1079500093F7F77F1308E03FED8E13D6F5016353DD
:10796000F8029305D04363D2F5028545918D330526
:10797000B04013D6F541B7050080B337A000918D14
:107980009D8D828001458145828013082043B3E5A7
:10799000E6006354F8021387D7BA9387D7BC6345D0
:1079A0000704B315E500014565D23305A040B337A0
:1079B000A000B305B0409D8D8280930630439D8E1C
:1079C0007D47634CD7001387D7BE3397E500335507
:1079D000D500598DB3D5D500C1BF130530411D8DDC
:1079E00033D5A5008145C9B7FD46135715009D8EB7
:1079F0003357D700B395F500D98D3315F5006DB722
:107A0000011106CE22CC26CA4AC84EC6B367B500BD
:107A10009DCFAE84AA8913D9F50163CE05042684CF
:107A2000ADC42685EF1000219306E043898E9307AD
:107A3000304363CAD7089397C4002D464E8793F608
:107A4000F67FB1836359A600130655FFB9A8014913
:107A5000814681470147B207F2406244D206B183B2
:107A60007E09D58FB3E72701D2444249B2493A850E
:107A7000BE85056182803305A040B336A000B30403
:107A8000B040958CAA892684C9FC4E85EF10801AD7
:107A90002A869306E04313050502898E9307A00208
:107AA00093F6F67F63C7A70C55061307B002098F3C
:107AB000B397C40033D7E9005D8F9317C700B18334
:107AC0003397C90049BF9307604363DBD70221475F
:107AD000098F930507FE63C2050CB3D5B4000147B7
:107AE0001306850193078503634C06083396C90086
:107AF0008149B3E9C90033363001B3E9C5003A849E
:107B0000A1474E8663C9A704B70780FFFD17937589
:107B100076003377F40085C59375F60011486380CD
:107B200005039305460033B6C50032971316870048
:107B3000635106089306F0437D8F898E2E86135578
:107B40003600931797001316D7013367A600B18349
:107B500093F6F67F09B793078002930585FF898F17
:107B6000B3D7F9003317B40033E4E7003396B90014
:107B700061BF5516B397C900B207B1830147E1BD94
:107B80007D4613D819001D8E3358C8003396F40073
:107B90003366C800B399F900A9BF7D46198E939743
:107BA0001400B3D5E900B397C700DD8D33D7E400E7
:107BB00005BF2E8669B74111370780007D1713D89E
:107BC000750126C2935475013373A70093F4F40F23
:107BD000B376B7004AC01378F80F1359F50106C6FB
:107BE00022C4FD819A8726854A86131E3300939E00
:107BF0003600B3880441630AB90E6350100D630464
:107C000008149307F00F638BF414B7070004B3EE66
:107C1000FE00ED4763C1172993070002B3871741A0
:107C2000B397FE00B3D81E01B337F000B3E7F800F6
:107C3000B307FE4013975700635E0718370400042C
:107C40007D147D8C2285EF00F07E6D15B317A400A6
:107C50006348951A058D1304150013070002018F60
:107C60003397E7003337E000B3D78700D98F8144DB
:107C700013F7770019C713F7F70091466303D7008E
:107C8000910713975700635B071485041307F00FE0
:107C90004A866383E4169A07A58313F5F40FB2406E
:107CA0002244A6079314750113D59700458D7E06CF
:107CB00092440249518D410182806399080A1387D9
:107CC00014001377E70F6317071463900422630D02
:107CD0000E1EE3860EFCB307DE4113975700635078
:107CE0000722B387CE412E8961B7635C100B630E08
:107CF00008089307F00F6383F406B7070004B3EE98
:107D0000FE00ED4763C9171F93070002B3871741B1
:107D1000B397FE00B3D81E01B337F000B3E7F80005
:107D2000F297139757006357070A85041307F00F5C
:107D30006384E40CB706007E13D71700FD16858B0D
:107D4000758FD98F35B7638D0E08FD18B307DE41E7
:107D5000E38208EE9307F00FE39DF4EA630D030856
:107D600001461305F00FB707400015BF33079840D1
:107D7000EDE863020E147D17630807189307F00FF0
:107D80006319F80E2E893683D1BF638B0E04FD185C
:107D9000B307DE01E38708F89307F00FE393F4F6E7
:107DA00075BF63950808850413F7E40F6313071282
:107DB00063170510630F0E14E3830EEEB307DE01A5
:107DC00013975700814463570700370700FC7D175E
:107DD000F98F854413F77700E31F07E813D33700C3
:107DE0009307F00FE38CF4F693179300A58313F534
:107DF000F40F4A866DB54A861305F00F814745B5E5
:107E0000370700FC7D17F98F13F77700898CE3148F
:107E100007E6E9B73304DE419317540063C3070C48
:107E2000E31204E201460145814795BD33079840BE
:107E3000ADC49307F00FE308F8F4B7070004336EFE
:107E4000FE00ED4763CCE70C93070002998FB31750
:107E5000FE003357EE00B337F000D98FF697C28497
:107E6000C9B59307F00FE30FF8F0B7070004336EBE
:107E7000FE00ED4763C3E70893060002998EB31630
:107E8000DE00B357EE003337D000D98FB387FE4002
:107E9000C2842E8945B3854761BB630E0E067D17EC
:107EA000B307DE01C284E30E07E69307F00FE31A7F
:107EB000F8F8368365B53683C2842E8915B7E30496
:107EC0000EECE38D0EE869BD638D0E022E86B6873B
:107ED000F9B39307F00FE381F4F2B307DE01858372
:107EE000D5BD3384CE412E89B1BBE31C0EFCE389A2
:107EF0000EE62E8949BD854725B5854741BFE39BE1
:107F000007EC0146814761BBB387CE41C2842E890D
:107F100015B3B68769B33683C284D9B585473DBFEB
:107F20003971935775014AD856D25ECE931A95008F
:107F30001359F50106DE22DC26DA4ED652D45AD089
:107F400093F7F70F93DA9A00CA8B6382071213072D
:107F5000F00F6384E7128E0A37070004B3EAEA00E1
:107F6000138A17F80144014B93D775019394950038
:107F700093F7F70FA58093D9F501FDC71307F00F0D
:107F80006387E7028E04938717F837070004D98CBC
:107F9000330AFA408146558C17670000130787158E
:107FA0000A043A941C4033493901BA978287130A6C
:107FB0001AF0F9E88946558C1767000013078717F0
:107FC0000A043A941C4033493901BA97828701491F
:107FD0001307F00FB707400013959700F250625453
:107FE0009317770125817E095D8D33652501D25474
:107FF0004259B259225A925A025BF24B2161828055
:108000001307F00F8147C9BFA68ACE8B368B8947ED
:10801000630BFB1A8D47E30CFBFA8547630AFB0AE7
:108020001307FA0713F91B006357E01293F77A005E
:1080300099C793F7FA0091466383D700910A939703
:108040004A0063D90700B70700F8FD17B3FAFA0032
:1080500013070A089307E00FE3C4E7FA93976A004F
:10806000A5831377F70F8DBFB9E48546A9B763944D
:108070000A021144014A054BC5BD63990A00214417
:10808000130AF00F094BCDB58D4631B73144130AB1
:10809000F00F0D4BD1BD56852EC6EF00B0399307BA
:1080A000B5FFB39AFA009307A0F8338AA7400144BA
:1080B000014BB24555BD2685EF00D0371307B5FFFC
:1080C000B307AA00B394E400138A67078146E1B5B9
:1080D00013F91B000147814701B74166139554000E
:1080E0007D1693570501698E63FA9A0AB3D5FA0291
:1080F0007D1AD68601473388C502B3F6F602C2065A
:10810000558F637B07012A979386F5FF6368A70A5B
:108110006376070BF9152A9733070741B356F70221
:108120003377F702B38AC6029317070163FB57013F
:10813000AA971387F6FF63E1A70863FF5707F916AD
:10814000AA97C205B38A5741D58DB33A5001B3EA15
:108150005501CA8BF1B58546998E11C76D46014709
:108160008147E34BD6E6130AEA09339A4A01B3D7AB
:10817000DA00B33A4001B3E7570113F7770019C7A4
:1081800013F7F70091466303D70091071397570041
:10819000634807029A07A58301473DBD93D61A009D
:1081A000B3D5F6021397FA0141833388C502B1B7FC
:1081B000CE8B368B814AA1BDBA8661B7B685A9BF81
:1081C0000547814711BD13F91B001307F00F8147C5
:1081D00021B593567501B7078000FD1713D67501B9
:1081E00093F6F60F1308F00FB3F8A7001357F50135
:1081F000ED8F1376F60FFD81638406031305F00FF0
:108200006304A60205456383C6008280E39FF8FEEF
:108210000145E30CB7FE0545EDFA333510018280C8
:108220000545E38D08FC82800545E9DF8280935691
:108230007501B7078000FD1713D6750193F6F60F89
:108240001308F00FB3F8A7001357F501ED8F13765D
:10825000F60FFD8163810603630C06018DE211E2D6
:10826000B1C3638E08026305B70405451DE782802C
:10827000F5D779558280E39E08FE6309D60211E2A4
:10828000EDD7E314B7FEE342D6FE63C7C600E3EEC4
:1082900017FD0145E3FDF8FC01E77D558280F5DD22
:1082A000054582800145E39208FC8280F9DBD1B765
:1082B0008146E1BF93567501B7078000FD1713D6BD
:1082C000750193F6F60F1308F00FB3F8A7001357D4
:1082D000F501ED8F1376F60FFD81638706036309C1
:1082E000060185EA11EA89EB0145639B080082805B
:1082F0000945F5FFE5DA31A8638C08026300B7048D
:10830000054575D77D558280094563980802630449
:10831000D60211E2F5D7E315B7FEE343D6FE63C7F5
:10832000C600E3EF17FD0145E3F3F8FC19E3D9BFFD
:10833000F1D905458280E5D3828082808146C5B728
:10834000797122D4135475014ECE52CC93199500F5
:1083500006D626D24AD056CA5AC81374F40F93D9F7
:108360009900135AF50169C49307F00F6308F40EDE
:108370009397390037070004B3E9E700130414F8B2
:108380008144014B13D77501939A95001377F70F2A
:1083900093DA9A0013D9F50145CF9307F00F630CD8
:1083A000F7028E0A130717F8B7070004B3EAFA00BA
:1083B0003A94014633452A01BD47AA869305140025
:1083C00063E09710176700001307C7DA8A04BA94AE
:1083D0009C40BA9782871304F40F63960A0C93E4C7
:1083E00024000946C1BF01451307F00FB70740003D
:1083F000B2502254A6075E07A5837E05D98F9254FA
:108400000259F249624AD24A424B5D8D45618280EF
:10841000CA86D689328B8947630FFB088D47E304F0
:10842000FBFC854736856310FB1A01478147C9B7B6
:10843000639D090413D77501939A95001377F70F7D
:1084400091440144054B93DA9A0013D9F50131F7B1
:10845000639D0A0093E414000546A9BF63920902D4
:10846000A1441304F00F094B31BF5685E127930750
:10847000B5FF098CB39AFA001304A4F801461DBF96
:10848000B1441304F00F0D4BF5BD4E852EC65D278C
:108490009307B5FF1304A0F8B399F900098C814440
:1084A000014BB245C5B593E434000D4621B7894769
:1084B000D286E315FBF636851307F00F81470DBF13
:1084C00041639306F3FF13D6090193D80A01B3F76A
:1084D000D900B3FADA0033885703B389F802135787
:1084E0000801B30A5603D6994E97330616036373F1
:1084F00057011A96C167FD17B376F7003378F80075
:10850000C206C2969399660093570701B3393001AA
:10851000E982B2979A07B3E6D900B3E9D7009397F7
:10852000490063D9070013D7190093F71900B369FD
:10853000F7002E841307F4076350E00493F77900E3
:1085400099C793F7F90091466383D70091099397F0
:10855000490063D90700B70700F8FD17B3F9F90020
:10856000130704089307E00F63CBE70493976900B0
:10857000A5831377F70FADBD8547B386E74011C7D5
:108580006D4601478147E345D6E61307E409339773
:10859000E9003337E000B3D7D900D98F13F777005C
:1085A00019C713F7F70091466303D7009107139794
:1085B0005700634C07009A07A583014715BD1307B1
:1085C000F00F814735B52E84B5B7054781470DB506
:1085D0003707800041117D179356750113D8750137
:1085E000B377A70093F6F60F935EF5013376B700E5
:1085F00026C24AC01378F80F06C622C41303F00F30
:108600003E8E3689F684139F3700FD8113153600A0
:10861000B38806416302681093C51500638CBE10D1
:108620006354100D631008106304051EFD18B30792
:10863000AF40638608029307F00F6388F616ED4794
:1086400063C7172913070002330717413317E500E3
:10865000B35715013337E000D98FB307FF401397A5
:1086600057006351071A370400047D147D8C22855E
:10867000D1236D15B317A400634E251B3305254187
:108680001304150013070002018F3397E7003337F7
:10869000E000B3D78700D98F014913F7770019C7D6
:1086A00013F7F70091466303D7009107139757001C
:1086B000635E0714930619001307F00F93FE14006E
:1086C0006386E6169A07A58393F6F60FA607B240CF
:1086D000224413D59700DE069397FE01558D9244F0
:1086E00002495D8D410182806392080A138716005A
:1086F0001377E70F631B07146394062263020F20AE
:1087000071D5B307AF401397570063550722B307DE
:10871000E5410149AE8451B7E30005F0638ABE0A22
:10872000E35410FD9307F00F6381F608B7070004C8
:108730005D8D31B7635E1009630108089307F00F80
:108740006385F606B70700045D8DED4763C0171F0C
:1087500013070002330717413317E500B35715011C
:108760003337E000D98FFA9713975700635C0708F7
:1087700005091307F00F630BE90AB706007E13D74C
:108780001700FD16858B758FD98F01BF3307D84031
:1087900063950610630D0F147D176303071A930783
:1087A000F00F6314F810AE84328E630F0E06814E04
:1087B0009306F00FB707400011BF39C9FD18B30782
:1087C000AF00E38308FA9307F00FE390F6F8F1BFE8
:1087D00063990808138916001377E90F63160712C7
:1087E000639B061063030F16E30205EEB307AF00A9
:1087F00013975700014963570700370700FC7D179F
:10880000F98F054913F77700E31C07E813DE3700FB
:108810009307F00FE30BF9F893179E00A583937667
:10882000F90F93FE14005DB593FE14009306F00F4C
:10883000814769BD370700FC7D17F98F13F7770073
:108840003309A940E31E07E4D1B73304AF409317BF
:10885000540063C3070CE31C04E0814E814681474A
:10886000B5B53307D840B5C69307F00FE30EF8F25D
:10887000B7070004336FFF00ED4763CDE70C9307A4
:108880000002998FB317FF003357EF00B337F000A2
:108890005D8FB307A7004289C1BD9307F00FE304C2
:1088A000F8F0B7070004336FFF00ED4763C2E70835
:1088B00093070002998FB317FF003357EF00B337C8
:1088C000F000D98FB307F5404289AE8449BB854794
:1088D00069B3630E0F067D17B307AF004289E30546
:1088E00007E89307F00FE319F8F8328E7DBD328E5A
:1088F0004289AE8431BFE3090FEAE30805EA45BDCA
:108900000DCDAE8EB287D9B39307F00FE300F9F225
:10891000B307AF008583FDB53304E541AE8481BB69
:10892000E31D0FFCE30505E8AE84BDBD854725BD0D
:10893000854749BF0149E39707EC814E814779B3E9
:10894000B307E5414289AE8419BBB28741B3328E89
:1089500042897DBD054735BF411106C622C426C2E6
:108960000DCD9357F54133C4A7001D8CAA842285F1
:10897000D1249307E0093387A74093076009FD805E
:1089800063CCE702A1469377F70F63D5A600611584
:108990003314A4002604258021A08144814701448A
:1089A000260413559400B2402244DE07FE045D8D78
:1089B000458D9244410182809307900963DDE70071
:1089C0009307B5019546B317F400898E3354D4004C
:1089D000B337F0005D8C954763D6A7009307B5FFCA
:1089E0003314F400B70600FCFD1693777400337659
:1089F000D40085C39377F4009145638CB7001106CA
:108A00009317560063D707009307F009758E3387D5
:108A1000A7401314660025809377F70F51B71357BB
:108A200075011377F70F41119307170022C426C26F
:108A30001314950006C693F7E70F25809354F501AC
:108A400085C793573400130707387604B2075207D7
:108A5000B1831395F401D98FC98FB2402285224486
:108A60009244BE854101828005EB39C42285D9221A
:108A7000A94763C6A7042D47098F930755013357AC
:108A8000E4003314F4009317C70013079038098FDC
:108A9000B1831377F77F5DBF01CC13573400B7075D
:108AA0000800D98FB2077604B1831307F07F79BF2E
:108AB0001307F07F814759BF0147814741BF130723
:108AC00055FF3317E40001447DBF93D645019397CA
:108AD000C50093F6F67FB183138616008E071357F1
:108AE000D5011376E67FFD815D8F9318350035CE75
:108AF000138806C89307E00F63DD070181471395CC
:108B000097009306F00FDE062581FE05558D4D8DED
:108B100082806355000B931765000E07B337F00092
:108B2000D98F93D8D801B3E7170113F77700630102
:108B3000071013F7F70091466303D7009107370733
:108B400000047D8F75C7130718001306F00F937686
:108B5000F70FE305C7FA9A07A58313959700DE067A
:108B60002581FE05558D4D8D8280B367170199EEE5
:108B700085CF95479A07A5831395970093F6F60F2F
:108B8000DE062581FE05558D4D8D8280A5DBB7075C
:108B90004000139597009306F00FDE06814525816E
:108BA000FE05558D4D8D8280814713959700814636
:108BB000DE062581FE05558D4D8D8280A5576348C3
:108BC000F804F94737068000B38707417D45598E81
:108BD0006351F504795733070741130500023357F2
:108BE000E6006388A700938626CAB316D600B3E8CA
:108BF000D800B3371001D98F13F77700014815FB60
:108C0000139757008546E34807F48146A5B7814688
:108C10008DB7938626C83397D8003337E000B31654
:108C2000D600B3D8F800B367D700B3E7F800E9B7C8
:108C3000C28689B7C167637EF5029307F00F1307F9
:108C4000000263ECA700975700009387A756AA97E6
:108C500003C507003305A740828021819757000094
:108C600093874755AA9703C5070061473305A74077
:108C70008280B7070001636EF5006181975700009D
:108C800093874753AA9703C5070021473305A74099
:108C900082804181975700009387C751AA9703C5E7
:108CA000070041473305A740828081456F100002CD
:108CB00093878180AA85884355AA93878180AA8556
:108CC000884309A2B3C7A5008D8B3307C50081E790
:108CD0008D4763EEC700AA876370E50A83C6050067
:108CE00085078505A38FD7FEE3EAE7FE82809376AA
:108CF0003500AA8791CA83C6050085078505A38F1D
:108D0000D7FE93F63700FDB79376C7FF138606FEAE
:108D100063F0C70683A3050083A2450083AF8500E7
:108D200003AFC50083AE050103AE450103A3850172
:108D300083A8C5019385450223A0770003A8C5FF3A
:108D400023A2570023A4F70123A6E70123A8D701F4
:108D500023AAC70123AC670023AE170193874702FC
:108D600023AE07FF75B790419107910523AEC7FE6B
:108D7000E3EBD7FEE3E4E7F6828063F3A504B38672
:108D8000C500637FD5029345F6FF8147FD176393C6
:108D9000F50082803387F600034807003387C70059
:108DA0002A9723000701DDB73387F50083460700C4
:108DB0003307F50085072300D700E317F6FE82800E
:108DC0008147E5BFDDC183A7C5FF411122C406C6A7
:108DD00026C21384C5FF63D307003E94AA84EF1014
:108DE000D019938741849C4381EF2322040023A25E
:108DF00081842244B2402685924441016F101018AC
:108E0000637EF40014403307D4006396E700984370
:108E1000DC43369718C05CC0D9BFBA87D84319C3A2
:108E2000E37DE4FE94433386D700631F8600104041
:108E3000B29694C33386D700E31DC7FA1043584354
:108E4000B29694C3D8C375B76375C400B1479CC0CC
:108E50004DB71040B306C4006316D70014435843FF
:108E6000B29614C058C0C0C369B78280011126CA27
:108E700093843500F19806CE22CC4AC84EC6A10490
:108E8000B14763F3F404B14463E2B4042A89EF10F8
:108E9000D00E9387418498433A8439E09387818444
:108EA0009C4391E781454A85612823A4A184A68536
:108EB0004A857920FD5963193507B1472320F90008
:108EC0004A85EF10B00B29A0E3D004FCB1471CC1C8
:108ED0000145F2406244D2444249B2490561828070
:108EE0001C40858F63CF0702AD4663F6F6001CC0B9
:108EF0003E9404C031A05C406313870223A2F18436
:108F00004A85EF10B0071305B40093074400619938
:108F10003307F5405DDF3A94898F1CC05DBF5CC3A9
:108F2000C5B72287404095BF130435007198E3020E
:108F300085FCB305A4404A852120E31C35FBB5BF61
:108F4000411122C42A842E8523AC013C06C6EF4081
:108F50002030FD576317F5009387813D9C4391C3F3
:108F60001CC0B24022444101828035713ECBB7071C
:108F7000008093C7F7FF3ECE3EC8C1779387872016
:108F800032C536C73AC942CD46CF3ECA93878180A3
:108F90002AC42ACC884334012E862C0086DE36C2B1
:108FA000EF200028A24723800700F6500D61828041
:108FB000AA8703C7050085078505A38FE7FE75FB14
:108FC0008280AA87850703C7F7FF6DFF3385A74017
:108FD0007D15828005C67D160147B307E500B3867F
:108FE000E50083C7070083C606006396D7006304C5
:108FF000C7000507FDF33385D74082800145828095
:10900000011122CC2A872E843A85A28532C606CE4B
:10901000EF10D06332462A88AE8805C6518013749B
:10902000F47F9307B006818F635DF000D2073707A6
:10903000F03F01483E974286BA86EFD03FCA2A8861
:10904000AE88F24062444285C685056182803571F2
:109050004AC92A89368532D436C606CF22CD26CBD8
:109060004EC7EAD8EED62E8D52C556C35AC1DEDEA3
:10907000E2DCE6DA82C8EF10406CAA8D0841814438
:109080000144EFF01FF4B246AA89EAC635469305BB
:10909000B0021305D00213080002A548B64703C763
:1090A0000700636BE608637F17095DC702C8364A8D
:1090B00093070003814A03470A00631DF7128347A1
:1090C0001A00130780056388E7001306800713075B
:1090D00000036397C710C24736889808D40817560C
:1090E000000013062623EC004A85EF00907C93795C
:1090F0007500AA8A6388090099476398F906050AEA
:10910000D2C602C8A25781C7B64722571CC3C2475E
:10911000A1CBB7050080A18DFA406A4426854A4953
:10912000DA44BA492A4A9A4A0A4BF65B665CD65C2C
:10913000465DB65D0D6182806309B7006304A702D6
:10914000E31607F78507BEC691BF02C8138717004D
:10915000BAC683C71700A1FFA257EAC602C8CDF757
:10916000A2855DBF05473AC8D5B7464611CA9305E3
:109170005003A808EF10B071C6454A85EF10E068AB
:10918000FD19914763EE3701175700001307871247
:109190008A09BA9983A70900BA978287E644764478
:1091A00093FA8A00E3800AF6B70700805D8C99BFC6
:1091B000F6453704F0FF7D14B3F785005644E644C6
:1091C000130434439315440133E4B700D1BF37048B
:1091D000F07FF9B7B705008013C4F5FFFD54C9B798
:1091E000B64793861700B6C683C71700E38AE7FE23
:1091F00091DB854AB64C014A814B014CA546A145FD
:10920000A9473645034B050013070BFD1376F70FEF
:1092100063FDC60483A50D004E86EFF0BFDB3DC1A4
:10922000DA87E28D8146014B0145130750066387BB
:10923000E7001307500481496399E71663960D0010
:10924000B3E7560191DB814D364D1307B00293070A
:109250001D00BEC683471D006382E70E1307D002C0
:1092600001486393E70E0548D9A863C98501B38B0C
:10927000FB02BA9B0505050CAAC661B7330AFA02C0
:109280003A9ACDBF364581464E95AAC6834705001A
:10929000630D0C06014BE28D138707FD25466376AF
:1092A000E602054559B7B647850613861700B2C6CC
:1092B00083C71700E389E7FE1387F7FC2146E36ABB
:1092C000E61EB64C368B814D8146938707FD13878A
:1092D000160085C73A9B3385B6016E872148C14881
:1092E00029466317A702850DB69DA14663CFE60206
:1092F0002947B38BEB020147BE9BB6479386170005
:10930000B6C683C71700BA8641BF130700035DB70F
:10931000930517006346E800B38BCB022E87D1B7C5
:10932000E3CEB8FE330ACA02D5BFC1460147E3C641
:10933000B6FDA946330ADA023E9AC1B7014893073F
:109340002D00BEC683472D00138707FD25466367A2
:10935000E60C130700036386E70A1387F7FC214630
:1093600081496364E604B648138707FD2543294E07
:10937000B64713861700B2C683C71700938507FD4B
:1093800093F5F50F6376B308956933061641938913
:10939000F9E1A148CE8563C6C800BA8963D3E50068
:1093A000AE8963040800B309304163980D0CB3E63D
:1093B000DA00E39906D4E31105DA1307E004638ABF
:1093C000E7066340F70613079004E397E7D897553D
:1093D0000000938525F3E800EF10201DE30E05D66D
:1093E000B64797550000938525F2E800FD17BEC6E5
:1093F000EF10A01B01E5B6478507BEC63704F07F16
:1094000011B3B64713861700B2C683C71700A1B7BA
:109410003307C703BA97138707FD99BFEAC6814987
:1094200069B713079006E384E7FA1307E006E395AC
:10943000E7D2975500009385A5EDE800EF10E01600
:10944000E30C05D0B64703C70700930780026313F8
:10945000F702B00897550000938505EDE800EF107E
:10946000C01795476318F500F6453704F07FE644CA
:109470004D8C49B93704F8FF71B1B38A6941631360
:109480000C006E8CC1476E8D63D3B701414D5E8574
:10949000EF30D051A547AA842E8463DCB70393072D
:1094A0007DFF1397370097570000938727F5BA97EA
:1094B0009043D443EFD09F822A845285AE84EF300C
:1094C000F04E2A86AE862285A685EF20D056AA8445
:1094D0002E84BD4763CDB709E3860AC263545007A3
:1094E0005947634357038E0A97570000938707F144
:1094F000BE9A03A50A0083A54A002686A286EFD05D
:10950000EFFDAA842E84FDBE130750023307B74136
:10951000634F5705B38DB74117590000130909EE82
:1095200093973D00CA978843CC43B38DBA412686B2
:10953000A2868E0DEFD08FFACA9D03A60D0083A6DA
:109540004D0075BFA95763C4FA02B3093B41139B91
:10955000390097590000938969EADA9903A609004E
:1095600083A649002685A285EF30E03F59BF338DA1
:10957000AD41569D6357A0119377FD0099CF1757C2
:1095800000001307A7E78E07BA978843CC432686C7
:10959000A286EFD0AFF4AA842E84137D0DFF63085A
:1095A0000D0A9307401363D5A705014B814902C6F5
:1095B000814B930720022320F9003704F07F814478
:1095C000B247E38107B4C6454A85EF100024DE8523
:1095D0004A85EF108023CE854A85EF100023B245DF
:1095E0004A85EF108022DA854A85EF10002219BEE5
:1095F000135D4D402685A2858147014A054897584D
:109600000000938828DD6346A80599C3AA842E84A8
:1096100017570000130707DC93173A00BA978843DF
:10962000CC433707B0FC22972686BA86EFD00FEBE3
:109630003704F07FB377B4003707A07CAA84E366D1
:10964000F7F63707907C637AF7027D14FD54014AE0
:10965000DDA813771D0011CF13173A00469710436A
:109660005443EFD0AFE785470548975800009388EB
:1096700068D6050A135D1D4079B7370450032E9450
:10968000F9B7E3060DFC330DA0419377FD0099CFA8
:1096900017570000130787D68E07BA979043D44315
:1096A0002685A285EF30202CAA842E84135D4D40A0
:1096B000E30F0DF8FD4763DDA701014B814902C6A9
:1096C000814B93072002814401442320F900CDBD42
:1096D000137A0D0163040A00130AA0062685A285E9
:1096E00097570000938787C5014793761D0081CA6D
:1096F0009043D4433EC6EFD06FDEB2470547135DBB
:109700001D40A107E3130DFE19C3AA842E8463052F
:109710000A029357440113F7F77F9307B006998F16
:10972000635CF0007D476354F722130740038144D4
:109730006359F72037047003014681462685A285C8
:10974000EF30A07D3DD95E87EE866286E6854A854C
:10975000EF1060192AC6E30A05E493D7FA41B3096A
:109760003B41B3F7F9003ED056CE63D30A0002CE98
:10977000B247014B8149B1073ED8B7071000FD172A
:109780003ED6B2474A85CC43EF00707FAA8BE302F6
:1097900005E2B247C2553105904B09060A06EFF0C3
:1097A0006FD2B808D4082286A6854A8526CA22CC5C
:1097B000EF106079AAC8E30E05DE85454A85EF10F3
:1097C000E027AA89E30705DED64763C707180257D3
:1097D000724C338DE7006647B387474193066003B9
:1097E000BA97FD17930D20C0998E63D6B7193387AA
:1097F000FD407D46998E6346E616854DB397ED0094
:109800003ED2814C369CB30DDD00529CEA8763D377
:10981000AD01EE876353FC00E2876358F000B38D1F
:10982000FD40330CFC40330DFD4082576358F0027D
:10983000CE853E864A85EF106036AA89E30B05D6B1
:109840004646AA854A85EF1020212ADAE30305D689
:10985000C6454A85EF00707BD257BEC8634FB01132
:10986000635A50017246DE854A85EF102033AA8B79
:10987000E30105D4635A8001DE8562864A85EF10D4
:10988000C03DAA8BE30705D2635AA001CE856A8644
:109890004A85EF10803CAA89E30D05D0C6455E8657
:1098A0004A85EF10804B2A8BE30505D0032CC500B9
:1098B000CE8523260500EF1020476359050C336C35
:1098C0009C0063110C129317C400639D0710B70727
:1098D000F07FE18F3707B0066376F71083274B01DF
:1098E00091E703270B01854763DEE70EDA8505461E
:1098F0004A85EF108036CE852A8BEF10E042635305
:10990000A00E630C0A10B707F07FE18F3707B0068F
:109910006345F71037077003E355F7DA0147B707D8
:1099200050392685A2853A86BE86EFD02FBB2E847D
:10993000C98DAA84E39905C8930720022320F90062
:1099400059B181177D57B317F7007D8CF5B37D575B
:10995000B317F700FD8CCDB37247025D330CF740AF
:109960009DBD930C20BEB387FC40854CB39CFC008E
:1099700085473ED241BD814CE5BFC6456E864A85CE
:10998000EF10A02DAAC8E31D05EC25B169E9370742
:1099900010007D17B377E40063090C046399E704B2
:1099A0007D5763000A02B707F07FE18FB706A00674
:1099B00063E9F600D1839306B006B387F640331708
:1099C000F7006396E402B707F07FFD176315F40014
:1099D000FD57E380F4BEB705F07FE18D370410003A
:1099E0002E948144E31C0AF2F9BEC58F99DB638291
:1099F0000C04B3FC8C00E3870CFE52862685A285FE
:109A0000630F0C02EFF0CFDF2A86AE865245E245A7
:109A1000EF207002AA842E84F1B7B705F07FE18DA4
:109A20003704F0FFA295370410007D144D8CFD54CF
:109A300055BF9257B3FD9700E3860DFA7DBFEFF057
:109A40002FDC2A86AE865245E245EFD0AFF40146C0
:109A50008146AA842E84EF30404C49F59DB1CE85D5
:109A60005A85EF10805B97570000938727879043B4
:109A7000D4432A8DAE8DEF30C05B6342A0106301EA
:109A80000C0A814D370DF03F0147B707F03FB7068D
:109A9000F07FB37CD400B706E07F639FDC166AD208
:109AA000370DB0FC229D2685EA853EDE3ADC6EDA73
:109AB000EF10C039D25812582A86AE864685C28524
:109AC000EFD0CFA12686EA86EF20E076AA8437057C
:109AD000F07F3376B500B706A07C6257F257636516
:109AE000D60C62479307F5FF6396E7005247FD5790
:109AF000E381E7ACB707F07F1384F7FFFD54C64559
:109B00004A85EF009050DE854A85EF001050CE85E3
:109B10004A85EF00904FDA854A85EF00104F95B1E6
:109B2000B1E0B257E18FA1E7974700009387877AAA
:109B30009043D4436A85EE85EF30A04F634D050214
:109B400097470000938787789043D4436A85EE85D2
:109B5000EFD0CF982A87AE87370D0080BA8D334D6E
:109B6000FD0035B785476394F400E30C04B4814DE0
:109B7000370DF0BF11BF0147B707E03FF1BF97476F
:109B800000009387A7749043D4436A85EE85EFD095
:109B9000EF942A87AE872E8D63160C00370D008058
:109BA000334DBD00AA8DE5B5370450032E94E3185C
:109BB0000AF4B706F07FE18EE393DCF4BE853A85C4
:109BC0003A8DBE8CEF304052EFD0BFD02A86AE86A1
:109BD0006A85E685EFD00FDCB2572A8DAE8DE18F16
:109BE000C58F33EC8701630B0C0A974700009387FE
:109BF000E76F9043D443EF30C043E346059C97475B
:109C000000009387276F9043D4436A85EE85EF3039
:109C10006037E356A0EE45BA630D0A04B706A00606
:109C200063E99605974600009386C66B9042D4423E
:109C30003A85BE853ADA3ED2EF30A03F925752576E
:109C40006344A0023A85BE85EF30805011E105459E
:109C5000EF30C0552A87AE872E8D63160C00370D66
:109C60000080334DBD00AA8DB705B0062E9D330D83
:109C70009D415245E2453EDA3AD2EF10201D2A8638
:109C8000AE866E85EA85EFD06F855246E246EF20BC
:109C9000805AAA842E84D257125711BF97470000CA
:109CA0009387C7659043D443EF30A038E35905E468
:109CB00019BA130750066387E700130750040545D8
:109CC0006397E7EE014B05456FF08FD7938781804F
:109CD0009C432E86945389E69766FF1F9386863CA5
:109CE000AA853E856FF0AFB601119387818022CCA3
:109CF000804306CE2A86AE8609C81C4C99E72AC442
:109D000022852EC64122B24622460C442285624458
:109D1000F24005616F10807F1971A2DC86DEA6DA41
:109D20003284635B06009307B0081CC17D55F65072
:109D30006654D654096182803686930680202EC4EC
:109D40002ECC231AD100814519C09305F4FFFD578D
:109D50002EC82ECEBA862C00231BF100AA84EF1049
:109D6000204CFD576355F5009307B0089CC061D0A7
:109D7000A2472380070065BF938781803687B2861C
:109D80002E86AA8588436FF03FF9B70700801971C6
:109D900093C7F7FF3ECE3EC8C1772EC42ECC938723
:109DA00087202C0086DE3ECAEF108047A247238022
:109DB0000700F6500961828093878180B2862E86E3
:109DC000AA8588436FF07FFC411122C406C62A840D
:109DD0002316B5002317C500232005002322050004
:109DE000232405002322050623280500232A050035
:109DF000232C0500214681451305C505EF60AFD32F
:109E0000972700009387C7D55CD0972700009387DA
:109E100027D81CD497270000938767DC5CD497274A
:109E20000000938727DF00D01CD8B24022444101B4
:109E30008280972500009385C51699AA411126C2F4
:109E4000130680069384F5FFB384C4024AC02E89AA
:109E500022C406C693854407EFF04F812A8401CDC2
:109E60002320050023222501310508C4138684061A
:109E70008145EF604FCC2285B24022449244024992
:109E8000410182801C4DA5E7411106C622C49707F7
:109E90000000938747FA1CD59387C1809C432324F5
:109EA000050423260504232805046314F5008547CB
:109EB0001CCD2A84352848C022851D2808C4228547
:109EC000052848C4484001469145EFF0FFEF08449B
:109ED0000546A545EFF05FEF48440946C945EFF058
:109EE000BFEE85471CCCB240224441018280828073
:109EF00041119387C18026C284434AC006C69C4C48
:109F000022C42A8981E72685EFF0DFF79384840451
:109F10008044DC40FD1763D607009C40B9CF8440E5
:109F2000C5BF0317C40039E7C1778507232204069C
:109F30002320040023220400232404005CC42328DB
:109F40000400232A0400232C040021468145130524
:109F5000C405EF604FBE232A0402232C04022324ED
:109F60000404232604042285B24022449244024978
:109F7000410182801304840671BF91454A85EFF048
:109F8000FFEB88C049FDB1472320F9000144E1BF40
:109F9000797122D44AD052CC56CA5AC85EC606D667
:109FA00026D24ECE2A8AAE8A130485040149054B77
:109FB000FD5B09ECB25022544A8592540259F24991
:109FC000624AD24A424BB24B4561828004448329A3
:109FD0004400FD1963D409000040E1BF83D7C400E9
:109FE000637BFB008397E40063877701A685528536
:109FF000829A3369A90093848406E1BF10499306CD
:10A00000450113D75540B6876356C7020A060A07AB
:10A01000FD8936963697B9C91308470018431303CC
:10A0200000023303B3403357B700636EC80098C3D0
:10A0300011C391073387D740098718C96394D700A4
:10A04000232A050082808328080091071108B3980D
:10A05000680033E7E80023AEE7FE0327C8FFE1B757
:10A0600011078325C7FF910723AEB7FEE36AC7FE3A
:10A07000D1B7930705FD93F7F70F25476367F700FF
:10A0800001159377F50F3E8582809307F5F993F7D5
:10A09000F70F954663E5F600130595FBDDB713074B
:10A0A000F5FB1377F70F8147E3EFE6FC130595FD0A
:10A0B000C9BF1D71D6C2AA8A428536C63AC286CEAB
:10A0C000CAC8D2C4DAC05EDE3E8B6ED63289AE8D8F
:10A0D000A2CCA6CACEC662DC66DA6AD8B92D832BBA
:10A0E00005005E85EFE0FFEDB387AB0083A60D00B2
:10A0F00083C7F7FF7957158F3EC82A8A93872600B2
:10A10000930600033306F700BE84850703C5F7FFF7
:10A1100032C4E309D5FEEFF0DFF5631F0510528668
:10A12000DE852685EFE01FEB631D0510338C4401AF
:10A1300003450C00EFF0FFF363060510E28493077C
:10A14000000303C50400630BF500EFF09FF28547A1
:10A1500093391500E28C3EC4268C21A08504D5B726
:10A16000050C03450C00EFF0DFF07DF95286DE852B
:10A170006285EFE03FE611E9639C0C00529CE28CA3
:10A1800003450C00EFF0FFEE5DE9014463850C0030
:10A1900033848C410A0483470C001307000563874E
:10A1A000E70013060007E28C6390C70683471C0094
:10A1B0001307B002638BE7081307D002638BE7082D
:10A1C000930C1C00014D03C50C00EFF09FEA9307B0
:10A1D000F5FF93F7F70FE14563E4F508930705FFF3
:10A1E000850C03C50C003ECAEFF0BFE89305F5FFF0
:10A1F00093F5F50F6148D247A948637EB80463041C
:10A200000D00B307F0403E9423A09D01638C090428
:10A21000A247814491E39944F64066442685464925
:10A22000D644B649264A964A064BF25B625CD25C3B
:10A23000425DB25D256182808149814C31BF050C50
:10A2400081B7268C01448549B9B7014D930C2C0088
:10A250009DBF054DE5BFB3871703AA97C11749B73F
:10A26000E28C5DB7B3079C40FD1781451D476343F2
:10A27000F70A56852923054693094501B307464148
:10A28000AA8D4E8D8148814C3ECA63E8840913052E
:10A290004D0033053541098523209D0123A8AD00DC
:10A2A000931455006685DD25832B0900898C63D8BE
:10A2B0009B0CB3847441A6856E85EF00B0602A8A3A
:10A2C00005C91386F4FF935656408A06CE969442EB
:10A2D00005473317C700758F054A19CB6359CA0064
:10A2E0009385E4FF6E85EF00F05D0D4A11E1094AA8
:10A2F000A6856E85EFF09FD0269403278900635FC3
:10A300008708EE855685112392479304300A23A0CF
:10A31000070019B78505858799BF9307FCFF3EC4E1
:10A320000346FCFFC2476309F602930700026397E6
:10A33000F80023209D018148110D814C0345FCFF4D
:10A3400046CCEFF01FD3E2483D8922433315150177
:10A35000B3ECAC00910815A052479307FCFF338380
:10A36000E700E36493FC1A855286DE8546CE1ACC5C
:10A37000EFE05FC66243F2484DF91A8C39B7014AE3
:10A38000E3DD74F7B3849B40EE8526865685EF00A7
:10A39000D00CAA8D058C9309450185B70327490088
:10A3A0006355E40E33048740634574070327C900EF
:10A3B0008946630AD7048D46630AD7048546631B22
:10A3C000D70263998B026391EB0203274900B247DE
:10A3D0009304200698C30547924723A8ED0023A0C5
:10A3E000E90023A0B7010DBD9385FBFF6E85EF004B
:10A3F000704D61FDEE85568509299247930400054D
:10A4000023A0070011BDE3170BFEC1B7E31F0BFA32
:10A41000D5B79304F4FF63180A0691C4A6856E8528
:10A42000EF00504A2A8A13D754400A074E97184320
:10A430008545B3959500F98D99C1136A2A00A285C7
:10A440006E85B38B8B40EFF07FBB032449008944BA
:10A45000630B0A080327C9008946630AD7028D46A1
:10A46000630AD7028546631DD70013772A0009CBFC
:10A4700003A70900336AEA00137A1A00631E0A0070
:10A4800093E404018DA0054A79BF8544D1B70547FF
:10A49000330B6741E3060BFE83A90D0113874D01C2
:10A4A000FD55139A29003306470114436383B6040C
:10A4B000850614C3894613874D016394D408832607
:10A4C0000900FD16639F760193D65B408A06369796
:10A4D00018438546B39B7601B3FBEB0063830B0007
:10A4E000854493E40402924723A0B701B24780C396
:10A4F00025B31107232E07FEE369C7FA03A78D00D2
:10A5000063C5E90283A54D00568585058D2C03A6FC
:10A510000D019385CD002A8B09060A063105EFE06F
:10A520006FFAEE855685D524DA8D03A70D019306C3
:10A53000170011070A0723A8DD006E97854654C34C
:10A5400095BF83A60D0163DCD90085456E85EFF0CC
:10A55000FFAA032789000504E35487F85DB393FB42
:10A56000FB018544E38F0BF652970325C7FF39297A
:10A5700013070002B30B7741E34975FD9DB7A1476F
:10A580003386C7400A0693060002918E5C4118414B
:10A5900011053398D70033670701B3D7C700232EBF
:10A5A000E5FE1CC1E364B5FE82801C41654885055B
:10A5B00003C6F5FF850701E61CC10545828003C778
:10A5C00007009306F7FB93F6F60F6364D8001307B2
:10A5D0000702E30EC7FC014582805D7152DC03AACD
:10A5E0000500A6C24EDE93545A405AD88A0486C645
:10A5F000A2C4CAC056DA5ED662D466D26AD06ECE23
:10A60000137AFA012A8BB289B29463030A00910487
:10A6100083270B001389C4FF23AE04FECA8D4A842E
:10A620000146814A814B214C930C00021D4D83C68B
:10A630001700138717003AC0B1CA368532C63EC428
:10A6400036C2EFF01FA3324659E59246A24763E8AF
:10A65000DC0263D47A036378B4016346CD00EE85EF
:10A660002285EFF0DFF1214663F98900930DC4FFE5
:10A67000232E04FEDE8A6E84014682474DBF930579
:10A680009002639CB60889072320FB0063870B08B0
:10A690006379B4019D4763C6C700EE852285EFF05C
:10A6A0001FEE63FA8904CE8711040327C4FF9107C4
:10A6B00023AEE7FEE37A89FE910723AE07FEE37D32
:10A6C000F9FE8327090091E76317390585472320A1
:10A6D000F9001545A1A00506850B6358CC00E3FEE3
:10A6E00089F8232E04FE054671141C403D8992070B
:10A6F000C98F1CC059B7E3060AFC93070002B38751
:10A7000047417D5AB357FA0003AAC4FF337AFA00CF
:10A7100023AE44FF7DB771196DB71145B64026448D
:10A7200096440649F259625AD25A425BB25B225CA5
:10A73000925C025DF24D616182801305050F82809B
:10A7400085E141116C00014511CA795581CA8347E1
:10A7500006009CC1034506003335A00041018280FC
:10A76000014519CA795589CA834706009CC103452A
:10A7700006003335A00082808280828082805C5116
:10A78000411122C44AC006C626C22A842E8989EFF6
:10A790004145EFE0EFD148D02322050023240500F6
:10A7A00023200500232605004450DC449DC7585053
:10A7B000931729005847BA97884329E18544B394F1
:10A7C0002401138654000A0685452285EF00F01304
:10A7D00019CD2322250104C525A013061002914599
:10A7E0002285EF0090125C50C8C4DC47E9F30145B4
:10A7F000B24022449244024941018280184198C3E8
:10A800002328050023260500E5B75C51011122CC61
:10A8100006CE2A8499EF41452EC6EFE06FC9B245B6
:10A8200048D02322050023240500232005002326E9
:10A83000050091C95450DC4113972700DC46BA97B4
:10A84000984398C18CC3F24062440561828079715B
:10A850004ECEAA89416522D426D22E84844906D6BA
:10A860004AD0D10501487D159C419105050833F773
:10A87000A7003307C702C183B387C7023697935631
:10A880000701698FB69793D60701C207BA9723AE1F
:10A89000F5FEE34B98FCA1C21C4463C7F4024C4094
:10A8A0004E8536C68505EFF09FED10489305C40030
:10A8B0002A8909060A063105EFE0CFC0A2854E8538
:10A8C000EFF0BFF4B2464A84938744008A07A29708
:10A8D000D4C3850404C82285B2502254925402592C
:10A8E000F2494561828079719387860052CC368A1D
:10A8F000A54622D426D24ECE2E84B3C7D70206D682
:10A900004AD056CAAA89B2848546814563CCF604EA
:10A910004E853AC6EFF0BFE6324785471CC958C995
:10A92000A54763D49704930A940056892694050991
:10A930008346F9FFAA852946938606FD4E85EFF0EA
:10A940001FF1E31689FE138484FF56942689634120
:10A950004903B250225492540259F249624AD24AEF
:10A96000456182808606850555B72904A544F9BF4F
:10A97000B3079940A29783C60700AA852946938604
:10A9800006FD4E85EFF0BFEC0509D1B74177698F21
:10A99000AA87014519E3C2074145370700FF7D8FAC
:10A9A00019E32105A207370700F07D8F19E3110590
:10A9B0009207370700C07D8F19E309058A0763C92D
:10A9C00007001397170005056344070013050002ED
:10A9D00082801C4113F777000DC393F617000147DF
:10A9E00099E613F7270011C785831CC105473A85EF
:10A9F000828089831CC10947DDBF93960701C1820C
:10AA0000014799E2C183414793F6F70F99E2210785
:10AA1000A18393F6F70099E21107918393F637002B
:10AA200099E20907898393F6170081E68583050774
:10AA300099C31CC16DBF1307000255BF411122C449
:10AA40002E84854506C6EFF09FD340C9B24022440C
:10AA5000054718C94101828098491C4A797126D25C
:10AA600006D622D44AD04ECEAE846354F700B284C8
:10AA70002E8683A90401032906019C44CC4033841B
:10AA8000290163D38700850532C6EFF05FCF3246D8
:10AA900013084501131324004293C28763ED670234
:10AAA00093854401939829005106131E2900C1661D
:10AAB000AE98329EFD166364C60363568000711320
:10AAC00083270300F1CB00C9B2502254925402599B
:10AAD000F2494561828023A007009107C1B7832F07
:10AAE0000600B3FFDF00638A0F04428FAE82814409
:10AAF00003A7020083230F00110FB37ED700B38E8C
:10AB0000FE03B3F7D30093D303019102BE9E935784
:10AB10000701B387F703A69E13D70E01B3FEDE002D
:10AB20009E97BA9793D40701C207B3E7D701232EA4
:10AB3000FFFEE3EF12FB23209F0083522600638A6F
:10AB4000020483270800C28E2E8F814F03270F0037
:10AB500083D32E00F58F758F33075702910E110F97
:10AB60001E977E97931F0701B3E7FF0023AEFEFEFB
:10AB70008357EFFF83AF0E004183B3875702B3FFC4
:10AB8000DF00FE97BA9793DF0701E3611FFD23A063
:10AB9000FE001106110805B77D1405B7011126CA7C
:10ABA0004AC84EC606CE22CC52C4937736002A89B4
:10ABB000B284AE8989CFFD1717470000130787902D
:10ABC0008A07BA9790438146EFF07FC8AA898984A3
:10ABD000A5CC8327490291EF4145EFE06F8D2322F9
:10ABE000A902232205002324050023200500232693
:10ABF0000500032A490203248A0019E89305102757
:10AC00004A85EFF0BFE32324AA002A84232005000D
:10AC100093F7140081CFCE8522864A85EFF0DFE3DB
:10AC20002A8ACE854A85EFF05FBED289858489CC99
:10AC3000084009E92286A2854A85EFF0FFE108C0B5
:10AC4000232005002A84E9B7F24062444E85D244AD
:10AC50004249B249224A05618280797126D2AE8486
:10AC60004ECE83A9040122D4CC41135456409C44B7
:10AC7000A2994AD056CA06D652CCAA8A138919007C
:10AC800063C42709568532C6EFF07FAF324693077B
:10AC900045012A8ABE8601479106634A87066353A7
:10ACA0000400014494480A04338787008A06938786
:10ACB00044017D8ABE9625C2130800023308C840AD
:10ACC00081458843110791073315C500C98D232E8F
:10ACD000B7FE83A5C7FFB3D50501E3E4D7FE0CC3D8
:10ACE00099C1138929007D1923282A015685A68533
:10ACF000EFF0BFB1B2502254528592540259F2493A
:10AD0000624AD24A456182808505860795BF23AE97
:10AD100006FE050751B7910703A6C7FF1107232EAB
:10AD2000C7FEE3EAD7FEC1B71C499849998F8DE366
:10AD30000A075105D105B306E500BA95F116F115DC
:10AD4000904298416308E600FD576363E60085473B
:10AD50003E858280E364D5FEE5BF011126CAAE843C
:10AD60004EC6B285AA89268522CC06CE4AC8328430
:10AD7000EFF09FFB05E181454E85EFF05FA0854731
:10AD80001CC9232A0500F2406244D2444249B24918
:10AD900005618280054963460500A2870149268432
:10ADA000BE844C404E85EFF09F9D0323040183A891
:10ADB000040113064401131E2300138844018A086A
:10ADC000C16E23262501329EC29893064501014F8C
:10ADD000FD1E1842832F08009106B375D701B3F703
:10ADE000DF01FA959D8D93DF0F0193570701B3871C
:10ADF000F74113D70541BA9713DF0741B3F5D501E2
:10AE0000C207CD8F110823AEF6FE1106E36318FDCD
:10AE1000C165FD156368C601F1169C4295C72328DC
:10AE2000650095B71C429106110633F7B7007A9773
:10AE300013580741C183C29713DF07416D8FC207C3
:10AE4000D98F23AEF6FEF9B77D13F9B7B707F07FB8
:10AE5000FD8DB707C0FCBE956355B00081473E85A8
:10AE60008280B305B04093D745414D476347F70013
:10AE7000B7050800B3D5F540D5B71387C7FEF94627
:10AE800081458547E3CDE6FCB7070080B3D7E700EF
:10AE9000F9B7797126D204494ECE930945018A0447
:10AEA000CE9422D403A4C4FF4AD02EC6228506D64F
:10AEB000EFF0DFADB24593070002898F9CC1A9472F
:10AEC0001389C4FF63CDA702AD47898F3707F03FD1
:10AED000B356F400D98E014763F4290103A784FF18
:10AEE00055053315A400B357F700C98FB25022544B
:10AEF00092540259F2493E85B68545618280814768
:10AF000063F6290183A784FF138984FF551505C9BA
:10AF1000130700023306A74033D7C7003314A40039
:10AF2000598CB706F03FC18E014763F4290103270E
:10AF3000C9FFB397A7003357C700D98F45BFB706DE
:10AF4000F03FC18E65B7797122D42E84854526D213
:10AF50004AD0B2844ECE52CC3A8906D6368AEFF029
:10AF60001F82370710009307F7FFE58FD18093F416
:10AF7000F47FAA89B5E03EC62DC4280022C4EFF0B4
:10AF80005FA5A24621CD324793070002898FB317F0
:10AF9000F700D58F3357A70023AAF9003AC63244E9
:10AFA00023AC890033348000050423A88900B9C488
:10AFB0009384D4BCAA949307500323209A0033852A
:10AFC000A7402320A900B25022544E859254025922
:10AFD000F249624A45618280D98F71BF23AAD900A4
:10AFE0007DBF6800EFF0FF9EB247130505020544E0
:10AFF00023AAF900854723A8F90055BF9317240019
:10B000001305E5BCCE972320AA00884B1604EFF069
:10B01000FF97098C232089007DB779714AD02E894A
:10B020002C0006D622D426D24ECE52CC2A8AEFF05D
:10B030005FE6AA89AE842E844A856C00EFF07FE536
:10B040008327090103270A01A2461D8FB24716076D
:10B050009D8EB307D7006355F002D2072E86338446
:10B0600097003287A2852A86BA864E85EF10B00FE8
:10B07000B250225492540259F249624A4561828088
:10B080003707F0FFB387E7023386B700D9BF93874E
:10B09000F5FF184A958785078A07930646010A0730
:10B0A000AA97369763E5E600636AF5008280910609
:10B0B00003A6C6FF1105232EC5FEEDB71105232EED
:10B0C00005FEDDB7144993D755401307450163C703
:10B0D000F60263DFD700FD8981CD93962700BA96EB
:10B0E00090420545B356B600B395B600631EB60050
:10B0F0008A07BA976366F70001458280B687CDBF9D
:10B10000F1179443E5DA054582803386C5020111C3
:10B1100022CC06CEB28532C6EFD05FD52A8409C5CF
:10B1200032468145EF502FA12285F24062440561ED
:10B13000828001114AC803A9850022CC52C45AC09A
:10B1400006CE26CA4EC656C22E84328B368A63EE8F
:10B15000260983D7C50013F7074851C704408C4917
:10B160005848AA8AB389B4408D44B384E40209479D
:10B17000B3C4E402138716004E9763F3E400BA8465
:10B1800093F70740D9C3A6855685EFD03FCE2A89CD
:10B190000DE5B14723A0FA008357C4007D5593E71E
:10B1A00007042316F400F2406244D2444249B249F3
:10B1B000224A924A024B056182800C484E86EFD0AB
:10B1C0007FB08357C40093F7F7B793E707082316B8
:10B1D000F4002328240144C84E99B3843441232029
:10B1E000240104C4528963732A01528908404A86A3
:10B1F000DA85EFD09FB81C440145B38727411CC4B2
:10B200001C403E992320240179BF26865685EF00F5
:10B2100090732A895DFD0C485685EFD0BFBA95BF63
:10B2200083D7C500717126D34AD14ECF06D722D518
:10B2300052CD56CB5AC95EC762C566C393F707089D
:10B24000AA892E89B284B9C39C49A9E39305000455
:10B2500036C6EFD0BFC12320A9002328A900B246DB
:10B2600015E1B14723A0F9007D55BA502A549A54EC
:10B270000A59FA496A4ADA4A4A4BBA4B2A4C9A4C5A
:10B280004D61828093070004232AF900930700028E
:10B29000A30CF1029307000302DA230DF10236CE6C
:10B2A000930B5002973A0000938A8A22054C294B4F
:10B2B00026848347040099C3639D7709B30C9440A7
:10B2C000638E0C00E6862686CA854E85EFF07FE603
:10B2D000FD576304F51AD256E69636DA8347040022
:10B2E000638D0718FD579304140002D002D63ED296
:10B2F00002D4A301010682DC83C5040015465685ED
:10B30000EF00D06213841400825731E513F7070170
:10B3100009C713070002A301E10613F7870009C755
:10B320001307B002A301E10683C604001307A002BD
:10B33000638BE602B2572684814625460347040004
:10B3400093051400130707FD6374E6068DC63ED609
:10B350001DA00504B9BF330555413315AC00C98F95
:10B360003ED0A28451BF724793064700184336CEA1
:10B37000634907023AD6034704009307E002631FBC
:10B38000F704034714009307A002631BF702F24778
:10B390000904138747009C433ACE63C107023ED29B
:10B3A00035A83307E04093E727003AD63ED0E1B70F
:10B3B000B387670385462E84BA9749B7FD57C5B74B
:10B3C000050402D2814681472546034704009305C0
:10B3D0001400130707FD6378E606F1F283450400C5
:10B3E0000D46173500001305250FEF00305411CD21
:10B3F000973700009387470E1D8D93070004B3977E
:10B40000A700025505045D8D2AD083450400194626
:10B41000173500001305850C93041400230CB102AA
:10B42000EF00D05025C59757FFFF9387A7BD95E73D
:10B430000257F2471377071009CF91073ECED25734
:10B44000D2973EDAB5B5B387670385462E84BA979F
:10B45000ADBF9D07E19BA107D5B77808970600000F
:10B46000938666CD4A860C104E8597000000E70053
:10B470000000FD572A8AE314F5FC8357C9007D5567
:10B4800093F70704E39307DE5255C5B37808970690
:10B490000000938646CA4A860C104E853129D1BFDA
:10B4A0001C46FD171CC663D90700184E63C5E7008C
:10B4B000A9476393F50085A71C422E8513871700C3
:10B4C00018C22380B7008280011122CC26CA4AC844
:10B4D0004EC652C406CE2A89AE893284B304D60041
:10B4E0007D5A63149400014511A8834504004E86DB
:10B4F0004A85EFF0FFFA0504E31545FFF240624488
:10B50000D2444249B249224A05618280357122CD36
:10B5100026CB4AC94EC706CF52C556C35AC1DEDE36
:10B52000E2DCE6DAAA89AE843289368409C51C4D8C
:10B5300099E3EFE03F95973700009387A7E4639D79
:10B54000F40C83A4490083D7C400A18BE5CB9C48AD
:10B55000F5C793070002A304F1029307000302D288
:10B560002305F10222C6930B5002973A0000938AFA
:10B570002AF6054C294B4A848347040099C36391FA
:10B58000770FB30C2441638E0C00E6864A86A685AD
:10B590004E85EFF07FF3FD576308F51E9256E69651
:10B5A00036D2834704006381071EFD571309140038
:10B5B00002C802CE3ECA02CCA309010482D483454C
:10B5C000090015465685EF00703613041900C2476E
:10B5D00051E913F7070109C713070002A309E104A2
:10B5E00013F7870009C71307B002A309E1048346D4
:10B5F00009001307A002638FE606F2474A848146DA
:10B6000025460347040093051400130707FD6378DC
:10B61000E60AADCA3ECEBDA097370000938787D813
:10B620006395F40083A4890039BF9737000093879E
:10B6300067D3E39AF4F083A4C90031B7A6854E8599
:10B64000DD2501D97D55FA406A44DA444A49BA49B0
:10B650002A4A9A4A0A4BF65B665CD65C0D61828088
:10B66000050419BF330555413315AC00C98F3EC8D9
:10B670002289B1B7324793064700184336C663495B
:10B6800007023ACE034704009307E002631FF70462
:10B69000034714009307A002631BF702B247090493
:10B6A000138747009C433AC663C107023ECA35A8C8
:10B6B0003307E04093E727003ACE3EC8E1B7B387AF
:10B6C000670385462E84BA972DBFFD57C5B705047D
:10B6D00002CA8146814725460347040093051400AA
:10B6E000130707FD6378E606F1F2834504000D4673
:10B6F00017350000130545DEEF00502311CD9737B5
:10B700000000938767DD1D8D93070004B397A700A2
:10B71000424505045D8D2AC8834504001946173546
:10B7200000001305A5DB130914002304B102EF0088
:10B73000F01F3DC19757FFFF9387C78C95E742479E
:10B74000B2471377071009CF91073EC69257D29799
:10B750003ED215B5B387670385462E84BA97ADBF31
:10B760009D07E19BA107D5B7780097060000938657
:10B77000E6D526860C084E8597000000E7000000FD
:10B78000FD572A8AE314F5FC83D7C40093F7070416
:10B79000E39A07EA125545BD7800970600009386A4
:10B7A000E6D226860C084E85012AD9BF797156CA81
:10B7B0009C49BA8A984522D426D24ECE52CC06D67F
:10B7C0004AD05AC85EC6AA892E84B284368A63D308
:10B7D000E700BA879CC00347340419C385079CC09F
:10B7E0001C4093F7070281C79C4089079CC003292E
:10B7F000040013796900631A0900130B9401FD5BBF
:10B800005C449840998F634CF9041C40834634048F
:10B8100093F70702B336D000A5EB13063404D285A4
:10B820004E85829AFD576303F5041C4011469840EB
:10B83000998B544481446397C700B384E64063D333
:10B84000040081441C4418486354F700998FBE9447
:10B85000014969047D5B63982405014509A8854673
:10B860005A86D2854E85829A631E75017D55B250E7
:10B87000225492540259F249624AD24A424BB24B84
:10B88000456182800509ADBF3307D400130600036C
:10B89000A301C7040347540493871600A29789069F
:10B8A000A381E7049DBF85462286D2854E85829A74
:10B8B000E30E65FB050945B7797122D426D24AD03B
:10B8C0004ECE06D652CC56CA5AC8B68983C6850112
:10B8D0009307E0063289AA842E8413863504638197
:10B8E000F61E63E2D706930730066382F60A63ED1D
:10B8F000D700638B061E930780056387F616930AAD
:10B9000024042301D40469A8930740066386F60043
:10B9100093079006E395F6FE1C40084393F607084C
:10B9200093054500C1C21C410CC363D8070013072F
:10B93000D002B307F040A301E404973600009386D9
:10B9400066BA294765A0930730076383F61A63EF49
:10B95000D7009307F006638FF60493070007E39080
:10B96000F6FA9C4193E707029CC109A89307500788
:10B970006382F60493078007E393F6F89307800742
:10B98000A302F40497360000938606B7E5A01C4393
:10B99000938A2504938647009C4314C32381F504AE
:10B9A0008547B5A293F607041C410CC3BDDEC20750
:10B9B000C187A5BF0C401C4313F805081385470039
:10B9C0006305080008C39C4339A093F5050408C328
:10B9D000FDD983D707001307F006638BE60C973673
:10B9E0000000938626B02947A30104044C400CC4F0
:10B9F00063C5050008406D9908C099E3B28A91CDEE
:10BA0000B28AB3F5E702FD1AB69583C50500238017
:10BA1000BA00B3D5E70263F3E70AA147631EF70054
:10BA20001C40858B91CB58401C4863C7E7009307A7
:10BA30000003A38FFAFEFD1A3306564110C84E8745
:10BA4000CA867000A2852685EFF05FD67D5A631402
:10BA5000450D7D55B250225492540259F249624A22
:10BA6000D24A424B45618280A382D50497360000BA
:10BA7000938646A70C40084313F805081C4111059E
:10BA80006300080208C313F7150001C793E5050218
:10BA90000CC04147B1FB0C4093F5F5FD0CC0A9B7B4
:10BAA00013F8050408C3E30008FEC207C183E1BF21
:10BAB00097360000938606A321473DB7AE8791B71E
:10BAC00094411C43CC4913F80608138547006306CC
:10BAD000080008C39C438CC301A808C393F606045E
:10BAE0009C43F5DA2390B70023280400B28A81BF73
:10BAF0001C43D04181459386470014C383AA0700A5
:10BB000056852D2501C53305554148C05C401CC8EC
:10BB1000A30104042DB714485686CA852685829948
:10BB2000E30945F31C40898B8DE7B2474844E35352
:10BB3000F5F23E8505B785465686CA8526858299E3
:10BB4000E30965F1050A5C443247998FE345FAFE43
:10BB5000E9BF014A930A94017D5BF5B7411122C404
:10BB60002E848395E50006C61D2D634905007C489B
:10BB7000AA977CC8B2402244410182808357C40006
:10BB80007D777D17F98F2316F400EDB783D7C500B5
:10BB9000011122CC26CA4AC84EC606CE93F707101A
:10BBA000AA842E843289B68991C78395E500894697
:10BBB000014691298357C4007D777D17F98F23169D
:10BBC000F4008315E4006244F240CE864A86B2490E
:10BBD00042492685D244056105A2411122C42E8422
:10BBE0008395E50006C60521FD570357C400631B76
:10BBF000F500FD77FD17F98F2316F400B2402244BB
:10BC0000410182808567D98F2316F40068C8FDB78B
:10BC10008395E5000DA4011122CC26CA4AC806CEA0
:10BC20004EC6AA842E89328409C51C4D99E3EFE0E3
:10BC30006FA5972700009387E7746319F406C04047
:10BC40001C4C1CC48357C400A18BC9C31C48BDCF66
:10BC50001C4808409379F90F1379F90F1D8D5C4842
:10BC60006346F500A28526851D2E2DE51C4405059D
:10BC7000FD171CC41C401387170018C02380370110
:10BC80005C486389A7008357C400858B81CBA94793
:10BC90006316F900A285268519260DEDF24062444F
:10BCA0004A85D2444249B249056182809727000003
:10BCB0009387476F6314F400804459B797270000B7
:10BCC0009387476AE31EF4F6C0449DBFA28526858C
:10BCD00099283DDD7D59D9B791CD9307F00F63F7D2
:10BCE000C7009307A0081CC17D5582802380C50032
:10BCF0000545828001458280411122C42A842E8517
:10BD0000B285368623AC013C06C6EFA0CF88FD572E
:10BD10006317F5009387813D9C4391C31CC0B240DB
:10BD200022444101828041119387818026C284434D
:10BD300022C44AC006C62A892E8491C49C4C81E73D
:10BD40002685EFE02F94972700009387A763631C55
:10BD5000F402C0400317C40093170701C18393F690
:10BD60008700BDEE93F607019DEEA5472320F9005D
:10BD7000136707042316E4007D55B2402244924421
:10BD8000024941018280972700009387A7616314CD
:10BD9000F4008044C1B7972700009387A75CE31B9A
:10BDA000F4FAC04445BF918B95C74C5891C993078D
:10BDB00044046385F5004A85EFD0CF80232A04022E
:10BDC0008357C4002322040093F7B7FD2316F40021
:10BDD0001C481CC08357C40093E787002316F40057
:10BDE0001C4881EF8357C4001307002093F70728EE
:10BDF0006385E700A2854A85512C8357C40013F759
:10BE0000170005C75C4823240400B307F0401CCC8E
:10BE10001C480145BDF38317C40013F7070831DF41
:10BE200093E707042316F40081BF898B014791E350
:10BE3000584818C4F1BF411122C42A842E8523AC6E
:10BE4000013C06C6EF10003DFD576317F5009387D0
:10BE5000813D9C4391C31CC0B24022444101828079
:10BE600083D7C500011122CC26CA06CE4AC84EC6C9
:10BE700013F78700AA842E8479EFD841634DE00040
:10BE8000B841634AE0000145F2406244D24442496D
:10BE9000B2490561828058547DD703A90400939666
:10BEA000370123A0040063DE060670488357C400F0
:10BEB000918B99C75C401D8E5C5899C33C401D8E88
:10BEC0005C540C50814626858297FD570357C40069
:10BED000631DF5009440F54763E9D706B707402096
:10BEE0008507B3D7D700858BADC31C482322040038
:10BEF0001CC09317370163D80700FD576314F50082
:10BF00009C4091E368C84C5823A02401ADDD930701
:10BF100044046385F5002685EFC0DFEA232A040286
:10BF20009DB70C500146854626850297FD572A8607
:10BF3000E31EF5F69C40BDDB75476385E700594776
:10BF40006394E70423A024013DBF1367070423166D
:10BF5000E4007D5515BF83A90501E38609F203A915
:10BF600005008D8B23A0350133093941014791E349
:10BF7000D84918C4E35920F11C540C50CA864E8687
:10BF8000268582976349A0008357C40093E707047E
:10BF90002316F4007DBFAA993309A940E1BF9C494B
:10BFA000ADC3011122CC06CE2A8419C51C4D89E7E8
:10BFB0002EC6EFD03FEDB245972700009387873C10
:10BFC000639CF5004C408397C5009DC72285624461
:10BFD000F24005616FF0DFE8972700009387873C08
:10BFE0006394F5000C44C5B7972700009387873703
:10BFF000E39BF5FC4C44C1BFF2406244014505613E
:10C00000828001458280411122C42A842E85B28516
:10C01000368623AC013C06C6EF100022FD5763179D
:10C02000F5009387813D9C4391C31CC0B2402244DC
:10C03000410182801971A6DAAE848395E500A2DC05
:10C0400086DE328463DC050083D7C40023A00600AB
:10C0500093F707089DE39307004015A0300836C604
:10C06000B522B246E34205FE7247BD67F98F797784
:10C07000BA9793B717009CC2F9BF930700041CC07E
:10C08000F6506654D65401450961828083D7C500B5
:10C09000011122CC06CE26CA4AC8898B2E8489CFAC
:10C0A000930774041CC01CC885475CC8F2406244F6
:10C0B000D24442490561828074003000AA84EFF0C6
:10C0C0007FF7A2452A892685EFC05FDA01ED831745
:10C0D000C40013F7072079FBF19B93E72700231691
:10C0E000F4007DBF97E7FFFF9387E7D49CD4835785
:10C0F000C40008C008C893E707082316F400A24745
:10C100005CC8B24789CF8315E4002685F52001C9B4
:10C110008357C400F19B93E717002316F40083575D
:10C12000C4003369F9002316240149B793F5F50FCC
:10C130002A966314C5000145828083470500E38D7C
:10C14000B7FE0505FDB781E5B2856FC03FD201118D
:10C1500022CC06CE26CA4AC84EC6328401EEEFC0B3
:10C160007FC60149F24062444A85D2444249B249FD
:10C1700005618280AE84AA896D202689E37485FEDC
:10C18000A2854E85EFC09FCE2A8969DDA6852286CD
:10C19000EFC05FB3A6854E85EFC0DFC2E1B74111A6
:10C1A00022C42A842E85B285368623AC013C06C67D
:10C1B000EF104009FD576317F5009387813D9C43BD
:10C1C00091C31CC0B240224441018280411122C46B
:10C1D0002A842E85B28523AC013C06C6EF104004AC
:10C1E000FD576317F5009387813D9C4391C31CC0A5
:10C1F000B240224441018280411122C42A842E850A
:10C2000023AC013C06C6EF106002FD576317F50032
:10C210009387813D9C4391C31CC0B240224441019D
:10C22000828083A7C5FF1385C7FF63D50700AA9542
:10C230009C413E9582803708100001117D183377AC
:10C24000B80026CA3378D80093D4450113D34601E9
:10C25000131E37004EC61357D5010E089357D6014B
:10C2600093F4F47F1373F37F06CE22CC4AC893D99C
:10C27000F50193DEF6013367C701131F350033E87C
:10C280000701931F3600338E64406380D9196356CB
:10C29000C0136304031CB70680009307F07F336864
:10C2A000D800638FF4369307800363C0C735FD471A
:10C2B00063CDC747130500023305C541B3D7CF018E
:10C2C000B316A8003399AF00DD8E33392001B35780
:10C2D000C80133E926011D8F33092F41B3372F01E0
:10C2E0003306F7409317860063D40724370780008E
:10C2F0007D173374E600630C042C2285EFC09F93F6
:10C30000130785FF93070002998FB357F90033167F
:10C31000E400D18F3319E9006341972A3305974030
:10C32000130615007D47634DC73813070002118FB0
:10C33000B356C9003319E9003397E700558F3339F5
:10C3400020013369270133D6C700814493777900F0
:10C3500081CF1377F90091476308F700130749006D
:10C36000333927014A963A899317860063D6071C0A
:10C37000138514009307F07FCE856304F520B7077B
:10C3800080FFFD17F18F9398D70113593900A60745
:10C39000B3E82801B1831375F57F9396C700520562
:10C3A000F2406244B182FE05C98ECD8ED24442492C
:10C3B000B2494685B68505618280631E0E0A1383E5
:10C3C00014001373E37F63170322B367E701B368B5
:10C3D000F801639D041A63870740638608443309A4
:10C3E000FF41B307074133362F013386C740931708
:10C3F000860063D6074C3389EF41B307E84033B674
:10C400002F013386C740F68991B76350C00F630090
:10C41000030CB70680009307F07F3368D800638A67
:10C42000F43A9307800363CBC713FD4763DFC73537
:10C4300013090EFE93070002B3562801630AFE009B
:10C44000130900043309C94133192801B3EF2F013F
:10C450003339F0013369D90031A2B367F801638A37
:10C46000071C9307FEFF638C07389306F07F630970
:10C47000DE1A3E8E0DBDB305934063910422B3676F
:10C48000E701638707329387F5FF638107449306CB
:10C49000F07F638CD520BE859307800363CCB72AD9
:10C4A000FD4763CFB73C930700028D8F3319F70028
:10C4B000B356BF00B317FF003369D900B337F0009C
:10C4C0003357B7003369F9003308E84041ACB3672C
:10C4D000F801638007349307FEFF638A0720930601
:10C4E000F07F6308DE2E3E8E2DBF631E0E149386F2
:10C4F000140093F7E67F63910734B367E701639510
:10C50000042C6380073EB367F801638E073033095C
:10C51000FF01B3070701333FE9013386E7019317B2
:10C52000860063D70700B70780FFFD177D8E85441F
:10C5300093777900E39F07E09317D601935839006A
:10C54000B3E8F800935736001307F07F638DE404D7
:10C55000B207B18313F5F47FCE8581B53369F80155
:10C56000333920017A99B337E9013386E70093170D
:10C570008600E3DF07FA85049307F07F6396F418DB
:10C58000CE851305F07F8147814801BDC1EB6384EF
:10C59000083A931636009317D8018D82B3E8D70076
:10C5A000F68993573800B3E7F800F9DB81451305A6
:10C5B000F07FB70708008148CDB3370680FF7D16AE
:10C5C0007D8E93777900998CE39507D8B5B74A8526
:10C5D000EFC04FE613078501FD47E3D5E7D2130609
:10C5E00085FFB317C900014905BB3369F801333929
:10C5F0002001DDB13309FF413306074133342F01F8
:10C60000330486409317840063CD0724B368890000
:10C61000E39308CE8147814981441DBFE39808F820
:10C620000E059317D7010D81B3E8A7009357370084
:10C630009DBF0E059317D7010D81B3E8A700F284C3
:10C640009357370011B73305934063820412B7063E
:10C6500080009307F07F558F630DF32E93078003BF
:10C6600063CBA720FD4763C3A72A93070002898FE6
:10C670003319F700B356AF00B317FF003369D90081
:10C68000B337F0003357A7003369F9003A987E9921
:10C69000B337F901338607019A84D1BDB70680000C
:10C6A0009307F07F558FE319F3DE931736008D83E0
:10C6B0009318D801B3E81701F68993573800E5B508
:10C6C000130715FE9306000233D7E700630AD6006E
:10C6D000930600043386C6403396C7003369C90009
:10C6E000333920013369E9000146814491B53309AA
:10C6F000FF01B30707013336E9013E969317860021
:10C700008544E3D707E28944B70780FFFD17F18F1F
:10C710001357190013791900336927019398F7010A
:10C7200033E9280113D6170015B113090EFE93073C
:10C730000002B3562801630AFE00130900043309FE
:10C74000C94133192801B3EF2F013339F00133699F
:10C75000D90059B63369E7013339200133892F41B4
:10C76000B3B72F013306F8409A84F689A5BEB367A4
:10C77000E701638207189307F5FF6384071C93069C
:10C78000F07F6304D5123E85D1BD93070002B387C5
:10C79000C741B316F8003399FF0033D6CF01D18ECD
:10C7A00033392001B357C80133E926013E975DBBF9
:10C7B000931736008D839318D801B3E81701AE8420
:10C7C00093573800F68949B3EDC33369F801E31F85
:10C7D00009DC0E059317D7010D81B368F500935757
:10C7E0003700D1B36381080E931636009317D80132
:10C7F0008D82B3E8D700F6899357380091BB33098F
:10C80000FF41B3070741333F2F013386E74185449A
:10C81000D1BC0E059317D7010D81B368F500F284E2
:10C820009357370015B30E059317D7010D81B3E861
:10C83000A7009357370029BB9307F07FE382F6D414
:10C840003309FF013336E901B3070701B297939823
:10C85000F7011359190033E9280113D61700B684DC
:10C86000C1B93389EF413307E84033B62F013304B0
:10C87000C740F68949B43369E7013339200101BD66
:10C88000938705FE93060002B357F700638AD5002D
:10C8900093060004B385B6403317B700336FEF003B
:10C8A0003339E0013369F90055BD931736008D83A4
:10C8B0009318D801B3E8170193573800EDB1B36866
:10C8C000C900E39708C68147814959B13389EF41CF
:10C8D000B307E84033B62F013386C740F689854455
:10C8E00011B4931636009317D8018D82B3E8D700A0
:10C8F00093573800B1B9931636009317D8018D823B
:10C90000B3E8D700AA84935738003DB9930705FED2
:10C9100093060002B357F700630AD500930600049C
:10C920003385A6403317A700336FEF003339E0019A
:10C930003369F900A9BB81451305F07FB7070800EB
:10C94000A9BC3309FF01B30707013336F9013E964D
:10C9500075B3931636009317D8018D82B3E8D700CC
:10C960009357380089B1397193D7450122DC4AD8F1
:10C9700056D22A891394C50006DE26DA4ED652D442
:10C980005AD05ECE13F5F77F318093DAF501630B51
:10C9900005109307F07F630BF514135AD9010E04A9
:10C9A00033648A00370A8000336A4401131B39005C
:10C9B000930415C00144814B13D846011399C60056
:10C9C0001378F87FB2881359C90093D9F601630E22
:10C9D00008089307F07F6300F8041357D6010E0987
:10C9E00033692701130818C0B70780003367F900BF
:10C9F00093183600B38404418145BD4733C83A01DA
:10CA000063E4871A97270000938787C00A043E943F
:10CA100010403E9602863367C900938414806312E7
:10CA200007101364240081488945C1BF1306F07FB5
:10CA300081470147B207F25062545206B1837E0823
:10CA4000D18FB3E70701D2544259B259225A925AB0
:10CA5000025BF24B3A85BE85216182800148130654
:10CA6000F07FB70708000147F1B73367C9004DC72A
:10CA7000630809304A8532C4EFC0CF9B22461307B2
:10CA800055FFF547930685FF998F3319D900B357A2
:10CA9000F60033E72701B318D60026959304353FF7
:10CAA0008145A1BF336A240163030A0636C632C436
:10CAB0006306042A2285EFC0EF972246B246AA8475
:10CAC000130755FF754A138B84FF330AEA4033146A
:10CAD0006401335A4901336A8A00331B6901130523
:10CAE000D0C0B30495400144814BF9B5336A2401A9
:10CAF00063180A002144014B9304F07F894B6DBDFC
:10CB0000228A4A8B31449304F07F8D4B75B51144D2
:10CB1000014B8144854B4DB5136414008148854514
:10CB2000E9BD136434004A878D45C1BD630A052EF3
:10CB30008547898F9306800363DDF632014681477E
:10CB40000147CDBDCE868947638DF53A8D47E38792
:10CB5000F5F085473688E383F5FE1385F43FE35708
:10CB6000A0FC93F778006396072893D638009317B4
:10CB7000770063D80700B70700FFFD177D8F138587
:10CB800004409307E07FE3C3A7EA1316D701931786
:10CB90009700B1833367D6001376F57F61BDD686E3
:10CBA0005287DA88DE8545B763614723630DEA2043
:10CBB000DA86FD145284014B9317870013D3880142
:10CBC0003363F300935E0301B357D403131F0301D0
:10CBD000135F0F0193D50601139E88003374D403AD
:10CBE0003307FF024204C18D63FBE5009A9513866B
:10CBF000F7FF63EE652663FCE526F9179A95998D94
:10CC000033D7D503C206C182B3F5D5033306EF028D
:10CC1000C205D58D63FBC5009A959306F7FF63E6C1
:10CC2000652463F4C52479179A95C20741645D8F22
:10CC30009307F4FF3375F70093580701935F0E01D4
:10CC4000B377FE00B302F502B386C540B383F802A2
:10CC500093D502013386AF021E962E963385F803D4
:10CC6000637376002295C168FD18935506013376EB
:10CC700016014206B3F81201AA95469663E6B6126B
:10CC80006382B6123306CB408D8E333BCB00338BA1
:10CC900066411385F43F630C6317B358DB03935568
:10CCA0000601337BDB03B3061F03420B33EB650145
:10CCB000637BDB001A9B9385F8FF636D6B20637BBE
:10CCC000DB20F9181A9B330BDB40B356DB0342061B
:10CCD0004182337BDB03330FDF02420B3366660195
:10CCE000637BE6011A969385F6FF6367661E63759C
:10CCF000E61FF9161A96C208B3E8D8009395080102
:10CD000093D20801C181B38EF5023306E641B385A3
:10CD1000BF0293D60E01B387F202BE95AE96B38FD3
:10CD20005F0263F4F600C167BE9FC165FD1593D72E
:10CD30000601ED8EC206B3FEBE00BE9FF696637F6F
:10CD4000F6091A969387F8FF6369661A6368F619FD
:10CD5000630FF61BBE8893E8180011B54A85EFB043
:10CD60007FED13075501F145930405022246B246B3
:10CD7000E3DAE5D4130485FF331A8900014B85B348
:10CD8000328532C4EFB01FEB13075501F146AA8775
:10CD9000224613050502E3D6E6CEE1173317F60067
:10CDA0008148E5B9E370CBEE729B3335CB011A9520
:10CDB000AA961305F7FF6378D30263E6B610638281
:10CDC000D5102A87C1B5E3651BDF93551B00931669
:10CDD000FA0113541A00CD8E7E0BF9BBE31DF6F752
:10CDE000E38F06D6B9BFE31ED3FCE378CBFD2A87D9
:10CDF00051BD93F7F8009146E389D7D693B7C8FFA2
:10CE00009386480093C717008D823E978DB3814665
:10CE10008547E34CA0FEFD58E31C05D0930410C0E9
:10CE200085471385E441B316A70033D6F800339540
:10CE3000A800D18E3335A000C98E13F67600335783
:10CE4000F70001CE93F7F60011466388C700938779
:10CE50004600B3B6D7003697BE869317870063D8CF
:10CE60000704054681470147F1B636877DBBB28787
:10CE700079B3FD46E3D7F6FA0556098E930600020C
:10CE80003356C7006388D7009387E443B317F7008E
:10CE9000B3E8F800B3361001D18E13F6760081475F
:10CEA00001CE93F7F60011460147E392C7FA9317B4
:10CEB00097001316D701B18313D73600518F01465F
:10CEC00095BEE370CBF0729B3335CB011A95791781
:10CED000AA964DBBAE88C5BBAE8631BD93171E006A
:10CEE00033BEC70172931A96F9183E8EE315F6E722
:10CEF000E307DEC693E818009DB1BE88E30AF6FF9B
:10CF000099BD36881306F07F8147014725B6E36750
:10CF1000DEFCBE88E310DEFE99B113D74501B707EA
:10CF20001000FD1713D846011377F77F9308F07FA1
:10CF300033FEB700AA8EF58FFD81328F1378F87F0C
:10CF4000FD82630B17010543630618016314070193
:10CF5000630DFE001A858280B368AE000543E39B33
:10CF600008FEE319E8FED18FF5F70543E394EEFFE1
:10CF70000143E381D5FE054371FF3365AE003333D2
:10CF8000A000C9BF13D74501B7071000FD1713D87C
:10CF900046011377F77F9308F07F33F3B7002A8EAB
:10CFA000F58FFD81B28E1378F87FFD826308170339
:10CFB000630018030DEBB368A300631408005D8ED3
:10CFC00029CA638508046388D502054595ED8280EA
:10CFD000B3E8C700E38008FE795582803365A3007B
:10CFE00065FD630CE802631408005D8E79DEE39E44
:10CFF000D5FCE34CE8FC63480701E3E867FC630306
:10D00000F302637FF30081E57D558280F5DE0545FF
:10D0100082800145E39B08FA82805D8E69DA6DBFEC
:10D0200001458280E3E3CEFB0145E372DEFBE5F1DF
:10D03000E1BF13D74501B7071000FD1713D846010C
:10D040001377F77F9308F07F33FEB700AA8EF58F32
:10D05000FD81328F1378F87FFD82630E1703630D15
:10D06000180129E3B368AE00631F08005D8E01EE6E
:10D070000143638C080421A8B3E8C7000943639601
:10D0800008046DD305A0638408046385D5020543B5
:10D090008DCD7D531DA8B368AE0009436397080288
:10D0A000630AE802631408005D8E75D2E391D5FE31
:10D0B000E34FE8FC63490701E3EBC7FD630FFE00A4
:10D0C00001436374FE00F1D505431A858280EDFEAD
:10D0D0007D53E5BF5D8E79DACDBFE36ADFFB0143A7
:10D0E000E3F5EEFFF5F175B793D74501B7061000EC
:10D0F0001387F6FF93F7F77F1306E03F6D8FFD81EF
:10D10000635CF6001306D041635AF60037050080D1
:10D110001345F5FF2E95828001458280130630432A
:10D120001D8E7D48558F635DC80093063041B387DF
:10D13000F640B357F7003305F040E5F13E858280B5
:10D140009387D7BEB317F7003355C500C98FE5B72E
:10D1500093D74501B70610001387F6FF93F7F77FC3
:10D160001306E03F2A886D8F0145FD816354F60068
:10D1700099C1828082801306E0417D55E34BF6FE23
:10D18000130530431D8D7D46558F634AA600938756
:10D19000D7BE3317F7003355A800598D8280130589
:10D1A0003041B307F5403355F70082801DCD411162
:10D1B00022C406C62A84EFB0FFA79306E041898EF9
:10D1C000A94793F6F67F63DCA7025515B317A400B1
:10D1D000B207B1830147B2402244B207D206B183FD
:10D1E000D58F3A85BE854101828081478146B2074D
:10D1F000D206B1830147D58F3A85BE8582802D47FF
:10D20000098FB357E400B207130755013317E40041
:10D21000B183D1B79307800523ACF13C7D55828063
:10D220009307800523ACF13C7D55828093078005F0
:10D2300023ACF13C014582809307800523ACF13C8F
:10D240007D5582809307800523ACF13C7D5582801B
:10D250009387C1849C4391C73E9523A6A1843E85B4
:10D2600082809387C13D3E9523A6A1843E8582801E
:10D270006D61696E000000007469646C65000000F7
:10D280000000010002000100030001000200010093
:10D29000040001000200010003000100020001007F
:10D2A000050001000200010003000100020001006E
:10D2B000040001000200010003000100020001005F
:10D2C000060001000200010003000100020001004D
:10D2D000040001000200010003000100020001003F
:10D2E000050001000200010003000100020001002E
:10D2F000040001000200010003000100020001001F
:10D30000070001000200010003000100020001000B
:10D3100004000100020001000300010002000100FE
:10D3200005000100020001000300010002000100ED
:10D3300004000100020001000300010002000100DE
:10D3400006000100020001000300010002000100CC
:10D3500004000100020001000300010002000100BE
:10D3600005000100020001000300010002000100AD
:10D37000040001000200010003000100020001009E
:10D3800053797374656D20696E6974206F6B0D003D
:10D390003D3D3D3D3D3D3D3D3D3D3D3D3D3D3D3DBD
:10D3A0003D3D3D3D3D3D3D3D3D3D3D3D3D3D3D3DAD
:10D3B0003D3D3D3D3D3D3D3D3D3D3D3D3D3D3D3D9D
:10D3C0003D3D3D3D3D3D3D3D3D0D0A202020202081
:10D3D000205B20506F776572656420427920506928
:10D3E0006B615363726970742076312E322E352052
:10D3F0006F6E204348333256313033205D0D0A0DB5
:10D400000A202020202020202068747470733A2F76
:10D410002F6769746875622E636F6D2F70696B6119
:10D4200073746563682F70696B617363726970747C
:10D430000D0A202020202020202020687474707382
:10D440003A2F2F67697465652E636F6D2F6C796F46
:10D450006E313939382F70696B617363726970741A
:10D460000D0A0D0A20202020202050696B61536393
:10D470007269707420697320616E20756C747261BA
:10D480002D6C696768747765696768742050797472
:10D49000686F6E20656E67696E65200D0A2020201A
:10D4A00020202077697468207A65726F2064657027
:10D4B000656E64656E6369657320616E64207A656C
:10D4C000726F2D636F6E66696775726174696F6ED6
:10D4D0002C200D0A202020202020746861742063F5
:10D4E000616E2072756E207769746820344B42201B
:10D4F0006F662052414D20616E642033324B4220D2
:10D500006F6620666C6173682E0D0A0D0A3D3D3D05
:10D510003D3D3D3D3D3D3D3D3D3D3D3D3D3D3D3D3B
:10D520003D3D3D3D3D3D3D3D3D3D3D3D3D3D3D3D2B
:10D530003D3D3D3D3D3D3D3D3D3D3D3D3D3D3D3D1B
:10D540003D3D3D3D3D3D0D003E3E3E0000000000A6
:10D55000000000000000503F25302E3266206B4254
:10D56000000000005B6572726F725D2064656C3A4A
:10D57000206F626A656374206E6F20666F756E64DB
:10D580002E0000005B6572726F725D2064656C3AFC
:10D5900020617267206E6F74206D617463682E0065
:10D5A0005B6572726F725D20747970653A2061728A
:10D5B00067206E6F20666F756E642E00666C6F61FB
:10D5C00074000000737472696E670000706F696E9A
:10D5D000746572006D6174655F6F626A6563740083
:10D5E0006D6574686F640000706C6174666F726D55
:10D5F00044697361626C652829000000706C617475
:10D60000666F726D456E61626C65282900000000CE
:10D61000706C6174666F726D4869676828290000D4
:10D620006973456E61626C65000000005041300016
:10D6300070696E006F7574006D6F646500000000A6
:10D6400069734F6E000000006E6F6E650000000091
:10D6500070756C6C00000000706C6174666F726DA8
:10D660004C6F7728290000005B6572726F725D2035
:10D67000706C6174666F726D206D6574686F642084
:10D680006E65656420746F206265206F76657272C6
:10D690006964652E00000000706C6174666F726DC5
:10D6A000526561642829000072656164427566668E
:10D6B00000000000706C6174666F726D5365744D8C
:10D6C0006F64652829000000696E00005B65727256
:10D6D0006F725D204750494F206D6F6465207368FD
:10D6E0006F756C6420626520276F757427206F72D8
:10D6F0002027696E272E000075700000646F776E1A
:10D70000000000005B6572726F725D204750494FE8
:10D710002070756C6C2073686F756C642062652076
:10D72000277570272C2027646F776E27206F722053
:10D73000276E6F6E65272E0050410000504200009A
:10D740005043000050440000300000003100000051
:10D7500032000000330000003400000035000000FB
:10D7600036000000370000003800000039000000DB
:10D77000313000003131000031320000313300001F
:10D7800031340000313500007072696E74287661A2
:10D790006C3A616E7929000076616C005B6572728B
:10D7A0006F725D207072696E743A2063616E206ED4
:10D7B0006F74207072696E742076616C00000000D6
:10D7C0000000000000000000010000000000000058
:10D7D0000200000000000000030000000000000044
:10D7E0000400000000000000050000000000000030
:10D7F000060000000000000007000000000000001C
:10D800000800000000000000090000000000000007
:10D8100000000000000000000A00000000000000FE
:10D8200014000000000000001E00000000000000C6
:10D83000280000000000000032000000000000008E
:10D840003C00000000000000460000000000000056
:10D8500050000000000000005A000000000000001E
:10D860000000000000000000640000000000000054
:10D87000C8000000000000002C01000000000000B3
:10D880009001000000000000F40100000000000012
:10D890005802000000000000BC0200000000000070
:10D8A00020030000000000008403000000000000CE
:10D8B0000000000000000000E8030000000000007D
:10D8C000D007000000000000B80B000000000000BE
:10D8D000A00F0000000000008813000000000000FE
:10D8E0007017000000000000581B0000000000003E
:10D8F000401F00000000000028230000000000007E
:10D9000000000000000000001027000000000000E0
:10D91000204E0000000000003075000000000000F4
:10D92000409C00000000000050C300000000000008
:10D9300060EA00000000000070110100000000001B
:10D940008038010000000000905F0100000000002E
:10D950000000000000000000A086010000000000A0
:10D96000400D030000000000E093040000000000F0
:10D97000801A06000000000020A10700000000003F
:10D98000C02709000000000060AE0A00000000008F
:10D9900000350C0000000000A0BB0D0000000000DE
:10D9A000000000000000000040420F0000000000E6
:10D9B00080841E0000000000C0C62D000000000092
:10D9C00000093D0000000000404B4C00000000003A
:10D9D000808D5B0000000000C0CF6A0000000000E6
:10D9E00000127A000000000040548900000000008E
:10D9F0000000000000000000809698000000000079
:10DA0000002D31010000000080C3C90100000000AA
:10DA1000005A62020000000080F0FA0200000000DC
:10DA20000087930300000000801D2C04000000000C
:10DA300000B4C40400000000804A5D05000000003E
:10DA4000000000000000000000E1F50500000000FB
:10DA500000C2EB0B0000000000A3E1110000000079
:10DA60000084D717000000000065CD1D00000000F5
:10DA70000046C323000000000027B9290000000071
:10DA80000008AF2F0000000000E9A43500000000EE
:10DA9000000000000000000000CA9A3B00000000E7
:10DAA0000094357700000000005ED0B20000000056
:10DAB00000286BEE0000000000F2052A01000000C3
:10DAC00000BCA0650100000000863BA10100000031
:10DAD0000050D6DC01000000001A7118020000009E
:10DAE00072657475726E00005F636C73707472009F
:10DAF0005F5F657272436F64650000005F5F7379FA
:10DB0000734F7574000000003030303130323033E4
:10DB100030343035303630373038303931303131DB
:10DB200031323133313431353136313731383139C1
:10DB300032303231323232333234323532363237B9
:10DB4000323832393330333133323333333433359F
:10DB50003336333733383339343034313432343385
:10DB6000343434353436343734383439353035316B
:10DB70003532353335343535353635373538353951
:10DB80003630363136323633363436353636363749
:10DB9000363836393730373137323733373437352F
:10DBA0003736373737383739383038313832383315
:10DBB00038343835383638373838383939303931FB
:10DBC00039323933393439353936393739383939E1
:10DBD0006465657074680000256420524546202500
:10DBE000730A00002564204F50542025730A00005A
:10DBF00025642052554E2025730A000025642053C9
:10DC000054522025730A00002564204E554D2025CE
:10DC1000730A00002564204F55542025730A000024
:10DC200064697265637400006F70657261746F720D
:10DC30000000000073746D740000000072656600DF
:10DC40006E756D00626F74746F6D000030204A4D08
:10DC500050202D310A00000030205245540A0000A7
:10DC600030204A455A20320A0000000030204A4540
:10DC70005A20310A000000003020444546200000B0
:10DC800030204A4D5020310A0000000042000000C0
:10DC9000626C6F636B446565707468007768696C6B
:10DCA00065200000746F700065786974426C6F6362
:10DCB0006B0000007768696C65000000626C6F6340
:10DCC0006B0000006966200069660000726574756B
:10DCD000726E2000646566200000000064656600C6
:10DCE0006465636C656172004F5054005245460094
:10DCF0004E554D0052554E00535452004F5554004E
:10DD00004A4D50004A455A00444546005245540089
:10DD100025730D0A000000005B696E666F5D206967
:10DD20006E70757420636F6D6D6F6E643A2025732D
:10DD30000D0A0000547275650000000046616C73A6
:10DD4000650000002B0000002D0000002A000000EC
:10DD50002F0000003C0000003E0000003D3D0000A0
:10DD60005B6572726F725D2072756E6E65723A20BD
:10DD70006F626A656374206E6F20666F756E642EC5
:10DD8000000000005B6572726F725D2072756E6ECE
:10DD900065723A206D6574686F64206E6F20666FDF
:10DDA000756E642E000000005B6572726F725D20FC
:10DDB00072756E6E65723A2074797065206C697345
:10DDC00074206E6F20666F756E642E00F0FF79C44C
:10DDD000286B6ECE5B7072696E74427566665D25E7
:10DDE0007300000025660000256400003078256C73
:10DDF0006C7800005B6572726F725D3A204E6F2026
:10DE0000686561702073706163652120506C656185
:10DE10007365207265736574207468652064657627
:10DE20006963652E0D0A00004750494F28292D3E91
:10DE3000616E790053797328292D3E616E79000057
:10DE400043483332563130335F4750494F0000006A
:10DE500043483332563130335F537973000000004A
:10DE60006D73000064656C6179286D733A696E7436
:10DE7000290000004348333256313033000000009F
:10DE800050696B615374644C69620000646973612A
:10DE9000626C652829000000656E61626C65282946
:10DEA000000000006765744D6F646528292D3E737E
:10DEB0007472000067657450696E28292D3E737472
:10DEC000720000006869676828290000696E69743B
:10DED000282900006C6F77282900000072656164B2
:10DEE00028292D3E696E74007365744D6F64652832
:10DEF0006D6F64653A737472290000007365745025
:10DF0000696E2870696E4E616D653A73747229008E
:10DF100073657450756C6C2870756C6C3A737472A0
:10DF20002900000070696E4E616D65004D656D439E
:10DF30006865636B657228292D3E616E790000006B
:10DF40005379734F626A28292D3E616E7900000073
:10DF50006D617828290000006E6F77282900000085
:10DF600072657365744D61782829000050696B6192
:10DF70005374644C69625F4D656D436865636B659E
:10DF80007200000072656D6F76652861726750617E
:10DF900074683A73747229007479706528617267C5
:10DFA000506174683A7374722900000050696B61A3
:10DFB0005374644C69625F5379734F626A00000066
:10DFC000617267506174680070696B614D61696E60
:10DFD000000000000A6C6564203D2043483332563F
:10DFE0003130332E4750494F28290A6C65642E6919
:10DFF0006E697428290A6C65642E73657450696EA5
:10E00000282750413127290A6C65642E7365744DA9
:10E010006F646528276F757427290A6C65642E65FF
:10E020006E61626C6528290A6C65642E6869676890
:10E0300028290A737973203D204348333256313002
:10E04000332E53797328290A0A61203D20300A773C
:10E0500068696C652061203C2031303A0A2020201C
:10E060002061203D2061202B20310A202020206CBF
:10E0700065642E6869676828290A202020206C655D
:10E08000642E6C6F7728290A0A7072696E742827CB
:10E0900068656C6C6F2050696B6153637269707452
:10E0A0002127290A0A0A0A00286E756C6C290000CB
:10E0B0003C8EFFFF2E8DFFFF2E8DFFFF2C8DFFFF6F
:10E0C000348DFFFF348DFFFFFA8CFFFF2C8DFFFF97
:10E0D000348DFFFFFA8CFFFF348DFFFF2C8DFFFF87
:10E0E000288EFFFF288EFFFF288EFFFFFA8CFFFF90
:10E0F000EA9FFFFF109FFFFFE49FFFFF189FFFFFB6
:10E10000E49FFFFFDE9EFFFFE49FFFFF189FFFFFDE
:10E11000109FFFFF109FFFFFDE9EFFFF189FFFFF76
:10E120001E9FFFFF1E9FFFFF1E9FFFFFDE9EFFFF44
:10E13000D09EFFFFD09EFFFFA49FFFFF80A0FFFFA8
:10E14000A49FFFFF9E9EFFFFA49FFFFF80A0FFFFF5
:10E15000D09EFFFFD09EFFFF9E9EFFFF80A0FFFF8F
:10E16000DE9EFFFFDE9EFFFFDE9EFFFF9E9EFFFF07
:10E1700050A3FFFFA2A2FFFFA2A2FFFFA0A2FFFFEA
:10E18000A6A2FFFFA6A2FFFF76A2FFFFA0A2FFFFAD
:10E19000A6A2FFFF76A2FFFFA6A2FFFFA0A2FFFF9D
:10E1A0003EA3FFFF3EA3FFFF3EA3FFFF76A2FFFFBC
:10E1B000000102020303030304040404040404042E
:10E1C00005050505050505050505050505050505FF
:10E1D00006060606060606060606060606060606DF
:10E1E00006060606060606060606060606060606CF
:10E1F00007070707070707070707070707070707AF
:10E20000070707070707070707070707070707079E
:10E21000070707070707070707070707070707078E
:10E22000070707070707070707070707070707077E
:10E23000080808080808080808080808080808085E
:10E24000080808080808080808080808080808084E
:10E25000080808080808080808080808080808083E
:10E26000080808080808080808080808080808082E
:10E27000080808080808080808080808080808081E
:10E28000080808080808080808080808080808080E
:10E2900008080808080808080808080808080808FE
:10E2A00008080808080808080808080808080808EE
:10E2B00000AFFFFFECAEFFFF1EAFFFFF24AFFFFF7D
:10E2C00000AFFFFF00000000000000000000E03F82
:10E2D000000000000000F03F0000000000000040CF
:10E2E0000000C0FFFFFFDF419535A094FFFFDF3F37
:10E2F00035E5AF350000E03F9535A094FFFFCF3FF7
:10E300006E660000696E697479000000616E00003D
:10E3100035000000CEFBFFFFCB0300000100000032
:10E320000000000034000000CEFBFFFFCB03000024
:10E330000100000000000000BC89D897B2D29C3CCC
:10E3400033A7A8D523F649393DA7F444FD0FA532DC
:10E350009D978CCF08BA5B25436FAC642806681183
:10E3600000000000000000000000000000000000AD
:10E37000000000000000000000000000000000009D
:10E38000000000000000000000000000000000008D
:10E39000000000000000000000000000000000007D
:10E3A000000000000000000000000000000000006D
:10E3B000000000000000000000000000000000005D
:10E3C00043000000504F5349580000000000000077
:10E3D0000080E03779C34143176E05B5B5B8934661
:10E3E000F5F93FE9034F384D321D30F94877825A2D
:10E3F0003CBF737FDD4F1575000000000000F03F4B
:10E40000000000000000244000000000000059400F
:10E410000000000000408F40000000000088C34062
:10E4200000000000006AF8400000000080842E41D7
:10E4300000000000D01263410000000084D7974123
:10E440000000000065CDCD41000000205FA0024229
:10E45000000000E876483742000000A2941A6D429E
:10E46000000040E59C30A2420000901EC4BCD64291
:10E4700000003426F56B0C430080E03779C341433C
:10E4800000A0D8855734764300C84E676DC1AB43B2
:10E49000003D9160E458E143408CB5781DAF1544D0
:10E4A00050EFE2D6E41A4B4492D54D06CFF08044AB
:10E4B000F64AE1C7022DB544B49DD9794378EA44C0
:10E4C00005000000190000007D000000232D302B06
:10E4D00020000000686C4C006566674546470000F8
:10E4E000303132333435363738394142434445468A
:10E4F000000000003031323334353637383961624C
:10E500006364656600000000002020202020202099
:10E5100020202828282828202020202020202020D3
:10E5200020202020202020202088101010101010E3
:10E53000101010101010101010040404040404042F
:10E5400004040410101010101010414141414141C9
:10E5500001010101010101010101010101010101AB
:10E5600001010101101010101010424242424242BB
:10E57000020202020202020202020202020202027B
:10E580000202020210101010200000000000000023
:10E59000000000000000000000000000000000007B
:10E5A000000000000000000000000000000000006B
:10E5B000000000000000000000000000000000005B
:10E5C000000000000000000000000000000000004B
:10E5D000000000000000000000000000000000003B
:10E5E000000000000000000000000000000000002B
:10E5F000000000000000000000000000000000001B
:10E600000000000000000000000000009CE5FFFF8B
:10E6100020E4FFFF30E5FFFF38E5FFFF30E5FFFFB7
:10E6200050E4FFFF30E5FFFF38E5FFFF20E4FFFF88
:10E6300020E4FFFF50E4FFFF38E5FFFF92E5FFFF16
:10E6400092E5FFFF92E5FFFF50E4FFFF3405000075
:0CE650003C0500004005000038050000FB
:10E65C0001000000040000200400002078000000ED
:10E66C000A00000014000020140000202C00000000
:10E67C000000000000000000010203040607080966
:10E68C00000000000102030401020304060708094C
:10E69C000000000080E30000A0E3000060E3000045
:10E6AC00000000000000000000000000000000005E
:10E6BC00000000000000000000000000000000004E
:10E6CC00000000000000000000000000000000003E
:10E6DC00000000000000000000000000000000002E
:10E6EC00000000000000000000000000000000001E
:10E6FC0043000000000000000000000000000000CB
:10E70C0000000000000000000000000000000000FD
:10E71C0043000000000000000000000000000000AA
:10E72C0000000000000000000000000000000000DD
:10E73C00430000000000000000000000000000008A
:10E74C0000000000000000000000000000000000BD
:10E75C00430000000000000000000000000000006A
:10E76C00000000000000000000000000000000009D
:10E77C00430000000000000000000000000000004A
:10E78C00000000000000000000000000000000007D
:10E79C00430000000000000000000000000000002A
:10E7AC00000000000000000000000000000000005D
:10E7BC00430000000000000000000000000000000A
:10E7CC00000000000000000000000000000000003D
:10E7DC00D8BC000040A700000000000008E50000C5
:10E7EC0080D5000014DD000014DD000014DD0000F5
:10E7FC0014DD000014DD000014DD000014DD000049
:10E80C0014DD000014DD0000FFFFFFFFFFFFFFFF22
:10E81C00FFFFFFFFFFFF0000010041534349490088
:10E82C0000000000000000000000000000000000DC
:10E83C000000000000000000000041534349490063
:10E84C0000000000000000000000000000000000BC
:10E85C0000000000000000000000000000000000AC
:10E86C0000A24A04020406084000002040000020D8
:00000001FF
